{
	"data": {
		"bytecode": {
			"linkReferences": {},
			"object": "608060405260c8600d556010805461ffff191661a8c0179055662386f26fc100006011553480156200003057600080fd5b506040516200453738038062004537833981810160405260208110156200005657600080fd5b50516000805460ff191681558190670de0b6b3a764000090620000816001600160e01b036200012b16565b60008054610100600160a81b0319166101006001600160a01b038416908102919091178255604051929350917f8be0079c531659141344cd1fd0a4f28419497f9722a3daafe3b4186f6b6457e0908290a350620000e7826001600160e01b036200012f16565b620000fb816001600160e01b036200020716565b50620001129050816001600160e01b036200012f16565b50600680546001600160a01b03191633179055620002cc565b3390565b620001426001600160e01b036200012b16565b60005461010090046001600160a01b0390811691161462000199576040805162461bcd60e51b8152602060048201819052602482015260008051602062004517833981519152604482015290519081900360640190fd5b6001600160a01b038116620001e5576040805162461bcd60e51b815260206004820152600d60248201526c2bb937b733903830b93a3732b960991b604482015290519081900360640190fd5b600180546001600160a01b0319166001600160a01b0392909216919091179055565b6200021a6001600160e01b036200012b16565b60005461010090046001600160a01b0390811691161462000271576040805162461bcd60e51b8152602060048201819052602482015260008051602062004517833981519152604482015290519081900360640190fd5b60008111620002c7576040805162461bcd60e51b815260206004820152601560248201527f7468726573686f6c64206d757374206265203e20300000000000000000000000604482015290519081900360640190fd5b600255565b61423b80620002dc6000396000f3fe6080604052600436106104055760003560e01c80638bc4461811610213578063bbc9773e11610123578063ee03b9e1116100ab578063f5f3b7731161007a578063f5f3b77314610dc7578063f7cf0aa114610ddc578063fe1f6a0b14610e06578063fee445cc14610e32578063ff24ba7c14610e6b57610405565b8063ee03b9e114610d2f578063efc30e6914610d37578063f1da06b514610d61578063f2fde38b14610d9457610405565b8063cb93f7ef116100f2578063cb93f7ef14610c70578063cbe93c6114610c85578063d697739214610cd2578063e03964aa14610ce7578063e1b740a014610d1a57610405565b8063bbc9773e14610bff578063be10862b14610c1c578063bf7f710514610c31578063c8d6025914610c5b57610405565b8063a517622d116101a6578063adc6d4e711610175578063adc6d4e714610b5d578063afa74c5b14610b87578063afb5d68b14610b9c578063b04b83d514610bd5578063b28b954914610bea57610405565b8063a517622d14610ab8578063a756cc0d14610acd578063a90f736514610af7578063a9e4aee514610b2a57610405565b80639960c852116101e25780639960c85214610a365780639f099c2814610a53578063a28d5b8314610a68578063a4b4b85114610a9b57610405565b80638bc44618146109e25780638da5cb5b146109f757806395bb438914610a0c5780639619367d14610a2157610405565b80634b39df83116103195780637245fbb2116102a15780637b503668116102705780637b5036681461094657806382efb3081461095b57806383725b0e1461098e5780638446596e146109a35780638456cb59146109cd57610405565b80637245fbb2146108c45780637418efeb146108d957806377b00c01146108ee578063780d24561461091c57610405565b806359cf5bd6116102e857806359cf5bd6146107fd5780635c975abb146108275780635f9edc851461085057806365ab31b314610883578063715018a6146108af57610405565b80634b39df831461078b5780634cd1e0eb146107a05780634dc5e4d3146107d357806351be96ea146107e857610405565b80632bcac3041161039c578063401f46631161036b578063401f46631461068957806340861c1d146106bc57806341c0e1b51461070e5780634397211314610723578063443c30631461075857610405565b80632bcac304146106205780633689e1db1461064a5780633b3dca761461065f5780633f4ba83a1461067457610405565b80631214e31e116103d85780631214e31e1461055057806316f992111461057c578063173608e7146105a65780631af37971146105bb57610405565b806304a57c091461040a578063072689ec14610450578063117a5b901461049557806311a155e31461053b575b600080fd5b34801561041657600080fd5b506104346004803603602081101561042d57600080fd5b5035610e9e565b604080516001600160a01b039092168252519081900360200190f35b34801561045c57600080fd5b506104836004803603602081101561047357600080fd5b50356001600160a01b0316610ec5565b60408051918252519081900360200190f35b3480156104a157600080fd5b506104bf600480360360208110156104b857600080fd5b5035610ed7565b604080519c15158d5260ff9b8c1660208e015299909a168b8a015260608b019790975260808a019590955260a089019390935260c08801919091526001600160a01b0390811660e08801529081166101008701529081166101208601529081166101408501529190911661016083015251908190036101800190f35b34801561054757600080fd5b50610483610f4b565b34801561055c57600080fd5b5061057a6004803603602081101561057357600080fd5b5035610f51565b005b34801561058857600080fd5b5061057a6004803603602081101561059f57600080fd5b50356110bb565b3480156105b257600080fd5b5061057a6113c3565b3480156105c757600080fd5b506105d06114ae565b60408051602080825283518183015283519192839290830191858101910280838360005b8381101561060c5781810151838201526020016105f4565b505050509050019250505060405180910390f35b34801561062c57600080fd5b5061057a6004803603602081101561064357600080fd5b5035611511565b34801561065657600080fd5b50610483611877565b34801561066b57600080fd5b5061048361187d565b34801561068057600080fd5b5061057a611913565b34801561069557600080fd5b5061057a600480360360208110156106ac57600080fd5b50356001600160a01b031661197a565b3480156106c857600080fd5b506106e6600480360360208110156106df57600080fd5b5035611a44565b604080516001600160a01b039094168452602084019290925282820152519081900360600190f35b34801561071a57600080fd5b5061057a611a7e565b61057a6004803603606081101561073957600080fd5b50803590602081013560ff1690604001356001600160a01b0316611adf565b34801561076457600080fd5b506104836004803603602081101561077b57600080fd5b50356001600160a01b0316611f73565b34801561079757600080fd5b50610483611f85565b3480156107ac57600080fd5b506105d0600480360360208110156107c357600080fd5b50356001600160a01b0316611f8b565b3480156107df57600080fd5b50610483611ff7565b3480156107f457600080fd5b50610483611ffd565b34801561080957600080fd5b5061057a6004803603602081101561082057600080fd5b5035612003565b34801561083357600080fd5b5061083c6121eb565b604080519115158252519081900360200190f35b34801561085c57600080fd5b506104836004803603602081101561087357600080fd5b50356001600160a01b03166121f4565b34801561088f57600080fd5b50610898612206565b6040805161ffff9092168252519081900360200190f35b3480156108bb57600080fd5b5061057a612210565b3480156108d057600080fd5b506104836122bc565b3480156108e557600080fd5b5061083c6122c2565b3480156108fa57600080fd5b5061057a6004803603602081101561091157600080fd5b503561ffff166122e0565b34801561092857600080fd5b5061057a6004803603602081101561093f57600080fd5b503561239e565b34801561095257600080fd5b5061048361244d565b34801561096757600080fd5b506104836004803603602081101561097e57600080fd5b50356001600160a01b0316612453565b34801561099a57600080fd5b50610434612465565b3480156109af57600080fd5b5061057a600480360360208110156109c657600080fd5b5035612474565b3480156109d957600080fd5b5061057a61251b565b3480156109ee57600080fd5b50610483612580565b348015610a0357600080fd5b50610434612586565b348015610a1857600080fd5b5061048361259a565b348015610a2d57600080fd5b506104836125a0565b61057a60048036036020811015610a4c57600080fd5b50356125a6565b348015610a5f57600080fd5b5061048361281e565b348015610a7457600080fd5b5061048360048036036020811015610a8b57600080fd5b50356001600160a01b0316612824565b61057a60048036036020811015610ab157600080fd5b5035612836565b348015610ac457600080fd5b50610483612a35565b348015610ad957600080fd5b5061083c60048036036020811015610af057600080fd5b5035612a3b565b348015610b0357600080fd5b506105d060048036036020811015610b1a57600080fd5b50356001600160a01b0316612a81565b348015610b3657600080fd5b5061048360048036036020811015610b4d57600080fd5b50356001600160a01b0316612b35565b348015610b6957600080fd5b5061083c60048036036020811015610b8057600080fd5b5035612b46565b348015610b9357600080fd5b5061057a612b90565b348015610ba857600080fd5b5061048360048036036040811015610bbf57600080fd5b506001600160a01b038135169060200135612c7e565b348015610be157600080fd5b50610483612cac565b348015610bf657600080fd5b5061057a612cb3565b61057a60048036036020811015610c1557600080fd5b5035612e94565b348015610c2857600080fd5b50610434613012565b348015610c3d57600080fd5b5061048360048036036020811015610c5457600080fd5b5035613021565b348015610c6757600080fd5b50610483613035565b348015610c7c57600080fd5b5061057a61303b565b348015610c9157600080fd5b50610c9a613110565b604051808260a080838360005b83811015610cbf578181015183820152602001610ca7565b5050505090500191505060405180910390f35b348015610cde57600080fd5b5061048361314b565b348015610cf357600080fd5b5061048360048036036020811015610d0a57600080fd5b50356001600160a01b0316613151565b348015610d2657600080fd5b5061057a613163565b61057a6131f2565b348015610d4357600080fd5b5061083c60048036036020811015610d5a57600080fd5b5035613210565b348015610d6d57600080fd5b5061048360048036036020811015610d8457600080fd5b50356001600160a01b0316613225565b348015610da057600080fd5b5061057a60048036036020811015610db757600080fd5b50356001600160a01b0316613237565b348015610dd357600080fd5b5061048361333f565b348015610de857600080fd5b5061057a60048036036020811015610dff57600080fd5b5035613345565b61057a60048036036040811015610e1c57600080fd5b50803590602001356001600160a01b03166133e8565b348015610e3e57600080fd5b5061057a60048036036060811015610e5557600080fd5b5080359060ff60208201351690604001356136f0565b348015610e7757600080fd5b5061048360048036036020811015610e8e57600080fd5b50356001600160a01b0316613ac8565b600e8181548110610eab57fe5b6000918252602090912001546001600160a01b0316905081565b601b6020526000908152604090205481565b601960205260009081526040902080546001820154600283015460038401546004850154600586015460068701546007880154600889015460099099015460ff808a169a6101008b0482169a62010000900490911698979695946001600160a01b039081169481169381169291811691168c565b60075481565b60008181526019602052604090206005015481906001600160a01b03163314610faf576040805162461bcd60e51b815260206004820152600b60248201526a2737ba1031b932b0ba37b960a91b604482015290519081900360640190fd5b81610fb981613210565b15610ffc576040805162461bcd60e51b815260206004820152600e60248201526d11d85b59481a5cc81c185d5cd95960921b604482015290519081900360640190fd5b60008381526019602052604090206006015483906001600160a01b03161561105a576040805162461bcd60e51b815260206004820152600c60248201526b12185cc81bdc1c1bdb995b9d60a21b604482015290519081900360640190fd5b6000848152601960205260409020805460ff1916600117905561107c84612a3b565b1561108a5761108a84613ada565b60405184907f700ef9560b7219bf268df827c61f5ae3323824a8b032726685696bdcfbe785b790600090a250505050565b600081815260196020526040902060058101546001600160a01b03163314806110f0575060068101546001600160a01b031633145b611135576040805162461bcd60e51b81526020600482015260116024820152702737ba10309033b0b6b290383630bcb2b960791b604482015290519081900360640190fd5b60078101546001600160a01b031615611182576040805162461bcd60e51b815260206004820152600a6024820152692430b9903bb4b73732b960b11b604482015290519081900360640190fd5b60068101546001600160a01b03163314156111dc576111a082612b46565b156111dc576040805162461bcd60e51b8152602060048201526007602482015266115e1c1a5c995960ca1b604482015290519081900360640190fd5b60058101546001600160a01b031633148015611204575060068101546001600160a01b031615155b156112605760068101546007820180546001600160a01b039283166001600160a01b03199182161791829055600e80546001810182556000919091526000805160206141a58339815191520180549290931691161790556112fa565b60068101546001600160a01b03163314156112cc5760058101546007820180546001600160a01b039283166001600160a01b03199182161791829055600e80546001810182556000919091526000805160206141a58339815191520180549290931691161790556112fa565b60006112d6612586565b6007830180546001600160a01b0319166001600160a01b0392909216919091179055505b60078101546001600160a01b03166000908152601d602090815260408220805460018181018355918452919092200183905560185461133e9163ffffffff613bb916565b6018556005810180546001600160a01b039081166000908152601a6020908152604080832083905560068601805485168452601b8352818420939093559154935460078601548351908516815292519484169493169286927fb2d5361fc25bf5f72935b7dada9ef5aa3220aa1a8d72e922475140798153ae1092908290030190a45050565b33600090815260208052604090205480611416576040805162461bcd60e51b815260206004820152600f60248201526e4e6f20726566657272616c2066656560881b604482015290519081900360640190fd5b336000908152602080805260408083208390556021909152902054611441908263ffffffff613bb916565b33600081815260216020526040808220939093559151909183156108fc02918491818181858888f1935050505015801561147f573d6000803e3d6000fd5b5060405133907fd20500ebc366bc59a5ec7044b7c82d3fed0d725dba0429ae6c20a56ee15cea9290600090a250565b6060600e80548060200260200160405190810160405280929190818152602001828054801561150657602002820191906000526020600020905b81546001600160a01b031681526001909101906020018083116114e8575b505050505090505b90565b60008111611556576040805162461bcd60e51b815260206004820152600d60248201526c05f6d61784c6f6f70203d3d203609c1b604482015290519081900360640190fd5b336000908152601d6020526040902080546115a5576040805162461bcd60e51b815260206004820152600a6024820152696e6f2070656e64696e6760b01b604482015290519081900360640190fd5b80548211156115ee576040805162461bcd60e51b815260206004820152601060248201526f5f6d61784c6f6f7020746f6f2062696760801b604482015290519081900360640190fd5b6000805b83811015611741578254600090849061161290600163ffffffff613c1c16565b8154811061161c57fe5b600091825260208083209190910154808352601990915260408220600581015491935091906001600160a01b031633146116635760098201546001600160a01b0316611672565b60088201546001600160a01b03165b9050600061169f606461169360018660020154613c5e90919063ffffffff16565b9063ffffffff613cb716565b6001600160a01b03831660009081526020805260409020549091506116ca908263ffffffff613bb916565b6001600160a01b03831660009081526020805260409020556023546116f5908263ffffffff613bb916565b602355600283015461170e90879063ffffffff613bb916565b95508680548061171a57fe5b600190038181906000526020600020016000905590555050505080806001019150506115f2565b50336000908152601f6020526040902054611762908263ffffffff613bb916565b336000908152601f602052604081209190915561178b606461169384600163ffffffff613c5e16565b6003549091506117a1908263ffffffff613bb916565b600355600b546117b7908263ffffffff613bb916565b600b556022546117cd908263ffffffff613bb916565b6022556117d981613cf9565b600061180c836118006117f385600563ffffffff613c5e16565b869063ffffffff613c1c16565b9063ffffffff613bb916565b604051909150339082156108fc029083906000818181858888f1935050505015801561183c573d6000803e3d6000fd5b50611845613d4a565b60405133907ff66e3f979648b506dd345b50ca1b3efbdc116887cd67c37de409d3bd8e4995b090600090a25050505050565b600d5481565b600e546000906118c6576040805162461bcd60e51b815260206004820152600f60248201526e4e6f207061727469636970616e747360881b604482015290519081900360640190fd5b600e54600b5460408051426020808301919091524482840152606082019390935260808082018590528251808303909101815260a090910190915280519101208161190d57fe5b06905090565b61191b613df5565b60005461010090046001600160a01b03908116911614611970576040805162461bcd60e51b815260206004820181905260248201526000805160206141e6833981519152604482015290519081900360640190fd5b611978613df9565b565b611982613df5565b60005461010090046001600160a01b039081169116146119d7576040805162461bcd60e51b815260206004820181905260248201526000805160206141e6833981519152604482015290519081900360640190fd5b6001600160a01b038116611a22576040805162461bcd60e51b815260206004820152600d60248201526c2bb937b733903830b93a3732b960991b604482015290519081900360640190fd5b600180546001600160a01b0319166001600160a01b0392909216919091179055565b600f8181548110611a5157fe5b60009182526020909120600390910201805460018201546002909201546001600160a01b03909116925083565b611a86613df5565b60005461010090046001600160a01b03908116911614611adb576040805162461bcd60e51b815260206004820181905260248201526000805160206141e6833981519152604482015290519081900360640190fd5b3380ff5b60005460ff1615611b2a576040805162461bcd60e51b815260206004820152601060248201526f14185d5cd8589b194e881c185d5cd95960821b604482015290519081900360640190fd5b336000908152601b602052604090205415611b82576040805162461bcd60e51b81526020600482015260136024820152724e6f206d6f7265206f70706f6e656e74696e6760681b604482015290519081900360640190fd5b806001600160a01b038116331415611bd2576040805162461bcd60e51b815260206004820152600e60248201526d15dc9bdb99c81c9959995c9c985b60921b604482015290519081900360640190fd5b83611bdc81613210565b15611c1f576040805162461bcd60e51b815260206004820152600e60248201526d11d85b59481a5cc81c185d5cd95960921b604482015290519081900360640190fd5b6000858152601960205260409020600260ff861610611c77576040805162461bcd60e51b815260206004820152600f60248201526e57726f6e6720636f696e207369646560881b604482015290519081900360640190fd5b60058101546001600160a01b0316611ccd576040805162461bcd60e51b8152602060048201526014602482015273139bc819d85b59481dda5d1a081cdd58da081a5960621b604482015290519081900360640190fd5b60058101546001600160a01b0316331415611d1c576040805162461bcd60e51b815260206004820152600a60248201526924b99031b932b0ba37b960b11b604482015290519081900360640190fd5b60068101546001600160a01b031615611d70576040805162461bcd60e51b815260206004820152601160248201527011d85b59481a185cc81bdc1c1bdb995b9d607a1b604482015290519081900360640190fd5b60078101546001600160a01b031615611dc2576040805162461bcd60e51b815260206004820152600f60248201526e23b0b6b2903430b9903bb4b73732b960891b604482015290519081900360640190fd5b34816002015414611e06576040805162461bcd60e51b815260206004820152600960248201526815dc9bdb99c818995d60ba1b604482015290519081900360640190fd5b6006810180546001600160a01b03191633179055805460ff8616620100000262ff0000199091161781554260038201556001600160a01b03841615611e7557600086815260196020526040902060090180546001600160a01b0319166001600160a01b03861617905583611ea8565b611e7d612586565b600087815260196020526040902060090180546001600160a01b0319166001600160a01b0383161790555b50602454611ebc903463ffffffff613bb916565b602455336000908152601e6020526040902054611edf903463ffffffff613bb916565b336000908152601e6020908152604080832093909355601b8152828220899055601c8152918120805460018101825590825291902001869055611f2186612a3b565b15611f2f57611f2f86613ada565b600581015460405133916001600160a01b03169088907fcf247107fd467ee49df2d0a3f04db0dde0cf701e3d4611d03cc7d0ac96f9049090600090a4505050505050565b60086020526000908152604090205481565b600f5490565b6001600160a01b0381166000908152601d6020908152604091829020805483518184028101840190945280845260609392830182828015611feb57602002820191906000526020600020905b815481526020019060010190808311611fd7575b50505050509050919050565b60045481565b600b5481565b600081815260196020526040902060068101546001600160a01b03163314612061576040805162461bcd60e51b815260206004820152600c60248201526b139bdd081bdc1c1bdb995b9d60a21b604482015290519081900360640190fd5b60078101546001600160a01b0316156120ae576040805162461bcd60e51b815260206004820152600a6024820152692430b9903bb4b73732b960b11b604482015290519081900360640190fd5b6120b782612b46565b6120fa576040805162461bcd60e51b815260206004820152600f60248201526e139bdd081e595d08195e1c1a5c9959608a1b604482015290519081900360640190fd5b600781018054336001600160a01b031991821681179092556000828152601d602090815260408220805460018181018355918452918320909101869055600e8054808301825592526000805160206141a58339815191529091018054909216909217905560185461216a91613bb9565b6018556005810180546001600160a01b039081166000908152601a60209081526040808320839055338352601b8252808320929092556006850154935460078601548351908516815292519484169493169286927f6e530d1f81c10976edecfd724ddf372347424ed7e3066073547a6438a09670fe92908290030190a45050565b60005460ff1690565b601e6020526000908152604090205481565b60105461ffff1681565b612218613df5565b60005461010090046001600160a01b0390811691161461226d576040805162461bcd60e51b815260206004820181905260248201526000805160206141e6833981519152604482015290519081900360640190fd5b600080546040516101009091046001600160a01b0316907f8be0079c531659141344cd1fd0a4f28419497f9722a3daafe3b4186f6b6457e0908390a360008054610100600160a81b0319169055565b60245481565b600d54600e54600091118015906122db57506000600b54115b905090565b6122e8613df5565b60005461010090046001600160a01b0390811691161461233d576040805162461bcd60e51b815260206004820181905260248201526000805160206141e6833981519152604482015290519081900360640190fd5b60008161ffff1611612386576040805162461bcd60e51b815260206004820152600d60248201526c053686f756c64206265203e203609c1b604482015290519081900360640190fd5b6010805461ffff191661ffff92909216919091179055565b6123a6613df5565b60005461010090046001600160a01b039081169116146123fb576040805162461bcd60e51b815260206004820181905260248201526000805160206141e6833981519152604482015290519081900360640190fd5b60008111612448576040805162461bcd60e51b815260206004820152601560248201527407468726573686f6c64206d757374206265203e203605c1b604482015290519081900360640190fd5b600255565b60235481565b60096020526000908152604090205481565b6006546001600160a01b031681565b61247c613df5565b60005461010090046001600160a01b039081169116146124d1576040805162461bcd60e51b815260206004820181905260248201526000805160206141e6833981519152604482015290519081900360640190fd5b60008111612516576040805162461bcd60e51b815260206004820152600d60248201526c053686f756c64206265203e203609c1b604482015290519081900360640190fd5b600d55565b612523613df5565b60005461010090046001600160a01b03908116911614612578576040805162461bcd60e51b815260206004820181905260248201526000805160206141e6833981519152604482015290519081900360640190fd5b611978613e97565b60225481565b60005461010090046001600160a01b031690565b60025481565b60115481565b60008181526019602052604090206005015481906001600160a01b03163314612604576040805162461bcd60e51b815260206004820152600b60248201526a2737ba1031b932b0ba37b960a91b604482015290519081900360640190fd5b60008281526019602052604090206006015482906001600160a01b031615612662576040805162461bcd60e51b815260206004820152600c60248201526b12185cc81bdc1c1bdb995b9d60a21b604482015290519081900360640190fd5b60115434146126a4576040805162461bcd60e51b815260206004820152600960248201526857726f6e672066656560b81b604482015290519081900360640190fd5b6012548314156126ed576040805162461bcd60e51b815260206004820152600f60248201526e546f7020696e20546f7047616d657360881b604482015290519081900360640190fd5b6126f56140ee565b6040518060a0016040528085815260200160008152602001600081526020016000815260200160008152509050600080600090505b60048160ff1610156127af578560128260ff166005811061274757fe5b0154148015612754575081155b1561275e57600191505b8161277a5760128160ff166005811061277357fe5b0154612790565b60128160010160ff166005811061278d57fe5b01545b838260010160ff16600581106127a257fe5b602002015260010161272a565b506127bd601283600561410c565b506022546127d1903463ffffffff613bb916565b6022556024546127e7903463ffffffff613bb916565b602455604051339086907f27850eb52960ae0f343455f87b489c819bb4fdaea63d6968aa19dba5adf2991e90600090a35050505050565b600c5481565b601f6020526000908152604090205481565b60005460ff1615612881576040805162461bcd60e51b815260206004820152601060248201526f14185d5cd8589b194e881c185d5cd95960821b604482015290519081900360640190fd5b60008181526019602052604090206005015481906001600160a01b031633146128df576040805162461bcd60e51b815260206004820152600b60248201526a2737ba1031b932b0ba37b960a91b604482015290519081900360640190fd5b60008281526019602052604090206006015482906001600160a01b03161561293d576040805162461bcd60e51b815260206004820152600c60248201526b12185cc81bdc1c1bdb995b9d60a21b604482015290519081900360640190fd5b60003411612989576040805162461bcd60e51b81526020600482015260146024820152730696e637265617365206d757374206265203e20360641b604482015290519081900360640190fd5b336000908152601e60205260409020546129a9903463ffffffff613bb916565b336000908152601e60209081526040808320939093558582526019905220600201546129db903463ffffffff613bb916565b600084815260196020526040902060020155602454612a00903463ffffffff613bb916565b602455604051339084907f040c8e41157c3ece3442654816da3e471438e15288a88faa65a51271a10238f990600090a3505050565b60055481565b6000805b60058160ff161015612a76578260128260ff1660058110612a5c57fe5b01541415612a6e576001915050612a7c565b600101612a3f565b50600090505b919050565b60606001600160a01b038216612acd576040805162461bcd60e51b815260206004820152600c60248201526b043616e6e74206265203078360a41b604482015290519081900360640190fd5b6001600160a01b0382166000908152601c602090815260409182902080548351818402810184019094528084529091830182828015611feb5760200282019190600052602060002090815481526020019060010190808311611fd75750505050509050919050565b602080526000908152604090205481565b60008181526019602052604081206003015415612a7c576010546000838152601960205260409020600301544291612b88919061ffff1663ffffffff613bb916565b109050612a7c565b3360009081526009602052604090205480612be4576040805162461bcd60e51b815260206004820152600f60248201526e4e6f20726166666c65207072697a6560881b604482015290519081900360640190fd5b336000908152600960209081526040808320839055600a909152902054612c11908263ffffffff613bb916565b336000818152600a6020526040808220939093559151909183156108fc02918491818181858888f19350505050158015612c4f573d6000803e3d6000fd5b5060405133907f41f36e3513afe9499e34441f572f2e84284a9ae1416882252929b6b7c72a308990600090a250565b601d6020528160005260406000208181548110612c9757fe5b90600052602060002001600091509150505481565b6213c68081565b612cbb6122c2565b612d02576040805162461bcd60e51b8152602060048201526013602482015272149859999b1948084f481858dd1a5d985d1959606a1b604482015290519081900360640190fd5b6000612d0c61187d565b9050612d56600b5460096000600e8581548110612d2557fe5b60009182526020808320909101546001600160a01b031683528201929092526040019020549063ffffffff613bb916565b60096000600e8481548110612d6757fe5b60009182526020808320909101546001600160a01b03168352820192909252604001902055600b54600c54612da19163ffffffff613bb916565b600c81905550600f6040518060600160405280600e8481548110612dc157fe5b6000918252602080832091909101546001600160a01b039081168452600b8054858401524260409586015286546001808201895597855293839020865160039095020180546001600160a01b03191694909216939093178155908401519481019490945591015160029092019190915554600e805483908110612e4057fe5b60009182526020822001546040516001600160a01b03909116917f3fcb6936a4c5aa28446d2519ebc71d8ce9f21cd4ecd4a6b362cdc9d403108ec291a3600b60009055600e6000612e91919061414a565b50565b60008181526019602052604090206005015481906001600160a01b03163314612ef2576040805162461bcd60e51b815260206004820152600b60248201526a2737ba1031b932b0ba37b960a91b604482015290519081900360640190fd5b81612efc81613210565b612f42576040805162461bcd60e51b815260206004820152601260248201527111d85b59481a5cc81b9bdd081c185d5cd95960721b604482015290519081900360640190fd5b6011543414612f84576040805162461bcd60e51b815260206004820152600960248201526857726f6e672066656560b81b604482015290519081900360640190fd5b6000838152601960205260409020805460ff19169055602254612fad903463ffffffff613bb916565b602255602454612fc3903463ffffffff613bb916565b6024556000838152601960205260408082206005015490516001600160a01b039091169185917ff0b0a4baf8f4fd56bb7663286eb293a4201e771c238bc79cfc108e6abc2abbbb9190a3505050565b6001546001600160a01b031681565b6012816005811061302e57fe5b0154905081565b60035481565b613043613df5565b60005461010090046001600160a01b03908116911614613098576040805162461bcd60e51b815260206004820181905260248201526000805160206141e6833981519152604482015290519081900360640190fd5b602254806130da576040805162461bcd60e51b815260206004820152600a6024820152694e6f206465762066656560b01b604482015290519081900360640190fd5b60006022819055604051339183156108fc02918491818181858888f1935050505015801561310c573d6000803e3d6000fd5b5050565b6131186140ee565b6040805160a08101918290529060129060059082845b81548152602001906001019080831161312e575050505050905090565b60175481565b601a6020526000908152604090205481565b33600090815260086020526040902054806131ae576040805162461bcd60e51b81526020600482015260066024820152654e6f2066656560d01b604482015290519081900360640190fd5b336000818152600860205260408082208290555183156108fc0291849190818181858888f193505050501580156131e9573d6000803e3d6000fd5b50612e91613f18565b602454613205903463ffffffff613bb916565b602455611978613f91565b60009081526019602052604090205460ff1690565b60216020526000908152604090205481565b61323f613df5565b60005461010090046001600160a01b03908116911614613294576040805162461bcd60e51b815260206004820181905260248201526000805160206141e6833981519152604482015290519081900360640190fd5b6001600160a01b0381166132d95760405162461bcd60e51b815260040180806020018281038252602681526020018061417f6026913960400191505060405180910390fd5b600080546040516001600160a01b038085169361010090930416917f8be0079c531659141344cd1fd0a4f28419497f9722a3daafe3b4186f6b6457e091a3600080546001600160a01b0390921661010002610100600160a81b0319909216919091179055565b60185481565b61334d613df5565b60005461010090046001600160a01b039081169116146133a2576040805162461bcd60e51b815260206004820181905260248201526000805160206141e6833981519152604482015290519081900360640190fd5b600081116133e3576040805162461bcd60e51b815260206004820152600960248201526815dc9bdb99c818995d60ba1b604482015290519081900360640190fd5b601155565b60005460ff1615613433576040805162461bcd60e51b815260206004820152601060248201526f14185d5cd8589b194e881c185d5cd95960821b604482015290519081900360640190fd5b336000908152601a602052604090205415613488576040805162461bcd60e51b815260206004820152601060248201526f4e6f206d6f7265206372656174696e6760801b604482015290519081900360640190fd5b6011543410156134cb576040805162461bcd60e51b815260206004820152600960248201526815dc9bdb99c818995d60ba1b604482015290519081900360640190fd5b806001600160a01b03811633141561351b576040805162461bcd60e51b815260206004820152600e60248201526d15dc9bdb99c81c9959995c9c985b60921b604482015290519081900360640190fd5b8260001a60f81b6001600160f81b03191661356a576040805162461bcd60e51b815260206004820152600a60248201526908adae0e8f240d0c2e6d60b31b604482015290519081900360640190fd5b601780546000818152601960205260408082206001810193909355600590920180546001600160a01b0319163317905582548152818120346002909101559154825290206004018390556001600160a01b038216156135f657601754600090815260196020526040902060080180546001600160a01b0319166001600160a01b0384161790558161362c565b6135fe612586565b601754600090815260196020526040902060080180546001600160a01b0319166001600160a01b0383161790555b50336000908152601e602052604090205461364d903463ffffffff613bb916565b336000908152601e6020526040902055602454613670903463ffffffff613bb916565b60245560178054336000818152601a60209081526040808320859055601c82528083208054600181018255908452918320909101939093559254915134939192917f2f96aa00c72dd004da6bbd1a2d56762ee5a3504189732da096d9f75b41e2e46f91a46017546136e890600163ffffffff613bb916565b601755505050565b60005460ff161561373b576040805162461bcd60e51b815260206004820152601060248201526f14185d5cd8589b194e881c185d5cd95960821b604482015290519081900360640190fd5b60008381526019602052604090206005015483906001600160a01b03163314613799576040805162461bcd60e51b815260206004820152600b60248201526a2737ba1031b932b0ba37b960a91b604482015290519081900360640190fd5b6000848152601960205260409020600260ff8516106137f1576040805162461bcd60e51b815260206004820152600f60248201526e57726f6e6720636f696e207369646560881b604482015290519081900360640190fd5b60068101546001600160a01b031661383e576040805162461bcd60e51b815260206004820152600b60248201526a139bc81bdc1c1bdb995b9d60aa1b604482015290519081900360640190fd5b60078101546001600160a01b031615613890576040805162461bcd60e51b815260206004820152600f60248201526e23b0b6b2903430b9903bb4b73732b960891b604482015290519081900360640190fd5b61389985612b46565b156138d5576040805162461bcd60e51b8152602060048201526007602482015266115e1c1a5c995960ca1b604482015290519081900360640190fd5b80600401548460ff168460405160200180838152602001828152602001925050506040516020818303038152906040528051906020012014613951576040805162461bcd60e51b815260206004820152601060248201526f57726f6e6720686173682076616c756560801b604482015290519081900360640190fd5b805460ff8581166201000090920416146139785760058101546001600160a01b0316613987565b60068101546001600160a01b03165b6007820180546001600160a01b039283166001600160a01b03199182161791829055835460ff88166101000261ff00199091161784559082166000908152601d6020908152604082208054600181810183559184529183209091018990556005850154600e80548084018255938190526000805160206141a58339815191529384018054861692871692909217909155600686015481548084019092559201805490931691909316179055601854613a449163ffffffff613bb916565b601855336000908152601a602090815260408083208390556006840180546001600160a01b039081168552601b845282852094909455546005850154600786015483519086168152925191851694169289927f3e3f32c9ed40ee6dd4ba80907e69c64b4b877cd4f201f588d416fb1e1a4bc29c929081900390910190a45050505050565b600a6020526000908152604090205481565b613ae26140ee565b6000805b6005811015613b65578360128260058110613afd57fe5b01541415613b0e5760019150613b5d565b8115613b3c5760128160058110613b2157fe5b0154836001830360058110613b3257fe5b6020020152613b5d565b60128160058110613b4957fe5b0154838260058110613b5757fe5b60200201525b600101613ae6565b5080613ba6576040805162461bcd60e51b815260206004820152600b60248201526a4e6f7420546f7047616d6560a81b604482015290519081900360640190fd5b613bb3601283600561410c565b50505050565b600082820183811015613c13576040805162461bcd60e51b815260206004820152601b60248201527f536166654d6174683a206164646974696f6e206f766572666c6f770000000000604482015290519081900360640190fd5b90505b92915050565b6000613c1383836040518060400160405280601e81526020017f536166654d6174683a207375627472616374696f6e206f766572666c6f770000815250613ff2565b600082613c6d57506000613c16565b82820282848281613c7a57fe5b0414613c135760405162461bcd60e51b81526004018080602001828103825260218152602001806141c56021913960400191505060405180910390fd5b6000613c1383836040518060400160405280601a81526020017f536166654d6174683a206469766973696f6e206279207a65726f000000000000815250614089565b613d01613f18565b6006546001600160a01b0316600090815260086020526040902054613d2c908263ffffffff613bb916565b6006546001600160a01b031660009081526008602052604090205550565b6002546003541061197857600380546000909155600454613d71908263ffffffff613bb916565b6004556001546040516001600160a01b039091169082156108fc029083906000818181858888f19350505050158015613dae573d6000803e3d6000fd5b5060015460408051308152905183926001600160a01b0316917feea88262d89f946cfd575393481b34aedd68aabbe9cb764357a15b1e0226e861919081900360200190a350565b3390565b60005460ff16613e47576040805162461bcd60e51b815260206004820152601460248201527314185d5cd8589b194e881b9bdd081c185d5cd95960621b604482015290519081900360640190fd5b6000805460ff191690557f5db9ee0a495bf2e6ff9c91a7834c1ba4fdd244a5e8aa4e537bd38aeae4b073aa613e7a613df5565b604080516001600160a01b039092168252519081900360200190a1565b60005460ff1615613ee2576040805162461bcd60e51b815260206004820152601060248201526f14185d5cd8589b194e881c185d5cd95960821b604482015290519081900360640190fd5b6000805460ff191660011790557f62e78cea01bee320cd4e420270b5ea74000d11b0c9f74754ebdbfc544b05a258613e7a613df5565b613f20612586565b6006546001600160a01b0390811691161415613f3b57611978565b6213c680613f5460075442613c1c90919063ffffffff16565b1115611978576000613f64612586565b600680546001600160a01b0319166001600160a01b03929092169190911790555060006007819055600555565b6005543411613fd6576040805162461bcd60e51b815260206004820152600c60248201526b15dc9bdb99c8185b5bdd5b9d60a21b604482015290519081900360640190fd5b34600555600680546001600160a01b0319163317905542600755565b600081848411156140815760405162461bcd60e51b81526004018080602001828103825283818151815260200191508051906020019080838360005b8381101561404657818101518382015260200161402e565b50505050905090810190601f1680156140735780820380516001836020036101000a031916815260200191505b509250505060405180910390fd5b505050900390565b600081836140d85760405162461bcd60e51b815260206004820181815283516024840152835190928392604490910191908501908083836000831561404657818101518382015260200161402e565b5060008385816140e457fe5b0495945050505050565b6040518060a001604052806005906020820280388339509192915050565b826005810192821561413a579160200282015b8281111561413a57825182559160200191906001019061411f565b50614146929150614164565b5090565b5080546000825590600052602060002090810190612e9191905b61150e91905b80821115614146576000815560010161416a56fe4f776e61626c653a206e6577206f776e657220697320746865207a65726f2061646472657373bb7b4a454dc3493923482f07822329ed19e8244eff582cc204f8554c3620c3fd536166654d6174683a206d756c7469706c69636174696f6e206f766572666c6f774f776e61626c653a2063616c6c6572206973206e6f7420746865206f776e6572a2646970667358221220017b20286d2716bfb4c0883a67d7da5edb2616d41ece19cf60b97fbb74c14d3e64736f6c634300060000334f776e61626c653a2063616c6c6572206973206e6f7420746865206f776e6572",
			"opcodes": "PUSH1 0x80 PUSH1 0x40 MSTORE PUSH1 0xC8 PUSH1 0xD SSTORE PUSH1 0x10 DUP1 SLOAD PUSH2 0xFFFF NOT AND PUSH2 0xA8C0 OR SWAP1 SSTORE PUSH7 0x2386F26FC10000 PUSH1 0x11 SSTORE CALLVALUE DUP1 ISZERO PUSH3 0x30 JUMPI PUSH1 0x0 DUP1 REVERT JUMPDEST POP PUSH1 0x40 MLOAD PUSH3 0x4537 CODESIZE SUB DUP1 PUSH3 0x4537 DUP4 CODECOPY DUP2 DUP2 ADD PUSH1 0x40 MSTORE PUSH1 0x20 DUP2 LT ISZERO PUSH3 0x56 JUMPI PUSH1 0x0 DUP1 REVERT JUMPDEST POP MLOAD PUSH1 0x0 DUP1 SLOAD PUSH1 0xFF NOT AND DUP2 SSTORE DUP2 SWAP1 PUSH8 0xDE0B6B3A7640000 SWAP1 PUSH3 0x81 PUSH1 0x1 PUSH1 0x1 PUSH1 0xE0 SHL SUB PUSH3 0x12B AND JUMP JUMPDEST PUSH1 0x0 DUP1 SLOAD PUSH2 0x100 PUSH1 0x1 PUSH1 0xA8 SHL SUB NOT AND PUSH2 0x100 PUSH1 0x1 PUSH1 0x1 PUSH1 0xA0 SHL SUB DUP5 AND SWAP1 DUP2 MUL SWAP2 SWAP1 SWAP2 OR DUP3 SSTORE PUSH1 0x40 MLOAD SWAP3 SWAP4 POP SWAP2 PUSH32 0x8BE0079C531659141344CD1FD0A4F28419497F9722A3DAAFE3B4186F6B6457E0 SWAP1 DUP3 SWAP1 LOG3 POP PUSH3 0xE7 DUP3 PUSH1 0x1 PUSH1 0x1 PUSH1 0xE0 SHL SUB PUSH3 0x12F AND JUMP JUMPDEST PUSH3 0xFB DUP2 PUSH1 0x1 PUSH1 0x1 PUSH1 0xE0 SHL SUB PUSH3 0x207 AND JUMP JUMPDEST POP PUSH3 0x112 SWAP1 POP DUP2 PUSH1 0x1 PUSH1 0x1 PUSH1 0xE0 SHL SUB PUSH3 0x12F AND JUMP JUMPDEST POP PUSH1 0x6 DUP1 SLOAD PUSH1 0x1 PUSH1 0x1 PUSH1 0xA0 SHL SUB NOT AND CALLER OR SWAP1 SSTORE PUSH3 0x2CC JUMP JUMPDEST CALLER SWAP1 JUMP JUMPDEST PUSH3 0x142 PUSH1 0x1 PUSH1 0x1 PUSH1 0xE0 SHL SUB PUSH3 0x12B AND JUMP JUMPDEST PUSH1 0x0 SLOAD PUSH2 0x100 SWAP1 DIV PUSH1 0x1 PUSH1 0x1 PUSH1 0xA0 SHL SUB SWAP1 DUP2 AND SWAP2 AND EQ PUSH3 0x199 JUMPI PUSH1 0x40 DUP1 MLOAD PUSH3 0x461BCD PUSH1 0xE5 SHL DUP2 MSTORE PUSH1 0x20 PUSH1 0x4 DUP3 ADD DUP2 SWAP1 MSTORE PUSH1 0x24 DUP3 ADD MSTORE PUSH1 0x0 DUP1 MLOAD PUSH1 0x20 PUSH3 0x4517 DUP4 CODECOPY DUP2 MLOAD SWAP2 MSTORE PUSH1 0x44 DUP3 ADD MSTORE SWAP1 MLOAD SWAP1 DUP2 SWAP1 SUB PUSH1 0x64 ADD SWAP1 REVERT JUMPDEST PUSH1 0x1 PUSH1 0x1 PUSH1 0xA0 SHL SUB DUP2 AND PUSH3 0x1E5 JUMPI PUSH1 0x40 DUP1 MLOAD PUSH3 0x461BCD PUSH1 0xE5 SHL DUP2 MSTORE PUSH1 0x20 PUSH1 0x4 DUP3 ADD MSTORE PUSH1 0xD PUSH1 0x24 DUP3 ADD MSTORE PUSH13 0x2BB937B733903830B93A3732B9 PUSH1 0x99 SHL PUSH1 0x44 DUP3 ADD MSTORE SWAP1 MLOAD SWAP1 DUP2 SWAP1 SUB PUSH1 0x64 ADD SWAP1 REVERT JUMPDEST PUSH1 0x1 DUP1 SLOAD PUSH1 0x1 PUSH1 0x1 PUSH1 0xA0 SHL SUB NOT AND PUSH1 0x1 PUSH1 0x1 PUSH1 0xA0 SHL SUB SWAP3 SWAP1 SWAP3 AND SWAP2 SWAP1 SWAP2 OR SWAP1 SSTORE JUMP JUMPDEST PUSH3 0x21A PUSH1 0x1 PUSH1 0x1 PUSH1 0xE0 SHL SUB PUSH3 0x12B AND JUMP JUMPDEST PUSH1 0x0 SLOAD PUSH2 0x100 SWAP1 DIV PUSH1 0x1 PUSH1 0x1 PUSH1 0xA0 SHL SUB SWAP1 DUP2 AND SWAP2 AND EQ PUSH3 0x271 JUMPI PUSH1 0x40 DUP1 MLOAD PUSH3 0x461BCD PUSH1 0xE5 SHL DUP2 MSTORE PUSH1 0x20 PUSH1 0x4 DUP3 ADD DUP2 SWAP1 MSTORE PUSH1 0x24 DUP3 ADD MSTORE PUSH1 0x0 DUP1 MLOAD PUSH1 0x20 PUSH3 0x4517 DUP4 CODECOPY DUP2 MLOAD SWAP2 MSTORE PUSH1 0x44 DUP3 ADD MSTORE SWAP1 MLOAD SWAP1 DUP2 SWAP1 SUB PUSH1 0x64 ADD SWAP1 REVERT JUMPDEST PUSH1 0x0 DUP2 GT PUSH3 0x2C7 JUMPI PUSH1 0x40 DUP1 MLOAD PUSH3 0x461BCD PUSH1 0xE5 SHL DUP2 MSTORE PUSH1 0x20 PUSH1 0x4 DUP3 ADD MSTORE PUSH1 0x15 PUSH1 0x24 DUP3 ADD MSTORE PUSH32 0x7468726573686F6C64206D757374206265203E20300000000000000000000000 PUSH1 0x44 DUP3 ADD MSTORE SWAP1 MLOAD SWAP1 DUP2 SWAP1 SUB PUSH1 0x64 ADD SWAP1 REVERT JUMPDEST PUSH1 0x2 SSTORE JUMP JUMPDEST PUSH2 0x423B DUP1 PUSH3 0x2DC PUSH1 0x0 CODECOPY PUSH1 0x0 RETURN INVALID PUSH1 0x80 PUSH1 0x40 MSTORE PUSH1 0x4 CALLDATASIZE LT PUSH2 0x405 JUMPI PUSH1 0x0 CALLDATALOAD PUSH1 0xE0 SHR DUP1 PUSH4 0x8BC44618 GT PUSH2 0x213 JUMPI DUP1 PUSH4 0xBBC9773E GT PUSH2 0x123 JUMPI DUP1 PUSH4 0xEE03B9E1 GT PUSH2 0xAB JUMPI DUP1 PUSH4 0xF5F3B773 GT PUSH2 0x7A JUMPI DUP1 PUSH4 0xF5F3B773 EQ PUSH2 0xDC7 JUMPI DUP1 PUSH4 0xF7CF0AA1 EQ PUSH2 0xDDC JUMPI DUP1 PUSH4 0xFE1F6A0B EQ PUSH2 0xE06 JUMPI DUP1 PUSH4 0xFEE445CC EQ PUSH2 0xE32 JUMPI DUP1 PUSH4 0xFF24BA7C EQ PUSH2 0xE6B JUMPI PUSH2 0x405 JUMP JUMPDEST DUP1 PUSH4 0xEE03B9E1 EQ PUSH2 0xD2F JUMPI DUP1 PUSH4 0xEFC30E69 EQ PUSH2 0xD37 JUMPI DUP1 PUSH4 0xF1DA06B5 EQ PUSH2 0xD61 JUMPI DUP1 PUSH4 0xF2FDE38B EQ PUSH2 0xD94 JUMPI PUSH2 0x405 JUMP JUMPDEST DUP1 PUSH4 0xCB93F7EF GT PUSH2 0xF2 JUMPI DUP1 PUSH4 0xCB93F7EF EQ PUSH2 0xC70 JUMPI DUP1 PUSH4 0xCBE93C61 EQ PUSH2 0xC85 JUMPI DUP1 PUSH4 0xD6977392 EQ PUSH2 0xCD2 JUMPI DUP1 PUSH4 0xE03964AA EQ PUSH2 0xCE7 JUMPI DUP1 PUSH4 0xE1B740A0 EQ PUSH2 0xD1A JUMPI PUSH2 0x405 JUMP JUMPDEST DUP1 PUSH4 0xBBC9773E EQ PUSH2 0xBFF JUMPI DUP1 PUSH4 0xBE10862B EQ PUSH2 0xC1C JUMPI DUP1 PUSH4 0xBF7F7105 EQ PUSH2 0xC31 JUMPI DUP1 PUSH4 0xC8D60259 EQ PUSH2 0xC5B JUMPI PUSH2 0x405 JUMP JUMPDEST DUP1 PUSH4 0xA517622D GT PUSH2 0x1A6 JUMPI DUP1 PUSH4 0xADC6D4E7 GT PUSH2 0x175 JUMPI DUP1 PUSH4 0xADC6D4E7 EQ PUSH2 0xB5D JUMPI DUP1 PUSH4 0xAFA74C5B EQ PUSH2 0xB87 JUMPI DUP1 PUSH4 0xAFB5D68B EQ PUSH2 0xB9C JUMPI DUP1 PUSH4 0xB04B83D5 EQ PUSH2 0xBD5 JUMPI DUP1 PUSH4 0xB28B9549 EQ PUSH2 0xBEA JUMPI PUSH2 0x405 JUMP JUMPDEST DUP1 PUSH4 0xA517622D EQ PUSH2 0xAB8 JUMPI DUP1 PUSH4 0xA756CC0D EQ PUSH2 0xACD JUMPI DUP1 PUSH4 0xA90F7365 EQ PUSH2 0xAF7 JUMPI DUP1 PUSH4 0xA9E4AEE5 EQ PUSH2 0xB2A JUMPI PUSH2 0x405 JUMP JUMPDEST DUP1 PUSH4 0x9960C852 GT PUSH2 0x1E2 JUMPI DUP1 PUSH4 0x9960C852 EQ PUSH2 0xA36 JUMPI DUP1 PUSH4 0x9F099C28 EQ PUSH2 0xA53 JUMPI DUP1 PUSH4 0xA28D5B83 EQ PUSH2 0xA68 JUMPI DUP1 PUSH4 0xA4B4B851 EQ PUSH2 0xA9B JUMPI PUSH2 0x405 JUMP JUMPDEST DUP1 PUSH4 0x8BC44618 EQ PUSH2 0x9E2 JUMPI DUP1 PUSH4 0x8DA5CB5B EQ PUSH2 0x9F7 JUMPI DUP1 PUSH4 0x95BB4389 EQ PUSH2 0xA0C JUMPI DUP1 PUSH4 0x9619367D EQ PUSH2 0xA21 JUMPI PUSH2 0x405 JUMP JUMPDEST DUP1 PUSH4 0x4B39DF83 GT PUSH2 0x319 JUMPI DUP1 PUSH4 0x7245FBB2 GT PUSH2 0x2A1 JUMPI DUP1 PUSH4 0x7B503668 GT PUSH2 0x270 JUMPI DUP1 PUSH4 0x7B503668 EQ PUSH2 0x946 JUMPI DUP1 PUSH4 0x82EFB308 EQ PUSH2 0x95B JUMPI DUP1 PUSH4 0x83725B0E EQ PUSH2 0x98E JUMPI DUP1 PUSH4 0x8446596E EQ PUSH2 0x9A3 JUMPI DUP1 PUSH4 0x8456CB59 EQ PUSH2 0x9CD JUMPI PUSH2 0x405 JUMP JUMPDEST DUP1 PUSH4 0x7245FBB2 EQ PUSH2 0x8C4 JUMPI DUP1 PUSH4 0x7418EFEB EQ PUSH2 0x8D9 JUMPI DUP1 PUSH4 0x77B00C01 EQ PUSH2 0x8EE JUMPI DUP1 PUSH4 0x780D2456 EQ PUSH2 0x91C JUMPI PUSH2 0x405 JUMP JUMPDEST DUP1 PUSH4 0x59CF5BD6 GT PUSH2 0x2E8 JUMPI DUP1 PUSH4 0x59CF5BD6 EQ PUSH2 0x7FD JUMPI DUP1 PUSH4 0x5C975ABB EQ PUSH2 0x827 JUMPI DUP1 PUSH4 0x5F9EDC85 EQ PUSH2 0x850 JUMPI DUP1 PUSH4 0x65AB31B3 EQ PUSH2 0x883 JUMPI DUP1 PUSH4 0x715018A6 EQ PUSH2 0x8AF JUMPI PUSH2 0x405 JUMP JUMPDEST DUP1 PUSH4 0x4B39DF83 EQ PUSH2 0x78B JUMPI DUP1 PUSH4 0x4CD1E0EB EQ PUSH2 0x7A0 JUMPI DUP1 PUSH4 0x4DC5E4D3 EQ PUSH2 0x7D3 JUMPI DUP1 PUSH4 0x51BE96EA EQ PUSH2 0x7E8 JUMPI PUSH2 0x405 JUMP JUMPDEST DUP1 PUSH4 0x2BCAC304 GT PUSH2 0x39C JUMPI DUP1 PUSH4 0x401F4663 GT PUSH2 0x36B JUMPI DUP1 PUSH4 0x401F4663 EQ PUSH2 0x689 JUMPI DUP1 PUSH4 0x40861C1D EQ PUSH2 0x6BC JUMPI DUP1 PUSH4 0x41C0E1B5 EQ PUSH2 0x70E JUMPI DUP1 PUSH4 0x43972113 EQ PUSH2 0x723 JUMPI DUP1 PUSH4 0x443C3063 EQ PUSH2 0x758 JUMPI PUSH2 0x405 JUMP JUMPDEST DUP1 PUSH4 0x2BCAC304 EQ PUSH2 0x620 JUMPI DUP1 PUSH4 0x3689E1DB EQ PUSH2 0x64A JUMPI DUP1 PUSH4 0x3B3DCA76 EQ PUSH2 0x65F JUMPI DUP1 PUSH4 0x3F4BA83A EQ PUSH2 0x674 JUMPI PUSH2 0x405 JUMP JUMPDEST DUP1 PUSH4 0x1214E31E GT PUSH2 0x3D8 JUMPI DUP1 PUSH4 0x1214E31E EQ PUSH2 0x550 JUMPI DUP1 PUSH4 0x16F99211 EQ PUSH2 0x57C JUMPI DUP1 PUSH4 0x173608E7 EQ PUSH2 0x5A6 JUMPI DUP1 PUSH4 0x1AF37971 EQ PUSH2 0x5BB JUMPI PUSH2 0x405 JUMP JUMPDEST DUP1 PUSH4 0x4A57C09 EQ PUSH2 0x40A JUMPI DUP1 PUSH4 0x72689EC EQ PUSH2 0x450 JUMPI DUP1 PUSH4 0x117A5B90 EQ PUSH2 0x495 JUMPI DUP1 PUSH4 0x11A155E3 EQ PUSH2 0x53B JUMPI JUMPDEST PUSH1 0x0 DUP1 REVERT JUMPDEST CALLVALUE DUP1 ISZERO PUSH2 0x416 JUMPI PUSH1 0x0 DUP1 REVERT JUMPDEST POP PUSH2 0x434 PUSH1 0x4 DUP1 CALLDATASIZE SUB PUSH1 0x20 DUP2 LT ISZERO PUSH2 0x42D JUMPI PUSH1 0x0 DUP1 REVERT JUMPDEST POP CALLDATALOAD PUSH2 0xE9E JUMP JUMPDEST PUSH1 0x40 DUP1 MLOAD PUSH1 0x1 PUSH1 0x1 PUSH1 0xA0 SHL SUB SWAP1 SWAP3 AND DUP3 MSTORE MLOAD SWAP1 DUP2 SWAP1 SUB PUSH1 0x20 ADD SWAP1 RETURN JUMPDEST CALLVALUE DUP1 ISZERO PUSH2 0x45C JUMPI PUSH1 0x0 DUP1 REVERT JUMPDEST POP PUSH2 0x483 PUSH1 0x4 DUP1 CALLDATASIZE SUB PUSH1 0x20 DUP2 LT ISZERO PUSH2 0x473 JUMPI PUSH1 0x0 DUP1 REVERT JUMPDEST POP CALLDATALOAD PUSH1 0x1 PUSH1 0x1 PUSH1 0xA0 SHL SUB AND PUSH2 0xEC5 JUMP JUMPDEST PUSH1 0x40 DUP1 MLOAD SWAP2 DUP3 MSTORE MLOAD SWAP1 DUP2 SWAP1 SUB PUSH1 0x20 ADD SWAP1 RETURN JUMPDEST CALLVALUE DUP1 ISZERO PUSH2 0x4A1 JUMPI PUSH1 0x0 DUP1 REVERT JUMPDEST POP PUSH2 0x4BF PUSH1 0x4 DUP1 CALLDATASIZE SUB PUSH1 0x20 DUP2 LT ISZERO PUSH2 0x4B8 JUMPI PUSH1 0x0 DUP1 REVERT JUMPDEST POP CALLDATALOAD PUSH2 0xED7 JUMP JUMPDEST PUSH1 0x40 DUP1 MLOAD SWAP13 ISZERO ISZERO DUP14 MSTORE PUSH1 0xFF SWAP12 DUP13 AND PUSH1 0x20 DUP15 ADD MSTORE SWAP10 SWAP1 SWAP11 AND DUP12 DUP11 ADD MSTORE PUSH1 0x60 DUP12 ADD SWAP8 SWAP1 SWAP8 MSTORE PUSH1 0x80 DUP11 ADD SWAP6 SWAP1 SWAP6 MSTORE PUSH1 0xA0 DUP10 ADD SWAP4 SWAP1 SWAP4 MSTORE PUSH1 0xC0 DUP9 ADD SWAP2 SWAP1 SWAP2 MSTORE PUSH1 0x1 PUSH1 0x1 PUSH1 0xA0 SHL SUB SWAP1 DUP2 AND PUSH1 0xE0 DUP9 ADD MSTORE SWAP1 DUP2 AND PUSH2 0x100 DUP8 ADD MSTORE SWAP1 DUP2 AND PUSH2 0x120 DUP7 ADD MSTORE SWAP1 DUP2 AND PUSH2 0x140 DUP6 ADD MSTORE SWAP2 SWAP1 SWAP2 AND PUSH2 0x160 DUP4 ADD MSTORE MLOAD SWAP1 DUP2 SWAP1 SUB PUSH2 0x180 ADD SWAP1 RETURN JUMPDEST CALLVALUE DUP1 ISZERO PUSH2 0x547 JUMPI PUSH1 0x0 DUP1 REVERT JUMPDEST POP PUSH2 0x483 PUSH2 0xF4B JUMP JUMPDEST CALLVALUE DUP1 ISZERO PUSH2 0x55C JUMPI PUSH1 0x0 DUP1 REVERT JUMPDEST POP PUSH2 0x57A PUSH1 0x4 DUP1 CALLDATASIZE SUB PUSH1 0x20 DUP2 LT ISZERO PUSH2 0x573 JUMPI PUSH1 0x0 DUP1 REVERT JUMPDEST POP CALLDATALOAD PUSH2 0xF51 JUMP JUMPDEST STOP JUMPDEST CALLVALUE DUP1 ISZERO PUSH2 0x588 JUMPI PUSH1 0x0 DUP1 REVERT JUMPDEST POP PUSH2 0x57A PUSH1 0x4 DUP1 CALLDATASIZE SUB PUSH1 0x20 DUP2 LT ISZERO PUSH2 0x59F JUMPI PUSH1 0x0 DUP1 REVERT JUMPDEST POP CALLDATALOAD PUSH2 0x10BB JUMP JUMPDEST CALLVALUE DUP1 ISZERO PUSH2 0x5B2 JUMPI PUSH1 0x0 DUP1 REVERT JUMPDEST POP PUSH2 0x57A PUSH2 0x13C3 JUMP JUMPDEST CALLVALUE DUP1 ISZERO PUSH2 0x5C7 JUMPI PUSH1 0x0 DUP1 REVERT JUMPDEST POP PUSH2 0x5D0 PUSH2 0x14AE JUMP JUMPDEST PUSH1 0x40 DUP1 MLOAD PUSH1 0x20 DUP1 DUP3 MSTORE DUP4 MLOAD DUP2 DUP4 ADD MSTORE DUP4 MLOAD SWAP2 SWAP3 DUP4 SWAP3 SWAP1 DUP4 ADD SWAP2 DUP6 DUP2 ADD SWAP2 MUL DUP1 DUP4 DUP4 PUSH1 0x0 JUMPDEST DUP4 DUP2 LT ISZERO PUSH2 0x60C JUMPI DUP2 DUP2 ADD MLOAD DUP4 DUP3 ADD MSTORE PUSH1 0x20 ADD PUSH2 0x5F4 JUMP JUMPDEST POP POP POP POP SWAP1 POP ADD SWAP3 POP POP POP PUSH1 0x40 MLOAD DUP1 SWAP2 SUB SWAP1 RETURN JUMPDEST CALLVALUE DUP1 ISZERO PUSH2 0x62C JUMPI PUSH1 0x0 DUP1 REVERT JUMPDEST POP PUSH2 0x57A PUSH1 0x4 DUP1 CALLDATASIZE SUB PUSH1 0x20 DUP2 LT ISZERO PUSH2 0x643 JUMPI PUSH1 0x0 DUP1 REVERT JUMPDEST POP CALLDATALOAD PUSH2 0x1511 JUMP JUMPDEST CALLVALUE DUP1 ISZERO PUSH2 0x656 JUMPI PUSH1 0x0 DUP1 REVERT JUMPDEST POP PUSH2 0x483 PUSH2 0x1877 JUMP JUMPDEST CALLVALUE DUP1 ISZERO PUSH2 0x66B JUMPI PUSH1 0x0 DUP1 REVERT JUMPDEST POP PUSH2 0x483 PUSH2 0x187D JUMP JUMPDEST CALLVALUE DUP1 ISZERO PUSH2 0x680 JUMPI PUSH1 0x0 DUP1 REVERT JUMPDEST POP PUSH2 0x57A PUSH2 0x1913 JUMP JUMPDEST CALLVALUE DUP1 ISZERO PUSH2 0x695 JUMPI PUSH1 0x0 DUP1 REVERT JUMPDEST POP PUSH2 0x57A PUSH1 0x4 DUP1 CALLDATASIZE SUB PUSH1 0x20 DUP2 LT ISZERO PUSH2 0x6AC JUMPI PUSH1 0x0 DUP1 REVERT JUMPDEST POP CALLDATALOAD PUSH1 0x1 PUSH1 0x1 PUSH1 0xA0 SHL SUB AND PUSH2 0x197A JUMP JUMPDEST CALLVALUE DUP1 ISZERO PUSH2 0x6C8 JUMPI PUSH1 0x0 DUP1 REVERT JUMPDEST POP PUSH2 0x6E6 PUSH1 0x4 DUP1 CALLDATASIZE SUB PUSH1 0x20 DUP2 LT ISZERO PUSH2 0x6DF JUMPI PUSH1 0x0 DUP1 REVERT JUMPDEST POP CALLDATALOAD PUSH2 0x1A44 JUMP JUMPDEST PUSH1 0x40 DUP1 MLOAD PUSH1 0x1 PUSH1 0x1 PUSH1 0xA0 SHL SUB SWAP1 SWAP5 AND DUP5 MSTORE PUSH1 0x20 DUP5 ADD SWAP3 SWAP1 SWAP3 MSTORE DUP3 DUP3 ADD MSTORE MLOAD SWAP1 DUP2 SWAP1 SUB PUSH1 0x60 ADD SWAP1 RETURN JUMPDEST CALLVALUE DUP1 ISZERO PUSH2 0x71A JUMPI PUSH1 0x0 DUP1 REVERT JUMPDEST POP PUSH2 0x57A PUSH2 0x1A7E JUMP JUMPDEST PUSH2 0x57A PUSH1 0x4 DUP1 CALLDATASIZE SUB PUSH1 0x60 DUP2 LT ISZERO PUSH2 0x739 JUMPI PUSH1 0x0 DUP1 REVERT JUMPDEST POP DUP1 CALLDATALOAD SWAP1 PUSH1 0x20 DUP2 ADD CALLDATALOAD PUSH1 0xFF AND SWAP1 PUSH1 0x40 ADD CALLDATALOAD PUSH1 0x1 PUSH1 0x1 PUSH1 0xA0 SHL SUB AND PUSH2 0x1ADF JUMP JUMPDEST CALLVALUE DUP1 ISZERO PUSH2 0x764 JUMPI PUSH1 0x0 DUP1 REVERT JUMPDEST POP PUSH2 0x483 PUSH1 0x4 DUP1 CALLDATASIZE SUB PUSH1 0x20 DUP2 LT ISZERO PUSH2 0x77B JUMPI PUSH1 0x0 DUP1 REVERT JUMPDEST POP CALLDATALOAD PUSH1 0x1 PUSH1 0x1 PUSH1 0xA0 SHL SUB AND PUSH2 0x1F73 JUMP JUMPDEST CALLVALUE DUP1 ISZERO PUSH2 0x797 JUMPI PUSH1 0x0 DUP1 REVERT JUMPDEST POP PUSH2 0x483 PUSH2 0x1F85 JUMP JUMPDEST CALLVALUE DUP1 ISZERO PUSH2 0x7AC JUMPI PUSH1 0x0 DUP1 REVERT JUMPDEST POP PUSH2 0x5D0 PUSH1 0x4 DUP1 CALLDATASIZE SUB PUSH1 0x20 DUP2 LT ISZERO PUSH2 0x7C3 JUMPI PUSH1 0x0 DUP1 REVERT JUMPDEST POP CALLDATALOAD PUSH1 0x1 PUSH1 0x1 PUSH1 0xA0 SHL SUB AND PUSH2 0x1F8B JUMP JUMPDEST CALLVALUE DUP1 ISZERO PUSH2 0x7DF JUMPI PUSH1 0x0 DUP1 REVERT JUMPDEST POP PUSH2 0x483 PUSH2 0x1FF7 JUMP JUMPDEST CALLVALUE DUP1 ISZERO PUSH2 0x7F4 JUMPI PUSH1 0x0 DUP1 REVERT JUMPDEST POP PUSH2 0x483 PUSH2 0x1FFD JUMP JUMPDEST CALLVALUE DUP1 ISZERO PUSH2 0x809 JUMPI PUSH1 0x0 DUP1 REVERT JUMPDEST POP PUSH2 0x57A PUSH1 0x4 DUP1 CALLDATASIZE SUB PUSH1 0x20 DUP2 LT ISZERO PUSH2 0x820 JUMPI PUSH1 0x0 DUP1 REVERT JUMPDEST POP CALLDATALOAD PUSH2 0x2003 JUMP JUMPDEST CALLVALUE DUP1 ISZERO PUSH2 0x833 JUMPI PUSH1 0x0 DUP1 REVERT JUMPDEST POP PUSH2 0x83C PUSH2 0x21EB JUMP JUMPDEST PUSH1 0x40 DUP1 MLOAD SWAP2 ISZERO ISZERO DUP3 MSTORE MLOAD SWAP1 DUP2 SWAP1 SUB PUSH1 0x20 ADD SWAP1 RETURN JUMPDEST CALLVALUE DUP1 ISZERO PUSH2 0x85C JUMPI PUSH1 0x0 DUP1 REVERT JUMPDEST POP PUSH2 0x483 PUSH1 0x4 DUP1 CALLDATASIZE SUB PUSH1 0x20 DUP2 LT ISZERO PUSH2 0x873 JUMPI PUSH1 0x0 DUP1 REVERT JUMPDEST POP CALLDATALOAD PUSH1 0x1 PUSH1 0x1 PUSH1 0xA0 SHL SUB AND PUSH2 0x21F4 JUMP JUMPDEST CALLVALUE DUP1 ISZERO PUSH2 0x88F JUMPI PUSH1 0x0 DUP1 REVERT JUMPDEST POP PUSH2 0x898 PUSH2 0x2206 JUMP JUMPDEST PUSH1 0x40 DUP1 MLOAD PUSH2 0xFFFF SWAP1 SWAP3 AND DUP3 MSTORE MLOAD SWAP1 DUP2 SWAP1 SUB PUSH1 0x20 ADD SWAP1 RETURN JUMPDEST CALLVALUE DUP1 ISZERO PUSH2 0x8BB JUMPI PUSH1 0x0 DUP1 REVERT JUMPDEST POP PUSH2 0x57A PUSH2 0x2210 JUMP JUMPDEST CALLVALUE DUP1 ISZERO PUSH2 0x8D0 JUMPI PUSH1 0x0 DUP1 REVERT JUMPDEST POP PUSH2 0x483 PUSH2 0x22BC JUMP JUMPDEST CALLVALUE DUP1 ISZERO PUSH2 0x8E5 JUMPI PUSH1 0x0 DUP1 REVERT JUMPDEST POP PUSH2 0x83C PUSH2 0x22C2 JUMP JUMPDEST CALLVALUE DUP1 ISZERO PUSH2 0x8FA JUMPI PUSH1 0x0 DUP1 REVERT JUMPDEST POP PUSH2 0x57A PUSH1 0x4 DUP1 CALLDATASIZE SUB PUSH1 0x20 DUP2 LT ISZERO PUSH2 0x911 JUMPI PUSH1 0x0 DUP1 REVERT JUMPDEST POP CALLDATALOAD PUSH2 0xFFFF AND PUSH2 0x22E0 JUMP JUMPDEST CALLVALUE DUP1 ISZERO PUSH2 0x928 JUMPI PUSH1 0x0 DUP1 REVERT JUMPDEST POP PUSH2 0x57A PUSH1 0x4 DUP1 CALLDATASIZE SUB PUSH1 0x20 DUP2 LT ISZERO PUSH2 0x93F JUMPI PUSH1 0x0 DUP1 REVERT JUMPDEST POP CALLDATALOAD PUSH2 0x239E JUMP JUMPDEST CALLVALUE DUP1 ISZERO PUSH2 0x952 JUMPI PUSH1 0x0 DUP1 REVERT JUMPDEST POP PUSH2 0x483 PUSH2 0x244D JUMP JUMPDEST CALLVALUE DUP1 ISZERO PUSH2 0x967 JUMPI PUSH1 0x0 DUP1 REVERT JUMPDEST POP PUSH2 0x483 PUSH1 0x4 DUP1 CALLDATASIZE SUB PUSH1 0x20 DUP2 LT ISZERO PUSH2 0x97E JUMPI PUSH1 0x0 DUP1 REVERT JUMPDEST POP CALLDATALOAD PUSH1 0x1 PUSH1 0x1 PUSH1 0xA0 SHL SUB AND PUSH2 0x2453 JUMP JUMPDEST CALLVALUE DUP1 ISZERO PUSH2 0x99A JUMPI PUSH1 0x0 DUP1 REVERT JUMPDEST POP PUSH2 0x434 PUSH2 0x2465 JUMP JUMPDEST CALLVALUE DUP1 ISZERO PUSH2 0x9AF JUMPI PUSH1 0x0 DUP1 REVERT JUMPDEST POP PUSH2 0x57A PUSH1 0x4 DUP1 CALLDATASIZE SUB PUSH1 0x20 DUP2 LT ISZERO PUSH2 0x9C6 JUMPI PUSH1 0x0 DUP1 REVERT JUMPDEST POP CALLDATALOAD PUSH2 0x2474 JUMP JUMPDEST CALLVALUE DUP1 ISZERO PUSH2 0x9D9 JUMPI PUSH1 0x0 DUP1 REVERT JUMPDEST POP PUSH2 0x57A PUSH2 0x251B JUMP JUMPDEST CALLVALUE DUP1 ISZERO PUSH2 0x9EE JUMPI PUSH1 0x0 DUP1 REVERT JUMPDEST POP PUSH2 0x483 PUSH2 0x2580 JUMP JUMPDEST CALLVALUE DUP1 ISZERO PUSH2 0xA03 JUMPI PUSH1 0x0 DUP1 REVERT JUMPDEST POP PUSH2 0x434 PUSH2 0x2586 JUMP JUMPDEST CALLVALUE DUP1 ISZERO PUSH2 0xA18 JUMPI PUSH1 0x0 DUP1 REVERT JUMPDEST POP PUSH2 0x483 PUSH2 0x259A JUMP JUMPDEST CALLVALUE DUP1 ISZERO PUSH2 0xA2D JUMPI PUSH1 0x0 DUP1 REVERT JUMPDEST POP PUSH2 0x483 PUSH2 0x25A0 JUMP JUMPDEST PUSH2 0x57A PUSH1 0x4 DUP1 CALLDATASIZE SUB PUSH1 0x20 DUP2 LT ISZERO PUSH2 0xA4C JUMPI PUSH1 0x0 DUP1 REVERT JUMPDEST POP CALLDATALOAD PUSH2 0x25A6 JUMP JUMPDEST CALLVALUE DUP1 ISZERO PUSH2 0xA5F JUMPI PUSH1 0x0 DUP1 REVERT JUMPDEST POP PUSH2 0x483 PUSH2 0x281E JUMP JUMPDEST CALLVALUE DUP1 ISZERO PUSH2 0xA74 JUMPI PUSH1 0x0 DUP1 REVERT JUMPDEST POP PUSH2 0x483 PUSH1 0x4 DUP1 CALLDATASIZE SUB PUSH1 0x20 DUP2 LT ISZERO PUSH2 0xA8B JUMPI PUSH1 0x0 DUP1 REVERT JUMPDEST POP CALLDATALOAD PUSH1 0x1 PUSH1 0x1 PUSH1 0xA0 SHL SUB AND PUSH2 0x2824 JUMP JUMPDEST PUSH2 0x57A PUSH1 0x4 DUP1 CALLDATASIZE SUB PUSH1 0x20 DUP2 LT ISZERO PUSH2 0xAB1 JUMPI PUSH1 0x0 DUP1 REVERT JUMPDEST POP CALLDATALOAD PUSH2 0x2836 JUMP JUMPDEST CALLVALUE DUP1 ISZERO PUSH2 0xAC4 JUMPI PUSH1 0x0 DUP1 REVERT JUMPDEST POP PUSH2 0x483 PUSH2 0x2A35 JUMP JUMPDEST CALLVALUE DUP1 ISZERO PUSH2 0xAD9 JUMPI PUSH1 0x0 DUP1 REVERT JUMPDEST POP PUSH2 0x83C PUSH1 0x4 DUP1 CALLDATASIZE SUB PUSH1 0x20 DUP2 LT ISZERO PUSH2 0xAF0 JUMPI PUSH1 0x0 DUP1 REVERT JUMPDEST POP CALLDATALOAD PUSH2 0x2A3B JUMP JUMPDEST CALLVALUE DUP1 ISZERO PUSH2 0xB03 JUMPI PUSH1 0x0 DUP1 REVERT JUMPDEST POP PUSH2 0x5D0 PUSH1 0x4 DUP1 CALLDATASIZE SUB PUSH1 0x20 DUP2 LT ISZERO PUSH2 0xB1A JUMPI PUSH1 0x0 DUP1 REVERT JUMPDEST POP CALLDATALOAD PUSH1 0x1 PUSH1 0x1 PUSH1 0xA0 SHL SUB AND PUSH2 0x2A81 JUMP JUMPDEST CALLVALUE DUP1 ISZERO PUSH2 0xB36 JUMPI PUSH1 0x0 DUP1 REVERT JUMPDEST POP PUSH2 0x483 PUSH1 0x4 DUP1 CALLDATASIZE SUB PUSH1 0x20 DUP2 LT ISZERO PUSH2 0xB4D JUMPI PUSH1 0x0 DUP1 REVERT JUMPDEST POP CALLDATALOAD PUSH1 0x1 PUSH1 0x1 PUSH1 0xA0 SHL SUB AND PUSH2 0x2B35 JUMP JUMPDEST CALLVALUE DUP1 ISZERO PUSH2 0xB69 JUMPI PUSH1 0x0 DUP1 REVERT JUMPDEST POP PUSH2 0x83C PUSH1 0x4 DUP1 CALLDATASIZE SUB PUSH1 0x20 DUP2 LT ISZERO PUSH2 0xB80 JUMPI PUSH1 0x0 DUP1 REVERT JUMPDEST POP CALLDATALOAD PUSH2 0x2B46 JUMP JUMPDEST CALLVALUE DUP1 ISZERO PUSH2 0xB93 JUMPI PUSH1 0x0 DUP1 REVERT JUMPDEST POP PUSH2 0x57A PUSH2 0x2B90 JUMP JUMPDEST CALLVALUE DUP1 ISZERO PUSH2 0xBA8 JUMPI PUSH1 0x0 DUP1 REVERT JUMPDEST POP PUSH2 0x483 PUSH1 0x4 DUP1 CALLDATASIZE SUB PUSH1 0x40 DUP2 LT ISZERO PUSH2 0xBBF JUMPI PUSH1 0x0 DUP1 REVERT JUMPDEST POP PUSH1 0x1 PUSH1 0x1 PUSH1 0xA0 SHL SUB DUP2 CALLDATALOAD AND SWAP1 PUSH1 0x20 ADD CALLDATALOAD PUSH2 0x2C7E JUMP JUMPDEST CALLVALUE DUP1 ISZERO PUSH2 0xBE1 JUMPI PUSH1 0x0 DUP1 REVERT JUMPDEST POP PUSH2 0x483 PUSH2 0x2CAC JUMP JUMPDEST CALLVALUE DUP1 ISZERO PUSH2 0xBF6 JUMPI PUSH1 0x0 DUP1 REVERT JUMPDEST POP PUSH2 0x57A PUSH2 0x2CB3 JUMP JUMPDEST PUSH2 0x57A PUSH1 0x4 DUP1 CALLDATASIZE SUB PUSH1 0x20 DUP2 LT ISZERO PUSH2 0xC15 JUMPI PUSH1 0x0 DUP1 REVERT JUMPDEST POP CALLDATALOAD PUSH2 0x2E94 JUMP JUMPDEST CALLVALUE DUP1 ISZERO PUSH2 0xC28 JUMPI PUSH1 0x0 DUP1 REVERT JUMPDEST POP PUSH2 0x434 PUSH2 0x3012 JUMP JUMPDEST CALLVALUE DUP1 ISZERO PUSH2 0xC3D JUMPI PUSH1 0x0 DUP1 REVERT JUMPDEST POP PUSH2 0x483 PUSH1 0x4 DUP1 CALLDATASIZE SUB PUSH1 0x20 DUP2 LT ISZERO PUSH2 0xC54 JUMPI PUSH1 0x0 DUP1 REVERT JUMPDEST POP CALLDATALOAD PUSH2 0x3021 JUMP JUMPDEST CALLVALUE DUP1 ISZERO PUSH2 0xC67 JUMPI PUSH1 0x0 DUP1 REVERT JUMPDEST POP PUSH2 0x483 PUSH2 0x3035 JUMP JUMPDEST CALLVALUE DUP1 ISZERO PUSH2 0xC7C JUMPI PUSH1 0x0 DUP1 REVERT JUMPDEST POP PUSH2 0x57A PUSH2 0x303B JUMP JUMPDEST CALLVALUE DUP1 ISZERO PUSH2 0xC91 JUMPI PUSH1 0x0 DUP1 REVERT JUMPDEST POP PUSH2 0xC9A PUSH2 0x3110 JUMP JUMPDEST PUSH1 0x40 MLOAD DUP1 DUP3 PUSH1 0xA0 DUP1 DUP4 DUP4 PUSH1 0x0 JUMPDEST DUP4 DUP2 LT ISZERO PUSH2 0xCBF JUMPI DUP2 DUP2 ADD MLOAD DUP4 DUP3 ADD MSTORE PUSH1 0x20 ADD PUSH2 0xCA7 JUMP JUMPDEST POP POP POP POP SWAP1 POP ADD SWAP2 POP POP PUSH1 0x40 MLOAD DUP1 SWAP2 SUB SWAP1 RETURN JUMPDEST CALLVALUE DUP1 ISZERO PUSH2 0xCDE JUMPI PUSH1 0x0 DUP1 REVERT JUMPDEST POP PUSH2 0x483 PUSH2 0x314B JUMP JUMPDEST CALLVALUE DUP1 ISZERO PUSH2 0xCF3 JUMPI PUSH1 0x0 DUP1 REVERT JUMPDEST POP PUSH2 0x483 PUSH1 0x4 DUP1 CALLDATASIZE SUB PUSH1 0x20 DUP2 LT ISZERO PUSH2 0xD0A JUMPI PUSH1 0x0 DUP1 REVERT JUMPDEST POP CALLDATALOAD PUSH1 0x1 PUSH1 0x1 PUSH1 0xA0 SHL SUB AND PUSH2 0x3151 JUMP JUMPDEST CALLVALUE DUP1 ISZERO PUSH2 0xD26 JUMPI PUSH1 0x0 DUP1 REVERT JUMPDEST POP PUSH2 0x57A PUSH2 0x3163 JUMP JUMPDEST PUSH2 0x57A PUSH2 0x31F2 JUMP JUMPDEST CALLVALUE DUP1 ISZERO PUSH2 0xD43 JUMPI PUSH1 0x0 DUP1 REVERT JUMPDEST POP PUSH2 0x83C PUSH1 0x4 DUP1 CALLDATASIZE SUB PUSH1 0x20 DUP2 LT ISZERO PUSH2 0xD5A JUMPI PUSH1 0x0 DUP1 REVERT JUMPDEST POP CALLDATALOAD PUSH2 0x3210 JUMP JUMPDEST CALLVALUE DUP1 ISZERO PUSH2 0xD6D JUMPI PUSH1 0x0 DUP1 REVERT JUMPDEST POP PUSH2 0x483 PUSH1 0x4 DUP1 CALLDATASIZE SUB PUSH1 0x20 DUP2 LT ISZERO PUSH2 0xD84 JUMPI PUSH1 0x0 DUP1 REVERT JUMPDEST POP CALLDATALOAD PUSH1 0x1 PUSH1 0x1 PUSH1 0xA0 SHL SUB AND PUSH2 0x3225 JUMP JUMPDEST CALLVALUE DUP1 ISZERO PUSH2 0xDA0 JUMPI PUSH1 0x0 DUP1 REVERT JUMPDEST POP PUSH2 0x57A PUSH1 0x4 DUP1 CALLDATASIZE SUB PUSH1 0x20 DUP2 LT ISZERO PUSH2 0xDB7 JUMPI PUSH1 0x0 DUP1 REVERT JUMPDEST POP CALLDATALOAD PUSH1 0x1 PUSH1 0x1 PUSH1 0xA0 SHL SUB AND PUSH2 0x3237 JUMP JUMPDEST CALLVALUE DUP1 ISZERO PUSH2 0xDD3 JUMPI PUSH1 0x0 DUP1 REVERT JUMPDEST POP PUSH2 0x483 PUSH2 0x333F JUMP JUMPDEST CALLVALUE DUP1 ISZERO PUSH2 0xDE8 JUMPI PUSH1 0x0 DUP1 REVERT JUMPDEST POP PUSH2 0x57A PUSH1 0x4 DUP1 CALLDATASIZE SUB PUSH1 0x20 DUP2 LT ISZERO PUSH2 0xDFF JUMPI PUSH1 0x0 DUP1 REVERT JUMPDEST POP CALLDATALOAD PUSH2 0x3345 JUMP JUMPDEST PUSH2 0x57A PUSH1 0x4 DUP1 CALLDATASIZE SUB PUSH1 0x40 DUP2 LT ISZERO PUSH2 0xE1C JUMPI PUSH1 0x0 DUP1 REVERT JUMPDEST POP DUP1 CALLDATALOAD SWAP1 PUSH1 0x20 ADD CALLDATALOAD PUSH1 0x1 PUSH1 0x1 PUSH1 0xA0 SHL SUB AND PUSH2 0x33E8 JUMP JUMPDEST CALLVALUE DUP1 ISZERO PUSH2 0xE3E JUMPI PUSH1 0x0 DUP1 REVERT JUMPDEST POP PUSH2 0x57A PUSH1 0x4 DUP1 CALLDATASIZE SUB PUSH1 0x60 DUP2 LT ISZERO PUSH2 0xE55 JUMPI PUSH1 0x0 DUP1 REVERT JUMPDEST POP DUP1 CALLDATALOAD SWAP1 PUSH1 0xFF PUSH1 0x20 DUP3 ADD CALLDATALOAD AND SWAP1 PUSH1 0x40 ADD CALLDATALOAD PUSH2 0x36F0 JUMP JUMPDEST CALLVALUE DUP1 ISZERO PUSH2 0xE77 JUMPI PUSH1 0x0 DUP1 REVERT JUMPDEST POP PUSH2 0x483 PUSH1 0x4 DUP1 CALLDATASIZE SUB PUSH1 0x20 DUP2 LT ISZERO PUSH2 0xE8E JUMPI PUSH1 0x0 DUP1 REVERT JUMPDEST POP CALLDATALOAD PUSH1 0x1 PUSH1 0x1 PUSH1 0xA0 SHL SUB AND PUSH2 0x3AC8 JUMP JUMPDEST PUSH1 0xE DUP2 DUP2 SLOAD DUP2 LT PUSH2 0xEAB JUMPI INVALID JUMPDEST PUSH1 0x0 SWAP2 DUP3 MSTORE PUSH1 0x20 SWAP1 SWAP2 KECCAK256 ADD SLOAD PUSH1 0x1 PUSH1 0x1 PUSH1 0xA0 SHL SUB AND SWAP1 POP DUP2 JUMP JUMPDEST PUSH1 0x1B PUSH1 0x20 MSTORE PUSH1 0x0 SWAP1 DUP2 MSTORE PUSH1 0x40 SWAP1 KECCAK256 SLOAD DUP2 JUMP JUMPDEST PUSH1 0x19 PUSH1 0x20 MSTORE PUSH1 0x0 SWAP1 DUP2 MSTORE PUSH1 0x40 SWAP1 KECCAK256 DUP1 SLOAD PUSH1 0x1 DUP3 ADD SLOAD PUSH1 0x2 DUP4 ADD SLOAD PUSH1 0x3 DUP5 ADD SLOAD PUSH1 0x4 DUP6 ADD SLOAD PUSH1 0x5 DUP7 ADD SLOAD PUSH1 0x6 DUP8 ADD SLOAD PUSH1 0x7 DUP9 ADD SLOAD PUSH1 0x8 DUP10 ADD SLOAD PUSH1 0x9 SWAP1 SWAP10 ADD SLOAD PUSH1 0xFF DUP1 DUP11 AND SWAP11 PUSH2 0x100 DUP12 DIV DUP3 AND SWAP11 PUSH3 0x10000 SWAP1 DIV SWAP1 SWAP2 AND SWAP9 SWAP8 SWAP7 SWAP6 SWAP5 PUSH1 0x1 PUSH1 0x1 PUSH1 0xA0 SHL SUB SWAP1 DUP2 AND SWAP5 DUP2 AND SWAP4 DUP2 AND SWAP3 SWAP2 DUP2 AND SWAP2 AND DUP13 JUMP JUMPDEST PUSH1 0x7 SLOAD DUP2 JUMP JUMPDEST PUSH1 0x0 DUP2 DUP2 MSTORE PUSH1 0x19 PUSH1 0x20 MSTORE PUSH1 0x40 SWAP1 KECCAK256 PUSH1 0x5 ADD SLOAD DUP2 SWAP1 PUSH1 0x1 PUSH1 0x1 PUSH1 0xA0 SHL SUB AND CALLER EQ PUSH2 0xFAF JUMPI PUSH1 0x40 DUP1 MLOAD PUSH3 0x461BCD PUSH1 0xE5 SHL DUP2 MSTORE PUSH1 0x20 PUSH1 0x4 DUP3 ADD MSTORE PUSH1 0xB PUSH1 0x24 DUP3 ADD MSTORE PUSH11 0x2737BA1031B932B0BA37B9 PUSH1 0xA9 SHL PUSH1 0x44 DUP3 ADD MSTORE SWAP1 MLOAD SWAP1 DUP2 SWAP1 SUB PUSH1 0x64 ADD SWAP1 REVERT JUMPDEST DUP2 PUSH2 0xFB9 DUP2 PUSH2 0x3210 JUMP JUMPDEST ISZERO PUSH2 0xFFC JUMPI PUSH1 0x40 DUP1 MLOAD PUSH3 0x461BCD PUSH1 0xE5 SHL DUP2 MSTORE PUSH1 0x20 PUSH1 0x4 DUP3 ADD MSTORE PUSH1 0xE PUSH1 0x24 DUP3 ADD MSTORE PUSH14 0x11D85B59481A5CC81C185D5CD959 PUSH1 0x92 SHL PUSH1 0x44 DUP3 ADD MSTORE SWAP1 MLOAD SWAP1 DUP2 SWAP1 SUB PUSH1 0x64 ADD SWAP1 REVERT JUMPDEST PUSH1 0x0 DUP4 DUP2 MSTORE PUSH1 0x19 PUSH1 0x20 MSTORE PUSH1 0x40 SWAP1 KECCAK256 PUSH1 0x6 ADD SLOAD DUP4 SWAP1 PUSH1 0x1 PUSH1 0x1 PUSH1 0xA0 SHL SUB AND ISZERO PUSH2 0x105A JUMPI PUSH1 0x40 DUP1 MLOAD PUSH3 0x461BCD PUSH1 0xE5 SHL DUP2 MSTORE PUSH1 0x20 PUSH1 0x4 DUP3 ADD MSTORE PUSH1 0xC PUSH1 0x24 DUP3 ADD MSTORE PUSH12 0x12185CC81BDC1C1BDB995B9D PUSH1 0xA2 SHL PUSH1 0x44 DUP3 ADD MSTORE SWAP1 MLOAD SWAP1 DUP2 SWAP1 SUB PUSH1 0x64 ADD SWAP1 REVERT JUMPDEST PUSH1 0x0 DUP5 DUP2 MSTORE PUSH1 0x19 PUSH1 0x20 MSTORE PUSH1 0x40 SWAP1 KECCAK256 DUP1 SLOAD PUSH1 0xFF NOT AND PUSH1 0x1 OR SWAP1 SSTORE PUSH2 0x107C DUP5 PUSH2 0x2A3B JUMP JUMPDEST ISZERO PUSH2 0x108A JUMPI PUSH2 0x108A DUP5 PUSH2 0x3ADA JUMP JUMPDEST PUSH1 0x40 MLOAD DUP5 SWAP1 PUSH32 0x700EF9560B7219BF268DF827C61F5AE3323824A8B032726685696BDCFBE785B7 SWAP1 PUSH1 0x0 SWAP1 LOG2 POP POP POP POP JUMP JUMPDEST PUSH1 0x0 DUP2 DUP2 MSTORE PUSH1 0x19 PUSH1 0x20 MSTORE PUSH1 0x40 SWAP1 KECCAK256 PUSH1 0x5 DUP2 ADD SLOAD PUSH1 0x1 PUSH1 0x1 PUSH1 0xA0 SHL SUB AND CALLER EQ DUP1 PUSH2 0x10F0 JUMPI POP PUSH1 0x6 DUP2 ADD SLOAD PUSH1 0x1 PUSH1 0x1 PUSH1 0xA0 SHL SUB AND CALLER EQ JUMPDEST PUSH2 0x1135 JUMPI PUSH1 0x40 DUP1 MLOAD PUSH3 0x461BCD PUSH1 0xE5 SHL DUP2 MSTORE PUSH1 0x20 PUSH1 0x4 DUP3 ADD MSTORE PUSH1 0x11 PUSH1 0x24 DUP3 ADD MSTORE PUSH17 0x2737BA10309033B0B6B290383630BCB2B9 PUSH1 0x79 SHL PUSH1 0x44 DUP3 ADD MSTORE SWAP1 MLOAD SWAP1 DUP2 SWAP1 SUB PUSH1 0x64 ADD SWAP1 REVERT JUMPDEST PUSH1 0x7 DUP2 ADD SLOAD PUSH1 0x1 PUSH1 0x1 PUSH1 0xA0 SHL SUB AND ISZERO PUSH2 0x1182 JUMPI PUSH1 0x40 DUP1 MLOAD PUSH3 0x461BCD PUSH1 0xE5 SHL DUP2 MSTORE PUSH1 0x20 PUSH1 0x4 DUP3 ADD MSTORE PUSH1 0xA PUSH1 0x24 DUP3 ADD MSTORE PUSH10 0x2430B9903BB4B73732B9 PUSH1 0xB1 SHL PUSH1 0x44 DUP3 ADD MSTORE SWAP1 MLOAD SWAP1 DUP2 SWAP1 SUB PUSH1 0x64 ADD SWAP1 REVERT JUMPDEST PUSH1 0x6 DUP2 ADD SLOAD PUSH1 0x1 PUSH1 0x1 PUSH1 0xA0 SHL SUB AND CALLER EQ ISZERO PUSH2 0x11DC JUMPI PUSH2 0x11A0 DUP3 PUSH2 0x2B46 JUMP JUMPDEST ISZERO PUSH2 0x11DC JUMPI PUSH1 0x40 DUP1 MLOAD PUSH3 0x461BCD PUSH1 0xE5 SHL DUP2 MSTORE PUSH1 0x20 PUSH1 0x4 DUP3 ADD MSTORE PUSH1 0x7 PUSH1 0x24 DUP3 ADD MSTORE PUSH7 0x115E1C1A5C9959 PUSH1 0xCA SHL PUSH1 0x44 DUP3 ADD MSTORE SWAP1 MLOAD SWAP1 DUP2 SWAP1 SUB PUSH1 0x64 ADD SWAP1 REVERT JUMPDEST PUSH1 0x5 DUP2 ADD SLOAD PUSH1 0x1 PUSH1 0x1 PUSH1 0xA0 SHL SUB AND CALLER EQ DUP1 ISZERO PUSH2 0x1204 JUMPI POP PUSH1 0x6 DUP2 ADD SLOAD PUSH1 0x1 PUSH1 0x1 PUSH1 0xA0 SHL SUB AND ISZERO ISZERO JUMPDEST ISZERO PUSH2 0x1260 JUMPI PUSH1 0x6 DUP2 ADD SLOAD PUSH1 0x7 DUP3 ADD DUP1 SLOAD PUSH1 0x1 PUSH1 0x1 PUSH1 0xA0 SHL SUB SWAP3 DUP4 AND PUSH1 0x1 PUSH1 0x1 PUSH1 0xA0 SHL SUB NOT SWAP2 DUP3 AND OR SWAP2 DUP3 SWAP1 SSTORE PUSH1 0xE DUP1 SLOAD PUSH1 0x1 DUP2 ADD DUP3 SSTORE PUSH1 0x0 SWAP2 SWAP1 SWAP2 MSTORE PUSH1 0x0 DUP1 MLOAD PUSH1 0x20 PUSH2 0x41A5 DUP4 CODECOPY DUP2 MLOAD SWAP2 MSTORE ADD DUP1 SLOAD SWAP3 SWAP1 SWAP4 AND SWAP2 AND OR SWAP1 SSTORE PUSH2 0x12FA JUMP JUMPDEST PUSH1 0x6 DUP2 ADD SLOAD PUSH1 0x1 PUSH1 0x1 PUSH1 0xA0 SHL SUB AND CALLER EQ ISZERO PUSH2 0x12CC JUMPI PUSH1 0x5 DUP2 ADD SLOAD PUSH1 0x7 DUP3 ADD DUP1 SLOAD PUSH1 0x1 PUSH1 0x1 PUSH1 0xA0 SHL SUB SWAP3 DUP4 AND PUSH1 0x1 PUSH1 0x1 PUSH1 0xA0 SHL SUB NOT SWAP2 DUP3 AND OR SWAP2 DUP3 SWAP1 SSTORE PUSH1 0xE DUP1 SLOAD PUSH1 0x1 DUP2 ADD DUP3 SSTORE PUSH1 0x0 SWAP2 SWAP1 SWAP2 MSTORE PUSH1 0x0 DUP1 MLOAD PUSH1 0x20 PUSH2 0x41A5 DUP4 CODECOPY DUP2 MLOAD SWAP2 MSTORE ADD DUP1 SLOAD SWAP3 SWAP1 SWAP4 AND SWAP2 AND OR SWAP1 SSTORE PUSH2 0x12FA JUMP JUMPDEST PUSH1 0x0 PUSH2 0x12D6 PUSH2 0x2586 JUMP JUMPDEST PUSH1 0x7 DUP4 ADD DUP1 SLOAD PUSH1 0x1 PUSH1 0x1 PUSH1 0xA0 SHL SUB NOT AND PUSH1 0x1 PUSH1 0x1 PUSH1 0xA0 SHL SUB SWAP3 SWAP1 SWAP3 AND SWAP2 SWAP1 SWAP2 OR SWAP1 SSTORE POP JUMPDEST PUSH1 0x7 DUP2 ADD SLOAD PUSH1 0x1 PUSH1 0x1 PUSH1 0xA0 SHL SUB AND PUSH1 0x0 SWAP1 DUP2 MSTORE PUSH1 0x1D PUSH1 0x20 SWAP1 DUP2 MSTORE PUSH1 0x40 DUP3 KECCAK256 DUP1 SLOAD PUSH1 0x1 DUP2 DUP2 ADD DUP4 SSTORE SWAP2 DUP5 MSTORE SWAP2 SWAP1 SWAP3 KECCAK256 ADD DUP4 SWAP1 SSTORE PUSH1 0x18 SLOAD PUSH2 0x133E SWAP2 PUSH4 0xFFFFFFFF PUSH2 0x3BB9 AND JUMP JUMPDEST PUSH1 0x18 SSTORE PUSH1 0x5 DUP2 ADD DUP1 SLOAD PUSH1 0x1 PUSH1 0x1 PUSH1 0xA0 SHL SUB SWAP1 DUP2 AND PUSH1 0x0 SWAP1 DUP2 MSTORE PUSH1 0x1A PUSH1 0x20 SWAP1 DUP2 MSTORE PUSH1 0x40 DUP1 DUP4 KECCAK256 DUP4 SWAP1 SSTORE PUSH1 0x6 DUP7 ADD DUP1 SLOAD DUP6 AND DUP5 MSTORE PUSH1 0x1B DUP4 MSTORE DUP2 DUP5 KECCAK256 SWAP4 SWAP1 SWAP4 SSTORE SWAP2 SLOAD SWAP4 SLOAD PUSH1 0x7 DUP7 ADD SLOAD DUP4 MLOAD SWAP1 DUP6 AND DUP2 MSTORE SWAP3 MLOAD SWAP5 DUP5 AND SWAP5 SWAP4 AND SWAP3 DUP7 SWAP3 PUSH32 0xB2D5361FC25BF5F72935B7DADA9EF5AA3220AA1A8D72E922475140798153AE10 SWAP3 SWAP1 DUP3 SWAP1 SUB ADD SWAP1 LOG4 POP POP JUMP JUMPDEST CALLER PUSH1 0x0 SWAP1 DUP2 MSTORE PUSH1 0x20 DUP1 MSTORE PUSH1 0x40 SWAP1 KECCAK256 SLOAD DUP1 PUSH2 0x1416 JUMPI PUSH1 0x40 DUP1 MLOAD PUSH3 0x461BCD PUSH1 0xE5 SHL DUP2 MSTORE PUSH1 0x20 PUSH1 0x4 DUP3 ADD MSTORE PUSH1 0xF PUSH1 0x24 DUP3 ADD MSTORE PUSH15 0x4E6F20726566657272616C20666565 PUSH1 0x88 SHL PUSH1 0x44 DUP3 ADD MSTORE SWAP1 MLOAD SWAP1 DUP2 SWAP1 SUB PUSH1 0x64 ADD SWAP1 REVERT JUMPDEST CALLER PUSH1 0x0 SWAP1 DUP2 MSTORE PUSH1 0x20 DUP1 DUP1 MSTORE PUSH1 0x40 DUP1 DUP4 KECCAK256 DUP4 SWAP1 SSTORE PUSH1 0x21 SWAP1 SWAP2 MSTORE SWAP1 KECCAK256 SLOAD PUSH2 0x1441 SWAP1 DUP3 PUSH4 0xFFFFFFFF PUSH2 0x3BB9 AND JUMP JUMPDEST CALLER PUSH1 0x0 DUP2 DUP2 MSTORE PUSH1 0x21 PUSH1 0x20 MSTORE PUSH1 0x40 DUP1 DUP3 KECCAK256 SWAP4 SWAP1 SWAP4 SSTORE SWAP2 MLOAD SWAP1 SWAP2 DUP4 ISZERO PUSH2 0x8FC MUL SWAP2 DUP5 SWAP2 DUP2 DUP2 DUP2 DUP6 DUP9 DUP9 CALL SWAP4 POP POP POP POP ISZERO DUP1 ISZERO PUSH2 0x147F JUMPI RETURNDATASIZE PUSH1 0x0 DUP1 RETURNDATACOPY RETURNDATASIZE PUSH1 0x0 REVERT JUMPDEST POP PUSH1 0x40 MLOAD CALLER SWAP1 PUSH32 0xD20500EBC366BC59A5EC7044B7C82D3FED0D725DBA0429AE6C20A56EE15CEA92 SWAP1 PUSH1 0x0 SWAP1 LOG2 POP JUMP JUMPDEST PUSH1 0x60 PUSH1 0xE DUP1 SLOAD DUP1 PUSH1 0x20 MUL PUSH1 0x20 ADD PUSH1 0x40 MLOAD SWAP1 DUP2 ADD PUSH1 0x40 MSTORE DUP1 SWAP3 SWAP2 SWAP1 DUP2 DUP2 MSTORE PUSH1 0x20 ADD DUP3 DUP1 SLOAD DUP1 ISZERO PUSH2 0x1506 JUMPI PUSH1 0x20 MUL DUP3 ADD SWAP2 SWAP1 PUSH1 0x0 MSTORE PUSH1 0x20 PUSH1 0x0 KECCAK256 SWAP1 JUMPDEST DUP2 SLOAD PUSH1 0x1 PUSH1 0x1 PUSH1 0xA0 SHL SUB AND DUP2 MSTORE PUSH1 0x1 SWAP1 SWAP2 ADD SWAP1 PUSH1 0x20 ADD DUP1 DUP4 GT PUSH2 0x14E8 JUMPI JUMPDEST POP POP POP POP POP SWAP1 POP JUMPDEST SWAP1 JUMP JUMPDEST PUSH1 0x0 DUP2 GT PUSH2 0x1556 JUMPI PUSH1 0x40 DUP1 MLOAD PUSH3 0x461BCD PUSH1 0xE5 SHL DUP2 MSTORE PUSH1 0x20 PUSH1 0x4 DUP3 ADD MSTORE PUSH1 0xD PUSH1 0x24 DUP3 ADD MSTORE PUSH13 0x5F6D61784C6F6F70203D3D203 PUSH1 0x9C SHL PUSH1 0x44 DUP3 ADD MSTORE SWAP1 MLOAD SWAP1 DUP2 SWAP1 SUB PUSH1 0x64 ADD SWAP1 REVERT JUMPDEST CALLER PUSH1 0x0 SWAP1 DUP2 MSTORE PUSH1 0x1D PUSH1 0x20 MSTORE PUSH1 0x40 SWAP1 KECCAK256 DUP1 SLOAD PUSH2 0x15A5 JUMPI PUSH1 0x40 DUP1 MLOAD PUSH3 0x461BCD PUSH1 0xE5 SHL DUP2 MSTORE PUSH1 0x20 PUSH1 0x4 DUP3 ADD MSTORE PUSH1 0xA PUSH1 0x24 DUP3 ADD MSTORE PUSH10 0x6E6F2070656E64696E67 PUSH1 0xB0 SHL PUSH1 0x44 DUP3 ADD MSTORE SWAP1 MLOAD SWAP1 DUP2 SWAP1 SUB PUSH1 0x64 ADD SWAP1 REVERT JUMPDEST DUP1 SLOAD DUP3 GT ISZERO PUSH2 0x15EE JUMPI PUSH1 0x40 DUP1 MLOAD PUSH3 0x461BCD PUSH1 0xE5 SHL DUP2 MSTORE PUSH1 0x20 PUSH1 0x4 DUP3 ADD MSTORE PUSH1 0x10 PUSH1 0x24 DUP3 ADD MSTORE PUSH16 0x5F6D61784C6F6F7020746F6F20626967 PUSH1 0x80 SHL PUSH1 0x44 DUP3 ADD MSTORE SWAP1 MLOAD SWAP1 DUP2 SWAP1 SUB PUSH1 0x64 ADD SWAP1 REVERT JUMPDEST PUSH1 0x0 DUP1 JUMPDEST DUP4 DUP2 LT ISZERO PUSH2 0x1741 JUMPI DUP3 SLOAD PUSH1 0x0 SWAP1 DUP5 SWAP1 PUSH2 0x1612 SWAP1 PUSH1 0x1 PUSH4 0xFFFFFFFF PUSH2 0x3C1C AND JUMP JUMPDEST DUP2 SLOAD DUP2 LT PUSH2 0x161C JUMPI INVALID JUMPDEST PUSH1 0x0 SWAP2 DUP3 MSTORE PUSH1 0x20 DUP1 DUP4 KECCAK256 SWAP2 SWAP1 SWAP2 ADD SLOAD DUP1 DUP4 MSTORE PUSH1 0x19 SWAP1 SWAP2 MSTORE PUSH1 0x40 DUP3 KECCAK256 PUSH1 0x5 DUP2 ADD SLOAD SWAP2 SWAP4 POP SWAP2 SWAP1 PUSH1 0x1 PUSH1 0x1 PUSH1 0xA0 SHL SUB AND CALLER EQ PUSH2 0x1663 JUMPI PUSH1 0x9 DUP3 ADD SLOAD PUSH1 0x1 PUSH1 0x1 PUSH1 0xA0 SHL SUB AND PUSH2 0x1672 JUMP JUMPDEST PUSH1 0x8 DUP3 ADD SLOAD PUSH1 0x1 PUSH1 0x1 PUSH1 0xA0 SHL SUB AND JUMPDEST SWAP1 POP PUSH1 0x0 PUSH2 0x169F PUSH1 0x64 PUSH2 0x1693 PUSH1 0x1 DUP7 PUSH1 0x2 ADD SLOAD PUSH2 0x3C5E SWAP1 SWAP2 SWAP1 PUSH4 0xFFFFFFFF AND JUMP JUMPDEST SWAP1 PUSH4 0xFFFFFFFF PUSH2 0x3CB7 AND JUMP JUMPDEST PUSH1 0x1 PUSH1 0x1 PUSH1 0xA0 SHL SUB DUP4 AND PUSH1 0x0 SWAP1 DUP2 MSTORE PUSH1 0x20 DUP1 MSTORE PUSH1 0x40 SWAP1 KECCAK256 SLOAD SWAP1 SWAP2 POP PUSH2 0x16CA SWAP1 DUP3 PUSH4 0xFFFFFFFF PUSH2 0x3BB9 AND JUMP JUMPDEST PUSH1 0x1 PUSH1 0x1 PUSH1 0xA0 SHL SUB DUP4 AND PUSH1 0x0 SWAP1 DUP2 MSTORE PUSH1 0x20 DUP1 MSTORE PUSH1 0x40 SWAP1 KECCAK256 SSTORE PUSH1 0x23 SLOAD PUSH2 0x16F5 SWAP1 DUP3 PUSH4 0xFFFFFFFF PUSH2 0x3BB9 AND JUMP JUMPDEST PUSH1 0x23 SSTORE PUSH1 0x2 DUP4 ADD SLOAD PUSH2 0x170E SWAP1 DUP8 SWAP1 PUSH4 0xFFFFFFFF PUSH2 0x3BB9 AND JUMP JUMPDEST SWAP6 POP DUP7 DUP1 SLOAD DUP1 PUSH2 0x171A JUMPI INVALID JUMPDEST PUSH1 0x1 SWAP1 SUB DUP2 DUP2 SWAP1 PUSH1 0x0 MSTORE PUSH1 0x20 PUSH1 0x0 KECCAK256 ADD PUSH1 0x0 SWAP1 SSTORE SWAP1 SSTORE POP POP POP POP DUP1 DUP1 PUSH1 0x1 ADD SWAP2 POP POP PUSH2 0x15F2 JUMP JUMPDEST POP CALLER PUSH1 0x0 SWAP1 DUP2 MSTORE PUSH1 0x1F PUSH1 0x20 MSTORE PUSH1 0x40 SWAP1 KECCAK256 SLOAD PUSH2 0x1762 SWAP1 DUP3 PUSH4 0xFFFFFFFF PUSH2 0x3BB9 AND JUMP JUMPDEST CALLER PUSH1 0x0 SWAP1 DUP2 MSTORE PUSH1 0x1F PUSH1 0x20 MSTORE PUSH1 0x40 DUP2 KECCAK256 SWAP2 SWAP1 SWAP2 SSTORE PUSH2 0x178B PUSH1 0x64 PUSH2 0x1693 DUP5 PUSH1 0x1 PUSH4 0xFFFFFFFF PUSH2 0x3C5E AND JUMP JUMPDEST PUSH1 0x3 SLOAD SWAP1 SWAP2 POP PUSH2 0x17A1 SWAP1 DUP3 PUSH4 0xFFFFFFFF PUSH2 0x3BB9 AND JUMP JUMPDEST PUSH1 0x3 SSTORE PUSH1 0xB SLOAD PUSH2 0x17B7 SWAP1 DUP3 PUSH4 0xFFFFFFFF PUSH2 0x3BB9 AND JUMP JUMPDEST PUSH1 0xB SSTORE PUSH1 0x22 SLOAD PUSH2 0x17CD SWAP1 DUP3 PUSH4 0xFFFFFFFF PUSH2 0x3BB9 AND JUMP JUMPDEST PUSH1 0x22 SSTORE PUSH2 0x17D9 DUP2 PUSH2 0x3CF9 JUMP JUMPDEST PUSH1 0x0 PUSH2 0x180C DUP4 PUSH2 0x1800 PUSH2 0x17F3 DUP6 PUSH1 0x5 PUSH4 0xFFFFFFFF PUSH2 0x3C5E AND JUMP JUMPDEST DUP7 SWAP1 PUSH4 0xFFFFFFFF PUSH2 0x3C1C AND JUMP JUMPDEST SWAP1 PUSH4 0xFFFFFFFF PUSH2 0x3BB9 AND JUMP JUMPDEST PUSH1 0x40 MLOAD SWAP1 SWAP2 POP CALLER SWAP1 DUP3 ISZERO PUSH2 0x8FC MUL SWAP1 DUP4 SWAP1 PUSH1 0x0 DUP2 DUP2 DUP2 DUP6 DUP9 DUP9 CALL SWAP4 POP POP POP POP ISZERO DUP1 ISZERO PUSH2 0x183C JUMPI RETURNDATASIZE PUSH1 0x0 DUP1 RETURNDATACOPY RETURNDATASIZE PUSH1 0x0 REVERT JUMPDEST POP PUSH2 0x1845 PUSH2 0x3D4A JUMP JUMPDEST PUSH1 0x40 MLOAD CALLER SWAP1 PUSH32 0xF66E3F979648B506DD345B50CA1B3EFBDC116887CD67C37DE409D3BD8E4995B0 SWAP1 PUSH1 0x0 SWAP1 LOG2 POP POP POP POP POP JUMP JUMPDEST PUSH1 0xD SLOAD DUP2 JUMP JUMPDEST PUSH1 0xE SLOAD PUSH1 0x0 SWAP1 PUSH2 0x18C6 JUMPI PUSH1 0x40 DUP1 MLOAD PUSH3 0x461BCD PUSH1 0xE5 SHL DUP2 MSTORE PUSH1 0x20 PUSH1 0x4 DUP3 ADD MSTORE PUSH1 0xF PUSH1 0x24 DUP3 ADD MSTORE PUSH15 0x4E6F207061727469636970616E7473 PUSH1 0x88 SHL PUSH1 0x44 DUP3 ADD MSTORE SWAP1 MLOAD SWAP1 DUP2 SWAP1 SUB PUSH1 0x64 ADD SWAP1 REVERT JUMPDEST PUSH1 0xE SLOAD PUSH1 0xB SLOAD PUSH1 0x40 DUP1 MLOAD TIMESTAMP PUSH1 0x20 DUP1 DUP4 ADD SWAP2 SWAP1 SWAP2 MSTORE DIFFICULTY DUP3 DUP5 ADD MSTORE PUSH1 0x60 DUP3 ADD SWAP4 SWAP1 SWAP4 MSTORE PUSH1 0x80 DUP1 DUP3 ADD DUP6 SWAP1 MSTORE DUP3 MLOAD DUP1 DUP4 SUB SWAP1 SWAP2 ADD DUP2 MSTORE PUSH1 0xA0 SWAP1 SWAP2 ADD SWAP1 SWAP2 MSTORE DUP1 MLOAD SWAP2 ADD KECCAK256 DUP2 PUSH2 0x190D JUMPI INVALID JUMPDEST MOD SWAP1 POP SWAP1 JUMP JUMPDEST PUSH2 0x191B PUSH2 0x3DF5 JUMP JUMPDEST PUSH1 0x0 SLOAD PUSH2 0x100 SWAP1 DIV PUSH1 0x1 PUSH1 0x1 PUSH1 0xA0 SHL SUB SWAP1 DUP2 AND SWAP2 AND EQ PUSH2 0x1970 JUMPI PUSH1 0x40 DUP1 MLOAD PUSH3 0x461BCD PUSH1 0xE5 SHL DUP2 MSTORE PUSH1 0x20 PUSH1 0x4 DUP3 ADD DUP2 SWAP1 MSTORE PUSH1 0x24 DUP3 ADD MSTORE PUSH1 0x0 DUP1 MLOAD PUSH1 0x20 PUSH2 0x41E6 DUP4 CODECOPY DUP2 MLOAD SWAP2 MSTORE PUSH1 0x44 DUP3 ADD MSTORE SWAP1 MLOAD SWAP1 DUP2 SWAP1 SUB PUSH1 0x64 ADD SWAP1 REVERT JUMPDEST PUSH2 0x1978 PUSH2 0x3DF9 JUMP JUMPDEST JUMP JUMPDEST PUSH2 0x1982 PUSH2 0x3DF5 JUMP JUMPDEST PUSH1 0x0 SLOAD PUSH2 0x100 SWAP1 DIV PUSH1 0x1 PUSH1 0x1 PUSH1 0xA0 SHL SUB SWAP1 DUP2 AND SWAP2 AND EQ PUSH2 0x19D7 JUMPI PUSH1 0x40 DUP1 MLOAD PUSH3 0x461BCD PUSH1 0xE5 SHL DUP2 MSTORE PUSH1 0x20 PUSH1 0x4 DUP3 ADD DUP2 SWAP1 MSTORE PUSH1 0x24 DUP3 ADD MSTORE PUSH1 0x0 DUP1 MLOAD PUSH1 0x20 PUSH2 0x41E6 DUP4 CODECOPY DUP2 MLOAD SWAP2 MSTORE PUSH1 0x44 DUP3 ADD MSTORE SWAP1 MLOAD SWAP1 DUP2 SWAP1 SUB PUSH1 0x64 ADD SWAP1 REVERT JUMPDEST PUSH1 0x1 PUSH1 0x1 PUSH1 0xA0 SHL SUB DUP2 AND PUSH2 0x1A22 JUMPI PUSH1 0x40 DUP1 MLOAD PUSH3 0x461BCD PUSH1 0xE5 SHL DUP2 MSTORE PUSH1 0x20 PUSH1 0x4 DUP3 ADD MSTORE PUSH1 0xD PUSH1 0x24 DUP3 ADD MSTORE PUSH13 0x2BB937B733903830B93A3732B9 PUSH1 0x99 SHL PUSH1 0x44 DUP3 ADD MSTORE SWAP1 MLOAD SWAP1 DUP2 SWAP1 SUB PUSH1 0x64 ADD SWAP1 REVERT JUMPDEST PUSH1 0x1 DUP1 SLOAD PUSH1 0x1 PUSH1 0x1 PUSH1 0xA0 SHL SUB NOT AND PUSH1 0x1 PUSH1 0x1 PUSH1 0xA0 SHL SUB SWAP3 SWAP1 SWAP3 AND SWAP2 SWAP1 SWAP2 OR SWAP1 SSTORE JUMP JUMPDEST PUSH1 0xF DUP2 DUP2 SLOAD DUP2 LT PUSH2 0x1A51 JUMPI INVALID JUMPDEST PUSH1 0x0 SWAP2 DUP3 MSTORE PUSH1 0x20 SWAP1 SWAP2 KECCAK256 PUSH1 0x3 SWAP1 SWAP2 MUL ADD DUP1 SLOAD PUSH1 0x1 DUP3 ADD SLOAD PUSH1 0x2 SWAP1 SWAP3 ADD SLOAD PUSH1 0x1 PUSH1 0x1 PUSH1 0xA0 SHL SUB SWAP1 SWAP2 AND SWAP3 POP DUP4 JUMP JUMPDEST PUSH2 0x1A86 PUSH2 0x3DF5 JUMP JUMPDEST PUSH1 0x0 SLOAD PUSH2 0x100 SWAP1 DIV PUSH1 0x1 PUSH1 0x1 PUSH1 0xA0 SHL SUB SWAP1 DUP2 AND SWAP2 AND EQ PUSH2 0x1ADB JUMPI PUSH1 0x40 DUP1 MLOAD PUSH3 0x461BCD PUSH1 0xE5 SHL DUP2 MSTORE PUSH1 0x20 PUSH1 0x4 DUP3 ADD DUP2 SWAP1 MSTORE PUSH1 0x24 DUP3 ADD MSTORE PUSH1 0x0 DUP1 MLOAD PUSH1 0x20 PUSH2 0x41E6 DUP4 CODECOPY DUP2 MLOAD SWAP2 MSTORE PUSH1 0x44 DUP3 ADD MSTORE SWAP1 MLOAD SWAP1 DUP2 SWAP1 SUB PUSH1 0x64 ADD SWAP1 REVERT JUMPDEST CALLER DUP1 SELFDESTRUCT JUMPDEST PUSH1 0x0 SLOAD PUSH1 0xFF AND ISZERO PUSH2 0x1B2A JUMPI PUSH1 0x40 DUP1 MLOAD PUSH3 0x461BCD PUSH1 0xE5 SHL DUP2 MSTORE PUSH1 0x20 PUSH1 0x4 DUP3 ADD MSTORE PUSH1 0x10 PUSH1 0x24 DUP3 ADD MSTORE PUSH16 0x14185D5CD8589B194E881C185D5CD959 PUSH1 0x82 SHL PUSH1 0x44 DUP3 ADD MSTORE SWAP1 MLOAD SWAP1 DUP2 SWAP1 SUB PUSH1 0x64 ADD SWAP1 REVERT JUMPDEST CALLER PUSH1 0x0 SWAP1 DUP2 MSTORE PUSH1 0x1B PUSH1 0x20 MSTORE PUSH1 0x40 SWAP1 KECCAK256 SLOAD ISZERO PUSH2 0x1B82 JUMPI PUSH1 0x40 DUP1 MLOAD PUSH3 0x461BCD PUSH1 0xE5 SHL DUP2 MSTORE PUSH1 0x20 PUSH1 0x4 DUP3 ADD MSTORE PUSH1 0x13 PUSH1 0x24 DUP3 ADD MSTORE PUSH19 0x4E6F206D6F7265206F70706F6E656E74696E67 PUSH1 0x68 SHL PUSH1 0x44 DUP3 ADD MSTORE SWAP1 MLOAD SWAP1 DUP2 SWAP1 SUB PUSH1 0x64 ADD SWAP1 REVERT JUMPDEST DUP1 PUSH1 0x1 PUSH1 0x1 PUSH1 0xA0 SHL SUB DUP2 AND CALLER EQ ISZERO PUSH2 0x1BD2 JUMPI PUSH1 0x40 DUP1 MLOAD PUSH3 0x461BCD PUSH1 0xE5 SHL DUP2 MSTORE PUSH1 0x20 PUSH1 0x4 DUP3 ADD MSTORE PUSH1 0xE PUSH1 0x24 DUP3 ADD MSTORE PUSH14 0x15DC9BDB99C81C9959995C9C985B PUSH1 0x92 SHL PUSH1 0x44 DUP3 ADD MSTORE SWAP1 MLOAD SWAP1 DUP2 SWAP1 SUB PUSH1 0x64 ADD SWAP1 REVERT JUMPDEST DUP4 PUSH2 0x1BDC DUP2 PUSH2 0x3210 JUMP JUMPDEST ISZERO PUSH2 0x1C1F JUMPI PUSH1 0x40 DUP1 MLOAD PUSH3 0x461BCD PUSH1 0xE5 SHL DUP2 MSTORE PUSH1 0x20 PUSH1 0x4 DUP3 ADD MSTORE PUSH1 0xE PUSH1 0x24 DUP3 ADD MSTORE PUSH14 0x11D85B59481A5CC81C185D5CD959 PUSH1 0x92 SHL PUSH1 0x44 DUP3 ADD MSTORE SWAP1 MLOAD SWAP1 DUP2 SWAP1 SUB PUSH1 0x64 ADD SWAP1 REVERT JUMPDEST PUSH1 0x0 DUP6 DUP2 MSTORE PUSH1 0x19 PUSH1 0x20 MSTORE PUSH1 0x40 SWAP1 KECCAK256 PUSH1 0x2 PUSH1 0xFF DUP7 AND LT PUSH2 0x1C77 JUMPI PUSH1 0x40 DUP1 MLOAD PUSH3 0x461BCD PUSH1 0xE5 SHL DUP2 MSTORE PUSH1 0x20 PUSH1 0x4 DUP3 ADD MSTORE PUSH1 0xF PUSH1 0x24 DUP3 ADD MSTORE PUSH15 0x57726F6E6720636F696E2073696465 PUSH1 0x88 SHL PUSH1 0x44 DUP3 ADD MSTORE SWAP1 MLOAD SWAP1 DUP2 SWAP1 SUB PUSH1 0x64 ADD SWAP1 REVERT JUMPDEST PUSH1 0x5 DUP2 ADD SLOAD PUSH1 0x1 PUSH1 0x1 PUSH1 0xA0 SHL SUB AND PUSH2 0x1CCD JUMPI PUSH1 0x40 DUP1 MLOAD PUSH3 0x461BCD PUSH1 0xE5 SHL DUP2 MSTORE PUSH1 0x20 PUSH1 0x4 DUP3 ADD MSTORE PUSH1 0x14 PUSH1 0x24 DUP3 ADD MSTORE PUSH20 0x139BC819D85B59481DDA5D1A081CDD58DA081A59 PUSH1 0x62 SHL PUSH1 0x44 DUP3 ADD MSTORE SWAP1 MLOAD SWAP1 DUP2 SWAP1 SUB PUSH1 0x64 ADD SWAP1 REVERT JUMPDEST PUSH1 0x5 DUP2 ADD SLOAD PUSH1 0x1 PUSH1 0x1 PUSH1 0xA0 SHL SUB AND CALLER EQ ISZERO PUSH2 0x1D1C JUMPI PUSH1 0x40 DUP1 MLOAD PUSH3 0x461BCD PUSH1 0xE5 SHL DUP2 MSTORE PUSH1 0x20 PUSH1 0x4 DUP3 ADD MSTORE PUSH1 0xA PUSH1 0x24 DUP3 ADD MSTORE PUSH10 0x24B99031B932B0BA37B9 PUSH1 0xB1 SHL PUSH1 0x44 DUP3 ADD MSTORE SWAP1 MLOAD SWAP1 DUP2 SWAP1 SUB PUSH1 0x64 ADD SWAP1 REVERT JUMPDEST PUSH1 0x6 DUP2 ADD SLOAD PUSH1 0x1 PUSH1 0x1 PUSH1 0xA0 SHL SUB AND ISZERO PUSH2 0x1D70 JUMPI PUSH1 0x40 DUP1 MLOAD PUSH3 0x461BCD PUSH1 0xE5 SHL DUP2 MSTORE PUSH1 0x20 PUSH1 0x4 DUP3 ADD MSTORE PUSH1 0x11 PUSH1 0x24 DUP3 ADD MSTORE PUSH17 0x11D85B59481A185CC81BDC1C1BDB995B9D PUSH1 0x7A SHL PUSH1 0x44 DUP3 ADD MSTORE SWAP1 MLOAD SWAP1 DUP2 SWAP1 SUB PUSH1 0x64 ADD SWAP1 REVERT JUMPDEST PUSH1 0x7 DUP2 ADD SLOAD PUSH1 0x1 PUSH1 0x1 PUSH1 0xA0 SHL SUB AND ISZERO PUSH2 0x1DC2 JUMPI PUSH1 0x40 DUP1 MLOAD PUSH3 0x461BCD PUSH1 0xE5 SHL DUP2 MSTORE PUSH1 0x20 PUSH1 0x4 DUP3 ADD MSTORE PUSH1 0xF PUSH1 0x24 DUP3 ADD MSTORE PUSH15 0x23B0B6B2903430B9903BB4B73732B9 PUSH1 0x89 SHL PUSH1 0x44 DUP3 ADD MSTORE SWAP1 MLOAD SWAP1 DUP2 SWAP1 SUB PUSH1 0x64 ADD SWAP1 REVERT JUMPDEST CALLVALUE DUP2 PUSH1 0x2 ADD SLOAD EQ PUSH2 0x1E06 JUMPI PUSH1 0x40 DUP1 MLOAD PUSH3 0x461BCD PUSH1 0xE5 SHL DUP2 MSTORE PUSH1 0x20 PUSH1 0x4 DUP3 ADD MSTORE PUSH1 0x9 PUSH1 0x24 DUP3 ADD MSTORE PUSH9 0x15DC9BDB99C818995D PUSH1 0xBA SHL PUSH1 0x44 DUP3 ADD MSTORE SWAP1 MLOAD SWAP1 DUP2 SWAP1 SUB PUSH1 0x64 ADD SWAP1 REVERT JUMPDEST PUSH1 0x6 DUP2 ADD DUP1 SLOAD PUSH1 0x1 PUSH1 0x1 PUSH1 0xA0 SHL SUB NOT AND CALLER OR SWAP1 SSTORE DUP1 SLOAD PUSH1 0xFF DUP7 AND PUSH3 0x10000 MUL PUSH3 0xFF0000 NOT SWAP1 SWAP2 AND OR DUP2 SSTORE TIMESTAMP PUSH1 0x3 DUP3 ADD SSTORE PUSH1 0x1 PUSH1 0x1 PUSH1 0xA0 SHL SUB DUP5 AND ISZERO PUSH2 0x1E75 JUMPI PUSH1 0x0 DUP7 DUP2 MSTORE PUSH1 0x19 PUSH1 0x20 MSTORE PUSH1 0x40 SWAP1 KECCAK256 PUSH1 0x9 ADD DUP1 SLOAD PUSH1 0x1 PUSH1 0x1 PUSH1 0xA0 SHL SUB NOT AND PUSH1 0x1 PUSH1 0x1 PUSH1 0xA0 SHL SUB DUP7 AND OR SWAP1 SSTORE DUP4 PUSH2 0x1EA8 JUMP JUMPDEST PUSH2 0x1E7D PUSH2 0x2586 JUMP JUMPDEST PUSH1 0x0 DUP8 DUP2 MSTORE PUSH1 0x19 PUSH1 0x20 MSTORE PUSH1 0x40 SWAP1 KECCAK256 PUSH1 0x9 ADD DUP1 SLOAD PUSH1 0x1 PUSH1 0x1 PUSH1 0xA0 SHL SUB NOT AND PUSH1 0x1 PUSH1 0x1 PUSH1 0xA0 SHL SUB DUP4 AND OR SWAP1 SSTORE JUMPDEST POP PUSH1 0x24 SLOAD PUSH2 0x1EBC SWAP1 CALLVALUE PUSH4 0xFFFFFFFF PUSH2 0x3BB9 AND JUMP JUMPDEST PUSH1 0x24 SSTORE CALLER PUSH1 0x0 SWAP1 DUP2 MSTORE PUSH1 0x1E PUSH1 0x20 MSTORE PUSH1 0x40 SWAP1 KECCAK256 SLOAD PUSH2 0x1EDF SWAP1 CALLVALUE PUSH4 0xFFFFFFFF PUSH2 0x3BB9 AND JUMP JUMPDEST CALLER PUSH1 0x0 SWAP1 DUP2 MSTORE PUSH1 0x1E PUSH1 0x20 SWAP1 DUP2 MSTORE PUSH1 0x40 DUP1 DUP4 KECCAK256 SWAP4 SWAP1 SWAP4 SSTORE PUSH1 0x1B DUP2 MSTORE DUP3 DUP3 KECCAK256 DUP10 SWAP1 SSTORE PUSH1 0x1C DUP2 MSTORE SWAP2 DUP2 KECCAK256 DUP1 SLOAD PUSH1 0x1 DUP2 ADD DUP3 SSTORE SWAP1 DUP3 MSTORE SWAP2 SWAP1 KECCAK256 ADD DUP7 SWAP1 SSTORE PUSH2 0x1F21 DUP7 PUSH2 0x2A3B JUMP JUMPDEST ISZERO PUSH2 0x1F2F JUMPI PUSH2 0x1F2F DUP7 PUSH2 0x3ADA JUMP JUMPDEST PUSH1 0x5 DUP2 ADD SLOAD PUSH1 0x40 MLOAD CALLER SWAP2 PUSH1 0x1 PUSH1 0x1 PUSH1 0xA0 SHL SUB AND SWAP1 DUP9 SWAP1 PUSH32 0xCF247107FD467EE49DF2D0A3F04DB0DDE0CF701E3D4611D03CC7D0AC96F90490 SWAP1 PUSH1 0x0 SWAP1 LOG4 POP POP POP POP POP POP JUMP JUMPDEST PUSH1 0x8 PUSH1 0x20 MSTORE PUSH1 0x0 SWAP1 DUP2 MSTORE PUSH1 0x40 SWAP1 KECCAK256 SLOAD DUP2 JUMP JUMPDEST PUSH1 0xF SLOAD SWAP1 JUMP JUMPDEST PUSH1 0x1 PUSH1 0x1 PUSH1 0xA0 SHL SUB DUP2 AND PUSH1 0x0 SWAP1 DUP2 MSTORE PUSH1 0x1D PUSH1 0x20 SWAP1 DUP2 MSTORE PUSH1 0x40 SWAP2 DUP3 SWAP1 KECCAK256 DUP1 SLOAD DUP4 MLOAD DUP2 DUP5 MUL DUP2 ADD DUP5 ADD SWAP1 SWAP5 MSTORE DUP1 DUP5 MSTORE PUSH1 0x60 SWAP4 SWAP3 DUP4 ADD DUP3 DUP3 DUP1 ISZERO PUSH2 0x1FEB JUMPI PUSH1 0x20 MUL DUP3 ADD SWAP2 SWAP1 PUSH1 0x0 MSTORE PUSH1 0x20 PUSH1 0x0 KECCAK256 SWAP1 JUMPDEST DUP2 SLOAD DUP2 MSTORE PUSH1 0x20 ADD SWAP1 PUSH1 0x1 ADD SWAP1 DUP1 DUP4 GT PUSH2 0x1FD7 JUMPI JUMPDEST POP POP POP POP POP SWAP1 POP SWAP2 SWAP1 POP JUMP JUMPDEST PUSH1 0x4 SLOAD DUP2 JUMP JUMPDEST PUSH1 0xB SLOAD DUP2 JUMP JUMPDEST PUSH1 0x0 DUP2 DUP2 MSTORE PUSH1 0x19 PUSH1 0x20 MSTORE PUSH1 0x40 SWAP1 KECCAK256 PUSH1 0x6 DUP2 ADD SLOAD PUSH1 0x1 PUSH1 0x1 PUSH1 0xA0 SHL SUB AND CALLER EQ PUSH2 0x2061 JUMPI PUSH1 0x40 DUP1 MLOAD PUSH3 0x461BCD PUSH1 0xE5 SHL DUP2 MSTORE PUSH1 0x20 PUSH1 0x4 DUP3 ADD MSTORE PUSH1 0xC PUSH1 0x24 DUP3 ADD MSTORE PUSH12 0x139BDD081BDC1C1BDB995B9D PUSH1 0xA2 SHL PUSH1 0x44 DUP3 ADD MSTORE SWAP1 MLOAD SWAP1 DUP2 SWAP1 SUB PUSH1 0x64 ADD SWAP1 REVERT JUMPDEST PUSH1 0x7 DUP2 ADD SLOAD PUSH1 0x1 PUSH1 0x1 PUSH1 0xA0 SHL SUB AND ISZERO PUSH2 0x20AE JUMPI PUSH1 0x40 DUP1 MLOAD PUSH3 0x461BCD PUSH1 0xE5 SHL DUP2 MSTORE PUSH1 0x20 PUSH1 0x4 DUP3 ADD MSTORE PUSH1 0xA PUSH1 0x24 DUP3 ADD MSTORE PUSH10 0x2430B9903BB4B73732B9 PUSH1 0xB1 SHL PUSH1 0x44 DUP3 ADD MSTORE SWAP1 MLOAD SWAP1 DUP2 SWAP1 SUB PUSH1 0x64 ADD SWAP1 REVERT JUMPDEST PUSH2 0x20B7 DUP3 PUSH2 0x2B46 JUMP JUMPDEST PUSH2 0x20FA JUMPI PUSH1 0x40 DUP1 MLOAD PUSH3 0x461BCD PUSH1 0xE5 SHL DUP2 MSTORE PUSH1 0x20 PUSH1 0x4 DUP3 ADD MSTORE PUSH1 0xF PUSH1 0x24 DUP3 ADD MSTORE PUSH15 0x139BDD081E595D08195E1C1A5C9959 PUSH1 0x8A SHL PUSH1 0x44 DUP3 ADD MSTORE SWAP1 MLOAD SWAP1 DUP2 SWAP1 SUB PUSH1 0x64 ADD SWAP1 REVERT JUMPDEST PUSH1 0x7 DUP2 ADD DUP1 SLOAD CALLER PUSH1 0x1 PUSH1 0x1 PUSH1 0xA0 SHL SUB NOT SWAP2 DUP3 AND DUP2 OR SWAP1 SWAP3 SSTORE PUSH1 0x0 DUP3 DUP2 MSTORE PUSH1 0x1D PUSH1 0x20 SWAP1 DUP2 MSTORE PUSH1 0x40 DUP3 KECCAK256 DUP1 SLOAD PUSH1 0x1 DUP2 DUP2 ADD DUP4 SSTORE SWAP2 DUP5 MSTORE SWAP2 DUP4 KECCAK256 SWAP1 SWAP2 ADD DUP7 SWAP1 SSTORE PUSH1 0xE DUP1 SLOAD DUP1 DUP4 ADD DUP3 SSTORE SWAP3 MSTORE PUSH1 0x0 DUP1 MLOAD PUSH1 0x20 PUSH2 0x41A5 DUP4 CODECOPY DUP2 MLOAD SWAP2 MSTORE SWAP1 SWAP2 ADD DUP1 SLOAD SWAP1 SWAP3 AND SWAP1 SWAP3 OR SWAP1 SSTORE PUSH1 0x18 SLOAD PUSH2 0x216A SWAP2 PUSH2 0x3BB9 JUMP JUMPDEST PUSH1 0x18 SSTORE PUSH1 0x5 DUP2 ADD DUP1 SLOAD PUSH1 0x1 PUSH1 0x1 PUSH1 0xA0 SHL SUB SWAP1 DUP2 AND PUSH1 0x0 SWAP1 DUP2 MSTORE PUSH1 0x1A PUSH1 0x20 SWAP1 DUP2 MSTORE PUSH1 0x40 DUP1 DUP4 KECCAK256 DUP4 SWAP1 SSTORE CALLER DUP4 MSTORE PUSH1 0x1B DUP3 MSTORE DUP1 DUP4 KECCAK256 SWAP3 SWAP1 SWAP3 SSTORE PUSH1 0x6 DUP6 ADD SLOAD SWAP4 SLOAD PUSH1 0x7 DUP7 ADD SLOAD DUP4 MLOAD SWAP1 DUP6 AND DUP2 MSTORE SWAP3 MLOAD SWAP5 DUP5 AND SWAP5 SWAP4 AND SWAP3 DUP7 SWAP3 PUSH32 0x6E530D1F81C10976EDECFD724DDF372347424ED7E3066073547A6438A09670FE SWAP3 SWAP1 DUP3 SWAP1 SUB ADD SWAP1 LOG4 POP POP JUMP JUMPDEST PUSH1 0x0 SLOAD PUSH1 0xFF AND SWAP1 JUMP JUMPDEST PUSH1 0x1E PUSH1 0x20 MSTORE PUSH1 0x0 SWAP1 DUP2 MSTORE PUSH1 0x40 SWAP1 KECCAK256 SLOAD DUP2 JUMP JUMPDEST PUSH1 0x10 SLOAD PUSH2 0xFFFF AND DUP2 JUMP JUMPDEST PUSH2 0x2218 PUSH2 0x3DF5 JUMP JUMPDEST PUSH1 0x0 SLOAD PUSH2 0x100 SWAP1 DIV PUSH1 0x1 PUSH1 0x1 PUSH1 0xA0 SHL SUB SWAP1 DUP2 AND SWAP2 AND EQ PUSH2 0x226D JUMPI PUSH1 0x40 DUP1 MLOAD PUSH3 0x461BCD PUSH1 0xE5 SHL DUP2 MSTORE PUSH1 0x20 PUSH1 0x4 DUP3 ADD DUP2 SWAP1 MSTORE PUSH1 0x24 DUP3 ADD MSTORE PUSH1 0x0 DUP1 MLOAD PUSH1 0x20 PUSH2 0x41E6 DUP4 CODECOPY DUP2 MLOAD SWAP2 MSTORE PUSH1 0x44 DUP3 ADD MSTORE SWAP1 MLOAD SWAP1 DUP2 SWAP1 SUB PUSH1 0x64 ADD SWAP1 REVERT JUMPDEST PUSH1 0x0 DUP1 SLOAD PUSH1 0x40 MLOAD PUSH2 0x100 SWAP1 SWAP2 DIV PUSH1 0x1 PUSH1 0x1 PUSH1 0xA0 SHL SUB AND SWAP1 PUSH32 0x8BE0079C531659141344CD1FD0A4F28419497F9722A3DAAFE3B4186F6B6457E0 SWAP1 DUP4 SWAP1 LOG3 PUSH1 0x0 DUP1 SLOAD PUSH2 0x100 PUSH1 0x1 PUSH1 0xA8 SHL SUB NOT AND SWAP1 SSTORE JUMP JUMPDEST PUSH1 0x24 SLOAD DUP2 JUMP JUMPDEST PUSH1 0xD SLOAD PUSH1 0xE SLOAD PUSH1 0x0 SWAP2 GT DUP1 ISZERO SWAP1 PUSH2 0x22DB JUMPI POP PUSH1 0x0 PUSH1 0xB SLOAD GT JUMPDEST SWAP1 POP SWAP1 JUMP JUMPDEST PUSH2 0x22E8 PUSH2 0x3DF5 JUMP JUMPDEST PUSH1 0x0 SLOAD PUSH2 0x100 SWAP1 DIV PUSH1 0x1 PUSH1 0x1 PUSH1 0xA0 SHL SUB SWAP1 DUP2 AND SWAP2 AND EQ PUSH2 0x233D JUMPI PUSH1 0x40 DUP1 MLOAD PUSH3 0x461BCD PUSH1 0xE5 SHL DUP2 MSTORE PUSH1 0x20 PUSH1 0x4 DUP3 ADD DUP2 SWAP1 MSTORE PUSH1 0x24 DUP3 ADD MSTORE PUSH1 0x0 DUP1 MLOAD PUSH1 0x20 PUSH2 0x41E6 DUP4 CODECOPY DUP2 MLOAD SWAP2 MSTORE PUSH1 0x44 DUP3 ADD MSTORE SWAP1 MLOAD SWAP1 DUP2 SWAP1 SUB PUSH1 0x64 ADD SWAP1 REVERT JUMPDEST PUSH1 0x0 DUP2 PUSH2 0xFFFF AND GT PUSH2 0x2386 JUMPI PUSH1 0x40 DUP1 MLOAD PUSH3 0x461BCD PUSH1 0xE5 SHL DUP2 MSTORE PUSH1 0x20 PUSH1 0x4 DUP3 ADD MSTORE PUSH1 0xD PUSH1 0x24 DUP3 ADD MSTORE PUSH13 0x53686F756C64206265203E203 PUSH1 0x9C SHL PUSH1 0x44 DUP3 ADD MSTORE SWAP1 MLOAD SWAP1 DUP2 SWAP1 SUB PUSH1 0x64 ADD SWAP1 REVERT JUMPDEST PUSH1 0x10 DUP1 SLOAD PUSH2 0xFFFF NOT AND PUSH2 0xFFFF SWAP3 SWAP1 SWAP3 AND SWAP2 SWAP1 SWAP2 OR SWAP1 SSTORE JUMP JUMPDEST PUSH2 0x23A6 PUSH2 0x3DF5 JUMP JUMPDEST PUSH1 0x0 SLOAD PUSH2 0x100 SWAP1 DIV PUSH1 0x1 PUSH1 0x1 PUSH1 0xA0 SHL SUB SWAP1 DUP2 AND SWAP2 AND EQ PUSH2 0x23FB JUMPI PUSH1 0x40 DUP1 MLOAD PUSH3 0x461BCD PUSH1 0xE5 SHL DUP2 MSTORE PUSH1 0x20 PUSH1 0x4 DUP3 ADD DUP2 SWAP1 MSTORE PUSH1 0x24 DUP3 ADD MSTORE PUSH1 0x0 DUP1 MLOAD PUSH1 0x20 PUSH2 0x41E6 DUP4 CODECOPY DUP2 MLOAD SWAP2 MSTORE PUSH1 0x44 DUP3 ADD MSTORE SWAP1 MLOAD SWAP1 DUP2 SWAP1 SUB PUSH1 0x64 ADD SWAP1 REVERT JUMPDEST PUSH1 0x0 DUP2 GT PUSH2 0x2448 JUMPI PUSH1 0x40 DUP1 MLOAD PUSH3 0x461BCD PUSH1 0xE5 SHL DUP2 MSTORE PUSH1 0x20 PUSH1 0x4 DUP3 ADD MSTORE PUSH1 0x15 PUSH1 0x24 DUP3 ADD MSTORE PUSH21 0x7468726573686F6C64206D757374206265203E203 PUSH1 0x5C SHL PUSH1 0x44 DUP3 ADD MSTORE SWAP1 MLOAD SWAP1 DUP2 SWAP1 SUB PUSH1 0x64 ADD SWAP1 REVERT JUMPDEST PUSH1 0x2 SSTORE JUMP JUMPDEST PUSH1 0x23 SLOAD DUP2 JUMP JUMPDEST PUSH1 0x9 PUSH1 0x20 MSTORE PUSH1 0x0 SWAP1 DUP2 MSTORE PUSH1 0x40 SWAP1 KECCAK256 SLOAD DUP2 JUMP JUMPDEST PUSH1 0x6 SLOAD PUSH1 0x1 PUSH1 0x1 PUSH1 0xA0 SHL SUB AND DUP2 JUMP JUMPDEST PUSH2 0x247C PUSH2 0x3DF5 JUMP JUMPDEST PUSH1 0x0 SLOAD PUSH2 0x100 SWAP1 DIV PUSH1 0x1 PUSH1 0x1 PUSH1 0xA0 SHL SUB SWAP1 DUP2 AND SWAP2 AND EQ PUSH2 0x24D1 JUMPI PUSH1 0x40 DUP1 MLOAD PUSH3 0x461BCD PUSH1 0xE5 SHL DUP2 MSTORE PUSH1 0x20 PUSH1 0x4 DUP3 ADD DUP2 SWAP1 MSTORE PUSH1 0x24 DUP3 ADD MSTORE PUSH1 0x0 DUP1 MLOAD PUSH1 0x20 PUSH2 0x41E6 DUP4 CODECOPY DUP2 MLOAD SWAP2 MSTORE PUSH1 0x44 DUP3 ADD MSTORE SWAP1 MLOAD SWAP1 DUP2 SWAP1 SUB PUSH1 0x64 ADD SWAP1 REVERT JUMPDEST PUSH1 0x0 DUP2 GT PUSH2 0x2516 JUMPI PUSH1 0x40 DUP1 MLOAD PUSH3 0x461BCD PUSH1 0xE5 SHL DUP2 MSTORE PUSH1 0x20 PUSH1 0x4 DUP3 ADD MSTORE PUSH1 0xD PUSH1 0x24 DUP3 ADD MSTORE PUSH13 0x53686F756C64206265203E203 PUSH1 0x9C SHL PUSH1 0x44 DUP3 ADD MSTORE SWAP1 MLOAD SWAP1 DUP2 SWAP1 SUB PUSH1 0x64 ADD SWAP1 REVERT JUMPDEST PUSH1 0xD SSTORE JUMP JUMPDEST PUSH2 0x2523 PUSH2 0x3DF5 JUMP JUMPDEST PUSH1 0x0 SLOAD PUSH2 0x100 SWAP1 DIV PUSH1 0x1 PUSH1 0x1 PUSH1 0xA0 SHL SUB SWAP1 DUP2 AND SWAP2 AND EQ PUSH2 0x2578 JUMPI PUSH1 0x40 DUP1 MLOAD PUSH3 0x461BCD PUSH1 0xE5 SHL DUP2 MSTORE PUSH1 0x20 PUSH1 0x4 DUP3 ADD DUP2 SWAP1 MSTORE PUSH1 0x24 DUP3 ADD MSTORE PUSH1 0x0 DUP1 MLOAD PUSH1 0x20 PUSH2 0x41E6 DUP4 CODECOPY DUP2 MLOAD SWAP2 MSTORE PUSH1 0x44 DUP3 ADD MSTORE SWAP1 MLOAD SWAP1 DUP2 SWAP1 SUB PUSH1 0x64 ADD SWAP1 REVERT JUMPDEST PUSH2 0x1978 PUSH2 0x3E97 JUMP JUMPDEST PUSH1 0x22 SLOAD DUP2 JUMP JUMPDEST PUSH1 0x0 SLOAD PUSH2 0x100 SWAP1 DIV PUSH1 0x1 PUSH1 0x1 PUSH1 0xA0 SHL SUB AND SWAP1 JUMP JUMPDEST PUSH1 0x2 SLOAD DUP2 JUMP JUMPDEST PUSH1 0x11 SLOAD DUP2 JUMP JUMPDEST PUSH1 0x0 DUP2 DUP2 MSTORE PUSH1 0x19 PUSH1 0x20 MSTORE PUSH1 0x40 SWAP1 KECCAK256 PUSH1 0x5 ADD SLOAD DUP2 SWAP1 PUSH1 0x1 PUSH1 0x1 PUSH1 0xA0 SHL SUB AND CALLER EQ PUSH2 0x2604 JUMPI PUSH1 0x40 DUP1 MLOAD PUSH3 0x461BCD PUSH1 0xE5 SHL DUP2 MSTORE PUSH1 0x20 PUSH1 0x4 DUP3 ADD MSTORE PUSH1 0xB PUSH1 0x24 DUP3 ADD MSTORE PUSH11 0x2737BA1031B932B0BA37B9 PUSH1 0xA9 SHL PUSH1 0x44 DUP3 ADD MSTORE SWAP1 MLOAD SWAP1 DUP2 SWAP1 SUB PUSH1 0x64 ADD SWAP1 REVERT JUMPDEST PUSH1 0x0 DUP3 DUP2 MSTORE PUSH1 0x19 PUSH1 0x20 MSTORE PUSH1 0x40 SWAP1 KECCAK256 PUSH1 0x6 ADD SLOAD DUP3 SWAP1 PUSH1 0x1 PUSH1 0x1 PUSH1 0xA0 SHL SUB AND ISZERO PUSH2 0x2662 JUMPI PUSH1 0x40 DUP1 MLOAD PUSH3 0x461BCD PUSH1 0xE5 SHL DUP2 MSTORE PUSH1 0x20 PUSH1 0x4 DUP3 ADD MSTORE PUSH1 0xC PUSH1 0x24 DUP3 ADD MSTORE PUSH12 0x12185CC81BDC1C1BDB995B9D PUSH1 0xA2 SHL PUSH1 0x44 DUP3 ADD MSTORE SWAP1 MLOAD SWAP1 DUP2 SWAP1 SUB PUSH1 0x64 ADD SWAP1 REVERT JUMPDEST PUSH1 0x11 SLOAD CALLVALUE EQ PUSH2 0x26A4 JUMPI PUSH1 0x40 DUP1 MLOAD PUSH3 0x461BCD PUSH1 0xE5 SHL DUP2 MSTORE PUSH1 0x20 PUSH1 0x4 DUP3 ADD MSTORE PUSH1 0x9 PUSH1 0x24 DUP3 ADD MSTORE PUSH9 0x57726F6E6720666565 PUSH1 0xB8 SHL PUSH1 0x44 DUP3 ADD MSTORE SWAP1 MLOAD SWAP1 DUP2 SWAP1 SUB PUSH1 0x64 ADD SWAP1 REVERT JUMPDEST PUSH1 0x12 SLOAD DUP4 EQ ISZERO PUSH2 0x26ED JUMPI PUSH1 0x40 DUP1 MLOAD PUSH3 0x461BCD PUSH1 0xE5 SHL DUP2 MSTORE PUSH1 0x20 PUSH1 0x4 DUP3 ADD MSTORE PUSH1 0xF PUSH1 0x24 DUP3 ADD MSTORE PUSH15 0x546F7020696E20546F7047616D6573 PUSH1 0x88 SHL PUSH1 0x44 DUP3 ADD MSTORE SWAP1 MLOAD SWAP1 DUP2 SWAP1 SUB PUSH1 0x64 ADD SWAP1 REVERT JUMPDEST PUSH2 0x26F5 PUSH2 0x40EE JUMP JUMPDEST PUSH1 0x40 MLOAD DUP1 PUSH1 0xA0 ADD PUSH1 0x40 MSTORE DUP1 DUP6 DUP2 MSTORE PUSH1 0x20 ADD PUSH1 0x0 DUP2 MSTORE PUSH1 0x20 ADD PUSH1 0x0 DUP2 MSTORE PUSH1 0x20 ADD PUSH1 0x0 DUP2 MSTORE PUSH1 0x20 ADD PUSH1 0x0 DUP2 MSTORE POP SWAP1 POP PUSH1 0x0 DUP1 PUSH1 0x0 SWAP1 POP JUMPDEST PUSH1 0x4 DUP2 PUSH1 0xFF AND LT ISZERO PUSH2 0x27AF JUMPI DUP6 PUSH1 0x12 DUP3 PUSH1 0xFF AND PUSH1 0x5 DUP2 LT PUSH2 0x2747 JUMPI INVALID JUMPDEST ADD SLOAD EQ DUP1 ISZERO PUSH2 0x2754 JUMPI POP DUP2 ISZERO JUMPDEST ISZERO PUSH2 0x275E JUMPI PUSH1 0x1 SWAP2 POP JUMPDEST DUP2 PUSH2 0x277A JUMPI PUSH1 0x12 DUP2 PUSH1 0xFF AND PUSH1 0x5 DUP2 LT PUSH2 0x2773 JUMPI INVALID JUMPDEST ADD SLOAD PUSH2 0x2790 JUMP JUMPDEST PUSH1 0x12 DUP2 PUSH1 0x1 ADD PUSH1 0xFF AND PUSH1 0x5 DUP2 LT PUSH2 0x278D JUMPI INVALID JUMPDEST ADD SLOAD JUMPDEST DUP4 DUP3 PUSH1 0x1 ADD PUSH1 0xFF AND PUSH1 0x5 DUP2 LT PUSH2 0x27A2 JUMPI INVALID JUMPDEST PUSH1 0x20 MUL ADD MSTORE PUSH1 0x1 ADD PUSH2 0x272A JUMP JUMPDEST POP PUSH2 0x27BD PUSH1 0x12 DUP4 PUSH1 0x5 PUSH2 0x410C JUMP JUMPDEST POP PUSH1 0x22 SLOAD PUSH2 0x27D1 SWAP1 CALLVALUE PUSH4 0xFFFFFFFF PUSH2 0x3BB9 AND JUMP JUMPDEST PUSH1 0x22 SSTORE PUSH1 0x24 SLOAD PUSH2 0x27E7 SWAP1 CALLVALUE PUSH4 0xFFFFFFFF PUSH2 0x3BB9 AND JUMP JUMPDEST PUSH1 0x24 SSTORE PUSH1 0x40 MLOAD CALLER SWAP1 DUP7 SWAP1 PUSH32 0x27850EB52960AE0F343455F87B489C819BB4FDAEA63D6968AA19DBA5ADF2991E SWAP1 PUSH1 0x0 SWAP1 LOG3 POP POP POP POP POP JUMP JUMPDEST PUSH1 0xC SLOAD DUP2 JUMP JUMPDEST PUSH1 0x1F PUSH1 0x20 MSTORE PUSH1 0x0 SWAP1 DUP2 MSTORE PUSH1 0x40 SWAP1 KECCAK256 SLOAD DUP2 JUMP JUMPDEST PUSH1 0x0 SLOAD PUSH1 0xFF AND ISZERO PUSH2 0x2881 JUMPI PUSH1 0x40 DUP1 MLOAD PUSH3 0x461BCD PUSH1 0xE5 SHL DUP2 MSTORE PUSH1 0x20 PUSH1 0x4 DUP3 ADD MSTORE PUSH1 0x10 PUSH1 0x24 DUP3 ADD MSTORE PUSH16 0x14185D5CD8589B194E881C185D5CD959 PUSH1 0x82 SHL PUSH1 0x44 DUP3 ADD MSTORE SWAP1 MLOAD SWAP1 DUP2 SWAP1 SUB PUSH1 0x64 ADD SWAP1 REVERT JUMPDEST PUSH1 0x0 DUP2 DUP2 MSTORE PUSH1 0x19 PUSH1 0x20 MSTORE PUSH1 0x40 SWAP1 KECCAK256 PUSH1 0x5 ADD SLOAD DUP2 SWAP1 PUSH1 0x1 PUSH1 0x1 PUSH1 0xA0 SHL SUB AND CALLER EQ PUSH2 0x28DF JUMPI PUSH1 0x40 DUP1 MLOAD PUSH3 0x461BCD PUSH1 0xE5 SHL DUP2 MSTORE PUSH1 0x20 PUSH1 0x4 DUP3 ADD MSTORE PUSH1 0xB PUSH1 0x24 DUP3 ADD MSTORE PUSH11 0x2737BA1031B932B0BA37B9 PUSH1 0xA9 SHL PUSH1 0x44 DUP3 ADD MSTORE SWAP1 MLOAD SWAP1 DUP2 SWAP1 SUB PUSH1 0x64 ADD SWAP1 REVERT JUMPDEST PUSH1 0x0 DUP3 DUP2 MSTORE PUSH1 0x19 PUSH1 0x20 MSTORE PUSH1 0x40 SWAP1 KECCAK256 PUSH1 0x6 ADD SLOAD DUP3 SWAP1 PUSH1 0x1 PUSH1 0x1 PUSH1 0xA0 SHL SUB AND ISZERO PUSH2 0x293D JUMPI PUSH1 0x40 DUP1 MLOAD PUSH3 0x461BCD PUSH1 0xE5 SHL DUP2 MSTORE PUSH1 0x20 PUSH1 0x4 DUP3 ADD MSTORE PUSH1 0xC PUSH1 0x24 DUP3 ADD MSTORE PUSH12 0x12185CC81BDC1C1BDB995B9D PUSH1 0xA2 SHL PUSH1 0x44 DUP3 ADD MSTORE SWAP1 MLOAD SWAP1 DUP2 SWAP1 SUB PUSH1 0x64 ADD SWAP1 REVERT JUMPDEST PUSH1 0x0 CALLVALUE GT PUSH2 0x2989 JUMPI PUSH1 0x40 DUP1 MLOAD PUSH3 0x461BCD PUSH1 0xE5 SHL DUP2 MSTORE PUSH1 0x20 PUSH1 0x4 DUP3 ADD MSTORE PUSH1 0x14 PUSH1 0x24 DUP3 ADD MSTORE PUSH20 0x696E637265617365206D757374206265203E203 PUSH1 0x64 SHL PUSH1 0x44 DUP3 ADD MSTORE SWAP1 MLOAD SWAP1 DUP2 SWAP1 SUB PUSH1 0x64 ADD SWAP1 REVERT JUMPDEST CALLER PUSH1 0x0 SWAP1 DUP2 MSTORE PUSH1 0x1E PUSH1 0x20 MSTORE PUSH1 0x40 SWAP1 KECCAK256 SLOAD PUSH2 0x29A9 SWAP1 CALLVALUE PUSH4 0xFFFFFFFF PUSH2 0x3BB9 AND JUMP JUMPDEST CALLER PUSH1 0x0 SWAP1 DUP2 MSTORE PUSH1 0x1E PUSH1 0x20 SWAP1 DUP2 MSTORE PUSH1 0x40 DUP1 DUP4 KECCAK256 SWAP4 SWAP1 SWAP4 SSTORE DUP6 DUP3 MSTORE PUSH1 0x19 SWAP1 MSTORE KECCAK256 PUSH1 0x2 ADD SLOAD PUSH2 0x29DB SWAP1 CALLVALUE PUSH4 0xFFFFFFFF PUSH2 0x3BB9 AND JUMP JUMPDEST PUSH1 0x0 DUP5 DUP2 MSTORE PUSH1 0x19 PUSH1 0x20 MSTORE PUSH1 0x40 SWAP1 KECCAK256 PUSH1 0x2 ADD SSTORE PUSH1 0x24 SLOAD PUSH2 0x2A00 SWAP1 CALLVALUE PUSH4 0xFFFFFFFF PUSH2 0x3BB9 AND JUMP JUMPDEST PUSH1 0x24 SSTORE PUSH1 0x40 MLOAD CALLER SWAP1 DUP5 SWAP1 PUSH32 0x40C8E41157C3ECE3442654816DA3E471438E15288A88FAA65A51271A10238F9 SWAP1 PUSH1 0x0 SWAP1 LOG3 POP POP POP JUMP JUMPDEST PUSH1 0x5 SLOAD DUP2 JUMP JUMPDEST PUSH1 0x0 DUP1 JUMPDEST PUSH1 0x5 DUP2 PUSH1 0xFF AND LT ISZERO PUSH2 0x2A76 JUMPI DUP3 PUSH1 0x12 DUP3 PUSH1 0xFF AND PUSH1 0x5 DUP2 LT PUSH2 0x2A5C JUMPI INVALID JUMPDEST ADD SLOAD EQ ISZERO PUSH2 0x2A6E JUMPI PUSH1 0x1 SWAP2 POP POP PUSH2 0x2A7C JUMP JUMPDEST PUSH1 0x1 ADD PUSH2 0x2A3F JUMP JUMPDEST POP PUSH1 0x0 SWAP1 POP JUMPDEST SWAP2 SWAP1 POP JUMP JUMPDEST PUSH1 0x60 PUSH1 0x1 PUSH1 0x1 PUSH1 0xA0 SHL SUB DUP3 AND PUSH2 0x2ACD JUMPI PUSH1 0x40 DUP1 MLOAD PUSH3 0x461BCD PUSH1 0xE5 SHL DUP2 MSTORE PUSH1 0x20 PUSH1 0x4 DUP3 ADD MSTORE PUSH1 0xC PUSH1 0x24 DUP3 ADD MSTORE PUSH12 0x43616E6E742062652030783 PUSH1 0xA4 SHL PUSH1 0x44 DUP3 ADD MSTORE SWAP1 MLOAD SWAP1 DUP2 SWAP1 SUB PUSH1 0x64 ADD SWAP1 REVERT JUMPDEST PUSH1 0x1 PUSH1 0x1 PUSH1 0xA0 SHL SUB DUP3 AND PUSH1 0x0 SWAP1 DUP2 MSTORE PUSH1 0x1C PUSH1 0x20 SWAP1 DUP2 MSTORE PUSH1 0x40 SWAP2 DUP3 SWAP1 KECCAK256 DUP1 SLOAD DUP4 MLOAD DUP2 DUP5 MUL DUP2 ADD DUP5 ADD SWAP1 SWAP5 MSTORE DUP1 DUP5 MSTORE SWAP1 SWAP2 DUP4 ADD DUP3 DUP3 DUP1 ISZERO PUSH2 0x1FEB JUMPI PUSH1 0x20 MUL DUP3 ADD SWAP2 SWAP1 PUSH1 0x0 MSTORE PUSH1 0x20 PUSH1 0x0 KECCAK256 SWAP1 DUP2 SLOAD DUP2 MSTORE PUSH1 0x20 ADD SWAP1 PUSH1 0x1 ADD SWAP1 DUP1 DUP4 GT PUSH2 0x1FD7 JUMPI POP POP POP POP POP SWAP1 POP SWAP2 SWAP1 POP JUMP JUMPDEST PUSH1 0x20 DUP1 MSTORE PUSH1 0x0 SWAP1 DUP2 MSTORE PUSH1 0x40 SWAP1 KECCAK256 SLOAD DUP2 JUMP JUMPDEST PUSH1 0x0 DUP2 DUP2 MSTORE PUSH1 0x19 PUSH1 0x20 MSTORE PUSH1 0x40 DUP2 KECCAK256 PUSH1 0x3 ADD SLOAD ISZERO PUSH2 0x2A7C JUMPI PUSH1 0x10 SLOAD PUSH1 0x0 DUP4 DUP2 MSTORE PUSH1 0x19 PUSH1 0x20 MSTORE PUSH1 0x40 SWAP1 KECCAK256 PUSH1 0x3 ADD SLOAD TIMESTAMP SWAP2 PUSH2 0x2B88 SWAP2 SWAP1 PUSH2 0xFFFF AND PUSH4 0xFFFFFFFF PUSH2 0x3BB9 AND JUMP JUMPDEST LT SWAP1 POP PUSH2 0x2A7C JUMP JUMPDEST CALLER PUSH1 0x0 SWAP1 DUP2 MSTORE PUSH1 0x9 PUSH1 0x20 MSTORE PUSH1 0x40 SWAP1 KECCAK256 SLOAD DUP1 PUSH2 0x2BE4 JUMPI PUSH1 0x40 DUP1 MLOAD PUSH3 0x461BCD PUSH1 0xE5 SHL DUP2 MSTORE PUSH1 0x20 PUSH1 0x4 DUP3 ADD MSTORE PUSH1 0xF PUSH1 0x24 DUP3 ADD MSTORE PUSH15 0x4E6F20726166666C65207072697A65 PUSH1 0x88 SHL PUSH1 0x44 DUP3 ADD MSTORE SWAP1 MLOAD SWAP1 DUP2 SWAP1 SUB PUSH1 0x64 ADD SWAP1 REVERT JUMPDEST CALLER PUSH1 0x0 SWAP1 DUP2 MSTORE PUSH1 0x9 PUSH1 0x20 SWAP1 DUP2 MSTORE PUSH1 0x40 DUP1 DUP4 KECCAK256 DUP4 SWAP1 SSTORE PUSH1 0xA SWAP1 SWAP2 MSTORE SWAP1 KECCAK256 SLOAD PUSH2 0x2C11 SWAP1 DUP3 PUSH4 0xFFFFFFFF PUSH2 0x3BB9 AND JUMP JUMPDEST CALLER PUSH1 0x0 DUP2 DUP2 MSTORE PUSH1 0xA PUSH1 0x20 MSTORE PUSH1 0x40 DUP1 DUP3 KECCAK256 SWAP4 SWAP1 SWAP4 SSTORE SWAP2 MLOAD SWAP1 SWAP2 DUP4 ISZERO PUSH2 0x8FC MUL SWAP2 DUP5 SWAP2 DUP2 DUP2 DUP2 DUP6 DUP9 DUP9 CALL SWAP4 POP POP POP POP ISZERO DUP1 ISZERO PUSH2 0x2C4F JUMPI RETURNDATASIZE PUSH1 0x0 DUP1 RETURNDATACOPY RETURNDATASIZE PUSH1 0x0 REVERT JUMPDEST POP PUSH1 0x40 MLOAD CALLER SWAP1 PUSH32 0x41F36E3513AFE9499E34441F572F2E84284A9AE1416882252929B6B7C72A3089 SWAP1 PUSH1 0x0 SWAP1 LOG2 POP JUMP JUMPDEST PUSH1 0x1D PUSH1 0x20 MSTORE DUP2 PUSH1 0x0 MSTORE PUSH1 0x40 PUSH1 0x0 KECCAK256 DUP2 DUP2 SLOAD DUP2 LT PUSH2 0x2C97 JUMPI INVALID JUMPDEST SWAP1 PUSH1 0x0 MSTORE PUSH1 0x20 PUSH1 0x0 KECCAK256 ADD PUSH1 0x0 SWAP2 POP SWAP2 POP POP SLOAD DUP2 JUMP JUMPDEST PUSH3 0x13C680 DUP2 JUMP JUMPDEST PUSH2 0x2CBB PUSH2 0x22C2 JUMP JUMPDEST PUSH2 0x2D02 JUMPI PUSH1 0x40 DUP1 MLOAD PUSH3 0x461BCD PUSH1 0xE5 SHL DUP2 MSTORE PUSH1 0x20 PUSH1 0x4 DUP3 ADD MSTORE PUSH1 0x13 PUSH1 0x24 DUP3 ADD MSTORE PUSH19 0x149859999B1948084F481858DD1A5D985D1959 PUSH1 0x6A SHL PUSH1 0x44 DUP3 ADD MSTORE SWAP1 MLOAD SWAP1 DUP2 SWAP1 SUB PUSH1 0x64 ADD SWAP1 REVERT JUMPDEST PUSH1 0x0 PUSH2 0x2D0C PUSH2 0x187D JUMP JUMPDEST SWAP1 POP PUSH2 0x2D56 PUSH1 0xB SLOAD PUSH1 0x9 PUSH1 0x0 PUSH1 0xE DUP6 DUP2 SLOAD DUP2 LT PUSH2 0x2D25 JUMPI INVALID JUMPDEST PUSH1 0x0 SWAP2 DUP3 MSTORE PUSH1 0x20 DUP1 DUP4 KECCAK256 SWAP1 SWAP2 ADD SLOAD PUSH1 0x1 PUSH1 0x1 PUSH1 0xA0 SHL SUB AND DUP4 MSTORE DUP3 ADD SWAP3 SWAP1 SWAP3 MSTORE PUSH1 0x40 ADD SWAP1 KECCAK256 SLOAD SWAP1 PUSH4 0xFFFFFFFF PUSH2 0x3BB9 AND JUMP JUMPDEST PUSH1 0x9 PUSH1 0x0 PUSH1 0xE DUP5 DUP2 SLOAD DUP2 LT PUSH2 0x2D67 JUMPI INVALID JUMPDEST PUSH1 0x0 SWAP2 DUP3 MSTORE PUSH1 0x20 DUP1 DUP4 KECCAK256 SWAP1 SWAP2 ADD SLOAD PUSH1 0x1 PUSH1 0x1 PUSH1 0xA0 SHL SUB AND DUP4 MSTORE DUP3 ADD SWAP3 SWAP1 SWAP3 MSTORE PUSH1 0x40 ADD SWAP1 KECCAK256 SSTORE PUSH1 0xB SLOAD PUSH1 0xC SLOAD PUSH2 0x2DA1 SWAP2 PUSH4 0xFFFFFFFF PUSH2 0x3BB9 AND JUMP JUMPDEST PUSH1 0xC DUP2 SWAP1 SSTORE POP PUSH1 0xF PUSH1 0x40 MLOAD DUP1 PUSH1 0x60 ADD PUSH1 0x40 MSTORE DUP1 PUSH1 0xE DUP5 DUP2 SLOAD DUP2 LT PUSH2 0x2DC1 JUMPI INVALID JUMPDEST PUSH1 0x0 SWAP2 DUP3 MSTORE PUSH1 0x20 DUP1 DUP4 KECCAK256 SWAP2 SWAP1 SWAP2 ADD SLOAD PUSH1 0x1 PUSH1 0x1 PUSH1 0xA0 SHL SUB SWAP1 DUP2 AND DUP5 MSTORE PUSH1 0xB DUP1 SLOAD DUP6 DUP5 ADD MSTORE TIMESTAMP PUSH1 0x40 SWAP6 DUP7 ADD MSTORE DUP7 SLOAD PUSH1 0x1 DUP1 DUP3 ADD DUP10 SSTORE SWAP8 DUP6 MSTORE SWAP4 DUP4 SWAP1 KECCAK256 DUP7 MLOAD PUSH1 0x3 SWAP1 SWAP6 MUL ADD DUP1 SLOAD PUSH1 0x1 PUSH1 0x1 PUSH1 0xA0 SHL SUB NOT AND SWAP5 SWAP1 SWAP3 AND SWAP4 SWAP1 SWAP4 OR DUP2 SSTORE SWAP1 DUP5 ADD MLOAD SWAP5 DUP2 ADD SWAP5 SWAP1 SWAP5 SSTORE SWAP2 ADD MLOAD PUSH1 0x2 SWAP1 SWAP3 ADD SWAP2 SWAP1 SWAP2 SSTORE SLOAD PUSH1 0xE DUP1 SLOAD DUP4 SWAP1 DUP2 LT PUSH2 0x2E40 JUMPI INVALID JUMPDEST PUSH1 0x0 SWAP2 DUP3 MSTORE PUSH1 0x20 DUP3 KECCAK256 ADD SLOAD PUSH1 0x40 MLOAD PUSH1 0x1 PUSH1 0x1 PUSH1 0xA0 SHL SUB SWAP1 SWAP2 AND SWAP2 PUSH32 0x3FCB6936A4C5AA28446D2519EBC71D8CE9F21CD4ECD4A6B362CDC9D403108EC2 SWAP2 LOG3 PUSH1 0xB PUSH1 0x0 SWAP1 SSTORE PUSH1 0xE PUSH1 0x0 PUSH2 0x2E91 SWAP2 SWAP1 PUSH2 0x414A JUMP JUMPDEST POP JUMP JUMPDEST PUSH1 0x0 DUP2 DUP2 MSTORE PUSH1 0x19 PUSH1 0x20 MSTORE PUSH1 0x40 SWAP1 KECCAK256 PUSH1 0x5 ADD SLOAD DUP2 SWAP1 PUSH1 0x1 PUSH1 0x1 PUSH1 0xA0 SHL SUB AND CALLER EQ PUSH2 0x2EF2 JUMPI PUSH1 0x40 DUP1 MLOAD PUSH3 0x461BCD PUSH1 0xE5 SHL DUP2 MSTORE PUSH1 0x20 PUSH1 0x4 DUP3 ADD MSTORE PUSH1 0xB PUSH1 0x24 DUP3 ADD MSTORE PUSH11 0x2737BA1031B932B0BA37B9 PUSH1 0xA9 SHL PUSH1 0x44 DUP3 ADD MSTORE SWAP1 MLOAD SWAP1 DUP2 SWAP1 SUB PUSH1 0x64 ADD SWAP1 REVERT JUMPDEST DUP2 PUSH2 0x2EFC DUP2 PUSH2 0x3210 JUMP JUMPDEST PUSH2 0x2F42 JUMPI PUSH1 0x40 DUP1 MLOAD PUSH3 0x461BCD PUSH1 0xE5 SHL DUP2 MSTORE PUSH1 0x20 PUSH1 0x4 DUP3 ADD MSTORE PUSH1 0x12 PUSH1 0x24 DUP3 ADD MSTORE PUSH18 0x11D85B59481A5CC81B9BDD081C185D5CD959 PUSH1 0x72 SHL PUSH1 0x44 DUP3 ADD MSTORE SWAP1 MLOAD SWAP1 DUP2 SWAP1 SUB PUSH1 0x64 ADD SWAP1 REVERT JUMPDEST PUSH1 0x11 SLOAD CALLVALUE EQ PUSH2 0x2F84 JUMPI PUSH1 0x40 DUP1 MLOAD PUSH3 0x461BCD PUSH1 0xE5 SHL DUP2 MSTORE PUSH1 0x20 PUSH1 0x4 DUP3 ADD MSTORE PUSH1 0x9 PUSH1 0x24 DUP3 ADD MSTORE PUSH9 0x57726F6E6720666565 PUSH1 0xB8 SHL PUSH1 0x44 DUP3 ADD MSTORE SWAP1 MLOAD SWAP1 DUP2 SWAP1 SUB PUSH1 0x64 ADD SWAP1 REVERT JUMPDEST PUSH1 0x0 DUP4 DUP2 MSTORE PUSH1 0x19 PUSH1 0x20 MSTORE PUSH1 0x40 SWAP1 KECCAK256 DUP1 SLOAD PUSH1 0xFF NOT AND SWAP1 SSTORE PUSH1 0x22 SLOAD PUSH2 0x2FAD SWAP1 CALLVALUE PUSH4 0xFFFFFFFF PUSH2 0x3BB9 AND JUMP JUMPDEST PUSH1 0x22 SSTORE PUSH1 0x24 SLOAD PUSH2 0x2FC3 SWAP1 CALLVALUE PUSH4 0xFFFFFFFF PUSH2 0x3BB9 AND JUMP JUMPDEST PUSH1 0x24 SSTORE PUSH1 0x0 DUP4 DUP2 MSTORE PUSH1 0x19 PUSH1 0x20 MSTORE PUSH1 0x40 DUP1 DUP3 KECCAK256 PUSH1 0x5 ADD SLOAD SWAP1 MLOAD PUSH1 0x1 PUSH1 0x1 PUSH1 0xA0 SHL SUB SWAP1 SWAP2 AND SWAP2 DUP6 SWAP2 PUSH32 0xF0B0A4BAF8F4FD56BB7663286EB293A4201E771C238BC79CFC108E6ABC2ABBBB SWAP2 SWAP1 LOG3 POP POP POP JUMP JUMPDEST PUSH1 0x1 SLOAD PUSH1 0x1 PUSH1 0x1 PUSH1 0xA0 SHL SUB AND DUP2 JUMP JUMPDEST PUSH1 0x12 DUP2 PUSH1 0x5 DUP2 LT PUSH2 0x302E JUMPI INVALID JUMPDEST ADD SLOAD SWAP1 POP DUP2 JUMP JUMPDEST PUSH1 0x3 SLOAD DUP2 JUMP JUMPDEST PUSH2 0x3043 PUSH2 0x3DF5 JUMP JUMPDEST PUSH1 0x0 SLOAD PUSH2 0x100 SWAP1 DIV PUSH1 0x1 PUSH1 0x1 PUSH1 0xA0 SHL SUB SWAP1 DUP2 AND SWAP2 AND EQ PUSH2 0x3098 JUMPI PUSH1 0x40 DUP1 MLOAD PUSH3 0x461BCD PUSH1 0xE5 SHL DUP2 MSTORE PUSH1 0x20 PUSH1 0x4 DUP3 ADD DUP2 SWAP1 MSTORE PUSH1 0x24 DUP3 ADD MSTORE PUSH1 0x0 DUP1 MLOAD PUSH1 0x20 PUSH2 0x41E6 DUP4 CODECOPY DUP2 MLOAD SWAP2 MSTORE PUSH1 0x44 DUP3 ADD MSTORE SWAP1 MLOAD SWAP1 DUP2 SWAP1 SUB PUSH1 0x64 ADD SWAP1 REVERT JUMPDEST PUSH1 0x22 SLOAD DUP1 PUSH2 0x30DA JUMPI PUSH1 0x40 DUP1 MLOAD PUSH3 0x461BCD PUSH1 0xE5 SHL DUP2 MSTORE PUSH1 0x20 PUSH1 0x4 DUP3 ADD MSTORE PUSH1 0xA PUSH1 0x24 DUP3 ADD MSTORE PUSH10 0x4E6F2064657620666565 PUSH1 0xB0 SHL PUSH1 0x44 DUP3 ADD MSTORE SWAP1 MLOAD SWAP1 DUP2 SWAP1 SUB PUSH1 0x64 ADD SWAP1 REVERT JUMPDEST PUSH1 0x0 PUSH1 0x22 DUP2 SWAP1 SSTORE PUSH1 0x40 MLOAD CALLER SWAP2 DUP4 ISZERO PUSH2 0x8FC MUL SWAP2 DUP5 SWAP2 DUP2 DUP2 DUP2 DUP6 DUP9 DUP9 CALL SWAP4 POP POP POP POP ISZERO DUP1 ISZERO PUSH2 0x310C JUMPI RETURNDATASIZE PUSH1 0x0 DUP1 RETURNDATACOPY RETURNDATASIZE PUSH1 0x0 REVERT JUMPDEST POP POP JUMP JUMPDEST PUSH2 0x3118 PUSH2 0x40EE JUMP JUMPDEST PUSH1 0x40 DUP1 MLOAD PUSH1 0xA0 DUP2 ADD SWAP2 DUP3 SWAP1 MSTORE SWAP1 PUSH1 0x12 SWAP1 PUSH1 0x5 SWAP1 DUP3 DUP5 JUMPDEST DUP2 SLOAD DUP2 MSTORE PUSH1 0x20 ADD SWAP1 PUSH1 0x1 ADD SWAP1 DUP1 DUP4 GT PUSH2 0x312E JUMPI POP POP POP POP POP SWAP1 POP SWAP1 JUMP JUMPDEST PUSH1 0x17 SLOAD DUP2 JUMP JUMPDEST PUSH1 0x1A PUSH1 0x20 MSTORE PUSH1 0x0 SWAP1 DUP2 MSTORE PUSH1 0x40 SWAP1 KECCAK256 SLOAD DUP2 JUMP JUMPDEST CALLER PUSH1 0x0 SWAP1 DUP2 MSTORE PUSH1 0x8 PUSH1 0x20 MSTORE PUSH1 0x40 SWAP1 KECCAK256 SLOAD DUP1 PUSH2 0x31AE JUMPI PUSH1 0x40 DUP1 MLOAD PUSH3 0x461BCD PUSH1 0xE5 SHL DUP2 MSTORE PUSH1 0x20 PUSH1 0x4 DUP3 ADD MSTORE PUSH1 0x6 PUSH1 0x24 DUP3 ADD MSTORE PUSH6 0x4E6F20666565 PUSH1 0xD0 SHL PUSH1 0x44 DUP3 ADD MSTORE SWAP1 MLOAD SWAP1 DUP2 SWAP1 SUB PUSH1 0x64 ADD SWAP1 REVERT JUMPDEST CALLER PUSH1 0x0 DUP2 DUP2 MSTORE PUSH1 0x8 PUSH1 0x20 MSTORE PUSH1 0x40 DUP1 DUP3 KECCAK256 DUP3 SWAP1 SSTORE MLOAD DUP4 ISZERO PUSH2 0x8FC MUL SWAP2 DUP5 SWAP2 SWAP1 DUP2 DUP2 DUP2 DUP6 DUP9 DUP9 CALL SWAP4 POP POP POP POP ISZERO DUP1 ISZERO PUSH2 0x31E9 JUMPI RETURNDATASIZE PUSH1 0x0 DUP1 RETURNDATACOPY RETURNDATASIZE PUSH1 0x0 REVERT JUMPDEST POP PUSH2 0x2E91 PUSH2 0x3F18 JUMP JUMPDEST PUSH1 0x24 SLOAD PUSH2 0x3205 SWAP1 CALLVALUE PUSH4 0xFFFFFFFF PUSH2 0x3BB9 AND JUMP JUMPDEST PUSH1 0x24 SSTORE PUSH2 0x1978 PUSH2 0x3F91 JUMP JUMPDEST PUSH1 0x0 SWAP1 DUP2 MSTORE PUSH1 0x19 PUSH1 0x20 MSTORE PUSH1 0x40 SWAP1 KECCAK256 SLOAD PUSH1 0xFF AND SWAP1 JUMP JUMPDEST PUSH1 0x21 PUSH1 0x20 MSTORE PUSH1 0x0 SWAP1 DUP2 MSTORE PUSH1 0x40 SWAP1 KECCAK256 SLOAD DUP2 JUMP JUMPDEST PUSH2 0x323F PUSH2 0x3DF5 JUMP JUMPDEST PUSH1 0x0 SLOAD PUSH2 0x100 SWAP1 DIV PUSH1 0x1 PUSH1 0x1 PUSH1 0xA0 SHL SUB SWAP1 DUP2 AND SWAP2 AND EQ PUSH2 0x3294 JUMPI PUSH1 0x40 DUP1 MLOAD PUSH3 0x461BCD PUSH1 0xE5 SHL DUP2 MSTORE PUSH1 0x20 PUSH1 0x4 DUP3 ADD DUP2 SWAP1 MSTORE PUSH1 0x24 DUP3 ADD MSTORE PUSH1 0x0 DUP1 MLOAD PUSH1 0x20 PUSH2 0x41E6 DUP4 CODECOPY DUP2 MLOAD SWAP2 MSTORE PUSH1 0x44 DUP3 ADD MSTORE SWAP1 MLOAD SWAP1 DUP2 SWAP1 SUB PUSH1 0x64 ADD SWAP1 REVERT JUMPDEST PUSH1 0x1 PUSH1 0x1 PUSH1 0xA0 SHL SUB DUP2 AND PUSH2 0x32D9 JUMPI PUSH1 0x40 MLOAD PUSH3 0x461BCD PUSH1 0xE5 SHL DUP2 MSTORE PUSH1 0x4 ADD DUP1 DUP1 PUSH1 0x20 ADD DUP3 DUP2 SUB DUP3 MSTORE PUSH1 0x26 DUP2 MSTORE PUSH1 0x20 ADD DUP1 PUSH2 0x417F PUSH1 0x26 SWAP2 CODECOPY PUSH1 0x40 ADD SWAP2 POP POP PUSH1 0x40 MLOAD DUP1 SWAP2 SUB SWAP1 REVERT JUMPDEST PUSH1 0x0 DUP1 SLOAD PUSH1 0x40 MLOAD PUSH1 0x1 PUSH1 0x1 PUSH1 0xA0 SHL SUB DUP1 DUP6 AND SWAP4 PUSH2 0x100 SWAP1 SWAP4 DIV AND SWAP2 PUSH32 0x8BE0079C531659141344CD1FD0A4F28419497F9722A3DAAFE3B4186F6B6457E0 SWAP2 LOG3 PUSH1 0x0 DUP1 SLOAD PUSH1 0x1 PUSH1 0x1 PUSH1 0xA0 SHL SUB SWAP1 SWAP3 AND PUSH2 0x100 MUL PUSH2 0x100 PUSH1 0x1 PUSH1 0xA8 SHL SUB NOT SWAP1 SWAP3 AND SWAP2 SWAP1 SWAP2 OR SWAP1 SSTORE JUMP JUMPDEST PUSH1 0x18 SLOAD DUP2 JUMP JUMPDEST PUSH2 0x334D PUSH2 0x3DF5 JUMP JUMPDEST PUSH1 0x0 SLOAD PUSH2 0x100 SWAP1 DIV PUSH1 0x1 PUSH1 0x1 PUSH1 0xA0 SHL SUB SWAP1 DUP2 AND SWAP2 AND EQ PUSH2 0x33A2 JUMPI PUSH1 0x40 DUP1 MLOAD PUSH3 0x461BCD PUSH1 0xE5 SHL DUP2 MSTORE PUSH1 0x20 PUSH1 0x4 DUP3 ADD DUP2 SWAP1 MSTORE PUSH1 0x24 DUP3 ADD MSTORE PUSH1 0x0 DUP1 MLOAD PUSH1 0x20 PUSH2 0x41E6 DUP4 CODECOPY DUP2 MLOAD SWAP2 MSTORE PUSH1 0x44 DUP3 ADD MSTORE SWAP1 MLOAD SWAP1 DUP2 SWAP1 SUB PUSH1 0x64 ADD SWAP1 REVERT JUMPDEST PUSH1 0x0 DUP2 GT PUSH2 0x33E3 JUMPI PUSH1 0x40 DUP1 MLOAD PUSH3 0x461BCD PUSH1 0xE5 SHL DUP2 MSTORE PUSH1 0x20 PUSH1 0x4 DUP3 ADD MSTORE PUSH1 0x9 PUSH1 0x24 DUP3 ADD MSTORE PUSH9 0x15DC9BDB99C818995D PUSH1 0xBA SHL PUSH1 0x44 DUP3 ADD MSTORE SWAP1 MLOAD SWAP1 DUP2 SWAP1 SUB PUSH1 0x64 ADD SWAP1 REVERT JUMPDEST PUSH1 0x11 SSTORE JUMP JUMPDEST PUSH1 0x0 SLOAD PUSH1 0xFF AND ISZERO PUSH2 0x3433 JUMPI PUSH1 0x40 DUP1 MLOAD PUSH3 0x461BCD PUSH1 0xE5 SHL DUP2 MSTORE PUSH1 0x20 PUSH1 0x4 DUP3 ADD MSTORE PUSH1 0x10 PUSH1 0x24 DUP3 ADD MSTORE PUSH16 0x14185D5CD8589B194E881C185D5CD959 PUSH1 0x82 SHL PUSH1 0x44 DUP3 ADD MSTORE SWAP1 MLOAD SWAP1 DUP2 SWAP1 SUB PUSH1 0x64 ADD SWAP1 REVERT JUMPDEST CALLER PUSH1 0x0 SWAP1 DUP2 MSTORE PUSH1 0x1A PUSH1 0x20 MSTORE PUSH1 0x40 SWAP1 KECCAK256 SLOAD ISZERO PUSH2 0x3488 JUMPI PUSH1 0x40 DUP1 MLOAD PUSH3 0x461BCD PUSH1 0xE5 SHL DUP2 MSTORE PUSH1 0x20 PUSH1 0x4 DUP3 ADD MSTORE PUSH1 0x10 PUSH1 0x24 DUP3 ADD MSTORE PUSH16 0x4E6F206D6F7265206372656174696E67 PUSH1 0x80 SHL PUSH1 0x44 DUP3 ADD MSTORE SWAP1 MLOAD SWAP1 DUP2 SWAP1 SUB PUSH1 0x64 ADD SWAP1 REVERT JUMPDEST PUSH1 0x11 SLOAD CALLVALUE LT ISZERO PUSH2 0x34CB JUMPI PUSH1 0x40 DUP1 MLOAD PUSH3 0x461BCD PUSH1 0xE5 SHL DUP2 MSTORE PUSH1 0x20 PUSH1 0x4 DUP3 ADD MSTORE PUSH1 0x9 PUSH1 0x24 DUP3 ADD MSTORE PUSH9 0x15DC9BDB99C818995D PUSH1 0xBA SHL PUSH1 0x44 DUP3 ADD MSTORE SWAP1 MLOAD SWAP1 DUP2 SWAP1 SUB PUSH1 0x64 ADD SWAP1 REVERT JUMPDEST DUP1 PUSH1 0x1 PUSH1 0x1 PUSH1 0xA0 SHL SUB DUP2 AND CALLER EQ ISZERO PUSH2 0x351B JUMPI PUSH1 0x40 DUP1 MLOAD PUSH3 0x461BCD PUSH1 0xE5 SHL DUP2 MSTORE PUSH1 0x20 PUSH1 0x4 DUP3 ADD MSTORE PUSH1 0xE PUSH1 0x24 DUP3 ADD MSTORE PUSH14 0x15DC9BDB99C81C9959995C9C985B PUSH1 0x92 SHL PUSH1 0x44 DUP3 ADD MSTORE SWAP1 MLOAD SWAP1 DUP2 SWAP1 SUB PUSH1 0x64 ADD SWAP1 REVERT JUMPDEST DUP3 PUSH1 0x0 BYTE PUSH1 0xF8 SHL PUSH1 0x1 PUSH1 0x1 PUSH1 0xF8 SHL SUB NOT AND PUSH2 0x356A JUMPI PUSH1 0x40 DUP1 MLOAD PUSH3 0x461BCD PUSH1 0xE5 SHL DUP2 MSTORE PUSH1 0x20 PUSH1 0x4 DUP3 ADD MSTORE PUSH1 0xA PUSH1 0x24 DUP3 ADD MSTORE PUSH10 0x8ADAE0E8F240D0C2E6D PUSH1 0xB3 SHL PUSH1 0x44 DUP3 ADD MSTORE SWAP1 MLOAD SWAP1 DUP2 SWAP1 SUB PUSH1 0x64 ADD SWAP1 REVERT JUMPDEST PUSH1 0x17 DUP1 SLOAD PUSH1 0x0 DUP2 DUP2 MSTORE PUSH1 0x19 PUSH1 0x20 MSTORE PUSH1 0x40 DUP1 DUP3 KECCAK256 PUSH1 0x1 DUP2 ADD SWAP4 SWAP1 SWAP4 SSTORE PUSH1 0x5 SWAP1 SWAP3 ADD DUP1 SLOAD PUSH1 0x1 PUSH1 0x1 PUSH1 0xA0 SHL SUB NOT AND CALLER OR SWAP1 SSTORE DUP3 SLOAD DUP2 MSTORE DUP2 DUP2 KECCAK256 CALLVALUE PUSH1 0x2 SWAP1 SWAP2 ADD SSTORE SWAP2 SLOAD DUP3 MSTORE SWAP1 KECCAK256 PUSH1 0x4 ADD DUP4 SWAP1 SSTORE PUSH1 0x1 PUSH1 0x1 PUSH1 0xA0 SHL SUB DUP3 AND ISZERO PUSH2 0x35F6 JUMPI PUSH1 0x17 SLOAD PUSH1 0x0 SWAP1 DUP2 MSTORE PUSH1 0x19 PUSH1 0x20 MSTORE PUSH1 0x40 SWAP1 KECCAK256 PUSH1 0x8 ADD DUP1 SLOAD PUSH1 0x1 PUSH1 0x1 PUSH1 0xA0 SHL SUB NOT AND PUSH1 0x1 PUSH1 0x1 PUSH1 0xA0 SHL SUB DUP5 AND OR SWAP1 SSTORE DUP2 PUSH2 0x362C JUMP JUMPDEST PUSH2 0x35FE PUSH2 0x2586 JUMP JUMPDEST PUSH1 0x17 SLOAD PUSH1 0x0 SWAP1 DUP2 MSTORE PUSH1 0x19 PUSH1 0x20 MSTORE PUSH1 0x40 SWAP1 KECCAK256 PUSH1 0x8 ADD DUP1 SLOAD PUSH1 0x1 PUSH1 0x1 PUSH1 0xA0 SHL SUB NOT AND PUSH1 0x1 PUSH1 0x1 PUSH1 0xA0 SHL SUB DUP4 AND OR SWAP1 SSTORE JUMPDEST POP CALLER PUSH1 0x0 SWAP1 DUP2 MSTORE PUSH1 0x1E PUSH1 0x20 MSTORE PUSH1 0x40 SWAP1 KECCAK256 SLOAD PUSH2 0x364D SWAP1 CALLVALUE PUSH4 0xFFFFFFFF PUSH2 0x3BB9 AND JUMP JUMPDEST CALLER PUSH1 0x0 SWAP1 DUP2 MSTORE PUSH1 0x1E PUSH1 0x20 MSTORE PUSH1 0x40 SWAP1 KECCAK256 SSTORE PUSH1 0x24 SLOAD PUSH2 0x3670 SWAP1 CALLVALUE PUSH4 0xFFFFFFFF PUSH2 0x3BB9 AND JUMP JUMPDEST PUSH1 0x24 SSTORE PUSH1 0x17 DUP1 SLOAD CALLER PUSH1 0x0 DUP2 DUP2 MSTORE PUSH1 0x1A PUSH1 0x20 SWAP1 DUP2 MSTORE PUSH1 0x40 DUP1 DUP4 KECCAK256 DUP6 SWAP1 SSTORE PUSH1 0x1C DUP3 MSTORE DUP1 DUP4 KECCAK256 DUP1 SLOAD PUSH1 0x1 DUP2 ADD DUP3 SSTORE SWAP1 DUP5 MSTORE SWAP2 DUP4 KECCAK256 SWAP1 SWAP2 ADD SWAP4 SWAP1 SWAP4 SSTORE SWAP3 SLOAD SWAP2 MLOAD CALLVALUE SWAP4 SWAP2 SWAP3 SWAP2 PUSH32 0x2F96AA00C72DD004DA6BBD1A2D56762EE5A3504189732DA096D9F75B41E2E46F SWAP2 LOG4 PUSH1 0x17 SLOAD PUSH2 0x36E8 SWAP1 PUSH1 0x1 PUSH4 0xFFFFFFFF PUSH2 0x3BB9 AND JUMP JUMPDEST PUSH1 0x17 SSTORE POP POP POP JUMP JUMPDEST PUSH1 0x0 SLOAD PUSH1 0xFF AND ISZERO PUSH2 0x373B JUMPI PUSH1 0x40 DUP1 MLOAD PUSH3 0x461BCD PUSH1 0xE5 SHL DUP2 MSTORE PUSH1 0x20 PUSH1 0x4 DUP3 ADD MSTORE PUSH1 0x10 PUSH1 0x24 DUP3 ADD MSTORE PUSH16 0x14185D5CD8589B194E881C185D5CD959 PUSH1 0x82 SHL PUSH1 0x44 DUP3 ADD MSTORE SWAP1 MLOAD SWAP1 DUP2 SWAP1 SUB PUSH1 0x64 ADD SWAP1 REVERT JUMPDEST PUSH1 0x0 DUP4 DUP2 MSTORE PUSH1 0x19 PUSH1 0x20 MSTORE PUSH1 0x40 SWAP1 KECCAK256 PUSH1 0x5 ADD SLOAD DUP4 SWAP1 PUSH1 0x1 PUSH1 0x1 PUSH1 0xA0 SHL SUB AND CALLER EQ PUSH2 0x3799 JUMPI PUSH1 0x40 DUP1 MLOAD PUSH3 0x461BCD PUSH1 0xE5 SHL DUP2 MSTORE PUSH1 0x20 PUSH1 0x4 DUP3 ADD MSTORE PUSH1 0xB PUSH1 0x24 DUP3 ADD MSTORE PUSH11 0x2737BA1031B932B0BA37B9 PUSH1 0xA9 SHL PUSH1 0x44 DUP3 ADD MSTORE SWAP1 MLOAD SWAP1 DUP2 SWAP1 SUB PUSH1 0x64 ADD SWAP1 REVERT JUMPDEST PUSH1 0x0 DUP5 DUP2 MSTORE PUSH1 0x19 PUSH1 0x20 MSTORE PUSH1 0x40 SWAP1 KECCAK256 PUSH1 0x2 PUSH1 0xFF DUP6 AND LT PUSH2 0x37F1 JUMPI PUSH1 0x40 DUP1 MLOAD PUSH3 0x461BCD PUSH1 0xE5 SHL DUP2 MSTORE PUSH1 0x20 PUSH1 0x4 DUP3 ADD MSTORE PUSH1 0xF PUSH1 0x24 DUP3 ADD MSTORE PUSH15 0x57726F6E6720636F696E2073696465 PUSH1 0x88 SHL PUSH1 0x44 DUP3 ADD MSTORE SWAP1 MLOAD SWAP1 DUP2 SWAP1 SUB PUSH1 0x64 ADD SWAP1 REVERT JUMPDEST PUSH1 0x6 DUP2 ADD SLOAD PUSH1 0x1 PUSH1 0x1 PUSH1 0xA0 SHL SUB AND PUSH2 0x383E JUMPI PUSH1 0x40 DUP1 MLOAD PUSH3 0x461BCD PUSH1 0xE5 SHL DUP2 MSTORE PUSH1 0x20 PUSH1 0x4 DUP3 ADD MSTORE PUSH1 0xB PUSH1 0x24 DUP3 ADD MSTORE PUSH11 0x139BC81BDC1C1BDB995B9D PUSH1 0xAA SHL PUSH1 0x44 DUP3 ADD MSTORE SWAP1 MLOAD SWAP1 DUP2 SWAP1 SUB PUSH1 0x64 ADD SWAP1 REVERT JUMPDEST PUSH1 0x7 DUP2 ADD SLOAD PUSH1 0x1 PUSH1 0x1 PUSH1 0xA0 SHL SUB AND ISZERO PUSH2 0x3890 JUMPI PUSH1 0x40 DUP1 MLOAD PUSH3 0x461BCD PUSH1 0xE5 SHL DUP2 MSTORE PUSH1 0x20 PUSH1 0x4 DUP3 ADD MSTORE PUSH1 0xF PUSH1 0x24 DUP3 ADD MSTORE PUSH15 0x23B0B6B2903430B9903BB4B73732B9 PUSH1 0x89 SHL PUSH1 0x44 DUP3 ADD MSTORE SWAP1 MLOAD SWAP1 DUP2 SWAP1 SUB PUSH1 0x64 ADD SWAP1 REVERT JUMPDEST PUSH2 0x3899 DUP6 PUSH2 0x2B46 JUMP JUMPDEST ISZERO PUSH2 0x38D5 JUMPI PUSH1 0x40 DUP1 MLOAD PUSH3 0x461BCD PUSH1 0xE5 SHL DUP2 MSTORE PUSH1 0x20 PUSH1 0x4 DUP3 ADD MSTORE PUSH1 0x7 PUSH1 0x24 DUP3 ADD MSTORE PUSH7 0x115E1C1A5C9959 PUSH1 0xCA SHL PUSH1 0x44 DUP3 ADD MSTORE SWAP1 MLOAD SWAP1 DUP2 SWAP1 SUB PUSH1 0x64 ADD SWAP1 REVERT JUMPDEST DUP1 PUSH1 0x4 ADD SLOAD DUP5 PUSH1 0xFF AND DUP5 PUSH1 0x40 MLOAD PUSH1 0x20 ADD DUP1 DUP4 DUP2 MSTORE PUSH1 0x20 ADD DUP3 DUP2 MSTORE PUSH1 0x20 ADD SWAP3 POP POP POP PUSH1 0x40 MLOAD PUSH1 0x20 DUP2 DUP4 SUB SUB DUP2 MSTORE SWAP1 PUSH1 0x40 MSTORE DUP1 MLOAD SWAP1 PUSH1 0x20 ADD KECCAK256 EQ PUSH2 0x3951 JUMPI PUSH1 0x40 DUP1 MLOAD PUSH3 0x461BCD PUSH1 0xE5 SHL DUP2 MSTORE PUSH1 0x20 PUSH1 0x4 DUP3 ADD MSTORE PUSH1 0x10 PUSH1 0x24 DUP3 ADD MSTORE PUSH16 0x57726F6E6720686173682076616C7565 PUSH1 0x80 SHL PUSH1 0x44 DUP3 ADD MSTORE SWAP1 MLOAD SWAP1 DUP2 SWAP1 SUB PUSH1 0x64 ADD SWAP1 REVERT JUMPDEST DUP1 SLOAD PUSH1 0xFF DUP6 DUP2 AND PUSH3 0x10000 SWAP1 SWAP3 DIV AND EQ PUSH2 0x3978 JUMPI PUSH1 0x5 DUP2 ADD SLOAD PUSH1 0x1 PUSH1 0x1 PUSH1 0xA0 SHL SUB AND PUSH2 0x3987 JUMP JUMPDEST PUSH1 0x6 DUP2 ADD SLOAD PUSH1 0x1 PUSH1 0x1 PUSH1 0xA0 SHL SUB AND JUMPDEST PUSH1 0x7 DUP3 ADD DUP1 SLOAD PUSH1 0x1 PUSH1 0x1 PUSH1 0xA0 SHL SUB SWAP3 DUP4 AND PUSH1 0x1 PUSH1 0x1 PUSH1 0xA0 SHL SUB NOT SWAP2 DUP3 AND OR SWAP2 DUP3 SWAP1 SSTORE DUP4 SLOAD PUSH1 0xFF DUP9 AND PUSH2 0x100 MUL PUSH2 0xFF00 NOT SWAP1 SWAP2 AND OR DUP5 SSTORE SWAP1 DUP3 AND PUSH1 0x0 SWAP1 DUP2 MSTORE PUSH1 0x1D PUSH1 0x20 SWAP1 DUP2 MSTORE PUSH1 0x40 DUP3 KECCAK256 DUP1 SLOAD PUSH1 0x1 DUP2 DUP2 ADD DUP4 SSTORE SWAP2 DUP5 MSTORE SWAP2 DUP4 KECCAK256 SWAP1 SWAP2 ADD DUP10 SWAP1 SSTORE PUSH1 0x5 DUP6 ADD SLOAD PUSH1 0xE DUP1 SLOAD DUP1 DUP5 ADD DUP3 SSTORE SWAP4 DUP2 SWAP1 MSTORE PUSH1 0x0 DUP1 MLOAD PUSH1 0x20 PUSH2 0x41A5 DUP4 CODECOPY DUP2 MLOAD SWAP2 MSTORE SWAP4 DUP5 ADD DUP1 SLOAD DUP7 AND SWAP3 DUP8 AND SWAP3 SWAP1 SWAP3 OR SWAP1 SWAP2 SSTORE PUSH1 0x6 DUP7 ADD SLOAD DUP2 SLOAD DUP1 DUP5 ADD SWAP1 SWAP3 SSTORE SWAP3 ADD DUP1 SLOAD SWAP1 SWAP4 AND SWAP2 SWAP1 SWAP4 AND OR SWAP1 SSTORE PUSH1 0x18 SLOAD PUSH2 0x3A44 SWAP2 PUSH4 0xFFFFFFFF PUSH2 0x3BB9 AND JUMP JUMPDEST PUSH1 0x18 SSTORE CALLER PUSH1 0x0 SWAP1 DUP2 MSTORE PUSH1 0x1A PUSH1 0x20 SWAP1 DUP2 MSTORE PUSH1 0x40 DUP1 DUP4 KECCAK256 DUP4 SWAP1 SSTORE PUSH1 0x6 DUP5 ADD DUP1 SLOAD PUSH1 0x1 PUSH1 0x1 PUSH1 0xA0 SHL SUB SWAP1 DUP2 AND DUP6 MSTORE PUSH1 0x1B DUP5 MSTORE DUP3 DUP6 KECCAK256 SWAP5 SWAP1 SWAP5 SSTORE SLOAD PUSH1 0x5 DUP6 ADD SLOAD PUSH1 0x7 DUP7 ADD SLOAD DUP4 MLOAD SWAP1 DUP7 AND DUP2 MSTORE SWAP3 MLOAD SWAP2 DUP6 AND SWAP5 AND SWAP3 DUP10 SWAP3 PUSH32 0x3E3F32C9ED40EE6DD4BA80907E69C64B4B877CD4F201F588D416FB1E1A4BC29C SWAP3 SWAP1 DUP2 SWAP1 SUB SWAP1 SWAP2 ADD SWAP1 LOG4 POP POP POP POP POP JUMP JUMPDEST PUSH1 0xA PUSH1 0x20 MSTORE PUSH1 0x0 SWAP1 DUP2 MSTORE PUSH1 0x40 SWAP1 KECCAK256 SLOAD DUP2 JUMP JUMPDEST PUSH2 0x3AE2 PUSH2 0x40EE JUMP JUMPDEST PUSH1 0x0 DUP1 JUMPDEST PUSH1 0x5 DUP2 LT ISZERO PUSH2 0x3B65 JUMPI DUP4 PUSH1 0x12 DUP3 PUSH1 0x5 DUP2 LT PUSH2 0x3AFD JUMPI INVALID JUMPDEST ADD SLOAD EQ ISZERO PUSH2 0x3B0E JUMPI PUSH1 0x1 SWAP2 POP PUSH2 0x3B5D JUMP JUMPDEST DUP2 ISZERO PUSH2 0x3B3C JUMPI PUSH1 0x12 DUP2 PUSH1 0x5 DUP2 LT PUSH2 0x3B21 JUMPI INVALID JUMPDEST ADD SLOAD DUP4 PUSH1 0x1 DUP4 SUB PUSH1 0x5 DUP2 LT PUSH2 0x3B32 JUMPI INVALID JUMPDEST PUSH1 0x20 MUL ADD MSTORE PUSH2 0x3B5D JUMP JUMPDEST PUSH1 0x12 DUP2 PUSH1 0x5 DUP2 LT PUSH2 0x3B49 JUMPI INVALID JUMPDEST ADD SLOAD DUP4 DUP3 PUSH1 0x5 DUP2 LT PUSH2 0x3B57 JUMPI INVALID JUMPDEST PUSH1 0x20 MUL ADD MSTORE JUMPDEST PUSH1 0x1 ADD PUSH2 0x3AE6 JUMP JUMPDEST POP DUP1 PUSH2 0x3BA6 JUMPI PUSH1 0x40 DUP1 MLOAD PUSH3 0x461BCD PUSH1 0xE5 SHL DUP2 MSTORE PUSH1 0x20 PUSH1 0x4 DUP3 ADD MSTORE PUSH1 0xB PUSH1 0x24 DUP3 ADD MSTORE PUSH11 0x4E6F7420546F7047616D65 PUSH1 0xA8 SHL PUSH1 0x44 DUP3 ADD MSTORE SWAP1 MLOAD SWAP1 DUP2 SWAP1 SUB PUSH1 0x64 ADD SWAP1 REVERT JUMPDEST PUSH2 0x3BB3 PUSH1 0x12 DUP4 PUSH1 0x5 PUSH2 0x410C JUMP JUMPDEST POP POP POP POP JUMP JUMPDEST PUSH1 0x0 DUP3 DUP3 ADD DUP4 DUP2 LT ISZERO PUSH2 0x3C13 JUMPI PUSH1 0x40 DUP1 MLOAD PUSH3 0x461BCD PUSH1 0xE5 SHL DUP2 MSTORE PUSH1 0x20 PUSH1 0x4 DUP3 ADD MSTORE PUSH1 0x1B PUSH1 0x24 DUP3 ADD MSTORE PUSH32 0x536166654D6174683A206164646974696F6E206F766572666C6F770000000000 PUSH1 0x44 DUP3 ADD MSTORE SWAP1 MLOAD SWAP1 DUP2 SWAP1 SUB PUSH1 0x64 ADD SWAP1 REVERT JUMPDEST SWAP1 POP JUMPDEST SWAP3 SWAP2 POP POP JUMP JUMPDEST PUSH1 0x0 PUSH2 0x3C13 DUP4 DUP4 PUSH1 0x40 MLOAD DUP1 PUSH1 0x40 ADD PUSH1 0x40 MSTORE DUP1 PUSH1 0x1E DUP2 MSTORE PUSH1 0x20 ADD PUSH32 0x536166654D6174683A207375627472616374696F6E206F766572666C6F770000 DUP2 MSTORE POP PUSH2 0x3FF2 JUMP JUMPDEST PUSH1 0x0 DUP3 PUSH2 0x3C6D JUMPI POP PUSH1 0x0 PUSH2 0x3C16 JUMP JUMPDEST DUP3 DUP3 MUL DUP3 DUP5 DUP3 DUP2 PUSH2 0x3C7A JUMPI INVALID JUMPDEST DIV EQ PUSH2 0x3C13 JUMPI PUSH1 0x40 MLOAD PUSH3 0x461BCD PUSH1 0xE5 SHL DUP2 MSTORE PUSH1 0x4 ADD DUP1 DUP1 PUSH1 0x20 ADD DUP3 DUP2 SUB DUP3 MSTORE PUSH1 0x21 DUP2 MSTORE PUSH1 0x20 ADD DUP1 PUSH2 0x41C5 PUSH1 0x21 SWAP2 CODECOPY PUSH1 0x40 ADD SWAP2 POP POP PUSH1 0x40 MLOAD DUP1 SWAP2 SUB SWAP1 REVERT JUMPDEST PUSH1 0x0 PUSH2 0x3C13 DUP4 DUP4 PUSH1 0x40 MLOAD DUP1 PUSH1 0x40 ADD PUSH1 0x40 MSTORE DUP1 PUSH1 0x1A DUP2 MSTORE PUSH1 0x20 ADD PUSH32 0x536166654D6174683A206469766973696F6E206279207A65726F000000000000 DUP2 MSTORE POP PUSH2 0x4089 JUMP JUMPDEST PUSH2 0x3D01 PUSH2 0x3F18 JUMP JUMPDEST PUSH1 0x6 SLOAD PUSH1 0x1 PUSH1 0x1 PUSH1 0xA0 SHL SUB AND PUSH1 0x0 SWAP1 DUP2 MSTORE PUSH1 0x8 PUSH1 0x20 MSTORE PUSH1 0x40 SWAP1 KECCAK256 SLOAD PUSH2 0x3D2C SWAP1 DUP3 PUSH4 0xFFFFFFFF PUSH2 0x3BB9 AND JUMP JUMPDEST PUSH1 0x6 SLOAD PUSH1 0x1 PUSH1 0x1 PUSH1 0xA0 SHL SUB AND PUSH1 0x0 SWAP1 DUP2 MSTORE PUSH1 0x8 PUSH1 0x20 MSTORE PUSH1 0x40 SWAP1 KECCAK256 SSTORE POP JUMP JUMPDEST PUSH1 0x2 SLOAD PUSH1 0x3 SLOAD LT PUSH2 0x1978 JUMPI PUSH1 0x3 DUP1 SLOAD PUSH1 0x0 SWAP1 SWAP2 SSTORE PUSH1 0x4 SLOAD PUSH2 0x3D71 SWAP1 DUP3 PUSH4 0xFFFFFFFF PUSH2 0x3BB9 AND JUMP JUMPDEST PUSH1 0x4 SSTORE PUSH1 0x1 SLOAD PUSH1 0x40 MLOAD PUSH1 0x1 PUSH1 0x1 PUSH1 0xA0 SHL SUB SWAP1 SWAP2 AND SWAP1 DUP3 ISZERO PUSH2 0x8FC MUL SWAP1 DUP4 SWAP1 PUSH1 0x0 DUP2 DUP2 DUP2 DUP6 DUP9 DUP9 CALL SWAP4 POP POP POP POP ISZERO DUP1 ISZERO PUSH2 0x3DAE JUMPI RETURNDATASIZE PUSH1 0x0 DUP1 RETURNDATACOPY RETURNDATASIZE PUSH1 0x0 REVERT JUMPDEST POP PUSH1 0x1 SLOAD PUSH1 0x40 DUP1 MLOAD ADDRESS DUP2 MSTORE SWAP1 MLOAD DUP4 SWAP3 PUSH1 0x1 PUSH1 0x1 PUSH1 0xA0 SHL SUB AND SWAP2 PUSH32 0xEEA88262D89F946CFD575393481B34AEDD68AABBE9CB764357A15B1E0226E861 SWAP2 SWAP1 DUP2 SWAP1 SUB PUSH1 0x20 ADD SWAP1 LOG3 POP JUMP JUMPDEST CALLER SWAP1 JUMP JUMPDEST PUSH1 0x0 SLOAD PUSH1 0xFF AND PUSH2 0x3E47 JUMPI PUSH1 0x40 DUP1 MLOAD PUSH3 0x461BCD PUSH1 0xE5 SHL DUP2 MSTORE PUSH1 0x20 PUSH1 0x4 DUP3 ADD MSTORE PUSH1 0x14 PUSH1 0x24 DUP3 ADD MSTORE PUSH20 0x14185D5CD8589B194E881B9BDD081C185D5CD959 PUSH1 0x62 SHL PUSH1 0x44 DUP3 ADD MSTORE SWAP1 MLOAD SWAP1 DUP2 SWAP1 SUB PUSH1 0x64 ADD SWAP1 REVERT JUMPDEST PUSH1 0x0 DUP1 SLOAD PUSH1 0xFF NOT AND SWAP1 SSTORE PUSH32 0x5DB9EE0A495BF2E6FF9C91A7834C1BA4FDD244A5E8AA4E537BD38AEAE4B073AA PUSH2 0x3E7A PUSH2 0x3DF5 JUMP JUMPDEST PUSH1 0x40 DUP1 MLOAD PUSH1 0x1 PUSH1 0x1 PUSH1 0xA0 SHL SUB SWAP1 SWAP3 AND DUP3 MSTORE MLOAD SWAP1 DUP2 SWAP1 SUB PUSH1 0x20 ADD SWAP1 LOG1 JUMP JUMPDEST PUSH1 0x0 SLOAD PUSH1 0xFF AND ISZERO PUSH2 0x3EE2 JUMPI PUSH1 0x40 DUP1 MLOAD PUSH3 0x461BCD PUSH1 0xE5 SHL DUP2 MSTORE PUSH1 0x20 PUSH1 0x4 DUP3 ADD MSTORE PUSH1 0x10 PUSH1 0x24 DUP3 ADD MSTORE PUSH16 0x14185D5CD8589B194E881C185D5CD959 PUSH1 0x82 SHL PUSH1 0x44 DUP3 ADD MSTORE SWAP1 MLOAD SWAP1 DUP2 SWAP1 SUB PUSH1 0x64 ADD SWAP1 REVERT JUMPDEST PUSH1 0x0 DUP1 SLOAD PUSH1 0xFF NOT AND PUSH1 0x1 OR SWAP1 SSTORE PUSH32 0x62E78CEA01BEE320CD4E420270B5EA74000D11B0C9F74754EBDBFC544B05A258 PUSH2 0x3E7A PUSH2 0x3DF5 JUMP JUMPDEST PUSH2 0x3F20 PUSH2 0x2586 JUMP JUMPDEST PUSH1 0x6 SLOAD PUSH1 0x1 PUSH1 0x1 PUSH1 0xA0 SHL SUB SWAP1 DUP2 AND SWAP2 AND EQ ISZERO PUSH2 0x3F3B JUMPI PUSH2 0x1978 JUMP JUMPDEST PUSH3 0x13C680 PUSH2 0x3F54 PUSH1 0x7 SLOAD TIMESTAMP PUSH2 0x3C1C SWAP1 SWAP2 SWAP1 PUSH4 0xFFFFFFFF AND JUMP JUMPDEST GT ISZERO PUSH2 0x1978 JUMPI PUSH1 0x0 PUSH2 0x3F64 PUSH2 0x2586 JUMP JUMPDEST PUSH1 0x6 DUP1 SLOAD PUSH1 0x1 PUSH1 0x1 PUSH1 0xA0 SHL SUB NOT AND PUSH1 0x1 PUSH1 0x1 PUSH1 0xA0 SHL SUB SWAP3 SWAP1 SWAP3 AND SWAP2 SWAP1 SWAP2 OR SWAP1 SSTORE POP PUSH1 0x0 PUSH1 0x7 DUP2 SWAP1 SSTORE PUSH1 0x5 SSTORE JUMP JUMPDEST PUSH1 0x5 SLOAD CALLVALUE GT PUSH2 0x3FD6 JUMPI PUSH1 0x40 DUP1 MLOAD PUSH3 0x461BCD PUSH1 0xE5 SHL DUP2 MSTORE PUSH1 0x20 PUSH1 0x4 DUP3 ADD MSTORE PUSH1 0xC PUSH1 0x24 DUP3 ADD MSTORE PUSH12 0x15DC9BDB99C8185B5BDD5B9D PUSH1 0xA2 SHL PUSH1 0x44 DUP3 ADD MSTORE SWAP1 MLOAD SWAP1 DUP2 SWAP1 SUB PUSH1 0x64 ADD SWAP1 REVERT JUMPDEST CALLVALUE PUSH1 0x5 SSTORE PUSH1 0x6 DUP1 SLOAD PUSH1 0x1 PUSH1 0x1 PUSH1 0xA0 SHL SUB NOT AND CALLER OR SWAP1 SSTORE TIMESTAMP PUSH1 0x7 SSTORE JUMP JUMPDEST PUSH1 0x0 DUP2 DUP5 DUP5 GT ISZERO PUSH2 0x4081 JUMPI PUSH1 0x40 MLOAD PUSH3 0x461BCD PUSH1 0xE5 SHL DUP2 MSTORE PUSH1 0x4 ADD DUP1 DUP1 PUSH1 0x20 ADD DUP3 DUP2 SUB DUP3 MSTORE DUP4 DUP2 DUP2 MLOAD DUP2 MSTORE PUSH1 0x20 ADD SWAP2 POP DUP1 MLOAD SWAP1 PUSH1 0x20 ADD SWAP1 DUP1 DUP4 DUP4 PUSH1 0x0 JUMPDEST DUP4 DUP2 LT ISZERO PUSH2 0x4046 JUMPI DUP2 DUP2 ADD MLOAD DUP4 DUP3 ADD MSTORE PUSH1 0x20 ADD PUSH2 0x402E JUMP JUMPDEST POP POP POP POP SWAP1 POP SWAP1 DUP2 ADD SWAP1 PUSH1 0x1F AND DUP1 ISZERO PUSH2 0x4073 JUMPI DUP1 DUP3 SUB DUP1 MLOAD PUSH1 0x1 DUP4 PUSH1 0x20 SUB PUSH2 0x100 EXP SUB NOT AND DUP2 MSTORE PUSH1 0x20 ADD SWAP2 POP JUMPDEST POP SWAP3 POP POP POP PUSH1 0x40 MLOAD DUP1 SWAP2 SUB SWAP1 REVERT JUMPDEST POP POP POP SWAP1 SUB SWAP1 JUMP JUMPDEST PUSH1 0x0 DUP2 DUP4 PUSH2 0x40D8 JUMPI PUSH1 0x40 MLOAD PUSH3 0x461BCD PUSH1 0xE5 SHL DUP2 MSTORE PUSH1 0x20 PUSH1 0x4 DUP3 ADD DUP2 DUP2 MSTORE DUP4 MLOAD PUSH1 0x24 DUP5 ADD MSTORE DUP4 MLOAD SWAP1 SWAP3 DUP4 SWAP3 PUSH1 0x44 SWAP1 SWAP2 ADD SWAP2 SWAP1 DUP6 ADD SWAP1 DUP1 DUP4 DUP4 PUSH1 0x0 DUP4 ISZERO PUSH2 0x4046 JUMPI DUP2 DUP2 ADD MLOAD DUP4 DUP3 ADD MSTORE PUSH1 0x20 ADD PUSH2 0x402E JUMP JUMPDEST POP PUSH1 0x0 DUP4 DUP6 DUP2 PUSH2 0x40E4 JUMPI INVALID JUMPDEST DIV SWAP6 SWAP5 POP POP POP POP POP JUMP JUMPDEST PUSH1 0x40 MLOAD DUP1 PUSH1 0xA0 ADD PUSH1 0x40 MSTORE DUP1 PUSH1 0x5 SWAP1 PUSH1 0x20 DUP3 MUL DUP1 CODESIZE DUP4 CODECOPY POP SWAP2 SWAP3 SWAP2 POP POP JUMP JUMPDEST DUP3 PUSH1 0x5 DUP2 ADD SWAP3 DUP3 ISZERO PUSH2 0x413A JUMPI SWAP2 PUSH1 0x20 MUL DUP3 ADD JUMPDEST DUP3 DUP2 GT ISZERO PUSH2 0x413A JUMPI DUP3 MLOAD DUP3 SSTORE SWAP2 PUSH1 0x20 ADD SWAP2 SWAP1 PUSH1 0x1 ADD SWAP1 PUSH2 0x411F JUMP JUMPDEST POP PUSH2 0x4146 SWAP3 SWAP2 POP PUSH2 0x4164 JUMP JUMPDEST POP SWAP1 JUMP JUMPDEST POP DUP1 SLOAD PUSH1 0x0 DUP3 SSTORE SWAP1 PUSH1 0x0 MSTORE PUSH1 0x20 PUSH1 0x0 KECCAK256 SWAP1 DUP2 ADD SWAP1 PUSH2 0x2E91 SWAP2 SWAP1 JUMPDEST PUSH2 0x150E SWAP2 SWAP1 JUMPDEST DUP1 DUP3 GT ISZERO PUSH2 0x4146 JUMPI PUSH1 0x0 DUP2 SSTORE PUSH1 0x1 ADD PUSH2 0x416A JUMP INVALID 0x4F PUSH24 0x6E61626C653A206E6577206F776E65722069732074686520 PUSH27 0x65726F2061646472657373BB7B4A454DC3493923482F07822329ED NOT 0xE8 0x24 0x4E SELFDESTRUCT PC 0x2C 0xC2 DIV 0xF8 SSTORE 0x4C CALLDATASIZE KECCAK256 0xC3 REVERT MSTORE8 PUSH2 0x6665 0x4D PUSH2 0x7468 GASPRICE KECCAK256 PUSH14 0x756C7469706C69636174696F6E20 PUSH16 0x766572666C6F774F776E61626C653A20 PUSH4 0x616C6C65 PUSH19 0x206973206E6F7420746865206F776E6572A264 PUSH10 0x70667358221220017B20 0x28 PUSH14 0x2716BFB4C0883A67D7DA5EDB2616 0xD4 0x1E 0xCE NOT 0xCF PUSH1 0xB9 PUSH32 0xBB74C14D3E64736F6C634300060000334F776E61626C653A2063616C6C657220 PUSH10 0x73206E6F742074686520 PUSH16 0x776E6572000000000000000000000000 "
		},
		"gasEstimates": {
			"creation": {
				"codeDepositCost": "3391000",
				"executionCost": "infinite",
				"totalCost": "infinite"
			},
			"external": {
				"ACQUIRED_FEE_BENEFICIARY_MAX_DURATION()": "331",
				"addTopGame(uint256)": "infinite",
				"betTotal(address)": "1236",
				"createGame(bytes32,address)": "infinite",
				"devFeePending()": "1067",
				"feeBeneficiar()": "1148",
				"feeBeneficiarBalances(address)": "1280",
				"feeBeneficiarPurchasedAt()": "1134",
				"finishExpiredGame(uint256)": "infinite",
				"gameMoveDuration()": "1147",
				"gameMoveExpired(uint256)": "infinite",
				"gameOnPause(uint256)": "1207",
				"games(uint256)": "8931",
				"gamesCompletedAmount()": "1064",
				"gamesCreatedAmount()": "1109",
				"gamesWithPendingPrizeWithdrawal(address,uint256)": "2142",
				"getGamesWithPendingPrizeWithdrawal(address)": "infinite",
				"getPlayedGamesForPlayer(address)": "infinite",
				"getRaffleParticipants()": "infinite",
				"getRaffleResultCount()": "1067",
				"getTopGames()": "infinite",
				"increaseBetForGameBy(uint256)": "infinite",
				"isTopGame(uint256)": "infinite",
				"joinGame(uint256,uint8,address)": "infinite",
				"kill()": "infinite",
				"latestBeneficiarPrice()": "1066",
				"makeFeeBeneficiar()": "infinite",
				"minBet()": "1133",
				"ongoinRafflePrize()": "1133",
				"ongoingGameAsCreator(address)": "1257",
				"ongoingGameAsOpponent(address)": "1216",
				"owner()": "1139",
				"partner()": "1127",
				"partnerFeePending()": "1132",
				"partnerFeeTotalUsed()": "1111",
				"partnerFeeTransferThreshold()": "1111",
				"pause()": "infinite",
				"pauseGame(uint256)": "infinite",
				"paused()": "1100",
				"playGame(uint256,uint8,bytes32)": "infinite",
				"prizeTotal(address)": "1236",
				"quitGame(uint256)": "infinite",
				"raffleActivated()": "2745",
				"raffleActivationParticipantsAmount()": "1089",
				"raffleParticipants(uint256)": "2040",
				"rafflePrizePending(address)": "1213",
				"rafflePrizeWithdrawn(address)": "1278",
				"rafflePrizesWonTotal()": "1088",
				"raffleResults(uint256)": "3743",
				"rand()": "2987",
				"referralFeesPending(address)": "1258",
				"referralFeesWithdrawn(address)": "1235",
				"renounceOwnership()": "infinite",
				"runRaffle()": "infinite",
				"topGames(uint256)": "1186",
				"totalUsedInGame()": "1066",
				"totalUsedReferralFees()": "1065",
				"transferOwnership(address)": "infinite",
				"unpause()": "infinite",
				"unpauseGame(uint256)": "infinite",
				"updateGameMoveDuration(uint16)": "infinite",
				"updateMinBet(uint256)": "infinite",
				"updatePartner(address)": "infinite",
				"updatePartnerTransferThreshold(uint256)": "infinite",
				"updateRaffleActivationParticipantsCount(uint256)": "infinite",
				"withdrawBeneficiaryFee()": "infinite",
				"withdrawDevFee()": "infinite",
				"withdrawGamePrizes(uint256)": "infinite",
				"withdrawRafflePrizes()": "infinite",
				"withdrawReferralFees()": "infinite"
			},
			"internal": {
				"removeTopGame(uint256)": "infinite"
			}
		},
		"methodIdentifiers": {
			"ACQUIRED_FEE_BENEFICIARY_MAX_DURATION()": "b04b83d5",
			"addTopGame(uint256)": "9960c852",
			"betTotal(address)": "5f9edc85",
			"createGame(bytes32,address)": "fe1f6a0b",
			"devFeePending()": "8bc44618",
			"feeBeneficiar()": "83725b0e",
			"feeBeneficiarBalances(address)": "443c3063",
			"feeBeneficiarPurchasedAt()": "11a155e3",
			"finishExpiredGame(uint256)": "59cf5bd6",
			"gameMoveDuration()": "65ab31b3",
			"gameMoveExpired(uint256)": "adc6d4e7",
			"gameOnPause(uint256)": "efc30e69",
			"games(uint256)": "117a5b90",
			"gamesCompletedAmount()": "f5f3b773",
			"gamesCreatedAmount()": "d6977392",
			"gamesWithPendingPrizeWithdrawal(address,uint256)": "afb5d68b",
			"getGamesWithPendingPrizeWithdrawal(address)": "4cd1e0eb",
			"getPlayedGamesForPlayer(address)": "a90f7365",
			"getRaffleParticipants()": "1af37971",
			"getRaffleResultCount()": "4b39df83",
			"getTopGames()": "cbe93c61",
			"increaseBetForGameBy(uint256)": "a4b4b851",
			"isTopGame(uint256)": "a756cc0d",
			"joinGame(uint256,uint8,address)": "43972113",
			"kill()": "41c0e1b5",
			"latestBeneficiarPrice()": "a517622d",
			"makeFeeBeneficiar()": "ee03b9e1",
			"minBet()": "9619367d",
			"ongoinRafflePrize()": "51be96ea",
			"ongoingGameAsCreator(address)": "e03964aa",
			"ongoingGameAsOpponent(address)": "072689ec",
			"owner()": "8da5cb5b",
			"partner()": "be10862b",
			"partnerFeePending()": "c8d60259",
			"partnerFeeTotalUsed()": "4dc5e4d3",
			"partnerFeeTransferThreshold()": "95bb4389",
			"pause()": "8456cb59",
			"pauseGame(uint256)": "1214e31e",
			"paused()": "5c975abb",
			"playGame(uint256,uint8,bytes32)": "fee445cc",
			"prizeTotal(address)": "a28d5b83",
			"quitGame(uint256)": "16f99211",
			"raffleActivated()": "7418efeb",
			"raffleActivationParticipantsAmount()": "3689e1db",
			"raffleParticipants(uint256)": "04a57c09",
			"rafflePrizePending(address)": "82efb308",
			"rafflePrizeWithdrawn(address)": "ff24ba7c",
			"rafflePrizesWonTotal()": "9f099c28",
			"raffleResults(uint256)": "40861c1d",
			"rand()": "3b3dca76",
			"referralFeesPending(address)": "a9e4aee5",
			"referralFeesWithdrawn(address)": "f1da06b5",
			"renounceOwnership()": "715018a6",
			"runRaffle()": "b28b9549",
			"topGames(uint256)": "bf7f7105",
			"totalUsedInGame()": "7245fbb2",
			"totalUsedReferralFees()": "7b503668",
			"transferOwnership(address)": "f2fde38b",
			"unpause()": "3f4ba83a",
			"unpauseGame(uint256)": "bbc9773e",
			"updateGameMoveDuration(uint16)": "77b00c01",
			"updateMinBet(uint256)": "f7cf0aa1",
			"updatePartner(address)": "401f4663",
			"updatePartnerTransferThreshold(uint256)": "780d2456",
			"updateRaffleActivationParticipantsCount(uint256)": "8446596e",
			"withdrawBeneficiaryFee()": "e1b740a0",
			"withdrawDevFee()": "cb93f7ef",
			"withdrawGamePrizes(uint256)": "2bcac304",
			"withdrawRafflePrizes()": "afa74c5b",
			"withdrawReferralFees()": "173608e7"
		}
	},
	"abi": [
		{
			"inputs": [
				{
					"internalType": "address payable",
					"name": "_partner",
					"type": "address"
				}
			],
			"stateMutability": "nonpayable",
			"type": "constructor"
		},
		{
			"anonymous": false,
			"inputs": [
				{
					"indexed": true,
					"internalType": "uint256",
					"name": "id",
					"type": "uint256"
				},
				{
					"indexed": true,
					"internalType": "address",
					"name": "creator",
					"type": "address"
				}
			],
			"name": "CF_GameAddedToTop",
			"type": "event"
		},
		{
			"anonymous": false,
			"inputs": [
				{
					"indexed": true,
					"internalType": "uint256",
					"name": "id",
					"type": "uint256"
				},
				{
					"indexed": true,
					"internalType": "address",
					"name": "creator",
					"type": "address"
				},
				{
					"indexed": true,
					"internalType": "uint256",
					"name": "bet",
					"type": "uint256"
				}
			],
			"name": "CF_GameCreated",
			"type": "event"
		},
		{
			"anonymous": false,
			"inputs": [
				{
					"indexed": true,
					"internalType": "uint256",
					"name": "id",
					"type": "uint256"
				},
				{
					"indexed": true,
					"internalType": "address",
					"name": "creator",
					"type": "address"
				},
				{
					"indexed": true,
					"internalType": "address",
					"name": "opponent",
					"type": "address"
				},
				{
					"indexed": false,
					"internalType": "address",
					"name": "winner",
					"type": "address"
				}
			],
			"name": "CF_GameExpiredFinished",
			"type": "event"
		},
		{
			"anonymous": false,
			"inputs": [
				{
					"indexed": true,
					"internalType": "uint256",
					"name": "id",
					"type": "uint256"
				},
				{
					"indexed": true,
					"internalType": "address",
					"name": "creator",
					"type": "address"
				},
				{
					"indexed": true,
					"internalType": "address",
					"name": "opponent",
					"type": "address"
				}
			],
			"name": "CF_GameJoined",
			"type": "event"
		},
		{
			"anonymous": false,
			"inputs": [
				{
					"indexed": true,
					"internalType": "uint256",
					"name": "id",
					"type": "uint256"
				}
			],
			"name": "CF_GamePaused",
			"type": "event"
		},
		{
			"anonymous": false,
			"inputs": [
				{
					"indexed": true,
					"internalType": "uint256",
					"name": "id",
					"type": "uint256"
				},
				{
					"indexed": true,
					"internalType": "address",
					"name": "creator",
					"type": "address"
				},
				{
					"indexed": true,
					"internalType": "address",
					"name": "opponent",
					"type": "address"
				},
				{
					"indexed": false,
					"internalType": "address",
					"name": "winner",
					"type": "address"
				}
			],
			"name": "CF_GamePlayed",
			"type": "event"
		},
		{
			"anonymous": false,
			"inputs": [
				{
					"indexed": true,
					"internalType": "address",
					"name": "player",
					"type": "address"
				}
			],
			"name": "CF_GamePrizesWithdrawn",
			"type": "event"
		},
		{
			"anonymous": false,
			"inputs": [
				{
					"indexed": true,
					"internalType": "uint256",
					"name": "id",
					"type": "uint256"
				},
				{
					"indexed": true,
					"internalType": "address",
					"name": "creator",
					"type": "address"
				},
				{
					"indexed": true,
					"internalType": "address",
					"name": "opponent",
					"type": "address"
				},
				{
					"indexed": false,
					"internalType": "address",
					"name": "winner",
					"type": "address"
				}
			],
			"name": "CF_GameQuittedFinished",
			"type": "event"
		},
		{
			"anonymous": false,
			"inputs": [
				{
					"indexed": true,
					"internalType": "address",
					"name": "referral",
					"type": "address"
				}
			],
			"name": "CF_GameReferralWithdrawn",
			"type": "event"
		},
		{
			"anonymous": false,
			"inputs": [
				{
					"indexed": true,
					"internalType": "uint256",
					"name": "id",
					"type": "uint256"
				},
				{
					"indexed": true,
					"internalType": "address",
					"name": "creator",
					"type": "address"
				}
			],
			"name": "CF_GameUnpaused",
			"type": "event"
		},
		{
			"anonymous": false,
			"inputs": [
				{
					"indexed": true,
					"internalType": "uint256",
					"name": "id",
					"type": "uint256"
				},
				{
					"indexed": true,
					"internalType": "address",
					"name": "creator",
					"type": "address"
				}
			],
			"name": "CF_GameUpdated",
			"type": "event"
		},
		{
			"anonymous": false,
			"inputs": [
				{
					"indexed": false,
					"internalType": "address",
					"name": "from",
					"type": "address"
				},
				{
					"indexed": true,
					"internalType": "address",
					"name": "to",
					"type": "address"
				},
				{
					"indexed": true,
					"internalType": "uint256",
					"name": "amount",
					"type": "uint256"
				}
			],
			"name": "CF_PartnerFeeTransferred",
			"type": "event"
		},
		{
			"anonymous": false,
			"inputs": [
				{
					"indexed": true,
					"internalType": "address",
					"name": "winner",
					"type": "address"
				},
				{
					"indexed": true,
					"internalType": "uint256",
					"name": "prize",
					"type": "uint256"
				}
			],
			"name": "CF_RafflePlayed",
			"type": "event"
		},
		{
			"anonymous": false,
			"inputs": [
				{
					"indexed": true,
					"internalType": "address",
					"name": "winner",
					"type": "address"
				}
			],
			"name": "CF_RafflePrizeWithdrawn",
			"type": "event"
		},
		{
			"anonymous": false,
			"inputs": [
				{
					"indexed": true,
					"internalType": "address",
					"name": "previousOwner",
					"type": "address"
				},
				{
					"indexed": true,
					"internalType": "address",
					"name": "newOwner",
					"type": "address"
				}
			],
			"name": "OwnershipTransferred",
			"type": "event"
		},
		{
			"anonymous": false,
			"inputs": [
				{
					"indexed": false,
					"internalType": "address",
					"name": "account",
					"type": "address"
				}
			],
			"name": "Paused",
			"type": "event"
		},
		{
			"anonymous": false,
			"inputs": [
				{
					"indexed": false,
					"internalType": "address",
					"name": "account",
					"type": "address"
				}
			],
			"name": "Unpaused",
			"type": "event"
		},
		{
			"inputs": [],
			"name": "ACQUIRED_FEE_BENEFICIARY_MAX_DURATION",
			"outputs": [
				{
					"internalType": "uint256",
					"name": "",
					"type": "uint256"
				}
			],
			"stateMutability": "view",
			"type": "function"
		},
		{
			"inputs": [
				{
					"internalType": "uint256",
					"name": "_id",
					"type": "uint256"
				}
			],
			"name": "addTopGame",
			"outputs": [],
			"stateMutability": "payable",
			"type": "function"
		},
		{
			"inputs": [
				{
					"internalType": "address",
					"name": "",
					"type": "address"
				}
			],
			"name": "betTotal",
			"outputs": [
				{
					"internalType": "uint256",
					"name": "",
					"type": "uint256"
				}
			],
			"stateMutability": "view",
			"type": "function"
		},
		{
			"inputs": [
				{
					"internalType": "bytes32",
					"name": "_guessHash",
					"type": "bytes32"
				},
				{
					"internalType": "address",
					"name": "_referral",
					"type": "address"
				}
			],
			"name": "createGame",
			"outputs": [],
			"stateMutability": "payable",
			"type": "function"
		},
		{
			"inputs": [],
			"name": "devFeePending",
			"outputs": [
				{
					"internalType": "uint256",
					"name": "",
					"type": "uint256"
				}
			],
			"stateMutability": "view",
			"type": "function"
		},
		{
			"inputs": [],
			"name": "feeBeneficiar",
			"outputs": [
				{
					"internalType": "address payable",
					"name": "",
					"type": "address"
				}
			],
			"stateMutability": "view",
			"type": "function"
		},
		{
			"inputs": [
				{
					"internalType": "address",
					"name": "",
					"type": "address"
				}
			],
			"name": "feeBeneficiarBalances",
			"outputs": [
				{
					"internalType": "uint256",
					"name": "",
					"type": "uint256"
				}
			],
			"stateMutability": "view",
			"type": "function"
		},
		{
			"inputs": [],
			"name": "feeBeneficiarPurchasedAt",
			"outputs": [
				{
					"internalType": "uint256",
					"name": "",
					"type": "uint256"
				}
			],
			"stateMutability": "view",
			"type": "function"
		},
		{
			"inputs": [
				{
					"internalType": "uint256",
					"name": "_id",
					"type": "uint256"
				}
			],
			"name": "finishExpiredGame",
			"outputs": [],
			"stateMutability": "nonpayable",
			"type": "function"
		},
		{
			"inputs": [],
			"name": "gameMoveDuration",
			"outputs": [
				{
					"internalType": "uint16",
					"name": "",
					"type": "uint16"
				}
			],
			"stateMutability": "view",
			"type": "function"
		},
		{
			"inputs": [
				{
					"internalType": "uint256",
					"name": "_id",
					"type": "uint256"
				}
			],
			"name": "gameMoveExpired",
			"outputs": [
				{
					"internalType": "bool",
					"name": "",
					"type": "bool"
				}
			],
			"stateMutability": "view",
			"type": "function"
		},
		{
			"inputs": [
				{
					"internalType": "uint256",
					"name": "_id",
					"type": "uint256"
				}
			],
			"name": "gameOnPause",
			"outputs": [
				{
					"internalType": "bool",
					"name": "",
					"type": "bool"
				}
			],
			"stateMutability": "view",
			"type": "function"
		},
		{
			"inputs": [
				{
					"internalType": "uint256",
					"name": "",
					"type": "uint256"
				}
			],
			"name": "games",
			"outputs": [
				{
					"internalType": "bool",
					"name": "paused",
					"type": "bool"
				},
				{
					"internalType": "uint8",
					"name": "creatorCoinSide",
					"type": "uint8"
				},
				{
					"internalType": "uint8",
					"name": "opponentCoinSide",
					"type": "uint8"
				},
				{
					"internalType": "uint256",
					"name": "id",
					"type": "uint256"
				},
				{
					"internalType": "uint256",
					"name": "bet",
					"type": "uint256"
				},
				{
					"internalType": "uint256",
					"name": "opponentJoinedAt",
					"type": "uint256"
				},
				{
					"internalType": "bytes32",
					"name": "creatorGuessHash",
					"type": "bytes32"
				},
				{
					"internalType": "address payable",
					"name": "creator",
					"type": "address"
				},
				{
					"internalType": "address payable",
					"name": "opponent",
					"type": "address"
				},
				{
					"internalType": "address payable",
					"name": "winner",
					"type": "address"
				},
				{
					"internalType": "address",
					"name": "creatorReferral",
					"type": "address"
				},
				{
					"internalType": "address",
					"name": "opponentReferral",
					"type": "address"
				}
			],
			"stateMutability": "view",
			"type": "function"
		},
		{
			"inputs": [],
			"name": "gamesCompletedAmount",
			"outputs": [
				{
					"internalType": "uint256",
					"name": "",
					"type": "uint256"
				}
			],
			"stateMutability": "view",
			"type": "function"
		},
		{
			"inputs": [],
			"name": "gamesCreatedAmount",
			"outputs": [
				{
					"internalType": "uint256",
					"name": "",
					"type": "uint256"
				}
			],
			"stateMutability": "view",
			"type": "function"
		},
		{
			"inputs": [
				{
					"internalType": "address",
					"name": "",
					"type": "address"
				},
				{
					"internalType": "uint256",
					"name": "",
					"type": "uint256"
				}
			],
			"name": "gamesWithPendingPrizeWithdrawal",
			"outputs": [
				{
					"internalType": "uint256",
					"name": "",
					"type": "uint256"
				}
			],
			"stateMutability": "view",
			"type": "function"
		},
		{
			"inputs": [
				{
					"internalType": "address",
					"name": "_address",
					"type": "address"
				}
			],
			"name": "getGamesWithPendingPrizeWithdrawal",
			"outputs": [
				{
					"internalType": "uint256[]",
					"name": "ids",
					"type": "uint256[]"
				}
			],
			"stateMutability": "view",
			"type": "function"
		},
		{
			"inputs": [
				{
					"internalType": "address",
					"name": "_address",
					"type": "address"
				}
			],
			"name": "getPlayedGamesForPlayer",
			"outputs": [
				{
					"internalType": "uint256[]",
					"name": "",
					"type": "uint256[]"
				}
			],
			"stateMutability": "view",
			"type": "function"
		},
		{
			"inputs": [],
			"name": "getRaffleParticipants",
			"outputs": [
				{
					"internalType": "address[]",
					"name": "",
					"type": "address[]"
				}
			],
			"stateMutability": "view",
			"type": "function"
		},
		{
			"inputs": [],
			"name": "getRaffleResultCount",
			"outputs": [
				{
					"internalType": "uint256",
					"name": "",
					"type": "uint256"
				}
			],
			"stateMutability": "view",
			"type": "function"
		},
		{
			"inputs": [],
			"name": "getTopGames",
			"outputs": [
				{
					"internalType": "uint256[5]",
					"name": "",
					"type": "uint256[5]"
				}
			],
			"stateMutability": "view",
			"type": "function"
		},
		{
			"inputs": [
				{
					"internalType": "uint256",
					"name": "_id",
					"type": "uint256"
				}
			],
			"name": "increaseBetForGameBy",
			"outputs": [],
			"stateMutability": "payable",
			"type": "function"
		},
		{
			"inputs": [
				{
					"internalType": "uint256",
					"name": "_id",
					"type": "uint256"
				}
			],
			"name": "isTopGame",
			"outputs": [
				{
					"internalType": "bool",
					"name": "",
					"type": "bool"
				}
			],
			"stateMutability": "view",
			"type": "function"
		},
		{
			"inputs": [
				{
					"internalType": "uint256",
					"name": "_id",
					"type": "uint256"
				},
				{
					"internalType": "uint8",
					"name": "_coinSide",
					"type": "uint8"
				},
				{
					"internalType": "address",
					"name": "_referral",
					"type": "address"
				}
			],
			"name": "joinGame",
			"outputs": [],
			"stateMutability": "payable",
			"type": "function"
		},
		{
			"inputs": [],
			"name": "kill",
			"outputs": [],
			"stateMutability": "nonpayable",
			"type": "function"
		},
		{
			"inputs": [],
			"name": "latestBeneficiarPrice",
			"outputs": [
				{
					"internalType": "uint256",
					"name": "",
					"type": "uint256"
				}
			],
			"stateMutability": "view",
			"type": "function"
		},
		{
			"inputs": [],
			"name": "makeFeeBeneficiar",
			"outputs": [],
			"stateMutability": "payable",
			"type": "function"
		},
		{
			"inputs": [],
			"name": "minBet",
			"outputs": [
				{
					"internalType": "uint256",
					"name": "",
					"type": "uint256"
				}
			],
			"stateMutability": "view",
			"type": "function"
		},
		{
			"inputs": [],
			"name": "ongoinRafflePrize",
			"outputs": [
				{
					"internalType": "uint256",
					"name": "",
					"type": "uint256"
				}
			],
			"stateMutability": "view",
			"type": "function"
		},
		{
			"inputs": [
				{
					"internalType": "address",
					"name": "",
					"type": "address"
				}
			],
			"name": "ongoingGameAsCreator",
			"outputs": [
				{
					"internalType": "uint256",
					"name": "",
					"type": "uint256"
				}
			],
			"stateMutability": "view",
			"type": "function"
		},
		{
			"inputs": [
				{
					"internalType": "address",
					"name": "",
					"type": "address"
				}
			],
			"name": "ongoingGameAsOpponent",
			"outputs": [
				{
					"internalType": "uint256",
					"name": "",
					"type": "uint256"
				}
			],
			"stateMutability": "view",
			"type": "function"
		},
		{
			"inputs": [],
			"name": "owner",
			"outputs": [
				{
					"internalType": "address",
					"name": "",
					"type": "address"
				}
			],
			"stateMutability": "view",
			"type": "function"
		},
		{
			"inputs": [],
			"name": "partner",
			"outputs": [
				{
					"internalType": "address payable",
					"name": "",
					"type": "address"
				}
			],
			"stateMutability": "view",
			"type": "function"
		},
		{
			"inputs": [],
			"name": "partnerFeePending",
			"outputs": [
				{
					"internalType": "uint256",
					"name": "",
					"type": "uint256"
				}
			],
			"stateMutability": "view",
			"type": "function"
		},
		{
			"inputs": [],
			"name": "partnerFeeTotalUsed",
			"outputs": [
				{
					"internalType": "uint256",
					"name": "",
					"type": "uint256"
				}
			],
			"stateMutability": "view",
			"type": "function"
		},
		{
			"inputs": [],
			"name": "partnerFeeTransferThreshold",
			"outputs": [
				{
					"internalType": "uint256",
					"name": "",
					"type": "uint256"
				}
			],
			"stateMutability": "view",
			"type": "function"
		},
		{
			"inputs": [],
			"name": "pause",
			"outputs": [],
			"stateMutability": "nonpayable",
			"type": "function"
		},
		{
			"inputs": [
				{
					"internalType": "uint256",
					"name": "_id",
					"type": "uint256"
				}
			],
			"name": "pauseGame",
			"outputs": [],
			"stateMutability": "nonpayable",
			"type": "function"
		},
		{
			"inputs": [],
			"name": "paused",
			"outputs": [
				{
					"internalType": "bool",
					"name": "",
					"type": "bool"
				}
			],
			"stateMutability": "view",
			"type": "function"
		},
		{
			"inputs": [
				{
					"internalType": "uint256",
					"name": "_id",
					"type": "uint256"
				},
				{
					"internalType": "uint8",
					"name": "_coinSide",
					"type": "uint8"
				},
				{
					"internalType": "bytes32",
					"name": "_seedHash",
					"type": "bytes32"
				}
			],
			"name": "playGame",
			"outputs": [],
			"stateMutability": "nonpayable",
			"type": "function"
		},
		{
			"inputs": [
				{
					"internalType": "address",
					"name": "",
					"type": "address"
				}
			],
			"name": "prizeTotal",
			"outputs": [
				{
					"internalType": "uint256",
					"name": "",
					"type": "uint256"
				}
			],
			"stateMutability": "view",
			"type": "function"
		},
		{
			"inputs": [
				{
					"internalType": "uint256",
					"name": "_id",
					"type": "uint256"
				}
			],
			"name": "quitGame",
			"outputs": [],
			"stateMutability": "nonpayable",
			"type": "function"
		},
		{
			"inputs": [],
			"name": "raffleActivated",
			"outputs": [
				{
					"internalType": "bool",
					"name": "",
					"type": "bool"
				}
			],
			"stateMutability": "view",
			"type": "function"
		},
		{
			"inputs": [],
			"name": "raffleActivationParticipantsAmount",
			"outputs": [
				{
					"internalType": "uint256",
					"name": "",
					"type": "uint256"
				}
			],
			"stateMutability": "view",
			"type": "function"
		},
		{
			"inputs": [
				{
					"internalType": "uint256",
					"name": "",
					"type": "uint256"
				}
			],
			"name": "raffleParticipants",
			"outputs": [
				{
					"internalType": "address",
					"name": "",
					"type": "address"
				}
			],
			"stateMutability": "view",
			"type": "function"
		},
		{
			"inputs": [
				{
					"internalType": "address",
					"name": "",
					"type": "address"
				}
			],
			"name": "rafflePrizePending",
			"outputs": [
				{
					"internalType": "uint256",
					"name": "",
					"type": "uint256"
				}
			],
			"stateMutability": "view",
			"type": "function"
		},
		{
			"inputs": [
				{
					"internalType": "address",
					"name": "",
					"type": "address"
				}
			],
			"name": "rafflePrizeWithdrawn",
			"outputs": [
				{
					"internalType": "uint256",
					"name": "",
					"type": "uint256"
				}
			],
			"stateMutability": "view",
			"type": "function"
		},
		{
			"inputs": [],
			"name": "rafflePrizesWonTotal",
			"outputs": [
				{
					"internalType": "uint256",
					"name": "",
					"type": "uint256"
				}
			],
			"stateMutability": "view",
			"type": "function"
		},
		{
			"inputs": [
				{
					"internalType": "uint256",
					"name": "",
					"type": "uint256"
				}
			],
			"name": "raffleResults",
			"outputs": [
				{
					"internalType": "address",
					"name": "winner",
					"type": "address"
				},
				{
					"internalType": "uint256",
					"name": "prize",
					"type": "uint256"
				},
				{
					"internalType": "uint256",
					"name": "time",
					"type": "uint256"
				}
			],
			"stateMutability": "view",
			"type": "function"
		},
		{
			"inputs": [],
			"name": "rand",
			"outputs": [
				{
					"internalType": "uint256",
					"name": "",
					"type": "uint256"
				}
			],
			"stateMutability": "view",
			"type": "function"
		},
		{
			"inputs": [
				{
					"internalType": "address",
					"name": "",
					"type": "address"
				}
			],
			"name": "referralFeesPending",
			"outputs": [
				{
					"internalType": "uint256",
					"name": "",
					"type": "uint256"
				}
			],
			"stateMutability": "view",
			"type": "function"
		},
		{
			"inputs": [
				{
					"internalType": "address",
					"name": "",
					"type": "address"
				}
			],
			"name": "referralFeesWithdrawn",
			"outputs": [
				{
					"internalType": "uint256",
					"name": "",
					"type": "uint256"
				}
			],
			"stateMutability": "view",
			"type": "function"
		},
		{
			"inputs": [],
			"name": "renounceOwnership",
			"outputs": [],
			"stateMutability": "nonpayable",
			"type": "function"
		},
		{
			"inputs": [],
			"name": "runRaffle",
			"outputs": [],
			"stateMutability": "nonpayable",
			"type": "function"
		},
		{
			"inputs": [
				{
					"internalType": "uint256",
					"name": "",
					"type": "uint256"
				}
			],
			"name": "topGames",
			"outputs": [
				{
					"internalType": "uint256",
					"name": "",
					"type": "uint256"
				}
			],
			"stateMutability": "view",
			"type": "function"
		},
		{
			"inputs": [],
			"name": "totalUsedInGame",
			"outputs": [
				{
					"internalType": "uint256",
					"name": "",
					"type": "uint256"
				}
			],
			"stateMutability": "view",
			"type": "function"
		},
		{
			"inputs": [],
			"name": "totalUsedReferralFees",
			"outputs": [
				{
					"internalType": "uint256",
					"name": "",
					"type": "uint256"
				}
			],
			"stateMutability": "view",
			"type": "function"
		},
		{
			"inputs": [
				{
					"internalType": "address",
					"name": "newOwner",
					"type": "address"
				}
			],
			"name": "transferOwnership",
			"outputs": [],
			"stateMutability": "nonpayable",
			"type": "function"
		},
		{
			"inputs": [],
			"name": "unpause",
			"outputs": [],
			"stateMutability": "nonpayable",
			"type": "function"
		},
		{
			"inputs": [
				{
					"internalType": "uint256",
					"name": "_id",
					"type": "uint256"
				}
			],
			"name": "unpauseGame",
			"outputs": [],
			"stateMutability": "payable",
			"type": "function"
		},
		{
			"inputs": [
				{
					"internalType": "uint16",
					"name": "_duration",
					"type": "uint16"
				}
			],
			"name": "updateGameMoveDuration",
			"outputs": [],
			"stateMutability": "nonpayable",
			"type": "function"
		},
		{
			"inputs": [
				{
					"internalType": "uint256",
					"name": "_minBet",
					"type": "uint256"
				}
			],
			"name": "updateMinBet",
			"outputs": [],
			"stateMutability": "nonpayable",
			"type": "function"
		},
		{
			"inputs": [
				{
					"internalType": "address payable",
					"name": "_partnerAddress",
					"type": "address"
				}
			],
			"name": "updatePartner",
			"outputs": [],
			"stateMutability": "nonpayable",
			"type": "function"
		},
		{
			"inputs": [
				{
					"internalType": "uint256",
					"name": "_transferThreshold",
					"type": "uint256"
				}
			],
			"name": "updatePartnerTransferThreshold",
			"outputs": [],
			"stateMutability": "nonpayable",
			"type": "function"
		},
		{
			"inputs": [
				{
					"internalType": "uint256",
					"name": "_amount",
					"type": "uint256"
				}
			],
			"name": "updateRaffleActivationParticipantsCount",
			"outputs": [],
			"stateMutability": "nonpayable",
			"type": "function"
		},
		{
			"inputs": [],
			"name": "withdrawBeneficiaryFee",
			"outputs": [],
			"stateMutability": "nonpayable",
			"type": "function"
		},
		{
			"inputs": [],
			"name": "withdrawDevFee",
			"outputs": [],
			"stateMutability": "nonpayable",
			"type": "function"
		},
		{
			"inputs": [
				{
					"internalType": "uint256",
					"name": "_maxLoop",
					"type": "uint256"
				}
			],
			"name": "withdrawGamePrizes",
			"outputs": [],
			"stateMutability": "nonpayable",
			"type": "function"
		},
		{
			"inputs": [],
			"name": "withdrawRafflePrizes",
			"outputs": [],
			"stateMutability": "nonpayable",
			"type": "function"
		},
		{
			"inputs": [],
			"name": "withdrawReferralFees",
			"outputs": [],
			"stateMutability": "nonpayable",
			"type": "function"
		}
	]
}