{
  "contractName": "AcquiredFeeBeneficiar",
  "abi": [
    {
      "anonymous": false,
      "inputs": [
        {
          "indexed": true,
          "internalType": "address",
          "name": "previousOwner",
          "type": "address"
        },
        {
          "indexed": true,
          "internalType": "address",
          "name": "newOwner",
          "type": "address"
        }
      ],
      "name": "OwnershipTransferred",
      "type": "event"
    },
    {
      "inputs": [],
      "name": "ACQUIRED_FEE_BENEFICIARY_MAX_DURATION",
      "outputs": [
        {
          "internalType": "uint256",
          "name": "",
          "type": "uint256"
        }
      ],
      "stateMutability": "view",
      "type": "function"
    },
    {
      "inputs": [],
      "name": "feeBeneficiar",
      "outputs": [
        {
          "internalType": "address payable",
          "name": "",
          "type": "address"
        }
      ],
      "stateMutability": "view",
      "type": "function"
    },
    {
      "inputs": [
        {
          "internalType": "address",
          "name": "",
          "type": "address"
        }
      ],
      "name": "feeBeneficiarBalances",
      "outputs": [
        {
          "internalType": "uint256",
          "name": "",
          "type": "uint256"
        }
      ],
      "stateMutability": "view",
      "type": "function"
    },
    {
      "inputs": [],
      "name": "feeBeneficiarPurchasedAt",
      "outputs": [
        {
          "internalType": "uint256",
          "name": "",
          "type": "uint256"
        }
      ],
      "stateMutability": "view",
      "type": "function"
    },
    {
      "inputs": [],
      "name": "latestPrice",
      "outputs": [
        {
          "internalType": "uint256",
          "name": "",
          "type": "uint256"
        }
      ],
      "stateMutability": "view",
      "type": "function"
    },
    {
      "inputs": [],
      "name": "owner",
      "outputs": [
        {
          "internalType": "address",
          "name": "",
          "type": "address"
        }
      ],
      "stateMutability": "view",
      "type": "function"
    },
    {
      "inputs": [],
      "name": "renounceOwnership",
      "outputs": [],
      "stateMutability": "nonpayable",
      "type": "function"
    },
    {
      "inputs": [
        {
          "internalType": "address",
          "name": "newOwner",
          "type": "address"
        }
      ],
      "name": "transferOwnership",
      "outputs": [],
      "stateMutability": "nonpayable",
      "type": "function"
    },
    {
      "inputs": [],
      "name": "makeFeeBeneficiar",
      "outputs": [],
      "stateMutability": "payable",
      "type": "function"
    },
    {
      "inputs": [],
      "name": "withdrawBeneficiaryFee",
      "outputs": [],
      "stateMutability": "nonpayable",
      "type": "function"
    }
  ],
  "bytecode": "0x60806040526213c680600155600061001e6001600160e01b0361006d16565b600080546001600160a01b0319166001600160a01b0383169081178255604051929350917f8be0079c531659141344cd1fd0a4f28419497f9722a3daafe3b4186f6b6457e0908290a350610071565b3390565b610671806100806000396000f3fe6080604052600436106100915760003560e01c8063a3e6ba9411610059578063a3e6ba941461014d578063b04b83d514610162578063e1b740a014610177578063ee03b9e11461018c578063f2fde38b1461019457610091565b806311a155e314610096578063443c3063146100bd578063715018a6146100f057806383725b0e146101075780638da5cb5b14610138575b600080fd5b3480156100a257600080fd5b506100ab6101c7565b60408051918252519081900360200190f35b3480156100c957600080fd5b506100ab600480360360208110156100e057600080fd5b50356001600160a01b03166101cd565b3480156100fc57600080fd5b506101056101df565b005b34801561011357600080fd5b5061011c610293565b604080516001600160a01b039092168252519081900360200190f35b34801561014457600080fd5b5061011c6102a2565b34801561015957600080fd5b506100ab6102b1565b34801561016e57600080fd5b506100ab6102b7565b34801561018357600080fd5b506101056102bd565b61010561034f565b3480156101a057600080fd5b50610105600480360360208110156101b757600080fd5b50356001600160a01b03166103b0565b60045481565b60056020526000908152604090205481565b6101e76104ba565b6000546001600160a01b03908116911614610249576040805162461bcd60e51b815260206004820181905260248201527f4f776e61626c653a2063616c6c6572206973206e6f7420746865206f776e6572604482015290519081900360640190fd5b600080546040516001600160a01b03909116907f8be0079c531659141344cd1fd0a4f28419497f9722a3daafe3b4186f6b6457e0908390a3600080546001600160a01b0319169055565b6003546001600160a01b031681565b6000546001600160a01b031690565b60025481565b60015481565b3360009081526005602052604090205480610308576040805162461bcd60e51b81526020600482015260066024820152654e6f2066656560d01b604482015290519081900360640190fd5b336000818152600560205260408082208290555183156108fc0291849190818181858888f19350505050158015610343573d6000803e3d6000fd5b5061034c6104be565b50565b6002543411610394576040805162461bcd60e51b815260206004820152600c60248201526b1ddc9bdb99c8185b5bdd5b9d60a21b604482015290519081900360640190fd5b34600255600380546001600160a01b0319163317905542600455565b6103b86104ba565b6000546001600160a01b0390811691161461041a576040805162461bcd60e51b815260206004820181905260248201527f4f776e61626c653a2063616c6c6572206973206e6f7420746865206f776e6572604482015290519081900360640190fd5b6001600160a01b03811661045f5760405162461bcd60e51b81526004018080602001828103825260268152602001806106166026913960400191505060405180910390fd5b600080546040516001600160a01b03808516939216917f8be0079c531659141344cd1fd0a4f28419497f9722a3daafe3b4186f6b6457e091a3600080546001600160a01b0319166001600160a01b0392909216919091179055565b3390565b6104c66102a2565b6003546001600160a01b03908116911614156104e157610533565b6001546004546104f890429063ffffffff61053516565b11156105335760006105086102a2565b600380546001600160a01b0319166001600160a01b0392909216919091179055504260045560006002555b565b600061057783836040518060400160405280601e81526020017f536166654d6174683a207375627472616374696f6e206f766572666c6f77000081525061057e565b9392505050565b6000818484111561060d5760405162461bcd60e51b81526004018080602001828103825283818151815260200191508051906020019080838360005b838110156105d25781810151838201526020016105ba565b50505050905090810190601f1680156105ff5780820380516001836020036101000a031916815260200191505b509250505060405180910390fd5b50505090039056fe4f776e61626c653a206e6577206f776e657220697320746865207a65726f2061646472657373a26469706673582212203140fe16a118527386c996cac97eb606273db5324bb2fb1b02894914330ed7e464736f6c63430006000033",
  "source": "// SPDX-License-Identifier: MIT\npragma solidity ^0.6.0;\n\nimport \"../node_modules/openzeppelin-solidity/contracts/access/Ownable.sol\";\nimport \"../node_modules/openzeppelin-solidity/contracts/math/SafeMath.sol\";\n\n/**\n * @dev Contract that allowes user to purchase right to receive % of game prizes.\n * @notice Beneficiary address will be reset after single address is being set 15 days.\n */\ncontract AcquiredFeeBeneficiar is Ownable {\n  using SafeMath for uint256;\n\n  uint256 public ACQUIRED_FEE_BENEFICIARY_MAX_DURATION = 15 days;  //  max duration for single beneficiar\n\n  uint256 public latestPrice;\n\n  address payable public feeBeneficiar; //  ongoing address to get fees during withdrawals\n  uint256 public feeBeneficiarPurchasedAt;  //  timestamp, when purchased\n\n  mapping(address => uint256) public feeBeneficiarBalances;\n\n  /**\n   * @dev Purchase right to become fee beneficiar.\n   * \n   */\n  function makeFeeBeneficiar() external payable {\n    require(msg.value > latestPrice, \"wrong amount\");\n\n    latestPrice = msg.value;\n    feeBeneficiar = msg.sender;\n    feeBeneficiarPurchasedAt = now;\n  }\n\n  /**\n   * @dev Add fee amount to ongoing beneficiar balance.\n   * @param _amount Amount of fee to be added.\n   * \n   */\n  function addBeneficiarFee(uint256 _amount) internal {\n    resetFeeBeneficiarIfExceeded();\n\n    feeBeneficiarBalances[feeBeneficiar] = feeBeneficiarBalances[feeBeneficiar].add(_amount);\n  }\n\n  /**\n   * @dev Withdraws beneficiary fee.\n   * \n   */\n  function withdrawBeneficiaryFee() external {\n    uint256 fee = feeBeneficiarBalances[msg.sender];\n    require(fee > 0, \"No fee\");\n\n    delete feeBeneficiarBalances[msg.sender];\n    msg.sender.transfer(fee);\n\n    resetFeeBeneficiarIfExceeded();\n  }\n\n  /**\n   * @dev Resets fee beneficiar to owner if max duration exceeded.\n   * \n   */\n  function resetFeeBeneficiarIfExceeded() private {\n    if (feeBeneficiar == owner()) {\n      return;\n    }\n\n    if (now.sub(feeBeneficiarPurchasedAt) > ACQUIRED_FEE_BENEFICIARY_MAX_DURATION) {\n      address payable ownerAddr = address(uint160(owner()));\n      feeBeneficiar = ownerAddr;\n      feeBeneficiarPurchasedAt = now;\n      delete latestPrice;\n    }\n  }\n}",
  "sourcePath": "/Users/vanijatko/Documents/projects/playmycrypto/game_coinflip/contracts/AcquiredFeeBeneficiar.sol",
  "compiler": {
    "name": "solc",
    "version": "0.6.0+commit.26b70077.Emscripten.clang"
  },
  "schemaVersion": "3.1.0",
  "updatedAt": "2020-07-31T08:37:06.178Z",
  "devdoc": {
    "details": "Contract that allowes user to purchase right to receive % of game prizes.",
    "methods": {
      "makeFeeBeneficiar()": {
        "details": "Purchase right to become fee beneficiar.    "
      },
      "owner()": {
        "details": "Returns the address of the current owner."
      },
      "renounceOwnership()": {
        "details": "Leaves the contract without owner. It will not be possible to call `onlyOwner` functions anymore. Can only be called by the current owner.     * NOTE: Renouncing ownership will leave the contract without an owner, thereby removing any functionality that is only available to the owner."
      },
      "transferOwnership(address)": {
        "details": "Transfers ownership of the contract to a new account (`newOwner`). Can only be called by the current owner."
      },
      "withdrawBeneficiaryFee()": {
        "details": "Withdraws beneficiary fee.    "
      }
    }
  },
  "userdoc": {
    "methods": {},
    "notice": "Beneficiary address will be reset after single address is being set 15 days."
  }
}