{
  "contractName": "CoinFlipGame",
  "abi": [
    {
      "inputs": [
        {
          "internalType": "address payable",
          "name": "_partner",
          "type": "address"
        }
      ],
      "stateMutability": "nonpayable",
      "type": "constructor"
    },
    {
      "anonymous": false,
      "inputs": [
        {
          "indexed": true,
          "internalType": "uint256",
          "name": "id",
          "type": "uint256"
        },
        {
          "indexed": true,
          "internalType": "address",
          "name": "creator",
          "type": "address"
        }
      ],
      "name": "CF_GameAddedToTop",
      "type": "event"
    },
    {
      "anonymous": false,
      "inputs": [
        {
          "indexed": true,
          "internalType": "uint256",
          "name": "id",
          "type": "uint256"
        },
        {
          "indexed": true,
          "internalType": "address",
          "name": "creator",
          "type": "address"
        },
        {
          "indexed": true,
          "internalType": "uint256",
          "name": "bet",
          "type": "uint256"
        }
      ],
      "name": "CF_GameCreated",
      "type": "event"
    },
    {
      "anonymous": false,
      "inputs": [
        {
          "indexed": true,
          "internalType": "uint256",
          "name": "id",
          "type": "uint256"
        },
        {
          "indexed": true,
          "internalType": "address",
          "name": "creator",
          "type": "address"
        },
        {
          "indexed": true,
          "internalType": "address",
          "name": "opponent",
          "type": "address"
        },
        {
          "indexed": false,
          "internalType": "address",
          "name": "winner",
          "type": "address"
        }
      ],
      "name": "CF_GameExpiredFinished",
      "type": "event"
    },
    {
      "anonymous": false,
      "inputs": [
        {
          "indexed": true,
          "internalType": "uint256",
          "name": "id",
          "type": "uint256"
        },
        {
          "indexed": true,
          "internalType": "address",
          "name": "creator",
          "type": "address"
        },
        {
          "indexed": true,
          "internalType": "address",
          "name": "opponent",
          "type": "address"
        }
      ],
      "name": "CF_GameJoined",
      "type": "event"
    },
    {
      "anonymous": false,
      "inputs": [
        {
          "indexed": true,
          "internalType": "uint256",
          "name": "id",
          "type": "uint256"
        }
      ],
      "name": "CF_GamePaused",
      "type": "event"
    },
    {
      "anonymous": false,
      "inputs": [
        {
          "indexed": true,
          "internalType": "uint256",
          "name": "id",
          "type": "uint256"
        },
        {
          "indexed": true,
          "internalType": "address",
          "name": "creator",
          "type": "address"
        },
        {
          "indexed": true,
          "internalType": "address",
          "name": "opponent",
          "type": "address"
        },
        {
          "indexed": false,
          "internalType": "address",
          "name": "winner",
          "type": "address"
        }
      ],
      "name": "CF_GamePlayed",
      "type": "event"
    },
    {
      "anonymous": false,
      "inputs": [
        {
          "indexed": true,
          "internalType": "address",
          "name": "player",
          "type": "address"
        }
      ],
      "name": "CF_GamePrizesWithdrawn",
      "type": "event"
    },
    {
      "anonymous": false,
      "inputs": [
        {
          "indexed": true,
          "internalType": "address",
          "name": "referral",
          "type": "address"
        }
      ],
      "name": "CF_GameReferralWithdrawn",
      "type": "event"
    },
    {
      "anonymous": false,
      "inputs": [
        {
          "indexed": true,
          "internalType": "uint256",
          "name": "id",
          "type": "uint256"
        },
        {
          "indexed": true,
          "internalType": "address",
          "name": "creator",
          "type": "address"
        }
      ],
      "name": "CF_GameUnpaused",
      "type": "event"
    },
    {
      "anonymous": false,
      "inputs": [
        {
          "indexed": true,
          "internalType": "uint256",
          "name": "id",
          "type": "uint256"
        },
        {
          "indexed": true,
          "internalType": "address",
          "name": "creator",
          "type": "address"
        }
      ],
      "name": "CF_GameUpdated",
      "type": "event"
    },
    {
      "anonymous": false,
      "inputs": [
        {
          "indexed": false,
          "internalType": "address",
          "name": "from",
          "type": "address"
        },
        {
          "indexed": true,
          "internalType": "address",
          "name": "to",
          "type": "address"
        },
        {
          "indexed": true,
          "internalType": "uint256",
          "name": "amount",
          "type": "uint256"
        }
      ],
      "name": "CF_PartnerFeeTransferred",
      "type": "event"
    },
    {
      "anonymous": false,
      "inputs": [
        {
          "indexed": true,
          "internalType": "address",
          "name": "winner",
          "type": "address"
        },
        {
          "indexed": true,
          "internalType": "uint256",
          "name": "prize",
          "type": "uint256"
        }
      ],
      "name": "CF_RafflePlayed",
      "type": "event"
    },
    {
      "anonymous": false,
      "inputs": [
        {
          "indexed": true,
          "internalType": "address",
          "name": "winner",
          "type": "address"
        }
      ],
      "name": "CF_RafflePrizeWithdrawn",
      "type": "event"
    },
    {
      "anonymous": false,
      "inputs": [
        {
          "indexed": true,
          "internalType": "address",
          "name": "previousOwner",
          "type": "address"
        },
        {
          "indexed": true,
          "internalType": "address",
          "name": "newOwner",
          "type": "address"
        }
      ],
      "name": "OwnershipTransferred",
      "type": "event"
    },
    {
      "anonymous": false,
      "inputs": [
        {
          "indexed": false,
          "internalType": "address",
          "name": "account",
          "type": "address"
        }
      ],
      "name": "Paused",
      "type": "event"
    },
    {
      "anonymous": false,
      "inputs": [
        {
          "indexed": false,
          "internalType": "address",
          "name": "account",
          "type": "address"
        }
      ],
      "name": "Unpaused",
      "type": "event"
    },
    {
      "inputs": [],
      "name": "ACQUIRED_FEE_BENEFICIARY_MAX_DURATION",
      "outputs": [
        {
          "internalType": "uint256",
          "name": "",
          "type": "uint256"
        }
      ],
      "stateMutability": "view",
      "type": "function"
    },
    {
      "inputs": [
        {
          "internalType": "address",
          "name": "",
          "type": "address"
        }
      ],
      "name": "addressBetTotal",
      "outputs": [
        {
          "internalType": "uint256",
          "name": "",
          "type": "uint256"
        }
      ],
      "stateMutability": "view",
      "type": "function"
    },
    {
      "inputs": [
        {
          "internalType": "address",
          "name": "",
          "type": "address"
        }
      ],
      "name": "addressPrizeTotal",
      "outputs": [
        {
          "internalType": "uint256",
          "name": "",
          "type": "uint256"
        }
      ],
      "stateMutability": "view",
      "type": "function"
    },
    {
      "inputs": [],
      "name": "devFeePending",
      "outputs": [
        {
          "internalType": "uint256",
          "name": "",
          "type": "uint256"
        }
      ],
      "stateMutability": "view",
      "type": "function"
    },
    {
      "inputs": [],
      "name": "feeBeneficiar",
      "outputs": [
        {
          "internalType": "address payable",
          "name": "",
          "type": "address"
        }
      ],
      "stateMutability": "view",
      "type": "function"
    },
    {
      "inputs": [
        {
          "internalType": "address",
          "name": "",
          "type": "address"
        }
      ],
      "name": "feeBeneficiarBalances",
      "outputs": [
        {
          "internalType": "uint256",
          "name": "",
          "type": "uint256"
        }
      ],
      "stateMutability": "view",
      "type": "function"
    },
    {
      "inputs": [],
      "name": "feeBeneficiarPurchasedAt",
      "outputs": [
        {
          "internalType": "uint256",
          "name": "",
          "type": "uint256"
        }
      ],
      "stateMutability": "view",
      "type": "function"
    },
    {
      "inputs": [],
      "name": "gameMoveDuration",
      "outputs": [
        {
          "internalType": "uint16",
          "name": "",
          "type": "uint16"
        }
      ],
      "stateMutability": "view",
      "type": "function"
    },
    {
      "inputs": [
        {
          "internalType": "uint256",
          "name": "",
          "type": "uint256"
        }
      ],
      "name": "games",
      "outputs": [
        {
          "internalType": "bool",
          "name": "paused",
          "type": "bool"
        },
        {
          "internalType": "uint8",
          "name": "creatorCoinSide",
          "type": "uint8"
        },
        {
          "internalType": "uint8",
          "name": "randCoinSide",
          "type": "uint8"
        },
        {
          "internalType": "uint256",
          "name": "id",
          "type": "uint256"
        },
        {
          "internalType": "uint256",
          "name": "bet",
          "type": "uint256"
        },
        {
          "internalType": "uint256",
          "name": "opponentJoinedAt",
          "type": "uint256"
        },
        {
          "internalType": "bytes32",
          "name": "creatorGuessHash",
          "type": "bytes32"
        },
        {
          "internalType": "address payable",
          "name": "creator",
          "type": "address"
        },
        {
          "internalType": "address payable",
          "name": "opponent",
          "type": "address"
        },
        {
          "internalType": "address payable",
          "name": "winner",
          "type": "address"
        },
        {
          "internalType": "address",
          "name": "creatorReferral",
          "type": "address"
        },
        {
          "internalType": "address",
          "name": "opponentReferral",
          "type": "address"
        }
      ],
      "stateMutability": "view",
      "type": "function"
    },
    {
      "inputs": [],
      "name": "gamesCompletedAmount",
      "outputs": [
        {
          "internalType": "uint256",
          "name": "",
          "type": "uint256"
        }
      ],
      "stateMutability": "view",
      "type": "function"
    },
    {
      "inputs": [],
      "name": "gamesCreatedAmount",
      "outputs": [
        {
          "internalType": "uint256",
          "name": "",
          "type": "uint256"
        }
      ],
      "stateMutability": "view",
      "type": "function"
    },
    {
      "inputs": [
        {
          "internalType": "address",
          "name": "",
          "type": "address"
        },
        {
          "internalType": "uint256",
          "name": "",
          "type": "uint256"
        }
      ],
      "name": "gamesWithPendingPrizeWithdrawal",
      "outputs": [
        {
          "internalType": "uint256",
          "name": "",
          "type": "uint256"
        }
      ],
      "stateMutability": "view",
      "type": "function"
    },
    {
      "inputs": [],
      "name": "getRaffleParticipants",
      "outputs": [
        {
          "internalType": "address[]",
          "name": "",
          "type": "address[]"
        }
      ],
      "stateMutability": "view",
      "type": "function"
    },
    {
      "inputs": [],
      "name": "getRaffleResultCount",
      "outputs": [
        {
          "internalType": "uint256",
          "name": "",
          "type": "uint256"
        }
      ],
      "stateMutability": "view",
      "type": "function"
    },
    {
      "inputs": [],
      "name": "latestPrice",
      "outputs": [
        {
          "internalType": "uint256",
          "name": "",
          "type": "uint256"
        }
      ],
      "stateMutability": "view",
      "type": "function"
    },
    {
      "inputs": [],
      "name": "makeFeeBeneficiar",
      "outputs": [],
      "stateMutability": "payable",
      "type": "function"
    },
    {
      "inputs": [],
      "name": "minBet",
      "outputs": [
        {
          "internalType": "uint256",
          "name": "",
          "type": "uint256"
        }
      ],
      "stateMutability": "view",
      "type": "function"
    },
    {
      "inputs": [],
      "name": "ongoinRafflePrize",
      "outputs": [
        {
          "internalType": "uint256",
          "name": "",
          "type": "uint256"
        }
      ],
      "stateMutability": "view",
      "type": "function"
    },
    {
      "inputs": [
        {
          "internalType": "address",
          "name": "",
          "type": "address"
        }
      ],
      "name": "ongoingGameAsCreator",
      "outputs": [
        {
          "internalType": "uint256",
          "name": "",
          "type": "uint256"
        }
      ],
      "stateMutability": "view",
      "type": "function"
    },
    {
      "inputs": [
        {
          "internalType": "address",
          "name": "",
          "type": "address"
        }
      ],
      "name": "ongoingGameAsOpponent",
      "outputs": [
        {
          "internalType": "uint256",
          "name": "",
          "type": "uint256"
        }
      ],
      "stateMutability": "view",
      "type": "function"
    },
    {
      "inputs": [],
      "name": "owner",
      "outputs": [
        {
          "internalType": "address",
          "name": "",
          "type": "address"
        }
      ],
      "stateMutability": "view",
      "type": "function"
    },
    {
      "inputs": [],
      "name": "partner",
      "outputs": [
        {
          "internalType": "address payable",
          "name": "",
          "type": "address"
        }
      ],
      "stateMutability": "view",
      "type": "function"
    },
    {
      "inputs": [],
      "name": "partnerFeePending",
      "outputs": [
        {
          "internalType": "uint256",
          "name": "",
          "type": "uint256"
        }
      ],
      "stateMutability": "view",
      "type": "function"
    },
    {
      "inputs": [],
      "name": "partnerFeeTotalUsed",
      "outputs": [
        {
          "internalType": "uint256",
          "name": "",
          "type": "uint256"
        }
      ],
      "stateMutability": "view",
      "type": "function"
    },
    {
      "inputs": [],
      "name": "partnerFeeTransferThreshold",
      "outputs": [
        {
          "internalType": "uint256",
          "name": "",
          "type": "uint256"
        }
      ],
      "stateMutability": "view",
      "type": "function"
    },
    {
      "inputs": [],
      "name": "paused",
      "outputs": [
        {
          "internalType": "bool",
          "name": "",
          "type": "bool"
        }
      ],
      "stateMutability": "view",
      "type": "function"
    },
    {
      "inputs": [],
      "name": "raffleActivated",
      "outputs": [
        {
          "internalType": "bool",
          "name": "",
          "type": "bool"
        }
      ],
      "stateMutability": "view",
      "type": "function"
    },
    {
      "inputs": [],
      "name": "raffleActivationParticipantsAmount",
      "outputs": [
        {
          "internalType": "uint256",
          "name": "",
          "type": "uint256"
        }
      ],
      "stateMutability": "view",
      "type": "function"
    },
    {
      "inputs": [
        {
          "internalType": "uint256",
          "name": "",
          "type": "uint256"
        }
      ],
      "name": "raffleParticipants",
      "outputs": [
        {
          "internalType": "address",
          "name": "",
          "type": "address"
        }
      ],
      "stateMutability": "view",
      "type": "function"
    },
    {
      "inputs": [
        {
          "internalType": "address",
          "name": "",
          "type": "address"
        }
      ],
      "name": "rafflePrizePending",
      "outputs": [
        {
          "internalType": "uint256",
          "name": "",
          "type": "uint256"
        }
      ],
      "stateMutability": "view",
      "type": "function"
    },
    {
      "inputs": [],
      "name": "rafflePrizesWonTotal",
      "outputs": [
        {
          "internalType": "uint256",
          "name": "",
          "type": "uint256"
        }
      ],
      "stateMutability": "view",
      "type": "function"
    },
    {
      "inputs": [
        {
          "internalType": "uint256",
          "name": "",
          "type": "uint256"
        }
      ],
      "name": "raffleResults",
      "outputs": [
        {
          "internalType": "address",
          "name": "winner",
          "type": "address"
        },
        {
          "internalType": "uint256",
          "name": "prize",
          "type": "uint256"
        },
        {
          "internalType": "uint256",
          "name": "time",
          "type": "uint256"
        }
      ],
      "stateMutability": "view",
      "type": "function"
    },
    {
      "inputs": [],
      "name": "rand",
      "outputs": [
        {
          "internalType": "uint256",
          "name": "",
          "type": "uint256"
        }
      ],
      "stateMutability": "view",
      "type": "function"
    },
    {
      "inputs": [
        {
          "internalType": "address",
          "name": "",
          "type": "address"
        }
      ],
      "name": "referralFeesPending",
      "outputs": [
        {
          "internalType": "uint256",
          "name": "",
          "type": "uint256"
        }
      ],
      "stateMutability": "view",
      "type": "function"
    },
    {
      "inputs": [
        {
          "internalType": "address",
          "name": "",
          "type": "address"
        }
      ],
      "name": "referralFeesWithdrawn",
      "outputs": [
        {
          "internalType": "uint256",
          "name": "",
          "type": "uint256"
        }
      ],
      "stateMutability": "view",
      "type": "function"
    },
    {
      "inputs": [],
      "name": "renounceOwnership",
      "outputs": [],
      "stateMutability": "nonpayable",
      "type": "function"
    },
    {
      "inputs": [],
      "name": "runRaffle",
      "outputs": [],
      "stateMutability": "nonpayable",
      "type": "function"
    },
    {
      "inputs": [
        {
          "internalType": "uint256",
          "name": "",
          "type": "uint256"
        }
      ],
      "name": "topGames",
      "outputs": [
        {
          "internalType": "uint256",
          "name": "",
          "type": "uint256"
        }
      ],
      "stateMutability": "view",
      "type": "function"
    },
    {
      "inputs": [],
      "name": "totalUsedInGame",
      "outputs": [
        {
          "internalType": "uint256",
          "name": "",
          "type": "uint256"
        }
      ],
      "stateMutability": "view",
      "type": "function"
    },
    {
      "inputs": [],
      "name": "totalUsedReferralFees",
      "outputs": [
        {
          "internalType": "uint256",
          "name": "",
          "type": "uint256"
        }
      ],
      "stateMutability": "view",
      "type": "function"
    },
    {
      "inputs": [
        {
          "internalType": "address",
          "name": "newOwner",
          "type": "address"
        }
      ],
      "name": "transferOwnership",
      "outputs": [],
      "stateMutability": "nonpayable",
      "type": "function"
    },
    {
      "inputs": [
        {
          "internalType": "address payable",
          "name": "_partnerAddress",
          "type": "address"
        }
      ],
      "name": "updatePartner",
      "outputs": [],
      "stateMutability": "nonpayable",
      "type": "function"
    },
    {
      "inputs": [
        {
          "internalType": "uint256",
          "name": "_transferThreshold",
          "type": "uint256"
        }
      ],
      "name": "updatePartnerTransferThreshold",
      "outputs": [],
      "stateMutability": "nonpayable",
      "type": "function"
    },
    {
      "inputs": [
        {
          "internalType": "uint256",
          "name": "_amount",
          "type": "uint256"
        }
      ],
      "name": "updateRaffleActivationParticipantsCount",
      "outputs": [],
      "stateMutability": "nonpayable",
      "type": "function"
    },
    {
      "inputs": [],
      "name": "withdrawBeneficiaryFee",
      "outputs": [],
      "stateMutability": "nonpayable",
      "type": "function"
    },
    {
      "inputs": [],
      "name": "kill",
      "outputs": [],
      "stateMutability": "nonpayable",
      "type": "function"
    },
    {
      "inputs": [],
      "name": "pause",
      "outputs": [],
      "stateMutability": "nonpayable",
      "type": "function"
    },
    {
      "inputs": [
        {
          "internalType": "uint256",
          "name": "_id",
          "type": "uint256"
        }
      ],
      "name": "gameOnPause",
      "outputs": [
        {
          "internalType": "bool",
          "name": "",
          "type": "bool"
        }
      ],
      "stateMutability": "view",
      "type": "function"
    },
    {
      "inputs": [
        {
          "internalType": "uint256",
          "name": "_id",
          "type": "uint256"
        }
      ],
      "name": "pauseGame",
      "outputs": [],
      "stateMutability": "nonpayable",
      "type": "function"
    },
    {
      "inputs": [
        {
          "internalType": "uint256",
          "name": "_id",
          "type": "uint256"
        }
      ],
      "name": "unpauseGame",
      "outputs": [],
      "stateMutability": "payable",
      "type": "function"
    },
    {
      "inputs": [
        {
          "internalType": "uint16",
          "name": "_duration",
          "type": "uint16"
        }
      ],
      "name": "updateGameMoveDuration",
      "outputs": [],
      "stateMutability": "nonpayable",
      "type": "function"
    },
    {
      "inputs": [
        {
          "internalType": "uint256",
          "name": "_id",
          "type": "uint256"
        }
      ],
      "name": "gameMoveExpired",
      "outputs": [
        {
          "internalType": "bool",
          "name": "",
          "type": "bool"
        }
      ],
      "stateMutability": "view",
      "type": "function"
    },
    {
      "inputs": [
        {
          "internalType": "uint256",
          "name": "_id",
          "type": "uint256"
        }
      ],
      "name": "finishExpiredGame",
      "outputs": [],
      "stateMutability": "nonpayable",
      "type": "function"
    },
    {
      "inputs": [
        {
          "internalType": "bytes32",
          "name": "_guessHash",
          "type": "bytes32"
        },
        {
          "internalType": "address",
          "name": "_referral",
          "type": "address"
        }
      ],
      "name": "createGame",
      "outputs": [],
      "stateMutability": "payable",
      "type": "function"
    },
    {
      "inputs": [
        {
          "internalType": "uint256",
          "name": "_id",
          "type": "uint256"
        },
        {
          "internalType": "address",
          "name": "_referral",
          "type": "address"
        }
      ],
      "name": "joinGame",
      "outputs": [],
      "stateMutability": "payable",
      "type": "function"
    },
    {
      "inputs": [
        {
          "internalType": "uint256",
          "name": "_id",
          "type": "uint256"
        },
        {
          "internalType": "uint8",
          "name": "_coinSide",
          "type": "uint8"
        },
        {
          "internalType": "bytes32",
          "name": "_seedHash",
          "type": "bytes32"
        }
      ],
      "name": "playGame",
      "outputs": [],
      "stateMutability": "nonpayable",
      "type": "function"
    },
    {
      "inputs": [
        {
          "internalType": "uint256",
          "name": "_maxLoop",
          "type": "uint256"
        }
      ],
      "name": "withdrawGamePrizes",
      "outputs": [],
      "stateMutability": "nonpayable",
      "type": "function"
    },
    {
      "inputs": [],
      "name": "withdrawReferralFees",
      "outputs": [],
      "stateMutability": "nonpayable",
      "type": "function"
    },
    {
      "inputs": [],
      "name": "withdrawRafflePrizes",
      "outputs": [],
      "stateMutability": "nonpayable",
      "type": "function"
    },
    {
      "inputs": [],
      "name": "withdrawDevFee",
      "outputs": [],
      "stateMutability": "nonpayable",
      "type": "function"
    },
    {
      "inputs": [
        {
          "internalType": "uint256",
          "name": "_id",
          "type": "uint256"
        }
      ],
      "name": "addTopGame",
      "outputs": [],
      "stateMutability": "payable",
      "type": "function"
    },
    {
      "inputs": [],
      "name": "getTopGames",
      "outputs": [
        {
          "internalType": "uint256[5]",
          "name": "",
          "type": "uint256[5]"
        }
      ],
      "stateMutability": "view",
      "type": "function"
    },
    {
      "inputs": [
        {
          "internalType": "uint256",
          "name": "_id",
          "type": "uint256"
        }
      ],
      "name": "isTopGame",
      "outputs": [
        {
          "internalType": "bool",
          "name": "",
          "type": "bool"
        }
      ],
      "stateMutability": "view",
      "type": "function"
    },
    {
      "inputs": [
        {
          "internalType": "address",
          "name": "_address",
          "type": "address"
        }
      ],
      "name": "getGamesWithPendingPrizeWithdrawalForAddress",
      "outputs": [
        {
          "internalType": "uint256[]",
          "name": "ids",
          "type": "uint256[]"
        }
      ],
      "stateMutability": "view",
      "type": "function"
    },
    {
      "inputs": [
        {
          "internalType": "uint256",
          "name": "_id",
          "type": "uint256"
        }
      ],
      "name": "increaseBetForGameBy",
      "outputs": [],
      "stateMutability": "payable",
      "type": "function"
    },
    {
      "inputs": [
        {
          "internalType": "uint256",
          "name": "_minBet",
          "type": "uint256"
        }
      ],
      "name": "updateMinBet",
      "outputs": [],
      "stateMutability": "nonpayable",
      "type": "function"
    },
    {
      "inputs": [
        {
          "internalType": "address",
          "name": "_address",
          "type": "address"
        }
      ],
      "name": "getParticipatedGameIdxsForPlayer",
      "outputs": [
        {
          "internalType": "uint256[]",
          "name": "",
          "type": "uint256[]"
        }
      ],
      "stateMutability": "view",
      "type": "function"
    }
  ],
  "bytecode": "0x60806040526213c68060055560c8600d556010805461ffff191661a8c0179055662386f26fc100006011553480156200003757600080fd5b50604051620040c4380380620040c4833981810160405260208110156200005d57600080fd5b50516000805460ff191681558190670de0b6b3a764000090620000886001600160e01b036200013216565b60008054610100600160a81b0319166101006001600160a01b038416908102919091178255604051929350917f8be0079c531659141344cd1fd0a4f28419497f9722a3daafe3b4186f6b6457e0908290a350620000ee826001600160e01b036200013616565b62000102816001600160e01b036200020e16565b50620001199050816001600160e01b036200013616565b50600780546001600160a01b03191633179055620002d3565b3390565b620001496001600160e01b036200013216565b60005461010090046001600160a01b03908116911614620001a0576040805162461bcd60e51b81526020600482018190526024820152600080516020620040a4833981519152604482015290519081900360640190fd5b6001600160a01b038116620001ec576040805162461bcd60e51b815260206004820152600d60248201526c2bb937b733903830b93a3732b960991b604482015290519081900360640190fd5b600180546001600160a01b0319166001600160a01b0392909216919091179055565b620002216001600160e01b036200013216565b60005461010090046001600160a01b0390811691161462000278576040805162461bcd60e51b81526020600482018190526024820152600080516020620040a4833981519152604482015290519081900360640190fd5b60008111620002ce576040805162461bcd60e51b815260206004820152601560248201527f7468726573686f6c64206d757374206265203e20300000000000000000000000604482015290519081900360640190fd5b600255565b613dc180620002e36000396000f3fe6080604052600436106103e45760003560e01c806395bb438911610208578063c8d6025911610118578063ee03b9e1116100ab578063f5f3b7731161007a578063f5f3b77314610d2b578063f77db00a14610d40578063f7cf0aa114610d73578063fe1f6a0b14610d9d578063fee445cc14610dc9576103e4565b8063ee03b9e114610c93578063efc30e6914610c9b578063f1da06b514610cc5578063f2fde38b14610cf8576103e4565b8063dd973b28116100e7578063dd973b2814610bec578063e03964aa14610c1f578063e1b740a014610c52578063ead00e0214610c67576103e4565b8063c8d6025914610b60578063cb93f7ef14610b75578063cbe93c6114610b8a578063d697739214610bd7576103e4565b8063adc6d4e71161019b578063b28b95491161016a578063b28b954914610abc578063b4b9352e14610ad1578063bbc9773e14610b04578063be10862b14610b21578063bf7f710514610b36576103e4565b8063adc6d4e714610a2f578063afa74c5b14610a59578063afb5d68b14610a6e578063b04b83d514610aa7576103e4565b8063a3e6ba94116101d7578063a3e6ba94146109a0578063a4b4b851146109b5578063a756cc0d146109d2578063a9e4aee5146109fc576103e4565b806395bb4389146109445780639619367d146109595780639960c8521461096e5780639f099c281461098b576103e4565b806351be96ea11610303578063780d24561161029657806383725b0e1161026557806383725b0e146108c65780638446596e146108db5780638456cb59146109055780638bc446181461091a5780638da5cb5b1461092f576103e4565b8063780d2456146108215780637b5036681461084b5780637cef77231461086057806382efb30814610893576103e4565b8063715018a6116102d2578063715018a6146107b45780637245fbb2146107c95780637418efeb146107de57806377b00c01146107f3576103e4565b806351be96ea1461072057806359cf5bd6146107355780635c975abb1461075f57806365ab31b314610788576103e4565b80633689e1db1161037b57806341c0e1b51161034a57806341c0e1b5146106ae578063443c3063146106c35780634b39df83146106f65780634dc5e4d31461070b576103e4565b80633689e1db146105ff5780633b3dca7614610614578063401f46631461062957806340861c1d1461065c576103e4565b80631214e31e116103b75780631214e31e1461052f578063173608e71461055b5780631af37971146105705780632bcac304146105d5576103e4565b806304a57c09146103e9578063072689ec1461042f578063117a5b901461047457806311a155e31461051a575b600080fd5b3480156103f557600080fd5b506104136004803603602081101561040c57600080fd5b5035610e02565b604080516001600160a01b039092168252519081900360200190f35b34801561043b57600080fd5b506104626004803603602081101561045257600080fd5b50356001600160a01b0316610e29565b60408051918252519081900360200190f35b34801561048057600080fd5b5061049e6004803603602081101561049757600080fd5b5035610e3b565b604080519c15158d5260ff9b8c1660208e015299909a168b8a015260608b019790975260808a019590955260a089019390935260c08801919091526001600160a01b0390811660e08801529081166101008701529081166101208601529081166101408501529190911661016083015251908190036101800190f35b34801561052657600080fd5b50610462610eaf565b34801561053b57600080fd5b506105596004803603602081101561055257600080fd5b5035610eb5565b005b34801561056757600080fd5b5061055961101f565b34801561057c57600080fd5b506105856111a4565b60408051602080825283518183015283519192839290830191858101910280838360005b838110156105c15781810151838201526020016105a9565b505050509050019250505060405180910390f35b3480156105e157600080fd5b50610559600480360360208110156105f857600080fd5b5035611207565b34801561060b57600080fd5b50610462611571565b34801561062057600080fd5b50610462611577565b34801561063557600080fd5b506105596004803603602081101561064c57600080fd5b50356001600160a01b031661160d565b34801561066857600080fd5b506106866004803603602081101561067f57600080fd5b50356116d7565b604080516001600160a01b039094168452602084019290925282820152519081900360600190f35b3480156106ba57600080fd5b50610559611711565b3480156106cf57600080fd5b50610462600480360360208110156106e657600080fd5b50356001600160a01b0316611772565b34801561070257600080fd5b50610462611784565b34801561071757600080fd5b5061046261178a565b34801561072c57600080fd5b50610462611790565b34801561074157600080fd5b506105596004803603602081101561075857600080fd5b5035611796565b34801561076b57600080fd5b5061077461199d565b604080519115158252519081900360200190f35b34801561079457600080fd5b5061079d6119a6565b6040805161ffff9092168252519081900360200190f35b3480156107c057600080fd5b506105596119b0565b3480156107d557600080fd5b50610462611a5c565b3480156107ea57600080fd5b50610774611a62565b3480156107ff57600080fd5b506105596004803603602081101561081657600080fd5b503561ffff16611a80565b34801561082d57600080fd5b506105596004803603602081101561084457600080fd5b5035611b3e565b34801561085757600080fd5b50610462611bed565b34801561086c57600080fd5b506104626004803603602081101561088357600080fd5b50356001600160a01b0316611bf3565b34801561089f57600080fd5b50610462600480360360208110156108b657600080fd5b50356001600160a01b0316611c05565b3480156108d257600080fd5b50610413611c17565b3480156108e757600080fd5b50610559600480360360208110156108fe57600080fd5b5035611c26565b34801561091157600080fd5b50610559611ccd565b34801561092657600080fd5b50610462611d34565b34801561093b57600080fd5b50610413611d3a565b34801561095057600080fd5b50610462611d4e565b34801561096557600080fd5b50610462611d54565b6105596004803603602081101561098457600080fd5b5035611d5a565b34801561099757600080fd5b50610462611fd2565b3480156109ac57600080fd5b50610462611fd8565b610559600480360360208110156109cb57600080fd5b5035611fde565b3480156109de57600080fd5b50610774600480360360208110156109f557600080fd5b50356121dd565b348015610a0857600080fd5b5061046260048036036020811015610a1f57600080fd5b50356001600160a01b0316612223565b348015610a3b57600080fd5b5061077460048036036020811015610a5257600080fd5b5035612234565b348015610a6557600080fd5b5061055961227e565b348015610a7a57600080fd5b5061046260048036036040811015610a9157600080fd5b506001600160a01b0381351690602001356123f5565b348015610ab357600080fd5b50610462612423565b348015610ac857600080fd5b50610559612429565b348015610add57600080fd5b5061046260048036036020811015610af457600080fd5b50356001600160a01b031661260a565b61055960048036036020811015610b1a57600080fd5b503561261c565b348015610b2d57600080fd5b5061041361279a565b348015610b4257600080fd5b5061046260048036036020811015610b5957600080fd5b50356127a9565b348015610b6c57600080fd5b506104626127bd565b348015610b8157600080fd5b506105596127c3565b348015610b9657600080fd5b50610b9f612898565b604051808260a080838360005b83811015610bc4578181015183820152602001610bac565b5050505090500191505060405180910390f35b348015610be357600080fd5b506104626128d3565b348015610bf857600080fd5b5061058560048036036020811015610c0f57600080fd5b50356001600160a01b03166128d9565b348015610c2b57600080fd5b5061046260048036036020811015610c4257600080fd5b50356001600160a01b0316612945565b348015610c5e57600080fd5b50610559612957565b61055960048036036040811015610c7d57600080fd5b50803590602001356001600160a01b03166129e6565b610559612d76565b348015610ca757600080fd5b5061077460048036036020811015610cbe57600080fd5b5035612dd7565b348015610cd157600080fd5b5061046260048036036020811015610ce857600080fd5b50356001600160a01b0316612dec565b348015610d0457600080fd5b5061055960048036036020811015610d1b57600080fd5b50356001600160a01b0316612dfe565b348015610d3757600080fd5b50610462612f06565b348015610d4c57600080fd5b5061058560048036036020811015610d6357600080fd5b50356001600160a01b0316612f0c565b348015610d7f57600080fd5b5061055960048036036020811015610d9657600080fd5b5035612fc0565b61055960048036036040811015610db357600080fd5b50803590602001356001600160a01b0316613063565b348015610dd557600080fd5b5061055960048036036060811015610dec57600080fd5b5080359060ff60208201351690604001356133ba565b600e8181548110610e0f57fe5b6000918252602090912001546001600160a01b0316905081565b601b6020526000908152604090205481565b601960205260009081526040902080546001820154600283015460038401546004850154600586015460068701546007880154600889015460099099015460ff808a169a6101008b0482169a62010000900490911698979695946001600160a01b039081169481169381169291811691168c565b60085481565b60008181526019602052604090206005015481906001600160a01b03163314610f13576040805162461bcd60e51b815260206004820152600b60248201526a2737ba1031b932b0ba37b960a91b604482015290519081900360640190fd5b81610f1d81612dd7565b15610f60576040805162461bcd60e51b815260206004820152600e60248201526d11d85b59481a5cc81c185d5cd95960921b604482015290519081900360640190fd5b60008381526019602052604090206006015483906001600160a01b031615610fbe576040805162461bcd60e51b815260206004820152600c60248201526b12185cc81bdc1c1bdb995b9d60a21b604482015290519081900360640190fd5b6000848152601960205260409020805460ff19166001179055610fe0846121dd565b15610fee57610fee84613765565b60405184907f700ef9560b7219bf268df827c61f5ae3323824a8b032726685696bdcfbe785b790600090a250505050565b33600090815260208052604090205480611072576040805162461bcd60e51b815260206004820152600f60248201526e4e6f20726566657272616c2066656560881b604482015290519081900360640190fd5b33600090815260208080526040808320839055602190915290205461109d908263ffffffff61384416565b336000908152602160205260408120919091556110d260646110c684600163ffffffff6138a716565b9063ffffffff61390016565b6003549091506110e8908263ffffffff61384416565b600355600b546110fe908263ffffffff61384416565b600b55602254611114908263ffffffff61384416565b60225561112081613942565b600061114361113683600463ffffffff6138a716565b849063ffffffff61399316565b604051909150339082156108fc029083906000818181858888f19350505050158015611173573d6000803e3d6000fd5b5060405133907fd20500ebc366bc59a5ec7044b7c82d3fed0d725dba0429ae6c20a56ee15cea9290600090a2505050565b6060600e8054806020026020016040519081016040528092919081815260200182805480156111fc57602002820191906000526020600020905b81546001600160a01b031681526001909101906020018083116111de575b505050505090505b90565b6000811161124c576040805162461bcd60e51b815260206004820152600d60248201526c05f6d61784c6f6f70203d3d203609c1b604482015290519081900360640190fd5b336000908152601d60205260409020805461129b576040805162461bcd60e51b815260206004820152600a6024820152696e6f2070656e64696e6760b01b604482015290519081900360640190fd5b80548211156112e4576040805162461bcd60e51b815260206004820152601060248201526f5f6d61784c6f6f7020746f6f2062696760801b604482015290519081900360640190fd5b6000805b8381101561142b578254600090849061130890600163ffffffff61399316565b8154811061131257fe5b600091825260208083209190910154808352601990915260408220600581015491935091906001600160a01b031633146113595760098201546001600160a01b0316611368565b60088201546001600160a01b03165b9050600061138960646110c6600186600201546138a790919063ffffffff16565b6001600160a01b03831660009081526020805260409020549091506113b4908263ffffffff61384416565b6001600160a01b03831660009081526020805260409020556023546113df908263ffffffff61384416565b60235560028301546113f890879063ffffffff61384416565b95508680548061140457fe5b600190038181906000526020600020016000905590555050505080806001019150506112e8565b5061145c61144082600263ffffffff6138a716565b336000908152601f60205260409020549063ffffffff61384416565b336000908152601f602052604081209190915561148560646110c684600163ffffffff6138a716565b60035490915061149b908263ffffffff61384416565b600355600b546114b1908263ffffffff61384416565b600b556022546114c7908263ffffffff61384416565b6022556114d381613942565b60006115066114e983600563ffffffff6138a716565b6114fa85600263ffffffff6138a716565b9063ffffffff61399316565b604051909150339082156108fc029083906000818181858888f19350505050158015611536573d6000803e3d6000fd5b5061153f6139d5565b60405133907ff66e3f979648b506dd345b50ca1b3efbdc116887cd67c37de409d3bd8e4995b090600090a25050505050565b600d5481565b600e546000906115c0576040805162461bcd60e51b815260206004820152600f60248201526e4e6f207061727469636970616e747360881b604482015290519081900360640190fd5b600e54600b5460408051426020808301919091524482840152606082019390935260808082018590528251808303909101815260a090910190915280519101208161160757fe5b06905090565b611615613a80565b60005461010090046001600160a01b0390811691161461166a576040805162461bcd60e51b81526020600482018190526024820152600080516020613d6c833981519152604482015290519081900360640190fd5b6001600160a01b0381166116b5576040805162461bcd60e51b815260206004820152600d60248201526c2bb937b733903830b93a3732b960991b604482015290519081900360640190fd5b600180546001600160a01b0319166001600160a01b0392909216919091179055565b600f81815481106116e457fe5b60009182526020909120600390910201805460018201546002909201546001600160a01b03909116925083565b611719613a80565b60005461010090046001600160a01b0390811691161461176e576040805162461bcd60e51b81526020600482018190526024820152600080516020613d6c833981519152604482015290519081900360640190fd5b3380ff5b60096020526000908152604090205481565b600f5490565b60045481565b600b5481565b600081815260196020526040902060058101546001600160a01b03166117fa576040805162461bcd60e51b8152602060048201526014602482015273139bc819d85b59481dda5d1a081cdd58da081a5960621b604482015290519081900360640190fd5b60068101546001600160a01b0316331461184a576040805162461bcd60e51b815260206004820152600c60248201526b139bdd081bdc1c1bdb995b9d60a21b604482015290519081900360640190fd5b61185382612234565b611896576040805162461bcd60e51b815260206004820152600f60248201526e139bdd081e595d08195e1c1a5c9959608a1b604482015290519081900360640190fd5b600781018054336001600160a01b03199182168117821681179092556000828152601d602090815260408220805460018181018355918452918320909101869055600e8054808301825592527fbb7b4a454dc3493923482f07822329ed19e8244eff582cc204f8554c3620c3fd9091018054909216909217905560185461191c91613844565b6018556005810180546001600160a01b039081166000908152601a60209081526040808320839055338352601b8252808320929092556006850154935460078601548351908516815292519484169493169286927f6e530d1f81c10976edecfd724ddf372347424ed7e3066073547a6438a09670fe92908290030190a45050565b60005460ff1690565b60105461ffff1681565b6119b8613a80565b60005461010090046001600160a01b03908116911614611a0d576040805162461bcd60e51b81526020600482018190526024820152600080516020613d6c833981519152604482015290519081900360640190fd5b600080546040516101009091046001600160a01b0316907f8be0079c531659141344cd1fd0a4f28419497f9722a3daafe3b4186f6b6457e0908390a360008054610100600160a81b0319169055565b60245481565b600d54600e5460009111801590611a7b57506000600b54115b905090565b611a88613a80565b60005461010090046001600160a01b03908116911614611add576040805162461bcd60e51b81526020600482018190526024820152600080516020613d6c833981519152604482015290519081900360640190fd5b60008161ffff1611611b26576040805162461bcd60e51b815260206004820152600d60248201526c053686f756c64206265203e203609c1b604482015290519081900360640190fd5b6010805461ffff191661ffff92909216919091179055565b611b46613a80565b60005461010090046001600160a01b03908116911614611b9b576040805162461bcd60e51b81526020600482018190526024820152600080516020613d6c833981519152604482015290519081900360640190fd5b60008111611be8576040805162461bcd60e51b815260206004820152601560248201527407468726573686f6c64206d757374206265203e203605c1b604482015290519081900360640190fd5b600255565b60235481565b601f6020526000908152604090205481565b600a6020526000908152604090205481565b6007546001600160a01b031681565b611c2e613a80565b60005461010090046001600160a01b03908116911614611c83576040805162461bcd60e51b81526020600482018190526024820152600080516020613d6c833981519152604482015290519081900360640190fd5b60008111611cc8576040805162461bcd60e51b815260206004820152600d60248201526c053686f756c64206265203e203609c1b604482015290519081900360640190fd5b600d55565b611cd5613a80565b60005461010090046001600160a01b03908116911614611d2a576040805162461bcd60e51b81526020600482018190526024820152600080516020613d6c833981519152604482015290519081900360640190fd5b611d32613a84565b565b60225481565b60005461010090046001600160a01b031690565b60025481565b60115481565b60008181526019602052604090206005015481906001600160a01b03163314611db8576040805162461bcd60e51b815260206004820152600b60248201526a2737ba1031b932b0ba37b960a91b604482015290519081900360640190fd5b60008281526019602052604090206006015482906001600160a01b031615611e16576040805162461bcd60e51b815260206004820152600c60248201526b12185cc81bdc1c1bdb995b9d60a21b604482015290519081900360640190fd5b6011543414611e58576040805162461bcd60e51b815260206004820152600960248201526857726f6e672066656560b81b604482015290519081900360640190fd5b601254831415611ea1576040805162461bcd60e51b815260206004820152600f60248201526e546f7020696e20546f7047616d657360881b604482015290519081900360640190fd5b611ea9613c94565b6040518060a0016040528085815260200160008152602001600081526020016000815260200160008152509050600080600090505b60048160ff161015611f63578560128260ff1660058110611efb57fe5b0154148015611f08575081155b15611f1257600191505b81611f2e5760128160ff1660058110611f2757fe5b0154611f44565b60128160010160ff1660058110611f4157fe5b01545b838260010160ff1660058110611f5657fe5b6020020152600101611ede565b50611f716012836005613cb2565b50602254611f85903463ffffffff61384416565b602255602454611f9b903463ffffffff61384416565b602455604051339086907f27850eb52960ae0f343455f87b489c819bb4fdaea63d6968aa19dba5adf2991e90600090a35050505050565b600c5481565b60065481565b60005460ff1615612029576040805162461bcd60e51b815260206004820152601060248201526f14185d5cd8589b194e881c185d5cd95960821b604482015290519081900360640190fd5b60008181526019602052604090206005015481906001600160a01b03163314612087576040805162461bcd60e51b815260206004820152600b60248201526a2737ba1031b932b0ba37b960a91b604482015290519081900360640190fd5b60008281526019602052604090206006015482906001600160a01b0316156120e5576040805162461bcd60e51b815260206004820152600c60248201526b12185cc81bdc1c1bdb995b9d60a21b604482015290519081900360640190fd5b60003411612131576040805162461bcd60e51b81526020600482015260146024820152730696e637265617365206d757374206265203e20360641b604482015290519081900360640190fd5b336000908152601e6020526040902054612151903463ffffffff61384416565b336000908152601e6020908152604080832093909355858252601990522060020154612183903463ffffffff61384416565b6000848152601960205260409020600201556024546121a8903463ffffffff61384416565b602455604051339084907f040c8e41157c3ece3442654816da3e471438e15288a88faa65a51271a10238f990600090a3505050565b6000805b60058160ff161015612218578260128260ff16600581106121fe57fe5b0154141561221057600191505061221e565b6001016121e1565b50600090505b919050565b602080526000908152604090205481565b6000818152601960205260408120600301541561221e576010546000838152601960205260409020600301544291612276919061ffff1663ffffffff61384416565b10905061221e565b336000908152600a6020526040902054806122d2576040805162461bcd60e51b815260206004820152600f60248201526e4e6f20726166666c65207072697a6560881b604482015290519081900360640190fd5b336000908152600a60209081526040808320839055601f9091529020546122ff908263ffffffff61384416565b336000908152601f602052604081209190915561232860646110c684600163ffffffff6138a716565b60035490915061233e908263ffffffff61384416565b600355600b54612354908263ffffffff61384416565b600b5560225461236a908263ffffffff61384416565b60225561237681613942565b600061238c61113683600463ffffffff6138a716565b604051909150339082156108fc029083906000818181858888f193505050501580156123bc573d6000803e3d6000fd5b506123c56139d5565b60405133907f41f36e3513afe9499e34441f572f2e84284a9ae1416882252929b6b7c72a308990600090a2505050565b601d602052816000526040600020818154811061240e57fe5b90600052602060002001600091509150505481565b60055481565b612431611a62565b612478576040805162461bcd60e51b8152602060048201526013602482015272149859999b1948084f481858dd1a5d985d1959606a1b604482015290519081900360640190fd5b6000612482611577565b90506124cc600b54600a6000600e858154811061249b57fe5b60009182526020808320909101546001600160a01b031683528201929092526040019020549063ffffffff61384416565b600a6000600e84815481106124dd57fe5b60009182526020808320909101546001600160a01b03168352820192909252604001902055600b54600c546125179163ffffffff61384416565b600c81905550600f6040518060600160405280600e848154811061253757fe5b6000918252602080832091909101546001600160a01b039081168452600b8054858401524260409586015286546001808201895597855293839020865160039095020180546001600160a01b03191694909216939093178155908401519481019490945591015160029092019190915554600e8054839081106125b657fe5b60009182526020822001546040516001600160a01b03909116917f3fcb6936a4c5aa28446d2519ebc71d8ce9f21cd4ecd4a6b362cdc9d403108ec291a3600b60009055600e60006126079190613cf0565b50565b601e6020526000908152604090205481565b60008181526019602052604090206005015481906001600160a01b0316331461267a576040805162461bcd60e51b815260206004820152600b60248201526a2737ba1031b932b0ba37b960a91b604482015290519081900360640190fd5b8161268481612dd7565b6126ca576040805162461bcd60e51b815260206004820152601260248201527111d85b59481a5cc81b9bdd081c185d5cd95960721b604482015290519081900360640190fd5b601154341461270c576040805162461bcd60e51b815260206004820152600960248201526857726f6e672066656560b81b604482015290519081900360640190fd5b6000838152601960205260409020805460ff19169055602254612735903463ffffffff61384416565b60225560245461274b903463ffffffff61384416565b6024556000838152601960205260408082206005015490516001600160a01b039091169185917ff0b0a4baf8f4fd56bb7663286eb293a4201e771c238bc79cfc108e6abc2abbbb9190a3505050565b6001546001600160a01b031681565b601281600581106127b657fe5b0154905081565b60035481565b6127cb613a80565b60005461010090046001600160a01b03908116911614612820576040805162461bcd60e51b81526020600482018190526024820152600080516020613d6c833981519152604482015290519081900360640190fd5b60225480612862576040805162461bcd60e51b815260206004820152600a6024820152694e6f206465762066656560b01b604482015290519081900360640190fd5b60006022819055604051339183156108fc02918491818181858888f19350505050158015612894573d6000803e3d6000fd5b5050565b6128a0613c94565b6040805160a08101918290529060129060059082845b8154815260200190600101908083116128b6575050505050905090565b60175481565b6001600160a01b0381166000908152601d602090815260409182902080548351818402810184019094528084526060939283018282801561293957602002820191906000526020600020905b815481526020019060010190808311612925575b50505050509050919050565b601a6020526000908152604090205481565b33600090815260096020526040902054806129a2576040805162461bcd60e51b81526020600482015260066024820152654e6f2066656560d01b604482015290519081900360640190fd5b336000818152600960205260408082208290555183156108fc0291849190818181858888f193505050501580156129dd573d6000803e3d6000fd5b50612607613b22565b60005460ff1615612a31576040805162461bcd60e51b815260206004820152601060248201526f14185d5cd8589b194e881c185d5cd95960821b604482015290519081900360640190fd5b336000908152601b602052604090205415612a89576040805162461bcd60e51b81526020600482015260136024820152724e6f206d6f7265206f70706f6e656e74696e6760681b604482015290519081900360640190fd5b806001600160a01b038116331415612ad9576040805162461bcd60e51b815260206004820152600e60248201526d15dc9bdb99c81c9959995c9c985b60921b604482015290519081900360640190fd5b82612ae381612dd7565b15612b26576040805162461bcd60e51b815260206004820152600e60248201526d11d85b59481a5cc81c185d5cd95960921b604482015290519081900360640190fd5b600084815260196020526040902060058101546001600160a01b0316612b8a576040805162461bcd60e51b8152602060048201526014602482015273139bc819d85b59481dda5d1a081cdd58da081a5960621b604482015290519081900360640190fd5b60078101546001600160a01b031615612bdc576040805162461bcd60e51b815260206004820152600f60248201526e23b0b6b2903430b9903bb4b73732b960891b604482015290519081900360640190fd5b34816002015414612c20576040805162461bcd60e51b815260206004820152600960248201526815dc9bdb99c818995d60ba1b604482015290519081900360640190fd5b6006810180546001600160a01b031916331790554260038201556001600160a01b03841615612c7957600085815260196020526040902060090180546001600160a01b0319166001600160a01b03861617905583612cac565b612c81611d3a565b600086815260196020526040902060090180546001600160a01b0319166001600160a01b0383161790555b50602454612cc0903463ffffffff61384416565b602455336000908152601e6020526040902054612ce3903463ffffffff61384416565b336000908152601e6020908152604080832093909355601b8152828220889055601c8152918120805460018101825590825291902001859055612d25856121dd565b15612d3357612d3385613765565b600581015460405133916001600160a01b03169087907fcf247107fd467ee49df2d0a3f04db0dde0cf701e3d4611d03cc7d0ac96f9049090600090a45050505050565b6006543411612dbb576040805162461bcd60e51b815260206004820152600c60248201526b1ddc9bdb99c8185b5bdd5b9d60a21b604482015290519081900360640190fd5b34600655600780546001600160a01b0319163317905542600855565b60009081526019602052604090205460ff1690565b60216020526000908152604090205481565b612e06613a80565b60005461010090046001600160a01b03908116911614612e5b576040805162461bcd60e51b81526020600482018190526024820152600080516020613d6c833981519152604482015290519081900360640190fd5b6001600160a01b038116612ea05760405162461bcd60e51b8152600401808060200182810382526026815260200180613d256026913960400191505060405180910390fd5b600080546040516001600160a01b038085169361010090930416917f8be0079c531659141344cd1fd0a4f28419497f9722a3daafe3b4186f6b6457e091a3600080546001600160a01b0390921661010002610100600160a81b0319909216919091179055565b60185481565b60606001600160a01b038216612f58576040805162461bcd60e51b815260206004820152600c60248201526b043616e6e74206265203078360a41b604482015290519081900360640190fd5b6001600160a01b0382166000908152601c60209081526040918290208054835181840281018401909452808452909183018282801561293957602002820191906000526020600020908154815260200190600101908083116129255750505050509050919050565b612fc8613a80565b60005461010090046001600160a01b0390811691161461301d576040805162461bcd60e51b81526020600482018190526024820152600080516020613d6c833981519152604482015290519081900360640190fd5b6000811161305e576040805162461bcd60e51b815260206004820152600960248201526815dc9bdb99c818995d60ba1b604482015290519081900360640190fd5b601155565b60005460ff16156130ae576040805162461bcd60e51b815260206004820152601060248201526f14185d5cd8589b194e881c185d5cd95960821b604482015290519081900360640190fd5b336000908152601a602052604090205415613103576040805162461bcd60e51b815260206004820152601060248201526f4e6f206d6f7265206372656174696e6760801b604482015290519081900360640190fd5b601154341015613146576040805162461bcd60e51b815260206004820152600960248201526815dc9bdb99c818995d60ba1b604482015290519081900360640190fd5b806001600160a01b038116331415613196576040805162461bcd60e51b815260206004820152600e60248201526d15dc9bdb99c81c9959995c9c985b60921b604482015290519081900360640190fd5b8260001a60f81b6001600160f81b0319166131e5576040805162461bcd60e51b815260206004820152600a60248201526908adae0e8f240d0c2e6d60b31b604482015290519081900360640190fd5b6001600160a01b038216331415613234576040805162461bcd60e51b815260206004820152600e60248201526d15dc9bdb99c81c9959995c9c985b60921b604482015290519081900360640190fd5b601780546000818152601960205260408082206001810193909355600590920180546001600160a01b0319163317905582548152818120346002909101559154825290206004018390556001600160a01b038216156132c057601754600090815260196020526040902060080180546001600160a01b0319166001600160a01b038416179055816132f6565b6132c8611d3a565b601754600090815260196020526040902060080180546001600160a01b0319166001600160a01b0383161790555b50336000908152601e6020526040902054613317903463ffffffff61384416565b336000908152601e602052604090205560245461333a903463ffffffff61384416565b60245560178054336000818152601a60209081526040808320859055601c82528083208054600181018255908452918320909101939093559254915134939192917f2f96aa00c72dd004da6bbd1a2d56762ee5a3504189732da096d9f75b41e2e46f91a46017546133b290600163ffffffff61384416565b601755505050565b60005460ff1615613405576040805162461bcd60e51b815260206004820152601060248201526f14185d5cd8589b194e881c185d5cd95960821b604482015290519081900360640190fd5b60008381526019602052604090206005015483906001600160a01b03163314613463576040805162461bcd60e51b815260206004820152600b60248201526a2737ba1031b932b0ba37b960a91b604482015290519081900360640190fd5b600084815260196020526040902060068101546001600160a01b03166134be576040805162461bcd60e51b815260206004820152600b60248201526a139bc81bdc1c1bdb995b9d60aa1b604482015290519081900360640190fd5b60078101546001600160a01b031615613510576040805162461bcd60e51b815260206004820152600f60248201526e23b0b6b2903430b9903bb4b73732b960891b604482015290519081900360640190fd5b80600401548460ff16846040516020018083815260200182815260200192505050604051602081830303815290604052805190602001201461358c576040805162461bcd60e51b815260206004820152601060248201526f57726f6e6720686173682076616c756560801b604482015290519081900360640190fd5b60245460408051426020808301919091528183019390935260f887901b6001600160f81b0319166060820152815180820360410181526061909101909152805191012060011660ff851681146135ef5760068201546001600160a01b03166135fe565b60058201546001600160a01b03165b6007830180546001600160a01b039283166001600160a01b03199182161791829055845460ff858116620100000262ff000019918b166101000261ff001990931692909217161785559082166000908152601d6020908152604082208054600181810183559184529183209091018a90556005860154600e80548084018255938190527fbb7b4a454dc3493923482f07822329ed19e8244eff582cc204f8554c3620c3fd93840180548616928716929092179091556006870154815480840190925592018054909316919093161790556018546136e09163ffffffff61384416565b601855336000908152601a602090815260408083208390556006850180546001600160a01b039081168552601b84528285209490945554600586015460078701548351908616815292519185169416928a927f3e3f32c9ed40ee6dd4ba80907e69c64b4b877cd4f201f588d416fb1e1a4bc29c929081900390910190a4505050505050565b61376d613c94565b6000805b60058110156137f057836012826005811061378857fe5b0154141561379957600191506137e8565b81156137c757601281600581106137ac57fe5b01548360018303600581106137bd57fe5b60200201526137e8565b601281600581106137d457fe5b01548382600581106137e257fe5b60200201525b600101613771565b5080613831576040805162461bcd60e51b815260206004820152600b60248201526a4e6f7420546f7047616d6560a81b604482015290519081900360640190fd5b61383e6012836005613cb2565b50505050565b60008282018381101561389e576040805162461bcd60e51b815260206004820152601b60248201527f536166654d6174683a206164646974696f6e206f766572666c6f770000000000604482015290519081900360640190fd5b90505b92915050565b6000826138b6575060006138a1565b828202828482816138c357fe5b041461389e5760405162461bcd60e51b8152600401808060200182810382526021815260200180613d4b6021913960400191505060405180910390fd5b600061389e83836040518060400160405280601a81526020017f536166654d6174683a206469766973696f6e206279207a65726f000000000000815250613b98565b61394a613b22565b6007546001600160a01b0316600090815260096020526040902054613975908263ffffffff61384416565b6007546001600160a01b031660009081526009602052604090205550565b600061389e83836040518060400160405280601e81526020017f536166654d6174683a207375627472616374696f6e206f766572666c6f770000815250613c3a565b60025460035410611d32576003805460009091556004546139fc908263ffffffff61384416565b6004556001546040516001600160a01b039091169082156108fc029083906000818181858888f19350505050158015613a39573d6000803e3d6000fd5b5060015460408051308152905183926001600160a01b0316917feea88262d89f946cfd575393481b34aedd68aabbe9cb764357a15b1e0226e861919081900360200190a350565b3390565b60005460ff1615613acf576040805162461bcd60e51b815260206004820152601060248201526f14185d5cd8589b194e881c185d5cd95960821b604482015290519081900360640190fd5b6000805460ff191660011790557f62e78cea01bee320cd4e420270b5ea74000d11b0c9f74754ebdbfc544b05a258613b05613a80565b604080516001600160a01b039092168252519081900360200190a1565b613b2a611d3a565b6007546001600160a01b0390811691161415613b4557611d32565b600554600854613b5c90429063ffffffff61399316565b1115611d32576000613b6c611d3a565b600780546001600160a01b0319166001600160a01b039290921691909117905550426008556000600655565b60008183613c245760405162461bcd60e51b81526004018080602001828103825283818151815260200191508051906020019080838360005b83811015613be9578181015183820152602001613bd1565b50505050905090810190601f168015613c165780820380516001836020036101000a031916815260200191505b509250505060405180910390fd5b506000838581613c3057fe5b0495945050505050565b60008184841115613c8c5760405162461bcd60e51b8152602060048201818152835160248401528351909283926044909101919085019080838360008315613be9578181015183820152602001613bd1565b505050900390565b6040518060a001604052806005906020820280388339509192915050565b8260058101928215613ce0579160200282015b82811115613ce0578251825591602001919060010190613cc5565b50613cec929150613d0a565b5090565b508054600082559060005260206000209081019061260791905b61120491905b80821115613cec5760008155600101613d1056fe4f776e61626c653a206e6577206f776e657220697320746865207a65726f2061646472657373536166654d6174683a206d756c7469706c69636174696f6e206f766572666c6f774f776e61626c653a2063616c6c6572206973206e6f7420746865206f776e6572a2646970667358221220fc065b1555583c14cfcef374e93141d7308186b29e6bc7e5a869f9fc0f1892eb64736f6c634300060000334f776e61626c653a2063616c6c6572206973206e6f7420746865206f776e6572",
  "source": "// SPDX-License-Identifier: MIT\npragma solidity ^0.6.0;\n\nimport \"./Partnership.sol\";\nimport \"./AcquiredFeeBeneficiar.sol\";\nimport \"./GameRaffle.sol\";\nimport \"./IGamePausable.sol\";\nimport \"./IExpiryMoveDuration.sol\";\nimport \"../node_modules/openzeppelin-solidity/contracts/utils/Pausable.sol\";\n\n/**\n * @notice IMPORTANT: owner should create first game.\n * @notice CoinFlipGame can be created by creator and run by joined playr. Creator is not required to be online or perform any actions for game to be played.\n *\n *  Prize distribution will be performed on game prize, referral fee, raffle prize withdrawals with percentages:\n *    95% - winner\n *     1% - winner referral\n *     1% - raffle\n *     1% - partner project\n *     1% - fee beneficiar\n *     1% - dev\n */\n\n\ncontract CoinFlipGame is Pausable, Partnership, AcquiredFeeBeneficiar, GameRaffle, IGamePausable, IExpiryMoveDuration {\n  struct Game {\n    bool paused;\n    uint8 creatorCoinSide;\n    uint8 randCoinSide;\n    uint256 id;\n    uint256 bet;\n    uint256 opponentJoinedAt;\n    bytes32 creatorGuessHash;\n    address payable creator;\n    address payable opponent;\n    address payable winner;\n    address creatorReferral;\n    address opponentReferral;\n  }\n\n  uint256 private constant FEE_PERCENT = 1; //  from single bet, prize is opponent's bet\n\n  uint256 public minBet = 10 finney;\n\n  uint256[5] public topGames;\n\n  uint256 public gamesCreatedAmount;\n  uint256 public gamesCompletedAmount; //  played, quitted, move expired\n\n  mapping(uint256 => Game) public games;\n  mapping(address => uint256) public ongoingGameAsCreator;\n  mapping(address => uint256) public ongoingGameAsOpponent;\n  mapping(address => uint256[]) private playedGames;\n  mapping(address => uint256[]) public gamesWithPendingPrizeWithdrawal;\n\n  mapping(address => uint256) public addressBetTotal;\n  mapping(address => uint256) public addressPrizeTotal;\n\n  mapping(address => uint256) public referralFeesPending;\n  mapping(address => uint256) public referralFeesWithdrawn;\n\n  uint256 public devFeePending;\n\n  uint256 public totalUsedReferralFees;\n  uint256 public totalUsedInGame;\n\n  event CF_GameCreated(uint256 indexed id, address indexed creator, uint256 indexed bet);\n  event CF_GameJoined(uint256 indexed id, address indexed creator, address indexed opponent);\n  event CF_GamePlayed(uint256 indexed id, address indexed creator, address indexed opponent, address winner);\n  event CF_GameExpiredFinished(uint256 indexed id, address indexed creator, address indexed opponent, address winner);\n  event CF_GamePrizesWithdrawn(address indexed player);\n  event CF_GameAddedToTop(uint256 indexed id, address indexed creator);\n  event CF_GameReferralWithdrawn(address indexed referral);\n  event CF_GameUpdated(uint256 indexed id, address indexed creator);\n\n  modifier onlyCorrectBet() {\n    require(msg.value >= minBet, \"Wrong bet\");\n    _;\n  }\n\n  modifier onlyAvailableToCreate() {\n    require(ongoingGameAsCreator[msg.sender] == 0, \"No more creating\");\n    _;\n  }\n\n  modifier onlyAvailableToJoin() {\n    require(ongoingGameAsOpponent[msg.sender] == 0, \"No more opponenting\");\n    _;\n  }\n\n  modifier onlyCorrectReferral(address _referral) {\n    require(_referral != msg.sender, \"Wrong referral\");\n    _;\n  }\n\n  modifier onlyGameCreator(uint256 _id) {\n    require(games[_id].creator == msg.sender,  \"Not creator\");\n    _;\n  }\n\n  modifier onlyWaitingForOpponent(uint256 _id) {\n    require(games[_id].opponent == address(0),  \"Has opponent\");\n    _;\n  }\n\n  modifier onlyGameNotPaused(uint256 _id) {\n    require(!gameOnPause(_id),  \"Game is paused\");\n    _;\n  }\n\n  modifier onlyGamePaused(uint256 _id) {\n    require(gameOnPause(_id),  \"Game is not paused\");\n    _;\n  }\n\n  /**\n    * @dev Contract constructor.\n    * @param _partner Address for partner.\n    * TESTING\n    */\n  constructor(address payable _partner) public Partnership(_partner, 1 ether) {\n    updatePartner(_partner);\n    feeBeneficiar = msg.sender;\n  }\n\n  /**\n    * @dev Destroy the contract.\n    * \n    */\n  function kill() external onlyOwner {\n    address payable addr = msg.sender;\n    selfdestruct(addr);\n  }\n\n  /**\n   * Pausable.sol\n   * \n   */\n  /**\n   * @dev Trigger stopped state.\n   * \n   */\n  function pause() external onlyOwner {\n    Pausable._pause();\n  }\n\n  /**\n   * IGamePausable\n   * \n   */\n  /**\n   * @dev Check if game is paused.\n   * @param _id Game index.\n   * @return Is game paused.\n   * \n   */\n  function gameOnPause(uint256 _id) public view override returns(bool) { \n    return games[_id].paused;\n  }\n\n  /**\n   * @dev Pauses game.\n   * @param _id Game index.\n   * \n   */\n  function pauseGame(uint256 _id) onlyGameCreator(_id) onlyGameNotPaused(_id) external override onlyWaitingForOpponent(_id) {\n    games[_id].paused = true;\n\n    if (isTopGame(_id)) {\n      removeTopGame(_id);\n    }\n\n    emit CF_GamePaused(_id);\n  }\n  /** \n   * @dev Unpause game.\n   * @param _id Game index.\n   * \n   */\n  function unpauseGame(uint256 _id) onlyGameCreator(_id) onlyGamePaused(_id) external payable override {\n    require(msg.value == minBet, \"Wrong fee\");\n\n    games[_id].paused = false;\n    \n    devFeePending = devFeePending.add(msg.value);\n    totalUsedInGame = totalUsedInGame.add(msg.value);\n\n    emit CF_GameUnpaused(_id, games[_id].creator);\n  }\n\n  /**\n   * IExpiryMoveDuration\n   * \n   */\n\n  /**\n   * @dev Updates game move duration.\n   * @param _duration Game duration.\n   * \n   */\n  function updateGameMoveDuration(uint16 _duration) external override onlyOwner {\n    require(_duration > 0, \"Should be > 0\");\n    gameMoveDuration = _duration;    \n  }\n\n  /**\n   * @dev Check if game move expired.\n   * @param _id Game id.\n   * @return Whether game move is expired.\n   * \n   */\n  function gameMoveExpired(uint256 _id) public view override returns(bool) {\n    if (games[_id].opponentJoinedAt != 0) {\n      return games[_id].opponentJoinedAt.add(gameMoveDuration) < now; \n    }\n  }\n\n  /**\n   * @dev Finish prize for expired game.\n   * @param _id Game id.\n   * \n   */\n  function finishExpiredGame(uint256 _id) external override {\n    Game storage game = games[_id];\n\n    require(game.creator != address(0), \"No game with such id\");\n    require(game.opponent ==  msg.sender, \"Not opponent\");\n    require(gameMoveExpired(_id), \"Not yet expired\");\n\n    game.winner = msg.sender;\n\n    //  finish game\n    game.winner = msg.sender;\n    gamesWithPendingPrizeWithdrawal[msg.sender].push(_id);\n\n    raffleParticipants.push(msg.sender);\n\n    gamesCompletedAmount = gamesCompletedAmount.add(1);\n\n    delete ongoingGameAsCreator[game.creator];\n    delete ongoingGameAsOpponent[msg.sender];\n\n    emit CF_GameExpiredFinished(_id, game.creator, game.opponent, game.winner);\n  }\n\n\n  /**\n    * GAMEPLAY\n    */\n\n  /**\n    * @dev Create new game.\n    * @param _guessHash Hash of guess. Coin side should be 0 / 1\n    * @param _referral Address for referral.\n    * \n    */\n  function createGame(bytes32 _guessHash, address _referral) external payable whenNotPaused onlyAvailableToCreate onlyCorrectBet onlyCorrectReferral(_referral) {\n    require(_guessHash[0] != 0, \"Empty hash\");\n    require(_referral != msg.sender, \"Wrong referral\");\n\n    games[gamesCreatedAmount].id = gamesCreatedAmount;\n    games[gamesCreatedAmount].creator = msg.sender;\n    games[gamesCreatedAmount].bet = msg.value;\n    games[gamesCreatedAmount].creatorGuessHash = _guessHash;\n    (_referral == address(0)) ? games[gamesCreatedAmount].creatorReferral = owner() : games[gamesCreatedAmount].creatorReferral = _referral;\n\n    addressBetTotal[msg.sender] = addressBetTotal[msg.sender].add(msg.value);\n    totalUsedInGame = totalUsedInGame.add(msg.value);\n\n    ongoingGameAsCreator[msg.sender] = gamesCreatedAmount;\n    playedGames[msg.sender].push(gamesCreatedAmount);\n\n    emit CF_GameCreated(gamesCreatedAmount, msg.sender, msg.value);\n\n    gamesCreatedAmount = gamesCreatedAmount.add(1);\n  }\n\n  /**\n    * @dev Join game.\n    * @param _id Game id to join.\n    * @param _referral Address for referral.\n    * \n    */\n  function joinGame(uint256 _id, address _referral) external payable whenNotPaused onlyAvailableToJoin onlyCorrectReferral(_referral) onlyGameNotPaused(_id) {\n    Game storage game = games[_id];\n\n    require(game.creator != address(0), \"No game with such id\");\n    require(game.winner == address(0), \"Game has winner\");\n    require(game.bet == msg.value, \"Wrong bet\");\n\n    game.opponent = msg.sender;\n    game.opponentJoinedAt = now;\n    (_referral == address(0)) ? games[_id].opponentReferral = owner() : games[_id].opponentReferral = _referral;\n\n    totalUsedInGame = totalUsedInGame.add(msg.value);\n    addressBetTotal[msg.sender] = addressBetTotal[msg.sender].add(msg.value);\n    ongoingGameAsOpponent[msg.sender] = _id;\n    playedGames[msg.sender].push(_id);\n\n    if (isTopGame(_id)) {\n      removeTopGame(_id);\n    }\n\n    emit CF_GameJoined(_id, game.creator, msg.sender);\n  }\n\n  /**\n    * @dev Play game.\n    * @param _id Game id.\n    * @param _coinSide Coin side in _guessHash.\n    * @param _seedHash Seed str hash in _guessHash.\n    * \n    */\n  function playGame(uint256 _id, uint8 _coinSide, bytes32 _seedHash) external whenNotPaused onlyGameCreator(_id) {\n    Game storage game = games[_id];\n    \n    require(game.opponent != address(0), \"No opponent\");\n    require(game.winner == address(0), \"Game has winner\");\n    require(keccak256(abi.encodePacked(uint256(_coinSide), _seedHash)) == game.creatorGuessHash, \"Wrong hash value\");\n\n    uint8 coinSide = uint8(uint256(keccak256(abi.encodePacked(now, totalUsedInGame, _coinSide))) % 2);\n    game.winner = (coinSide == _coinSide) ? game.creator : game.opponent;\n    game.creatorCoinSide = _coinSide;\n    game.randCoinSide = coinSide;\n    gamesWithPendingPrizeWithdrawal[game.winner].push(_id);\n\n    raffleParticipants.push(game.creator);\n    raffleParticipants.push(game.opponent);\n\n    gamesCompletedAmount = gamesCompletedAmount.add(1);\n\n    delete ongoingGameAsCreator[msg.sender];\n    delete ongoingGameAsOpponent[game.opponent];\n\n    emit CF_GamePlayed(_id, game.creator, game.opponent, game.winner);\n  }\n\n  /**\n    * WITHDRAW\n    */\n\n  /**\n    * @dev Withdraw prize for won game.\n    * @param _maxLoop max loop.\n    * @notice 95% to transfer\n    * \n    */\n  function withdrawGamePrizes(uint256 _maxLoop) external {\n    require(_maxLoop > 0, \"_maxLoop == 0\");\n\n    uint256[] storage pendingGames = gamesWithPendingPrizeWithdrawal[msg.sender];\n    require(pendingGames.length > 0, \"no pending\");\n    require(_maxLoop <= pendingGames.length, \"_maxLoop too big\");\n\n    uint256 betsTotal;\n    for (uint256 i = 0; i < _maxLoop; i++) {\n      uint256 gameId = pendingGames[pendingGames.length.sub(1)];\n      Game storage game = games[gameId];\n\n      //  referral\n      address winnerReferral = (msg.sender == game.creator) ? game.creatorReferral : game.opponentReferral;\n      uint256 referralFee = game.bet.mul(FEE_PERCENT).div(100);\n      referralFeesPending[winnerReferral] = referralFeesPending[winnerReferral].add(referralFee);\n      totalUsedReferralFees = totalUsedReferralFees.add(referralFee);\n\n      betsTotal = betsTotal.add(game.bet);\n      pendingGames.pop();\n    }\n\n    addressPrizeTotal[msg.sender] = addressPrizeTotal[msg.sender].add(betsTotal.mul(2));\n\n    //  5% fees\n    uint256 singleFee = betsTotal.mul(FEE_PERCENT).div(100);\n    partnerFeePending = partnerFeePending.add(singleFee);\n    ongoinRafflePrize = ongoinRafflePrize.add(singleFee);\n    devFeePending = devFeePending.add(singleFee);\n    addBeneficiarFee(singleFee);\n\n    uint256 transferAmount = betsTotal.mul(2).sub(singleFee.mul(5));\n    msg.sender.transfer(transferAmount);\n\n    //  partner transfer\n    transferPartnerFee();\n\n    emit CF_GamePrizesWithdrawn(msg.sender);\n  }\n\n  /**\n    * @dev Withdraw referral fees.\n    * @notice 96% to transfer\n    * \n    */\n  function withdrawReferralFees() external {\n    uint256 fee = referralFeesPending[msg.sender];\n    require(fee > 0, \"No referral fee\");\n\n    delete referralFeesPending[msg.sender];\n    referralFeesWithdrawn[msg.sender] = referralFeesWithdrawn[msg.sender].add(fee);\n\n    //  4% fees\n    uint256 singleFee = fee.mul(FEE_PERCENT).div(100);\n    partnerFeePending = partnerFeePending.add(singleFee);\n    ongoinRafflePrize = ongoinRafflePrize.add(singleFee);\n    devFeePending = devFeePending.add(singleFee);\n    addBeneficiarFee(singleFee);\n\n    uint256 transferAmount = fee.sub(singleFee.mul(4));\n    msg.sender.transfer(transferAmount);\n\n    emit CF_GameReferralWithdrawn(msg.sender);   \n  }\n\n  /**\n    * GameRaffle\n    * @dev Withdraw reffle prize.\n    * @notice 96% to transfer\n    * \n    */\n  function withdrawRafflePrizes() external override {\n    uint256 prize = rafflePrizePending[msg.sender];\n    require(prize > 0, \"No raffle prize\");\n\n    delete rafflePrizePending[msg.sender];\n\n    addressPrizeTotal[msg.sender] = addressPrizeTotal[msg.sender].add(prize);\n\n    //  4% fees\n    uint256 singleFee = prize.mul(FEE_PERCENT).div(100);\n    partnerFeePending = partnerFeePending.add(singleFee);\n    ongoinRafflePrize = ongoinRafflePrize.add(singleFee);\n    devFeePending = devFeePending.add(singleFee);\n    addBeneficiarFee(singleFee);\n\n    uint256 transferAmount = prize.sub(singleFee.mul(4));\n    msg.sender.transfer(transferAmount);\n\n    //  partner transfer\n    transferPartnerFee();\n\n    emit CF_RafflePrizeWithdrawn(msg.sender);\n  }\n\n  /**\n    * @dev Withdraw developer fees.\n    * \n    */\n  function withdrawDevFee() external onlyOwner {\n    uint256 fee = devFeePending;\n    require(devFeePending > 0, \"No dev fee\");\n\n    delete devFeePending;\n\n    msg.sender.transfer(fee);\n  }\n\n  /**\n    * OTHER\n    */\n\n  /**\n    * @dev Add game idx to the beginning of topGames.\n    * @param _id Game idx to be added.\n    * \n    */\n  function addTopGame(uint256 _id) external payable onlyGameCreator(_id) onlyWaitingForOpponent(_id) {\n    require(msg.value == minBet, \"Wrong fee\");\n    require(topGames[0] != _id, \"Top in TopGames\");\n\n    uint256[5] memory topGamesTmp = [_id, 0, 0, 0, 0];\n    bool isIdPresent;\n    for (uint8 i = 0; i < 4; i++) {\n      if (topGames[i] == _id && !isIdPresent) {\n          isIdPresent = true;\n      }\n      topGamesTmp[i + 1] = (isIdPresent) ? topGames[i + 1] : topGames[i];\n    }\n    topGames = topGamesTmp;\n    devFeePending = devFeePending.add(msg.value);\n    totalUsedInGame = totalUsedInGame.add(msg.value);\n\n    emit CF_GameAddedToTop(_id, msg.sender);\n  }\n\n  /**\n    * @dev Remove game idx from topGames.\n    * @param _id Game idx to be removed.\n    * \n    */\n  function removeTopGame(uint256 _id) private {\n    uint256[5] memory tmpArr;\n    bool found;\n\n    for (uint256 i = 0; i < 5; i++) {\n      if (topGames[i] == _id) {\n        found = true;\n      } else {\n        if (found) {\n          tmpArr[i - 1] = topGames[i];\n        } else {\n          tmpArr[i] = topGames[i];\n        }\n      }\n    }\n\n    require(found, \"Not TopGame\");\n    topGames = tmpArr;\n  }\n\n  /**\n    * @dev Get top games.\n    * @return Returns list of top games.\n    * \n    */\n  function getTopGames() external view returns (uint256[5] memory) {\n    return topGames;\n  }\n\n  /**\n    * @dev Check if game id is in top games.\n    * @param _id Game id to check.\n    * @return Whether game id is in top games.\n    * \n    */\n  function isTopGame(uint256 _id) public view returns (bool) {\n    for (uint8 i = 0; i < 5; i++) {\n      if (topGames[i] == _id) {\n          return true;\n      }\n    }\n    return false;\n  }\n\n  /**\n    * @dev Return game ids with pending withdrawal for address.\n    * @param _address Player address.\n    * @return ids Game ids.\n    * \n    */\n  function getGamesWithPendingPrizeWithdrawalForAddress(address _address) external view returns (uint256[] memory ids) {\n    ids = gamesWithPendingPrizeWithdrawal[_address];\n  }\n\n  /**\n    * @dev Update bet for game.\n    * @param _id Game index.\n    * \n    */\n  function increaseBetForGameBy(uint256 _id) external payable whenNotPaused onlyGameCreator(_id) onlyWaitingForOpponent(_id) {\n    require(msg.value > 0, \"increase must be > 0\");\n\n    addressBetTotal[msg.sender] = addressBetTotal[msg.sender].add(msg.value);\n\n    games[_id].bet = games[_id].bet.add(msg.value);\n    totalUsedInGame = totalUsedInGame.add(msg.value);\n    emit CF_GameUpdated(_id, msg.sender);\n  }\n\n  /**\n    * @dev Update minimum bet value. Can be 0 if no restrictions.\n    * @param _minBet Min bet value.\n    * \n    */\n  function updateMinBet(uint256 _minBet) external onlyOwner {\n    require(_minBet > 0, \"Wrong bet\");\n    minBet = _minBet;\n  }\n\n  /**\n    * @dev Get game indexes where player participated. Created and joined\n    * @param _address Player address.\n    * @return List of indexes.\n    * \n    */\n  function getParticipatedGameIdxsForPlayer(address _address) external view returns (uint256[] memory) {\n    require(_address != address(0), \"Cannt be 0x0\");\n    return playedGames[_address];\n  }\n}\n",
  "sourcePath": "/Users/vanijatko/Documents/projects/playmycrypto/game_coinflip/contracts/CoinFlipGame.sol",
  "compiler": {
    "name": "solc",
    "version": "0.6.0+commit.26b70077.Emscripten.clang"
  },
  "schemaVersion": "3.1.0",
  "updatedAt": "2020-07-31T08:37:06.195Z",
  "devdoc": {
    "methods": {
      "addTopGame(uint256)": {
        "details": "Add game idx to the beginning of topGames.",
        "params": {
          "_id": "Game idx to be added.     "
        }
      },
      "constructor": {
        "details": "Contract constructor.",
        "params": {
          "_partner": "Address for partner. TESTING"
        }
      },
      "createGame(bytes32,address)": {
        "details": "Create new game.",
        "params": {
          "_guessHash": "Hash of guess. Coin side should be 0 / 1",
          "_referral": "Address for referral.     "
        }
      },
      "finishExpiredGame(uint256)": {
        "details": "Finish prize for expired game.",
        "params": {
          "_id": "Game id.    "
        }
      },
      "gameMoveExpired(uint256)": {
        "details": "Check if game move expired.",
        "params": {
          "_id": "Game id."
        },
        "returns": {
          "_0": "Whether game move is expired.    "
        }
      },
      "gameOnPause(uint256)": {
        "details": "Check if game is paused.",
        "params": {
          "_id": "Game index."
        },
        "returns": {
          "_0": "Is game paused.    "
        }
      },
      "getGamesWithPendingPrizeWithdrawalForAddress(address)": {
        "details": "Return game ids with pending withdrawal for address.",
        "params": {
          "_address": "Player address."
        },
        "returns": {
          "ids": "Game ids.     "
        }
      },
      "getParticipatedGameIdxsForPlayer(address)": {
        "details": "Get game indexes where player participated. Created and joined",
        "params": {
          "_address": "Player address."
        },
        "returns": {
          "_0": "List of indexes.     "
        }
      },
      "getRaffleParticipants()": {
        "details": "Gets raffle participants.",
        "returns": {
          "_0": "Participants count. TESTED"
        }
      },
      "getRaffleResultCount()": {
        "details": "Gets past raffle results count.",
        "returns": {
          "_0": "Results count. TESTED"
        }
      },
      "getTopGames()": {
        "details": "Get top games.",
        "returns": {
          "_0": "Returns list of top games.     "
        }
      },
      "increaseBetForGameBy(uint256)": {
        "details": "Update bet for game.",
        "params": {
          "_id": "Game index.     "
        }
      },
      "isTopGame(uint256)": {
        "details": "Check if game id is in top games.",
        "params": {
          "_id": "Game id to check."
        },
        "returns": {
          "_0": "Whether game id is in top games.     "
        }
      },
      "joinGame(uint256,address)": {
        "details": "Join game.",
        "params": {
          "_id": "Game id to join.",
          "_referral": "Address for referral.     "
        }
      },
      "kill()": {
        "details": "Destroy the contract.     "
      },
      "makeFeeBeneficiar()": {
        "details": "Purchase right to become fee beneficiar.    "
      },
      "owner()": {
        "details": "Returns the address of the current owner."
      },
      "pause()": {
        "details": "Trigger stopped state.    "
      },
      "pauseGame(uint256)": {
        "details": "Pauses game.",
        "params": {
          "_id": "Game index.    "
        }
      },
      "paused()": {
        "details": "Returns true if the contract is paused, and false otherwise."
      },
      "playGame(uint256,uint8,bytes32)": {
        "details": "Play game.",
        "params": {
          "_coinSide": "Coin side in _guessHash.",
          "_id": "Game id.",
          "_seedHash": "Seed str hash in _guessHash.     "
        }
      },
      "raffleActivated()": {
        "details": "Checks if raffle is activated.",
        "returns": {
          "_0": "Wether raffle is activated. TESTED"
        }
      },
      "rand()": {
        "details": "Generates random number TESTED"
      },
      "renounceOwnership()": {
        "details": "Leaves the contract without owner. It will not be possible to call `onlyOwner` functions anymore. Can only be called by the current owner.     * NOTE: Renouncing ownership will leave the contract without an owner, thereby removing any functionality that is only available to the owner."
      },
      "runRaffle()": {
        "details": "Runs the raffle. TESTED"
      },
      "transferOwnership(address)": {
        "details": "Transfers ownership of the contract to a new account (`newOwner`). Can only be called by the current owner."
      },
      "unpauseGame(uint256)": {
        "details": "Unpause game.",
        "params": {
          "_id": "Game index.    "
        }
      },
      "updateGameMoveDuration(uint16)": {
        "details": "Updates game move duration.",
        "params": {
          "_duration": "Game duration.    "
        }
      },
      "updateMinBet(uint256)": {
        "details": "Update minimum bet value. Can be 0 if no restrictions.",
        "params": {
          "_minBet": "Min bet value.     "
        }
      },
      "updatePartner(address)": {
        "details": "Updates partner address.",
        "params": {
          "_partnerAddress": "Address for partner. TESTED"
        }
      },
      "updatePartnerTransferThreshold(uint256)": {
        "details": "Updates partner fee transfer threshold limit, when fee should be transferred to address.",
        "params": {
          "_transferThreshold": "Fee amount, that should trigger transfer. TESTED"
        }
      },
      "updateRaffleActivationParticipantsCount(uint256)": {
        "details": "Updates raffle minimum participants count to activate.",
        "params": {
          "_amount": "Amount to be set. TESTED"
        }
      },
      "withdrawBeneficiaryFee()": {
        "details": "Withdraws beneficiary fee.    "
      },
      "withdrawDevFee()": {
        "details": "Withdraw developer fees.     "
      },
      "withdrawGamePrizes(uint256)": {
        "details": "Withdraw prize for won game.",
        "params": {
          "_maxLoop": "max loop."
        }
      },
      "withdrawRafflePrizes()": {
        "details": "Withdraw reffle prize."
      },
      "withdrawReferralFees()": {
        "details": "Withdraw referral fees."
      }
    }
  },
  "userdoc": {
    "methods": {
      "updatePartnerTransferThreshold(uint256)": {
        "notice": "In wei."
      },
      "withdrawGamePrizes(uint256)": {
        "notice": "95% to transfer     "
      },
      "withdrawRafflePrizes()": {
        "notice": "GameRaffle96% to transfer     "
      },
      "withdrawReferralFees()": {
        "notice": "96% to transfer     "
      }
    },
    "notice": "IMPORTANT: owner should create first game.CoinFlipGame can be created by creator and run by joined playr. Creator is not required to be online or perform any actions for game to be played. *  Prize distribution will be performed on game prize, referral fee, raffle prize withdrawals with percentages:   95% - winner    1% - winner referral    1% - raffle    1% - partner project    1% - fee beneficiar    1% - dev"
  }
}