{
  "contractName": "Partnership",
  "abi": [
    {
      "inputs": [
        {
          "internalType": "address payable",
          "name": "_partnerAddress",
          "type": "address"
        },
        {
          "internalType": "uint256",
          "name": "_transferThreshold",
          "type": "uint256"
        }
      ],
      "stateMutability": "nonpayable",
      "type": "constructor"
    },
    {
      "anonymous": false,
      "inputs": [
        {
          "indexed": false,
          "internalType": "address",
          "name": "from",
          "type": "address"
        },
        {
          "indexed": true,
          "internalType": "address",
          "name": "to",
          "type": "address"
        },
        {
          "indexed": true,
          "internalType": "uint256",
          "name": "amount",
          "type": "uint256"
        }
      ],
      "name": "CF_PartnerFeeTransferred",
      "type": "event"
    },
    {
      "anonymous": false,
      "inputs": [
        {
          "indexed": true,
          "internalType": "address",
          "name": "previousOwner",
          "type": "address"
        },
        {
          "indexed": true,
          "internalType": "address",
          "name": "newOwner",
          "type": "address"
        }
      ],
      "name": "OwnershipTransferred",
      "type": "event"
    },
    {
      "inputs": [],
      "name": "owner",
      "outputs": [
        {
          "internalType": "address",
          "name": "",
          "type": "address"
        }
      ],
      "stateMutability": "view",
      "type": "function"
    },
    {
      "inputs": [],
      "name": "partner",
      "outputs": [
        {
          "internalType": "address payable",
          "name": "",
          "type": "address"
        }
      ],
      "stateMutability": "view",
      "type": "function"
    },
    {
      "inputs": [],
      "name": "partnerFeePending",
      "outputs": [
        {
          "internalType": "uint256",
          "name": "",
          "type": "uint256"
        }
      ],
      "stateMutability": "view",
      "type": "function"
    },
    {
      "inputs": [],
      "name": "partnerFeeTotalUsed",
      "outputs": [
        {
          "internalType": "uint256",
          "name": "",
          "type": "uint256"
        }
      ],
      "stateMutability": "view",
      "type": "function"
    },
    {
      "inputs": [],
      "name": "partnerFeeTransferThreshold",
      "outputs": [
        {
          "internalType": "uint256",
          "name": "",
          "type": "uint256"
        }
      ],
      "stateMutability": "view",
      "type": "function"
    },
    {
      "inputs": [],
      "name": "renounceOwnership",
      "outputs": [],
      "stateMutability": "nonpayable",
      "type": "function"
    },
    {
      "inputs": [
        {
          "internalType": "address",
          "name": "newOwner",
          "type": "address"
        }
      ],
      "name": "transferOwnership",
      "outputs": [],
      "stateMutability": "nonpayable",
      "type": "function"
    },
    {
      "inputs": [
        {
          "internalType": "address payable",
          "name": "_partnerAddress",
          "type": "address"
        }
      ],
      "name": "updatePartner",
      "outputs": [],
      "stateMutability": "nonpayable",
      "type": "function"
    },
    {
      "inputs": [
        {
          "internalType": "uint256",
          "name": "_transferThreshold",
          "type": "uint256"
        }
      ],
      "name": "updatePartnerTransferThreshold",
      "outputs": [],
      "stateMutability": "nonpayable",
      "type": "function"
    }
  ],
  "bytecode": "0x608060405234801561001057600080fd5b5060405161079a38038061079a8339818101604052604081101561003357600080fd5b508051602090910151600061004f6001600160e01b036100c416565b600080546001600160a01b0319166001600160a01b0383169081178255604051929350917f8be0079c531659141344cd1fd0a4f28419497f9722a3daafe3b4186f6b6457e0908290a3506100ab826001600160e01b036100c816565b6100bd816001600160e01b0361019616565b5050610251565b3390565b6100d96001600160e01b036100c416565b6000546001600160a01b03908116911614610129576040805162461bcd60e51b8152602060048201819052602482015260008051602061077a833981519152604482015290519081900360640190fd5b6001600160a01b038116610174576040805162461bcd60e51b815260206004820152600d60248201526c2bb937b733903830b93a3732b960991b604482015290519081900360640190fd5b600180546001600160a01b0319166001600160a01b0392909216919091179055565b6101a76001600160e01b036100c416565b6000546001600160a01b039081169116146101f7576040805162461bcd60e51b8152602060048201819052602482015260008051602061077a833981519152604482015290519081900360640190fd5b6000811161024c576040805162461bcd60e51b815260206004820152601560248201527f7468726573686f6c64206d757374206265203e20300000000000000000000000604482015290519081900360640190fd5b600255565b61051a806102606000396000f3fe608060405234801561001057600080fd5b50600436106100935760003560e01c80638da5cb5b116100665780638da5cb5b146100ff57806395bb438914610123578063be10862b1461012b578063c8d6025914610133578063f2fde38b1461013b57610093565b8063401f4663146100985780634dc5e4d3146100c0578063715018a6146100da578063780d2456146100e2575b600080fd5b6100be600480360360208110156100ae57600080fd5b50356001600160a01b0316610161565b005b6100c8610226565b60408051918252519081900360200190f35b6100be61022c565b6100be600480360360208110156100f857600080fd5b50356102ce565b610107610378565b604080516001600160a01b039092168252519081900360200190f35b6100c8610387565b61010761038d565b6100c861039c565b6100be6004803603602081101561015157600080fd5b50356001600160a01b03166103a2565b61016961049a565b6000546001600160a01b039081169116146101b9576040805162461bcd60e51b815260206004820181905260248201526000805160206104c5833981519152604482015290519081900360640190fd5b6001600160a01b038116610204576040805162461bcd60e51b815260206004820152600d60248201526c2bb937b733903830b93a3732b960991b604482015290519081900360640190fd5b600180546001600160a01b0319166001600160a01b0392909216919091179055565b60045481565b61023461049a565b6000546001600160a01b03908116911614610284576040805162461bcd60e51b815260206004820181905260248201526000805160206104c5833981519152604482015290519081900360640190fd5b600080546040516001600160a01b03909116907f8be0079c531659141344cd1fd0a4f28419497f9722a3daafe3b4186f6b6457e0908390a3600080546001600160a01b0319169055565b6102d661049a565b6000546001600160a01b03908116911614610326576040805162461bcd60e51b815260206004820181905260248201526000805160206104c5833981519152604482015290519081900360640190fd5b60008111610373576040805162461bcd60e51b815260206004820152601560248201527407468726573686f6c64206d757374206265203e203605c1b604482015290519081900360640190fd5b600255565b6000546001600160a01b031690565b60025481565b6001546001600160a01b031681565b60035481565b6103aa61049a565b6000546001600160a01b039081169116146103fa576040805162461bcd60e51b815260206004820181905260248201526000805160206104c5833981519152604482015290519081900360640190fd5b6001600160a01b03811661043f5760405162461bcd60e51b815260040180806020018281038252602681526020018061049f6026913960400191505060405180910390fd5b600080546040516001600160a01b03808516939216917f8be0079c531659141344cd1fd0a4f28419497f9722a3daafe3b4186f6b6457e091a3600080546001600160a01b0319166001600160a01b0392909216919091179055565b339056fe4f776e61626c653a206e6577206f776e657220697320746865207a65726f20616464726573734f776e61626c653a2063616c6c6572206973206e6f7420746865206f776e6572a2646970667358221220554e157c7715340e116eb3bfb30f0769c6d4d9e578bfa921e26dab0781c8101064736f6c634300060000334f776e61626c653a2063616c6c6572206973206e6f7420746865206f776e6572",
  "source": "// SPDX-License-Identifier: MIT\npragma solidity ^0.6.0;\n\nimport \"../node_modules/openzeppelin-solidity/contracts/access/Ownable.sol\";\nimport \"../node_modules/openzeppelin-solidity/contracts/math/SafeMath.sol\";\n\n/**\n * @dev Contract module which provides a basic fu=nctionality for donates to partner address.\n */\ncontract Partnership is Ownable {\n  using SafeMath for uint256;\n  \n  address payable public partner;\n  \n  uint256 public partnerFeeTransferThreshold;\n  uint256 public partnerFeePending;\n  uint256 public partnerFeeTotalUsed;\n\n  event CF_PartnerFeeTransferred(address from, address indexed to, uint256 indexed amount);\n\n  /**\n   * @dev Initializes the contract.\n   * @param _partnerAddress Partner address.\n   * @param _transferThreshold Fee amount, that should trigger transfer.\n   * TESTED\n   */\n  constructor(address payable _partnerAddress, uint256 _transferThreshold) public {\n    updatePartner(_partnerAddress);\n    updatePartnerTransferThreshold(_transferThreshold);\n  }\n\n  /**\n   * @dev Updates partner address.\n   * @param _partnerAddress Address for partner.\n   * TESTED\n   */\n  function updatePartner(address payable _partnerAddress) public onlyOwner {\n    require(_partnerAddress != address(0), \"Wrong partner\");\n    partner = _partnerAddress;\n  }\n\n  /**\n   * @dev Updates partner fee transfer threshold limit, when fee should be transferred to address.\n   * @notice In wei.\n   * @param _transferThreshold Fee amount, that should trigger transfer.\n   * TESTED\n   */\n  function updatePartnerTransferThreshold(uint256 _transferThreshold) public onlyOwner {\n    require(_transferThreshold > 0, \"threshold must be > 0\");\n    partnerFeeTransferThreshold = _transferThreshold;\n  }\n\n  /**\n   * @dev Transfers partner fee to partner address if threshold was reached.\n   * TESTED\n   */\n  function transferPartnerFee() internal {\n    if (partnerFeePending >= partnerFeeTransferThreshold) {\n      uint256 partnerFeePendingTmp = partnerFeePending;\n      delete partnerFeePending;\n\n      partnerFeeTotalUsed = partnerFeeTotalUsed.add(partnerFeePendingTmp);\n      partner.transfer(partnerFeePendingTmp);\n      emit CF_PartnerFeeTransferred(address(this), partner, partnerFeePendingTmp);\n    }\n  }\n}\n",
  "sourcePath": "/Users/vanijatko/Documents/projects/playmycrypto/game_coinflip/contracts/Partnership.sol",
  "compiler": {
    "name": "solc",
    "version": "0.6.0+commit.26b70077.Emscripten.clang"
  },
  "schemaVersion": "3.1.0",
  "updatedAt": "2020-07-30T14:26:14.101Z",
  "devdoc": {
    "details": "Contract module which provides a basic fu=nctionality for donates to partner address.",
    "methods": {
      "constructor": {
        "details": "Initializes the contract.",
        "params": {
          "_partnerAddress": "Partner address.",
          "_transferThreshold": "Fee amount, that should trigger transfer. TESTED"
        }
      },
      "owner()": {
        "details": "Returns the address of the current owner."
      },
      "renounceOwnership()": {
        "details": "Leaves the contract without owner. It will not be possible to call `onlyOwner` functions anymore. Can only be called by the current owner.     * NOTE: Renouncing ownership will leave the contract without an owner, thereby removing any functionality that is only available to the owner."
      },
      "transferOwnership(address)": {
        "details": "Transfers ownership of the contract to a new account (`newOwner`). Can only be called by the current owner."
      },
      "updatePartner(address)": {
        "details": "Updates partner address.",
        "params": {
          "_partnerAddress": "Address for partner. TESTED"
        }
      },
      "updatePartnerTransferThreshold(uint256)": {
        "details": "Updates partner fee transfer threshold limit, when fee should be transferred to address.",
        "params": {
          "_transferThreshold": "Fee amount, that should trigger transfer. TESTED"
        }
      }
    }
  },
  "userdoc": {
    "methods": {
      "updatePartnerTransferThreshold(uint256)": {
        "notice": "In wei."
      }
    }
  }
}