{
	"data": {
		"bytecode": {
			"linkReferences": {},
			"object": "60806040526009805461ffff191661a8c017905560c8600e55662386f26fc100006011553480156200003057600080fd5b506040516200523538038062005235833981810160405260208110156200005657600080fd5b50516000805460ff191681558190670de0b6b3a764000090620000816001600160e01b036200011616565b60008054610100600160a81b0319166101006001600160a01b038416908102919091178255604051929350917f8be0079c531659141344cd1fd0a4f28419497f9722a3daafe3b4186f6b6457e0908290a350620000e7826001600160e01b036200011a16565b620000fb816001600160e01b03620001f116565b5050600680546001600160a01b0319163317905550620002b6565b3390565b6200012d6001600160e01b036200011616565b60005461010090046001600160a01b0390811691161462000184576040805162461bcd60e51b8152602060048201819052602482015260008051602062005215833981519152604482015290519081900360640190fd5b6001600160a01b038116620001cf576040805162461bcd60e51b815260206004820152600c60248201526b043616e6e74206265203078360a41b604482015290519081900360640190fd5b600180546001600160a01b0319166001600160a01b0392909216919091179055565b620002046001600160e01b036200011616565b60005461010090046001600160a01b039081169116146200025b576040805162461bcd60e51b8152602060048201819052602482015260008051602062005215833981519152604482015290519081900360640190fd5b60008111620002b1576040805162461bcd60e51b815260206004820152601560248201527f7468726573686f6c64206d757374206265203e20300000000000000000000000604482015290519081900360640190fd5b600255565b614f4f80620002c66000396000f3fe6080604052600436106104315760003560e01c8063870dafb011610229578063b28b95491161012e578063d6977392116100b6578063f1da06b51161007a578063f1da06b514610f12578063f2fde38b14610f45578063f5f3b77314610f78578063f7cf0aa114610f8d578063ff24ba7c14610fb757610431565b8063d697739214610e83578063e03964aa14610e98578063e1b740a014610ecb578063ee03b9e114610ee0578063efc30e6914610ee857610431565b8063bf7f7105116100fd578063bf7f710514610dd2578063c8d6025914610dfc578063cb93f7ef14610e11578063cbe93c6114610e26578063cc7ecbbc14610e5057610431565b8063b28b954914610d5f578063b7e08e7f14610d74578063bbc9773e14610da0578063be10862b14610dbd57610431565b8063a517622d116101b1578063adc6d4e711610180578063adc6d4e714610c70578063ae6d3c7114610c9a578063afa74c5b14610cfc578063afb5d68b14610d11578063b04b83d514610d4a57610431565b8063a517622d14610bcb578063a756cc0d14610be0578063a90f736514610c0a578063a9e4aee514610c3d57610431565b806395bb4389116101f857806395bb438914610b525780639619367d14610b675780639960c85214610b7c5780639f099c2814610b99578063a4b4b85114610bae57610431565b8063870dafb014610ac05780638bc4461814610af35780638da5cb5b14610b0857806390286dae14610b1d57610431565b80634b39df831161033a57806372361111116102c25780637b503668116102865780637b50366814610a2457806382efb30814610a3957806383725b0e14610a6c5780638446596e14610a815780638456cb5914610aab57610431565b806372361111146109635780637245fbb2146109a25780637418efeb146109b757806377b00c01146109cc578063780d2456146109fa57610431565b806359cf5bd61161030957806359cf5bd61461089c5780635c975abb146108c65780635f9edc85146108ef57806365ab31b314610922578063715018a61461094e57610431565b80634b39df831461082a5780634cd1e0eb1461083f5780634dc5e4d31461087257806351be96ea1461088757610431565b80632106f1b8116103bd5780633f4ba83a1161038c5780633f4ba83a14610748578063401f46631461075d57806340861c1d1461079057806341c0e1b5146107e2578063443c3063146107f757610431565b80632106f1b8146106a15780632bcac304146106f45780633689e1db1461071e5780633b3dca761461073357610431565b806311a155e31161040457806311a155e3146105bc5780631214e31e146105d157806316f99211146105fd578063173608e7146106275780631af379711461063c57610431565b806304a57c0914610436578063072689ec1461047c5780630fee8acb146104c1578063117a5b901461050d575b600080fd5b34801561044257600080fd5b506104606004803603602081101561045957600080fd5b5035610fea565b604080516001600160a01b039092168252519081900360200190f35b34801561048857600080fd5b506104af6004803603602081101561049f57600080fd5b50356001600160a01b0316611011565b60408051918252519081900360200190f35b3480156104cd57600080fd5b506104eb600480360360208110156104e457600080fd5b5035611023565b6040805193151584529115156020840152151582820152519081900360600190f35b34801561051957600080fd5b506105376004803603602081101561053057600080fd5b5035611050565b604080518d151581528c151560208201529081018b600581111561055757fe5b60ff168152602081019a909a52506040808a019890985260608901969096526001600160a01b03948516608089015292841660a088015290831660c0870152821660e08601528116610100850152166101208301525190819003610140019350915050f35b3480156105c857600080fd5b506104af6110c5565b3480156105dd57600080fd5b506105fb600480360360208110156105f457600080fd5b50356110cb565b005b34801561060957600080fd5b506105fb6004803603602081101561062057600080fd5b5035611243565b34801561063357600080fd5b506105fb611513565b34801561064857600080fd5b506106516115fe565b60408051602080825283518183015283519192839290830191858101910280838360005b8381101561068d578181015183820152602001610675565b505050509050019250505060405180910390f35b3480156106ad57600080fd5b506106d4600480360360408110156106c457600080fd5b508035906020013560ff16611661565b6040805160ff938416815291909216602082015281519081900390910190f35b34801561070057600080fd5b506105fb6004803603602081101561071757600080fd5b50356116dd565b34801561072a57600080fd5b506104af611bd7565b34801561073f57600080fd5b506104af611bdd565b34801561075457600080fd5b506105fb611c73565b34801561076957600080fd5b506105fb6004803603602081101561078057600080fd5b50356001600160a01b0316611cda565b34801561079c57600080fd5b506107ba600480360360208110156107b357600080fd5b5035611da3565b604080516001600160a01b039094168452602084019290925282820152519081900360600190f35b3480156107ee57600080fd5b506105fb611ddd565b34801561080357600080fd5b506104af6004803603602081101561081a57600080fd5b50356001600160a01b0316611e3e565b34801561083657600080fd5b506104af611e50565b34801561084b57600080fd5b506106516004803603602081101561086257600080fd5b50356001600160a01b0316611e56565b34801561087e57600080fd5b506104af611ec2565b34801561089357600080fd5b506104af611ec8565b3480156108a857600080fd5b506105fb600480360360208110156108bf57600080fd5b5035611ece565b3480156108d257600080fd5b506108db612088565b604080519115158252519081900360200190f35b3480156108fb57600080fd5b506104af6004803603602081101561091257600080fd5b50356001600160a01b0316612091565b34801561092e57600080fd5b506109376120a3565b6040805161ffff9092168252519081900360200190f35b34801561095a57600080fd5b506105fb6120ad565b34801561096f57600080fd5b506105fb6004803603608081101561098657600080fd5b5080359060ff6020820135169060408101359060600135612159565b3480156109ae57600080fd5b506104af612549565b3480156109c357600080fd5b506108db61254f565b3480156109d857600080fd5b506105fb600480360360208110156109ef57600080fd5b503561ffff1661256d565b348015610a0657600080fd5b506105fb60048036036020811015610a1d57600080fd5b503561262b565b348015610a3057600080fd5b506104af6126da565b348015610a4557600080fd5b506104af60048036036020811015610a5c57600080fd5b50356001600160a01b03166126e0565b348015610a7857600080fd5b506104606126f2565b348015610a8d57600080fd5b506105fb60048036036020811015610aa457600080fd5b5035612701565b348015610ab757600080fd5b506105fb6127a8565b348015610acc57600080fd5b506105fb60048036036040811015610ae357600080fd5b508035906020013560ff1661280d565b348015610aff57600080fd5b506104af612a52565b348015610b1457600080fd5b50610460612a58565b6105fb60048036036060811015610b3357600080fd5b5080359060208101356001600160a01b0316906040013560ff16612a6c565b348015610b5e57600080fd5b506104af612ec1565b348015610b7357600080fd5b506104af612ec7565b6105fb60048036036020811015610b9257600080fd5b5035612ecd565b348015610ba557600080fd5b506104af613206565b6105fb60048036036020811015610bc457600080fd5b503561320c565b348015610bd757600080fd5b506104af613419565b348015610bec57600080fd5b506108db60048036036020811015610c0357600080fd5b503561341f565b348015610c1657600080fd5b5061065160048036036020811015610c2d57600080fd5b50356001600160a01b0316613465565b348015610c4957600080fd5b506104af60048036036020811015610c6057600080fd5b50356001600160a01b0316613519565b348015610c7c57600080fd5b506108db60048036036020811015610c9357600080fd5b503561352a565b348015610ca657600080fd5b50610cc460048036036020811015610cbd57600080fd5b5035613574565b6040518082606080838360005b83811015610ce9578181015183820152602001610cd1565b5050505090500191505060405180910390f35b348015610d0857600080fd5b506105fb6135c2565b348015610d1d57600080fd5b506104af60048036036040811015610d3457600080fd5b506001600160a01b0381351690602001356136b0565b348015610d5657600080fd5b506104af6136de565b348015610d6b57600080fd5b506105fb6136e5565b6105fb60048036036040811015610d8a57600080fd5b506001600160a01b0381351690602001356138c6565b6105fb60048036036020811015610db657600080fd5b5035613bcd565b348015610dc957600080fd5b50610460613d2f565b348015610dde57600080fd5b506104af60048036036020811015610df557600080fd5b5035613d3e565b348015610e0857600080fd5b506104af613d52565b348015610e1d57600080fd5b506105fb613d58565b348015610e3257600080fd5b50610e3b613e35565b60405181518152808260a08083836020610cd1565b348015610e5c57600080fd5b506104af60048036036020811015610e7357600080fd5b50356001600160a01b0316613e70565b348015610e8f57600080fd5b506104af613e82565b348015610ea457600080fd5b506104af60048036036020811015610ebb57600080fd5b50356001600160a01b0316613e88565b348015610ed757600080fd5b506105fb613e9a565b6105fb613f29565b348015610ef457600080fd5b506108db60048036036020811015610f0b57600080fd5b5035613f47565b348015610f1e57600080fd5b506104af60048036036020811015610f3557600080fd5b50356001600160a01b0316613f5c565b348015610f5157600080fd5b506105fb60048036036020811015610f6857600080fd5b50356001600160a01b0316613f6e565b348015610f8457600080fd5b506104af614076565b348015610f9957600080fd5b506105fb60048036036020811015610fb057600080fd5b503561407c565b348015610fc357600080fd5b506104af60048036036020811015610fda57600080fd5b50356001600160a01b031661411f565b600f8181548110610ff757fe5b6000918252602090912001546001600160a01b0316905081565b601b6020526000908152604090205481565b6000908152601960205260409020805460019091015460ff61010092839004811693828216939092041690565b6019602052600090815260409020805460028201546003830154600484015460058501546006860154600c870154600d880154600e890154600f8a01546010909a015460ff808b169b610100909b0481169a9916986001600160a01b039586169594851694938416939283169290811691168c565b60075481565b6000818152601960205260409020600c015481906001600160a01b03163314611129576040805162461bcd60e51b815260206004820152600b60248201526a2737ba1031b932b0ba37b960a91b604482015290519081900360640190fd5b8161113381613f47565b15611176576040805162461bcd60e51b815260206004820152600e60248201526d11d85b59481a5cc81c185d5cd95960921b604482015290519081900360640190fd5b826000808281526019602052604090206002015460ff16600581111561119857fe5b146111e2576040805162461bcd60e51b8152602060048201526015602482015274084f4815d85a5d1a5b99d19bdc93dc1c1bdb995b9d605a1b604482015290519081900360640190fd5b6000848152601960205260409020805460ff191660011790556112048461341f565b156112125761121284614131565b60405184907fe05d203b1f744b2ba3112cf7cc9724fbc303fcbfca30c1fdcb8a5498fd97dc3590600090a250505050565b6000818152601960205260409020600c8101546001600160a01b03163314806112785750600d8101546001600160a01b031633145b6112bd576040805162461bcd60e51b81526020600482015260116024820152702737ba10309033b0b6b290383630bcb2b960791b604482015290519081900360640190fd5b6000600282015460ff1660058111156112d257fe5b14806112f057506001600282015460ff1660058111156112ee57fe5b145b611334576040805162461bcd60e51b815260206004820152601060248201526f57726f6e672067616d6520737461746560801b604482015290519081900360640190fd5b6000600282015460ff16600581111561134957fe5b1415611381576000611359612a58565b600e830180546001600160a01b0319166001600160a01b0392909216919091179055506113f5565b6001600282015460ff16600581111561139657fe5b14156113f557600c8101546001600160a01b031633146113c357600c8101546001600160a01b03166113d2565b600d8101546001600160a01b03165b600e820180546001600160a01b0319166001600160a01b03929092169190911790555b6113fe8261352a565b1561149857600c81015460068201546000916001600160a01b0391821691161461143557600c8201546001600160a01b0316611444565b600d8201546001600160a01b03165b9050336001600160a01b0382161415611496576040805162461bcd60e51b815260206004820152600f60248201526e10db185a5b4b081b9bdd081c5d5a5d608a1b604482015290519081900360640190fd5b505b60028101805460ff191660041790556114b08261341f565b156114be576114be82614131565b6114c781614210565b600d810154600c82015460038301546040516001600160a01b0393841693909216917fbb663dedd46761762b0e54ccda01dd39c41aaa4bda1c4a01300475bbfdf7e13890600090a45050565b33600090815260208052604090205480611566576040805162461bcd60e51b815260206004820152600f60248201526e4e6f20726566657272616c2066656560881b604482015290519081900360640190fd5b336000908152602080805260408083208390556021909152902054611591908263ffffffff6144b516565b33600081815260216020526040808220939093559151909183156108fc02918491818181858888f193505050501580156115cf573d6000803e3d6000fd5b5060405133907faf3062c46366e85d91db7f7495492b8216bc40c609348a6d8b6fc3992410f58990600090a250565b6060600f80548060200260200160405190810160405280929190818152602001828054801561165657602002820191906000526020600020905b81546001600160a01b03168152600190910190602001808311611638575b505050505090505b90565b6000828152601960205260408120819060070160ff84166003811061168257fe5b602091828204019190069054906101000a900460ff16601960008681526020019081526020016000206008018460ff16600381106116bc57fe5b6020810490910154919660ff601f9092166101000a90920416945092505050565b60008111611722576040805162461bcd60e51b815260206004820152600d60248201526c05f6d61784c6f6f70203d3d203609c1b604482015290519081900360640190fd5b336000908152601d602052604090208054611771576040805162461bcd60e51b815260206004820152600a6024820152696e6f2070656e64696e6760b01b604482015290519081900360640190fd5b80548211156117ba576040805162461bcd60e51b815260206004820152601060248201526f5f6d61784c6f6f7020746f6f2062696760801b604482015290519081900360640190fd5b600080805b84811015611a9e57835460009085906117df90600163ffffffff61451816565b815481106117e957fe5b6000918252602080832090910154808352601990915260409091209091506003600282015460ff16600581111561181c57fe5b141561193757600481015461183890859063ffffffff6144b516565b600c8201549094506001600160a01b03163314156118b557600181015460ff16156118a0576040805162461bcd60e51b8152602060048201526013602482015272466174616c2c2063722077697468206472617760681b604482015290519081900360640190fd5b6001818101805460ff19169091179055611932565b600d8101546001600160a01b0316331415611932576001810154610100900460ff1615611920576040805162461bcd60e51b8152602060048201526014602482015273466174616c2c206f70702077697468206472617760601b604482015290519081900360640190fd5b60018101805461ff0019166101001790555b611a72565b8054610100900460ff161561198a576040805162461bcd60e51b815260206004820152601460248201527308cc2e8c2d858e0e4d2f4ca40eec2e640eed2e8d60631b604482015290519081900360640190fd5b805461ff00191661010017815560048101546119ad90869063ffffffff6144b516565b600c8201549095506000906001600160a01b031633146119da5760108201546001600160a01b03166119e9565b600f8201546001600160a01b03165b90506000611a166064611a0a6001866004015461455a90919063ffffffff16565b9063ffffffff6145b316565b6001600160a01b0383166000908152602080526040902054909150611a41908263ffffffff6144b516565b6001600160a01b0383166000908152602080526040902055602354611a6c908263ffffffff6144b516565b60235550505b85805480611a7c57fe5b60008281526020812082016000199081019190915501905550506001016117bf565b50336000908152601f6020526040902054611abf908363ffffffff6144b516565b336000908152601f6020526040812091909155611ae86064611a0a85600163ffffffff61455a16565b600354909150611afe908263ffffffff6144b516565b600355600c54611b14908263ffffffff6144b516565b600c55602254611b2a908263ffffffff6144b516565b602255611b36816145f5565b6000611b6b84611b5f8581611b5287600563ffffffff61455a16565b899063ffffffff61451816565b9063ffffffff6144b516565b604051909150339082156108fc029083906000818181858888f19350505050158015611b9b573d6000803e3d6000fd5b50611ba4614646565b60405133907f49dadfb9c0997e442b5c7378b159dfdab6c9261478186a18465f051014e761d690600090a2505050505050565b600e5481565b600f54600090611c26576040805162461bcd60e51b815260206004820152600f60248201526e4e6f207061727469636970616e747360881b604482015290519081900360640190fd5b600f54600c5460408051426020808301919091524482840152606082019390935260808082018590528251808303909101815260a0909101909152805191012081611c6d57fe5b06905090565b611c7b6146f1565b60005461010090046001600160a01b03908116911614611cd0576040805162461bcd60e51b81526020600482018190526024820152600080516020614efa833981519152604482015290519081900360640190fd5b611cd86146f5565b565b611ce26146f1565b60005461010090046001600160a01b03908116911614611d37576040805162461bcd60e51b81526020600482018190526024820152600080516020614efa833981519152604482015290519081900360640190fd5b6001600160a01b038116611d81576040805162461bcd60e51b815260206004820152600c60248201526b043616e6e74206265203078360a41b604482015290519081900360640190fd5b600180546001600160a01b0319166001600160a01b0392909216919091179055565b60108181548110611db057fe5b60009182526020909120600390910201805460018201546002909201546001600160a01b03909116925083565b611de56146f1565b60005461010090046001600160a01b03908116911614611e3a576040805162461bcd60e51b81526020600482018190526024820152600080516020614efa833981519152604482015290519081900360640190fd5b3380ff5b60086020526000908152604090205481565b60105490565b6001600160a01b0381166000908152601d6020908152604091829020805483518184028101840190945280845260609392830182828015611eb657602002820191906000526020600020905b815481526020019060010190808311611ea2575b50505050509050919050565b60045481565b600c5481565b60008181526019602052604090206001600282015460ff166005811115611ef157fe5b14611f31576040805162461bcd60e51b815260206004820152600b60248201526a57726f6e6720737461746560a81b604482015290519081900360640190fd5b611f3a8261352a565b611f7d576040805162461bcd60e51b815260206004820152600f60248201526e139bdd081e595d08195e1c1a5c9959608a1b604482015290519081900360640190fd5b600c81015460068201546000916001600160a01b03918216911614611faf57600c8201546001600160a01b0316611fbe565b600d8201546001600160a01b03165b9050336001600160a01b0382161461200d576040805162461bcd60e51b815260206004820152600d60248201526c2bb937b7339031b630b4b6b2b960991b604482015290519081900360640190fd5b600e82018054336001600160a01b031990911617905560028201805460ff1916600517905561203b82614210565b600d820154600c83015460038401546040516001600160a01b0393841693909216917f8b023d36169c1dab146e45ef2b43d49654ea34b2b627411c86a9cb759f2da5a590600090a4505050565b60005460ff1690565b601e6020526000908152604090205481565b60095461ffff1681565b6120b56146f1565b60005461010090046001600160a01b0390811691161461210a576040805162461bcd60e51b81526020600482018190526024820152600080516020614efa833981519152604482015290519081900360640190fd5b600080546040516101009091046001600160a01b0316907f8be0079c531659141344cd1fd0a4f28419497f9722a3daafe3b4186f6b6457e0908390a360008054610100600160a81b0319169055565b60005460ff16156121a4576040805162461bcd60e51b815260206004820152601060248201526f14185d5cd8589b194e881c185d5cd95960821b604482015290519081900360640190fd5b6000848152601960205260409020600c015484906001600160a01b03163314612202576040805162461bcd60e51b815260206004820152600b60248201526a2737ba1031b932b0ba37b960a91b604482015290519081900360640190fd5b60008581526019602052604090206006015485906001600160a01b03163314612263576040805162461bcd60e51b815260206004820152600e60248201526d2737ba103732bc3a1036b7bb32b960911b604482015290519081900360640190fd5b8561226d8161352a565b156122ae576040805162461bcd60e51b815260206004820152600c60248201526b135bdd9948195e1c1a5c995960a21b604482015290519081900360640190fd5b600087815260196020526040812090805b60038160ff16101561230757826007018160ff16600381106122dd57fe5b602081049091015460ff601f9092166101000a9004166122ff57809150612307565b6001016122bf565b50816009018160ff166003811061231a57fe5b01548860ff168860405160200180838152602001828152602001925050506040516020818303038152906040528051906020012014612393576040805162461bcd60e51b815260206004820152601060248201526f57726f6e6720686173682076616c756560801b604482015290519081900360640190fd5b87826007018260ff16600381106123a657fe5b602091828204019190066101000a81548160ff021916908360ff16021790555060028160ff161015612497578560001a60f81b6001600160f81b031916612421576040805162461bcd60e51b815260206004820152600a60248201526908adae0e8f240d0c2e6d60b31b604482015290519081900360640190fd5b85826009018260010160ff166003811061243757fe5b0155600d8201546006830180546001600160a01b0319166001600160a01b0390921691909117905542600583015560405189907ff50d17e73cf4e73941359b5ec4a170090373f19a1799067b78c212416acc777290600090a25050612540565b6124a089614793565b600e830180546001600160a01b0319166001600160a01b039283161790819055166124cc5760036124cf565b60025b60028301805460ff191660018360058111156124e757fe5b02179055506124f582614210565b600d820154600c83015460038401546040516001600160a01b0393841693909216917f857dc2544260b99930e5fb628b1606d38ff80ffe794f0fa80922e462af8e3b8090600090a450505b50505050505050565b60245481565b600e54600f546000911180159061256857506000600c54115b905090565b6125756146f1565b60005461010090046001600160a01b039081169116146125ca576040805162461bcd60e51b81526020600482018190526024820152600080516020614efa833981519152604482015290519081900360640190fd5b60008161ffff1611612613576040805162461bcd60e51b815260206004820152600d60248201526c053686f756c64206265203e203609c1b604482015290519081900360640190fd5b6009805461ffff191661ffff92909216919091179055565b6126336146f1565b60005461010090046001600160a01b03908116911614612688576040805162461bcd60e51b81526020600482018190526024820152600080516020614efa833981519152604482015290519081900360640190fd5b600081116126d5576040805162461bcd60e51b815260206004820152601560248201527407468726573686f6c64206d757374206265203e203605c1b604482015290519081900360640190fd5b600255565b60235481565b600a6020526000908152604090205481565b6006546001600160a01b031681565b6127096146f1565b60005461010090046001600160a01b0390811691161461275e576040805162461bcd60e51b81526020600482018190526024820152600080516020614efa833981519152604482015290519081900360640190fd5b600081116127a3576040805162461bcd60e51b815260206004820152600d60248201526c053686f756c64206265203e203609c1b604482015290519081900360640190fd5b600e55565b6127b06146f1565b60005461010090046001600160a01b03908116911614612805576040805162461bcd60e51b81526020600482018190526024820152600080516020614efa833981519152604482015290519081900360640190fd5b611cd8614aef565b60005460ff1615612858576040805162461bcd60e51b815260206004820152601060248201526f14185d5cd8589b194e881c185d5cd95960821b604482015290519081900360640190fd5b60008281526019602052604090206006015482906001600160a01b031633146128b9576040805162461bcd60e51b815260206004820152600e60248201526d2737ba103732bc3a1036b7bb32b960911b604482015290519081900360640190fd5b826128c38161352a565b15612904576040805162461bcd60e51b815260206004820152600c60248201526b135bdd9948195e1c1a5c995960a21b604482015290519081900360640190fd5b8260008160ff1611801561291b575060048160ff16105b61295d576040805162461bcd60e51b815260206004820152600e60248201526d0aee4dedcce40dadeecca40d2c8f60931b604482015290519081900360640190fd5b600085815260196020526040812090805b60038160ff1610156129b657826008018160ff166003811061298c57fe5b602081049091015460ff601f9092166101000a9004166129ae578091506129b6565b60010161296e565b5085826008018260ff16600381106129ca57fe5b60208104909101805460ff938416601f9093166101000a9283029390920219909116919091179055600c8201546006830180546001600160a01b0319166001600160a01b0390921691909117905542600583015560405187907fa3145d54ce461478262e98db7db814906e9d7d8e86b6edd4e7dcd1454ecb961190600090a250505050505050565b60225481565b60005461010090046001600160a01b031690565b60005460ff1615612ab7576040805162461bcd60e51b815260206004820152601060248201526f14185d5cd8589b194e881c185d5cd95960821b604482015290519081900360640190fd5b336000908152601b602052604090205415612b0f576040805162461bcd60e51b81526020600482015260136024820152724e6f206d6f7265206f70706f6e656e74696e6760681b604482015290519081900360640190fd5b6000838152601960205260409020600c015483906001600160a01b0316331415612b6f576040805162461bcd60e51b815260206004820152600c60248201526b23b0b6b29031b932b0ba37b960a11b604482015290519081900360640190fd5b83612b7981613f47565b15612bbc576040805162461bcd60e51b815260206004820152600e60248201526d11d85b59481a5cc81c185d5cd95960921b604482015290519081900360640190fd5b846000808281526019602052604090206002015460ff166005811115612bde57fe5b14612c28576040805162461bcd60e51b8152602060048201526015602482015274084f4815d85a5d1a5b99d19bdc93dc1c1bdb995b9d605a1b604482015290519081900360640190fd5b846001600160a01b038116331415612c78576040805162461bcd60e51b815260206004820152600e60248201526d15dc9bdb99c81c9959995c9c985b60921b604482015290519081900360640190fd5b8460008160ff16118015612c8f575060048160ff16105b612cd1576040805162461bcd60e51b815260206004820152600e60248201526d0aee4dedcce40dadeecca40d2c8f60931b604482015290519081900360640190fd5b600088815260196020526040902060048101543414612d23576040805162461bcd60e51b815260206004820152600960248201526815dc9bdb99c818995d60ba1b604482015290519081900360640190fd5b6001600160a01b03881615612d6257600089815260196020526040902060100180546001600160a01b0319166001600160a01b038a1617905587612d95565b612d6a612a58565b60008a815260196020526040902060100180546001600160a01b0319166001600160a01b0383161790555b50612d9f8961341f565b15612dad57612dad89614131565b336000908152601e6020526040902054612dcd903463ffffffff6144b516565b336000818152601e6020908152604080832094909455600d850180546001600160a01b03199081169094179055600c8501546006860180549094166001600160a01b039091161790925542600585015560088401805460ff1990811660ff8d16179091556002850180549091166001908117909155601b83528382208d9055601c83529281208054938401815581522001899055602454612e6e90346144b5565b602455600d810154600c8201546040516001600160a01b0392831692909116908b907faba5d162e66d41009bc11b7b907e28b31fa8feec985e73e3f560d6fc992f148390600090a4505050505050505050565b60025481565b60115481565b60005460ff1615612f18576040805162461bcd60e51b815260206004820152601060248201526f14185d5cd8589b194e881c185d5cd95960821b604482015290519081900360640190fd5b6000818152601960205260409020600c015481906001600160a01b03163314612f76576040805162461bcd60e51b815260206004820152600b60248201526a2737ba1031b932b0ba37b960a91b604482015290519081900360640190fd5b816000808281526019602052604090206002015460ff166005811115612f9857fe5b14612fe2576040805162461bcd60e51b8152602060048201526015602482015274084f4815d85a5d1a5b99d19bdc93dc1c1bdb995b9d605a1b604482015290519081900360640190fd5b82612fec81613f47565b1561302f576040805162461bcd60e51b815260206004820152600e60248201526d11d85b59481a5cc81c185d5cd95960921b604482015290519081900360640190fd5b6011543414613071576040805162461bcd60e51b815260206004820152600960248201526857726f6e672066656560b81b604482015290519081900360640190fd5b6012548414156130ba576040805162461bcd60e51b815260206004820152600f60248201526e546f7020696e20546f7047616d657360881b604482015290519081900360640190fd5b6130c2614d46565b6040518060a0016040528086815260200160008152602001600081526020016000815260200160008152509050600080600090505b60048160ff16101561317c578660128260ff166005811061311457fe5b0154148015613121575081155b1561312b57600191505b816131475760128160ff166005811061314057fe5b015461315d565b60128160010160ff166005811061315a57fe5b01545b838260010160ff166005811061316f57fe5b60200201526001016130f7565b5061318a6012836005614d64565b5060225461319e903463ffffffff6144b516565b6022556024546131b4903463ffffffff6144b516565b602455600086815260196020526040808220600c015490516001600160a01b039091169188917f10837c20b552775deff603be2e6bbd6011110295cf5729edc4da0376f0501a889190a3505050505050565b600d5481565b60005460ff1615613257576040805162461bcd60e51b815260206004820152601060248201526f14185d5cd8589b194e881c185d5cd95960821b604482015290519081900360640190fd5b6000818152601960205260409020600c015481906001600160a01b031633146132b5576040805162461bcd60e51b815260206004820152600b60248201526a2737ba1031b932b0ba37b960a91b604482015290519081900360640190fd5b816000808281526019602052604090206002015460ff1660058111156132d757fe5b14613321576040805162461bcd60e51b8152602060048201526015602482015274084f4815d85a5d1a5b99d19bdc93dc1c1bdb995b9d605a1b604482015290519081900360640190fd5b6000341161336d576040805162461bcd60e51b81526020600482015260146024820152730696e637265617365206d757374206265203e20360641b604482015290519081900360640190fd5b336000908152601e602052604090205461338d903463ffffffff6144b516565b336000908152601e60209081526040808320939093558582526019905220600401546133bf903463ffffffff6144b516565b6000848152601960205260409020600401556024546133e4903463ffffffff6144b516565b602455604051339084907fb8d5c4acb2a233249b2c857bdc4149dfe9c4c56be5b4240797ec520890e86f8490600090a3505050565b60055481565b6000805b60058160ff16101561345a578260128260ff166005811061344057fe5b01541415613452576001915050613460565b600101613423565b50600090505b919050565b60606001600160a01b0382166134b1576040805162461bcd60e51b815260206004820152600c60248201526b043616e6e74206265203078360a41b604482015290519081900360640190fd5b6001600160a01b0382166000908152601c602090815260409182902080548351818402810184019094528084529091830182828015611eb65760200282019190600052602060002090815481526020019060010190808311611ea25750505050509050919050565b602080526000908152604090205481565b6000818152601960205260408120600501541561346057600954600083815260196020526040902060050154429161356c919061ffff1663ffffffff6144b516565b109050613460565b61357c614da2565b600082815260196020526040908190208151606081019092526009016003828282602002820191815481526020019060010190808311611ea25750505050509050919050565b336000908152600a602052604090205480613616576040805162461bcd60e51b815260206004820152600f60248201526e4e6f20726166666c65207072697a6560881b604482015290519081900360640190fd5b336000908152600a60209081526040808320839055600b909152902054613643908263ffffffff6144b516565b336000818152600b6020526040808220939093559151909183156108fc02918491818181858888f19350505050158015613681573d6000803e3d6000fd5b5060405133907fc6378dfc7a408ccde7fd4fc7126edb802aff5cca70afa44a52dfc6e9ab7dfc3b90600090a250565b601d60205281600052604060002081815481106136c957fe5b90600052602060002001600091509150505481565b6213c68081565b6136ed61254f565b613734576040805162461bcd60e51b8152602060048201526013602482015272149859999b1948084f481858dd1a5d985d1959606a1b604482015290519081900360640190fd5b600061373e611bdd565b9050613788600c54600a6000600f858154811061375757fe5b60009182526020808320909101546001600160a01b031683528201929092526040019020549063ffffffff6144b516565b600a6000600f848154811061379957fe5b60009182526020808320909101546001600160a01b03168352820192909252604001902055600c54600d546137d39163ffffffff6144b516565b600d8190555060106040518060600160405280600f84815481106137f357fe5b6000918252602080832091909101546001600160a01b039081168452600c8054858401524260409586015286546001808201895597855293839020865160039095020180546001600160a01b03191694909216939093178155908401519481019490945591015160029092019190915554600f80548390811061387257fe5b60009182526020822001546040516001600160a01b03909116917f5b855748ec47b3a8c7d02c2551af912f3900fdd754f66a381dc33c8dea252f0091a3600c60009055600f60006138c39190614dc0565b50565b60005460ff1615613911576040805162461bcd60e51b815260206004820152601060248201526f14185d5cd8589b194e881c185d5cd95960821b604482015290519081900360640190fd5b336000908152601a602052604090205415613966576040805162461bcd60e51b815260206004820152601060248201526f4e6f206d6f7265206372656174696e6760801b604482015290519081900360640190fd5b6011543410156139a9576040805162461bcd60e51b815260206004820152600960248201526815dc9bdb99c818995d60ba1b604482015290519081900360640190fd5b816001600160a01b0381163314156139f9576040805162461bcd60e51b815260206004820152600e60248201526d15dc9bdb99c81c9959995c9c985b60921b604482015290519081900360640190fd5b8160001a60f81b6001600160f81b031916613a48576040805162461bcd60e51b815260206004820152600a60248201526908adae0e8f240d0c2e6d60b31b604482015290519081900360640190fd5b336000908152601e6020526040902054613a68903463ffffffff6144b516565b336000818152601e60209081526040808320949094556017805480845260199092528483206003810192909255600c90910180546001600160a01b031916909317909255815481528281203460049091015590548152206009018290556001600160a01b03831615613b07576017546000908152601960205260409020600f0180546001600160a01b0319166001600160a01b03851617905582613b3d565b613b0f612a58565b6017546000908152601960205260409020600f0180546001600160a01b0319166001600160a01b0383161790555b50601754336000908152601a60209081526040808320849055601c82528220805460018101825590835291200155602454613b7e903463ffffffff6144b516565b602455601754604051349133917fc8a7ad4588594944c5c6ec5e3dd1fc3a1aeb831f1a2bc35611c78302594092e090600090a4601754613bc590600163ffffffff6144b516565b601755505050565b6000818152601960205260409020600c015481906001600160a01b03163314613c2b576040805162461bcd60e51b815260206004820152600b60248201526a2737ba1031b932b0ba37b960a91b604482015290519081900360640190fd5b81613c3581613f47565b613c7b576040805162461bcd60e51b815260206004820152601260248201527111d85b59481a5cc81b9bdd081c185d5cd95960721b604482015290519081900360640190fd5b6011543414613cbd576040805162461bcd60e51b815260206004820152600960248201526857726f6e672066656560b81b604482015290519081900360640190fd5b6000838152601960205260409020805460ff19169055602254613ce6903463ffffffff6144b516565b602255602454613cfc903463ffffffff6144b516565b60245560405183907f9c35b9254daa7c98abd3abaf007ae9932475df816b2b74caec46fa335616231990600090a2505050565b6001546001600160a01b031681565b60128160058110613d4b57fe5b0154905081565b60035481565b613d606146f1565b60005461010090046001600160a01b03908116911614613db5576040805162461bcd60e51b81526020600482018190526024820152600080516020614efa833981519152604482015290519081900360640190fd5b600060225411613df9576040805162461bcd60e51b815260206004820152600a6024820152694e6f206465762066656560b01b604482015290519081900360640190fd5b602280546000918290556040519091339183156108fc0291849190818181858888f19350505050158015613e31573d6000803e3d6000fd5b5050565b613e3d614d46565b6040805160a08101918290529060129060059082845b815481526020019060010190808311613e53575050505050905090565b601f6020526000908152604090205481565b60175481565b601a6020526000908152604090205481565b3360009081526008602052604090205480613ee5576040805162461bcd60e51b81526020600482015260066024820152654e6f2066656560d01b604482015290519081900360640190fd5b336000818152600860205260408082208290555183156108fc0291849190818181858888f19350505050158015613f20573d6000803e3d6000fd5b506138c3614b70565b602454613f3c903463ffffffff6144b516565b602455611cd8614be9565b60009081526019602052604090205460ff1690565b60216020526000908152604090205481565b613f766146f1565b60005461010090046001600160a01b03908116911614613fcb576040805162461bcd60e51b81526020600482018190526024820152600080516020614efa833981519152604482015290519081900360640190fd5b6001600160a01b0381166140105760405162461bcd60e51b8152600401808060200182810382526026815260200180614eb36026913960400191505060405180910390fd5b600080546040516001600160a01b038085169361010090930416917f8be0079c531659141344cd1fd0a4f28419497f9722a3daafe3b4186f6b6457e091a3600080546001600160a01b0390921661010002610100600160a81b0319909216919091179055565b60185481565b6140846146f1565b60005461010090046001600160a01b039081169116146140d9576040805162461bcd60e51b81526020600482018190526024820152600080516020614efa833981519152604482015290519081900360640190fd5b6000811161411a576040805162461bcd60e51b815260206004820152600960248201526815dc9bdb99c818995d60ba1b604482015290519081900360640190fd5b601155565b600b6020526000908152604090205481565b614139614d46565b6000805b60058110156141bc57836012826005811061415457fe5b0154141561416557600191506141b4565b8115614193576012816005811061417857fe5b015483600183036005811061418957fe5b60200201526141b4565b601281600581106141a057fe5b01548382600581106141ae57fe5b60200201525b60010161413d565b50806141fd576040805162461bcd60e51b815260206004820152600b60248201526a4e6f7420546f7047616d6560a81b604482015290519081900360640190fd5b61420a6012836005614d64565b50505050565b6005600282015460ff16600581111561422557fe5b148061424357506004600282015460ff16600581111561424157fe5b145b156142c157614250612a58565b600e8201546001600160a01b039081169116146142bc57600e810154600f80546001810182556000919091527f8d1108e10bcb7c27dddfc02ed9d693a074039d026cf4ea4240b40f7d581ac8020180546001600160a01b0319166001600160a01b039092169190911790555b6143b3565b60028082015460ff1660058111156142d557fe5b14806142f357506003600282015460ff1660058111156142f157fe5b145b1561436d57600c810154600f80546001808201835560008390527f8d1108e10bcb7c27dddfc02ed9d693a074039d026cf4ea4240b40f7d581ac80291820180546001600160a01b039586166001600160a01b031991821617909155600d8601548454928301909455910180549290931691161790556143b3565b6040805162461bcd60e51b8152602060048201526016602482015275466174616c2c2077726f6e672047616d65537461746560501b604482015290519081900360640190fd5b6018546143c790600163ffffffff6144b516565b601855600c8101546001600160a01b039081166000908152601a60209081526040808320839055600d85015484168352601b909152812081905560058301556006820180546001600160a01b0319169055600e820154161561445e57600e8101546001600160a01b03166000908152601d6020908152604082206003840154815460018101835591845291909220909101556138c3565b600c8101546001600160a01b039081166000908152601d602090815260408083206003860180548254600180820185559387528587200155600d909601549094168352822093548454938401855593825290200155565b60008282018381101561450f576040805162461bcd60e51b815260206004820152601b60248201527f536166654d6174683a206164646974696f6e206f766572666c6f770000000000604482015290519081900360640190fd5b90505b92915050565b600061450f83836040518060400160405280601e81526020017f536166654d6174683a207375627472616374696f6e206f766572666c6f770000815250614c4a565b60008261456957506000614512565b8282028284828161457657fe5b041461450f5760405162461bcd60e51b8152600401808060200182810382526021815260200180614ed96021913960400191505060405180910390fd5b600061450f83836040518060400160405280601a81526020017f536166654d6174683a206469766973696f6e206279207a65726f000000000000815250614ce1565b6145fd614b70565b6006546001600160a01b0316600090815260086020526040902054614628908263ffffffff6144b516565b6006546001600160a01b031660009081526008602052604090205550565b60025460035410611cd85760038054600090915560045461466d908263ffffffff6144b516565b6004556001546040516001600160a01b039091169082156108fc029083906000818181858888f193505050501580156146aa573d6000803e3d6000fd5b5060015460408051308152905183926001600160a01b0316917fcf6479f64bef705be7f01da6a3427e5c5f9b381f335bebc7d6939b727e8f2f2b919081900360200190a350565b3390565b60005460ff16614743576040805162461bcd60e51b815260206004820152601460248201527314185d5cd8589b194e881b9bdd081c185d5cd95960621b604482015290519081900360640190fd5b6000805460ff191690557f5db9ee0a495bf2e6ff9c91a7834c1ba4fdd244a5e8aa4e537bd38aeae4b073aa6147766146f1565b604080516001600160a01b039092168252519081900360200190a1565b600061479d614dde565b6000838152601960209081526040808320815161020081018352815460ff808216151583526101009091041615159381019390935281518083018084529394919392850192909160018501916002918390855b825461010083900a900460ff1615158152602060019283018181049485019490930390920291018084116147f057505050928452505050600282015460209091019060ff16600581111561484057fe5b600581111561484b57fe5b815260038281015460208301526004830154604080840191909152600584015460608085019190915260068501546001600160a01b0316608085015281519081019182905260a090930192916007850191826000855b825461010083900a900460ff168152602060019283018181049485019490930390920291018084116148a157505050928452505060408051606081019182905260209093019291506008840190600390826000855b825461010083900a900460ff168152602060019283018181049485019490930390920291018084116148f65750505092845250506040805160608101918290526020909301929150600984019060039082845b815481526020019060010190808311614949575050509183525050600c8201546001600160a01b039081166020830152600d83015481166040830152600e83015481166060830152600f8301548116608083015260109092015490911660a0909101529050600080805b60038160ff161015614aae5760008461010001518260ff16600381106149d557fe5b6020020151905060008561012001518360ff16600381106149f257fe5b602002015190508160ff1660011415614a34578060ff1660021415614a1c57600190930192614a2f565b8060ff1660031415614a2f576001909401935b614aa4565b8160ff1660021415614a6e578060ff1660011415614a5757600190940193614a2f565b8060ff1660031415614a2f57600190930192614aa4565b8160ff1660031415614aa4578060ff1660011415614a9157600190930192614aa4565b8060ff1660021415614aa4576001909401935b50506001016149b3565b508060ff168260ff161115614acb57505061016001519050613460565b8060ff168260ff161015614ae757505061018001519050613460565b505050919050565b60005460ff1615614b3a576040805162461bcd60e51b815260206004820152601060248201526f14185d5cd8589b194e881c185d5cd95960821b604482015290519081900360640190fd5b6000805460ff191660011790557f62e78cea01bee320cd4e420270b5ea74000d11b0c9f74754ebdbfc544b05a2586147766146f1565b614b78612a58565b6006546001600160a01b0390811691161415614b9357611cd8565b6213c680614bac6007544261451890919063ffffffff16565b1115611cd8576000614bbc612a58565b600680546001600160a01b0319166001600160a01b03929092169190911790555060006007819055600555565b6005543411614c2e576040805162461bcd60e51b815260206004820152600c60248201526b15dc9bdb99c8185b5bdd5b9d60a21b604482015290519081900360640190fd5b34600555600680546001600160a01b0319163317905542600755565b60008184841115614cd95760405162461bcd60e51b81526004018080602001828103825283818151815260200191508051906020019080838360005b83811015614c9e578181015183820152602001614c86565b50505050905090810190601f168015614ccb5780820380516001836020036101000a031916815260200191505b509250505060405180910390fd5b505050900390565b60008183614d305760405162461bcd60e51b8152602060048201818152835160248401528351909283926044909101919085019080838360008315614c9e578181015183820152602001614c86565b506000838581614d3c57fe5b0495945050505050565b6040518060a001604052806005906020820280388339509192915050565b8260058101928215614d92579160200282015b82811115614d92578251825591602001919060010190614d77565b50614d9e929150614e7a565b5090565b60405180606001604052806003906020820280388339509192915050565b50805460008255906000526020600020908101906138c39190614e7a565b604080516102008101825260008082526020820152908101614dfe614e94565b81526020016000815260200160008152602001600081526020016000815260200160006001600160a01b03168152602001614e37614da2565b8152602001614e44614da2565b8152602001614e51614da2565b815260006020820181905260408201819052606082018190526080820181905260a09091015290565b61165e91905b80821115614d9e5760008155600101614e80565b6040518060400160405280600290602082028038833950919291505056fe4f776e61626c653a206e6577206f776e657220697320746865207a65726f2061646472657373536166654d6174683a206d756c7469706c69636174696f6e206f766572666c6f774f776e61626c653a2063616c6c6572206973206e6f7420746865206f776e6572a26469706673582212206eacb987624f9b308f94aaf6b6d8db4807522cf2cf512eea853dee3b29139e4364736f6c634300060000334f776e61626c653a2063616c6c6572206973206e6f7420746865206f776e6572",
			"opcodes": "PUSH1 0x80 PUSH1 0x40 MSTORE PUSH1 0x9 DUP1 SLOAD PUSH2 0xFFFF NOT AND PUSH2 0xA8C0 OR SWAP1 SSTORE PUSH1 0xC8 PUSH1 0xE SSTORE PUSH7 0x2386F26FC10000 PUSH1 0x11 SSTORE CALLVALUE DUP1 ISZERO PUSH3 0x30 JUMPI PUSH1 0x0 DUP1 REVERT JUMPDEST POP PUSH1 0x40 MLOAD PUSH3 0x5235 CODESIZE SUB DUP1 PUSH3 0x5235 DUP4 CODECOPY DUP2 DUP2 ADD PUSH1 0x40 MSTORE PUSH1 0x20 DUP2 LT ISZERO PUSH3 0x56 JUMPI PUSH1 0x0 DUP1 REVERT JUMPDEST POP MLOAD PUSH1 0x0 DUP1 SLOAD PUSH1 0xFF NOT AND DUP2 SSTORE DUP2 SWAP1 PUSH8 0xDE0B6B3A7640000 SWAP1 PUSH3 0x81 PUSH1 0x1 PUSH1 0x1 PUSH1 0xE0 SHL SUB PUSH3 0x116 AND JUMP JUMPDEST PUSH1 0x0 DUP1 SLOAD PUSH2 0x100 PUSH1 0x1 PUSH1 0xA8 SHL SUB NOT AND PUSH2 0x100 PUSH1 0x1 PUSH1 0x1 PUSH1 0xA0 SHL SUB DUP5 AND SWAP1 DUP2 MUL SWAP2 SWAP1 SWAP2 OR DUP3 SSTORE PUSH1 0x40 MLOAD SWAP3 SWAP4 POP SWAP2 PUSH32 0x8BE0079C531659141344CD1FD0A4F28419497F9722A3DAAFE3B4186F6B6457E0 SWAP1 DUP3 SWAP1 LOG3 POP PUSH3 0xE7 DUP3 PUSH1 0x1 PUSH1 0x1 PUSH1 0xE0 SHL SUB PUSH3 0x11A AND JUMP JUMPDEST PUSH3 0xFB DUP2 PUSH1 0x1 PUSH1 0x1 PUSH1 0xE0 SHL SUB PUSH3 0x1F1 AND JUMP JUMPDEST POP POP PUSH1 0x6 DUP1 SLOAD PUSH1 0x1 PUSH1 0x1 PUSH1 0xA0 SHL SUB NOT AND CALLER OR SWAP1 SSTORE POP PUSH3 0x2B6 JUMP JUMPDEST CALLER SWAP1 JUMP JUMPDEST PUSH3 0x12D PUSH1 0x1 PUSH1 0x1 PUSH1 0xE0 SHL SUB PUSH3 0x116 AND JUMP JUMPDEST PUSH1 0x0 SLOAD PUSH2 0x100 SWAP1 DIV PUSH1 0x1 PUSH1 0x1 PUSH1 0xA0 SHL SUB SWAP1 DUP2 AND SWAP2 AND EQ PUSH3 0x184 JUMPI PUSH1 0x40 DUP1 MLOAD PUSH3 0x461BCD PUSH1 0xE5 SHL DUP2 MSTORE PUSH1 0x20 PUSH1 0x4 DUP3 ADD DUP2 SWAP1 MSTORE PUSH1 0x24 DUP3 ADD MSTORE PUSH1 0x0 DUP1 MLOAD PUSH1 0x20 PUSH3 0x5215 DUP4 CODECOPY DUP2 MLOAD SWAP2 MSTORE PUSH1 0x44 DUP3 ADD MSTORE SWAP1 MLOAD SWAP1 DUP2 SWAP1 SUB PUSH1 0x64 ADD SWAP1 REVERT JUMPDEST PUSH1 0x1 PUSH1 0x1 PUSH1 0xA0 SHL SUB DUP2 AND PUSH3 0x1CF JUMPI PUSH1 0x40 DUP1 MLOAD PUSH3 0x461BCD PUSH1 0xE5 SHL DUP2 MSTORE PUSH1 0x20 PUSH1 0x4 DUP3 ADD MSTORE PUSH1 0xC PUSH1 0x24 DUP3 ADD MSTORE PUSH12 0x43616E6E742062652030783 PUSH1 0xA4 SHL PUSH1 0x44 DUP3 ADD MSTORE SWAP1 MLOAD SWAP1 DUP2 SWAP1 SUB PUSH1 0x64 ADD SWAP1 REVERT JUMPDEST PUSH1 0x1 DUP1 SLOAD PUSH1 0x1 PUSH1 0x1 PUSH1 0xA0 SHL SUB NOT AND PUSH1 0x1 PUSH1 0x1 PUSH1 0xA0 SHL SUB SWAP3 SWAP1 SWAP3 AND SWAP2 SWAP1 SWAP2 OR SWAP1 SSTORE JUMP JUMPDEST PUSH3 0x204 PUSH1 0x1 PUSH1 0x1 PUSH1 0xE0 SHL SUB PUSH3 0x116 AND JUMP JUMPDEST PUSH1 0x0 SLOAD PUSH2 0x100 SWAP1 DIV PUSH1 0x1 PUSH1 0x1 PUSH1 0xA0 SHL SUB SWAP1 DUP2 AND SWAP2 AND EQ PUSH3 0x25B JUMPI PUSH1 0x40 DUP1 MLOAD PUSH3 0x461BCD PUSH1 0xE5 SHL DUP2 MSTORE PUSH1 0x20 PUSH1 0x4 DUP3 ADD DUP2 SWAP1 MSTORE PUSH1 0x24 DUP3 ADD MSTORE PUSH1 0x0 DUP1 MLOAD PUSH1 0x20 PUSH3 0x5215 DUP4 CODECOPY DUP2 MLOAD SWAP2 MSTORE PUSH1 0x44 DUP3 ADD MSTORE SWAP1 MLOAD SWAP1 DUP2 SWAP1 SUB PUSH1 0x64 ADD SWAP1 REVERT JUMPDEST PUSH1 0x0 DUP2 GT PUSH3 0x2B1 JUMPI PUSH1 0x40 DUP1 MLOAD PUSH3 0x461BCD PUSH1 0xE5 SHL DUP2 MSTORE PUSH1 0x20 PUSH1 0x4 DUP3 ADD MSTORE PUSH1 0x15 PUSH1 0x24 DUP3 ADD MSTORE PUSH32 0x7468726573686F6C64206D757374206265203E20300000000000000000000000 PUSH1 0x44 DUP3 ADD MSTORE SWAP1 MLOAD SWAP1 DUP2 SWAP1 SUB PUSH1 0x64 ADD SWAP1 REVERT JUMPDEST PUSH1 0x2 SSTORE JUMP JUMPDEST PUSH2 0x4F4F DUP1 PUSH3 0x2C6 PUSH1 0x0 CODECOPY PUSH1 0x0 RETURN INVALID PUSH1 0x80 PUSH1 0x40 MSTORE PUSH1 0x4 CALLDATASIZE LT PUSH2 0x431 JUMPI PUSH1 0x0 CALLDATALOAD PUSH1 0xE0 SHR DUP1 PUSH4 0x870DAFB0 GT PUSH2 0x229 JUMPI DUP1 PUSH4 0xB28B9549 GT PUSH2 0x12E JUMPI DUP1 PUSH4 0xD6977392 GT PUSH2 0xB6 JUMPI DUP1 PUSH4 0xF1DA06B5 GT PUSH2 0x7A JUMPI DUP1 PUSH4 0xF1DA06B5 EQ PUSH2 0xF12 JUMPI DUP1 PUSH4 0xF2FDE38B EQ PUSH2 0xF45 JUMPI DUP1 PUSH4 0xF5F3B773 EQ PUSH2 0xF78 JUMPI DUP1 PUSH4 0xF7CF0AA1 EQ PUSH2 0xF8D JUMPI DUP1 PUSH4 0xFF24BA7C EQ PUSH2 0xFB7 JUMPI PUSH2 0x431 JUMP JUMPDEST DUP1 PUSH4 0xD6977392 EQ PUSH2 0xE83 JUMPI DUP1 PUSH4 0xE03964AA EQ PUSH2 0xE98 JUMPI DUP1 PUSH4 0xE1B740A0 EQ PUSH2 0xECB JUMPI DUP1 PUSH4 0xEE03B9E1 EQ PUSH2 0xEE0 JUMPI DUP1 PUSH4 0xEFC30E69 EQ PUSH2 0xEE8 JUMPI PUSH2 0x431 JUMP JUMPDEST DUP1 PUSH4 0xBF7F7105 GT PUSH2 0xFD JUMPI DUP1 PUSH4 0xBF7F7105 EQ PUSH2 0xDD2 JUMPI DUP1 PUSH4 0xC8D60259 EQ PUSH2 0xDFC JUMPI DUP1 PUSH4 0xCB93F7EF EQ PUSH2 0xE11 JUMPI DUP1 PUSH4 0xCBE93C61 EQ PUSH2 0xE26 JUMPI DUP1 PUSH4 0xCC7ECBBC EQ PUSH2 0xE50 JUMPI PUSH2 0x431 JUMP JUMPDEST DUP1 PUSH4 0xB28B9549 EQ PUSH2 0xD5F JUMPI DUP1 PUSH4 0xB7E08E7F EQ PUSH2 0xD74 JUMPI DUP1 PUSH4 0xBBC9773E EQ PUSH2 0xDA0 JUMPI DUP1 PUSH4 0xBE10862B EQ PUSH2 0xDBD JUMPI PUSH2 0x431 JUMP JUMPDEST DUP1 PUSH4 0xA517622D GT PUSH2 0x1B1 JUMPI DUP1 PUSH4 0xADC6D4E7 GT PUSH2 0x180 JUMPI DUP1 PUSH4 0xADC6D4E7 EQ PUSH2 0xC70 JUMPI DUP1 PUSH4 0xAE6D3C71 EQ PUSH2 0xC9A JUMPI DUP1 PUSH4 0xAFA74C5B EQ PUSH2 0xCFC JUMPI DUP1 PUSH4 0xAFB5D68B EQ PUSH2 0xD11 JUMPI DUP1 PUSH4 0xB04B83D5 EQ PUSH2 0xD4A JUMPI PUSH2 0x431 JUMP JUMPDEST DUP1 PUSH4 0xA517622D EQ PUSH2 0xBCB JUMPI DUP1 PUSH4 0xA756CC0D EQ PUSH2 0xBE0 JUMPI DUP1 PUSH4 0xA90F7365 EQ PUSH2 0xC0A JUMPI DUP1 PUSH4 0xA9E4AEE5 EQ PUSH2 0xC3D JUMPI PUSH2 0x431 JUMP JUMPDEST DUP1 PUSH4 0x95BB4389 GT PUSH2 0x1F8 JUMPI DUP1 PUSH4 0x95BB4389 EQ PUSH2 0xB52 JUMPI DUP1 PUSH4 0x9619367D EQ PUSH2 0xB67 JUMPI DUP1 PUSH4 0x9960C852 EQ PUSH2 0xB7C JUMPI DUP1 PUSH4 0x9F099C28 EQ PUSH2 0xB99 JUMPI DUP1 PUSH4 0xA4B4B851 EQ PUSH2 0xBAE JUMPI PUSH2 0x431 JUMP JUMPDEST DUP1 PUSH4 0x870DAFB0 EQ PUSH2 0xAC0 JUMPI DUP1 PUSH4 0x8BC44618 EQ PUSH2 0xAF3 JUMPI DUP1 PUSH4 0x8DA5CB5B EQ PUSH2 0xB08 JUMPI DUP1 PUSH4 0x90286DAE EQ PUSH2 0xB1D JUMPI PUSH2 0x431 JUMP JUMPDEST DUP1 PUSH4 0x4B39DF83 GT PUSH2 0x33A JUMPI DUP1 PUSH4 0x72361111 GT PUSH2 0x2C2 JUMPI DUP1 PUSH4 0x7B503668 GT PUSH2 0x286 JUMPI DUP1 PUSH4 0x7B503668 EQ PUSH2 0xA24 JUMPI DUP1 PUSH4 0x82EFB308 EQ PUSH2 0xA39 JUMPI DUP1 PUSH4 0x83725B0E EQ PUSH2 0xA6C JUMPI DUP1 PUSH4 0x8446596E EQ PUSH2 0xA81 JUMPI DUP1 PUSH4 0x8456CB59 EQ PUSH2 0xAAB JUMPI PUSH2 0x431 JUMP JUMPDEST DUP1 PUSH4 0x72361111 EQ PUSH2 0x963 JUMPI DUP1 PUSH4 0x7245FBB2 EQ PUSH2 0x9A2 JUMPI DUP1 PUSH4 0x7418EFEB EQ PUSH2 0x9B7 JUMPI DUP1 PUSH4 0x77B00C01 EQ PUSH2 0x9CC JUMPI DUP1 PUSH4 0x780D2456 EQ PUSH2 0x9FA JUMPI PUSH2 0x431 JUMP JUMPDEST DUP1 PUSH4 0x59CF5BD6 GT PUSH2 0x309 JUMPI DUP1 PUSH4 0x59CF5BD6 EQ PUSH2 0x89C JUMPI DUP1 PUSH4 0x5C975ABB EQ PUSH2 0x8C6 JUMPI DUP1 PUSH4 0x5F9EDC85 EQ PUSH2 0x8EF JUMPI DUP1 PUSH4 0x65AB31B3 EQ PUSH2 0x922 JUMPI DUP1 PUSH4 0x715018A6 EQ PUSH2 0x94E JUMPI PUSH2 0x431 JUMP JUMPDEST DUP1 PUSH4 0x4B39DF83 EQ PUSH2 0x82A JUMPI DUP1 PUSH4 0x4CD1E0EB EQ PUSH2 0x83F JUMPI DUP1 PUSH4 0x4DC5E4D3 EQ PUSH2 0x872 JUMPI DUP1 PUSH4 0x51BE96EA EQ PUSH2 0x887 JUMPI PUSH2 0x431 JUMP JUMPDEST DUP1 PUSH4 0x2106F1B8 GT PUSH2 0x3BD JUMPI DUP1 PUSH4 0x3F4BA83A GT PUSH2 0x38C JUMPI DUP1 PUSH4 0x3F4BA83A EQ PUSH2 0x748 JUMPI DUP1 PUSH4 0x401F4663 EQ PUSH2 0x75D JUMPI DUP1 PUSH4 0x40861C1D EQ PUSH2 0x790 JUMPI DUP1 PUSH4 0x41C0E1B5 EQ PUSH2 0x7E2 JUMPI DUP1 PUSH4 0x443C3063 EQ PUSH2 0x7F7 JUMPI PUSH2 0x431 JUMP JUMPDEST DUP1 PUSH4 0x2106F1B8 EQ PUSH2 0x6A1 JUMPI DUP1 PUSH4 0x2BCAC304 EQ PUSH2 0x6F4 JUMPI DUP1 PUSH4 0x3689E1DB EQ PUSH2 0x71E JUMPI DUP1 PUSH4 0x3B3DCA76 EQ PUSH2 0x733 JUMPI PUSH2 0x431 JUMP JUMPDEST DUP1 PUSH4 0x11A155E3 GT PUSH2 0x404 JUMPI DUP1 PUSH4 0x11A155E3 EQ PUSH2 0x5BC JUMPI DUP1 PUSH4 0x1214E31E EQ PUSH2 0x5D1 JUMPI DUP1 PUSH4 0x16F99211 EQ PUSH2 0x5FD JUMPI DUP1 PUSH4 0x173608E7 EQ PUSH2 0x627 JUMPI DUP1 PUSH4 0x1AF37971 EQ PUSH2 0x63C JUMPI PUSH2 0x431 JUMP JUMPDEST DUP1 PUSH4 0x4A57C09 EQ PUSH2 0x436 JUMPI DUP1 PUSH4 0x72689EC EQ PUSH2 0x47C JUMPI DUP1 PUSH4 0xFEE8ACB EQ PUSH2 0x4C1 JUMPI DUP1 PUSH4 0x117A5B90 EQ PUSH2 0x50D JUMPI JUMPDEST PUSH1 0x0 DUP1 REVERT JUMPDEST CALLVALUE DUP1 ISZERO PUSH2 0x442 JUMPI PUSH1 0x0 DUP1 REVERT JUMPDEST POP PUSH2 0x460 PUSH1 0x4 DUP1 CALLDATASIZE SUB PUSH1 0x20 DUP2 LT ISZERO PUSH2 0x459 JUMPI PUSH1 0x0 DUP1 REVERT JUMPDEST POP CALLDATALOAD PUSH2 0xFEA JUMP JUMPDEST PUSH1 0x40 DUP1 MLOAD PUSH1 0x1 PUSH1 0x1 PUSH1 0xA0 SHL SUB SWAP1 SWAP3 AND DUP3 MSTORE MLOAD SWAP1 DUP2 SWAP1 SUB PUSH1 0x20 ADD SWAP1 RETURN JUMPDEST CALLVALUE DUP1 ISZERO PUSH2 0x488 JUMPI PUSH1 0x0 DUP1 REVERT JUMPDEST POP PUSH2 0x4AF PUSH1 0x4 DUP1 CALLDATASIZE SUB PUSH1 0x20 DUP2 LT ISZERO PUSH2 0x49F JUMPI PUSH1 0x0 DUP1 REVERT JUMPDEST POP CALLDATALOAD PUSH1 0x1 PUSH1 0x1 PUSH1 0xA0 SHL SUB AND PUSH2 0x1011 JUMP JUMPDEST PUSH1 0x40 DUP1 MLOAD SWAP2 DUP3 MSTORE MLOAD SWAP1 DUP2 SWAP1 SUB PUSH1 0x20 ADD SWAP1 RETURN JUMPDEST CALLVALUE DUP1 ISZERO PUSH2 0x4CD JUMPI PUSH1 0x0 DUP1 REVERT JUMPDEST POP PUSH2 0x4EB PUSH1 0x4 DUP1 CALLDATASIZE SUB PUSH1 0x20 DUP2 LT ISZERO PUSH2 0x4E4 JUMPI PUSH1 0x0 DUP1 REVERT JUMPDEST POP CALLDATALOAD PUSH2 0x1023 JUMP JUMPDEST PUSH1 0x40 DUP1 MLOAD SWAP4 ISZERO ISZERO DUP5 MSTORE SWAP2 ISZERO ISZERO PUSH1 0x20 DUP5 ADD MSTORE ISZERO ISZERO DUP3 DUP3 ADD MSTORE MLOAD SWAP1 DUP2 SWAP1 SUB PUSH1 0x60 ADD SWAP1 RETURN JUMPDEST CALLVALUE DUP1 ISZERO PUSH2 0x519 JUMPI PUSH1 0x0 DUP1 REVERT JUMPDEST POP PUSH2 0x537 PUSH1 0x4 DUP1 CALLDATASIZE SUB PUSH1 0x20 DUP2 LT ISZERO PUSH2 0x530 JUMPI PUSH1 0x0 DUP1 REVERT JUMPDEST POP CALLDATALOAD PUSH2 0x1050 JUMP JUMPDEST PUSH1 0x40 DUP1 MLOAD DUP14 ISZERO ISZERO DUP2 MSTORE DUP13 ISZERO ISZERO PUSH1 0x20 DUP3 ADD MSTORE SWAP1 DUP2 ADD DUP12 PUSH1 0x5 DUP2 GT ISZERO PUSH2 0x557 JUMPI INVALID JUMPDEST PUSH1 0xFF AND DUP2 MSTORE PUSH1 0x20 DUP2 ADD SWAP11 SWAP1 SWAP11 MSTORE POP PUSH1 0x40 DUP1 DUP11 ADD SWAP9 SWAP1 SWAP9 MSTORE PUSH1 0x60 DUP10 ADD SWAP7 SWAP1 SWAP7 MSTORE PUSH1 0x1 PUSH1 0x1 PUSH1 0xA0 SHL SUB SWAP5 DUP6 AND PUSH1 0x80 DUP10 ADD MSTORE SWAP3 DUP5 AND PUSH1 0xA0 DUP9 ADD MSTORE SWAP1 DUP4 AND PUSH1 0xC0 DUP8 ADD MSTORE DUP3 AND PUSH1 0xE0 DUP7 ADD MSTORE DUP2 AND PUSH2 0x100 DUP6 ADD MSTORE AND PUSH2 0x120 DUP4 ADD MSTORE MLOAD SWAP1 DUP2 SWAP1 SUB PUSH2 0x140 ADD SWAP4 POP SWAP2 POP POP RETURN JUMPDEST CALLVALUE DUP1 ISZERO PUSH2 0x5C8 JUMPI PUSH1 0x0 DUP1 REVERT JUMPDEST POP PUSH2 0x4AF PUSH2 0x10C5 JUMP JUMPDEST CALLVALUE DUP1 ISZERO PUSH2 0x5DD JUMPI PUSH1 0x0 DUP1 REVERT JUMPDEST POP PUSH2 0x5FB PUSH1 0x4 DUP1 CALLDATASIZE SUB PUSH1 0x20 DUP2 LT ISZERO PUSH2 0x5F4 JUMPI PUSH1 0x0 DUP1 REVERT JUMPDEST POP CALLDATALOAD PUSH2 0x10CB JUMP JUMPDEST STOP JUMPDEST CALLVALUE DUP1 ISZERO PUSH2 0x609 JUMPI PUSH1 0x0 DUP1 REVERT JUMPDEST POP PUSH2 0x5FB PUSH1 0x4 DUP1 CALLDATASIZE SUB PUSH1 0x20 DUP2 LT ISZERO PUSH2 0x620 JUMPI PUSH1 0x0 DUP1 REVERT JUMPDEST POP CALLDATALOAD PUSH2 0x1243 JUMP JUMPDEST CALLVALUE DUP1 ISZERO PUSH2 0x633 JUMPI PUSH1 0x0 DUP1 REVERT JUMPDEST POP PUSH2 0x5FB PUSH2 0x1513 JUMP JUMPDEST CALLVALUE DUP1 ISZERO PUSH2 0x648 JUMPI PUSH1 0x0 DUP1 REVERT JUMPDEST POP PUSH2 0x651 PUSH2 0x15FE JUMP JUMPDEST PUSH1 0x40 DUP1 MLOAD PUSH1 0x20 DUP1 DUP3 MSTORE DUP4 MLOAD DUP2 DUP4 ADD MSTORE DUP4 MLOAD SWAP2 SWAP3 DUP4 SWAP3 SWAP1 DUP4 ADD SWAP2 DUP6 DUP2 ADD SWAP2 MUL DUP1 DUP4 DUP4 PUSH1 0x0 JUMPDEST DUP4 DUP2 LT ISZERO PUSH2 0x68D JUMPI DUP2 DUP2 ADD MLOAD DUP4 DUP3 ADD MSTORE PUSH1 0x20 ADD PUSH2 0x675 JUMP JUMPDEST POP POP POP POP SWAP1 POP ADD SWAP3 POP POP POP PUSH1 0x40 MLOAD DUP1 SWAP2 SUB SWAP1 RETURN JUMPDEST CALLVALUE DUP1 ISZERO PUSH2 0x6AD JUMPI PUSH1 0x0 DUP1 REVERT JUMPDEST POP PUSH2 0x6D4 PUSH1 0x4 DUP1 CALLDATASIZE SUB PUSH1 0x40 DUP2 LT ISZERO PUSH2 0x6C4 JUMPI PUSH1 0x0 DUP1 REVERT JUMPDEST POP DUP1 CALLDATALOAD SWAP1 PUSH1 0x20 ADD CALLDATALOAD PUSH1 0xFF AND PUSH2 0x1661 JUMP JUMPDEST PUSH1 0x40 DUP1 MLOAD PUSH1 0xFF SWAP4 DUP5 AND DUP2 MSTORE SWAP2 SWAP1 SWAP3 AND PUSH1 0x20 DUP3 ADD MSTORE DUP2 MLOAD SWAP1 DUP2 SWAP1 SUB SWAP1 SWAP2 ADD SWAP1 RETURN JUMPDEST CALLVALUE DUP1 ISZERO PUSH2 0x700 JUMPI PUSH1 0x0 DUP1 REVERT JUMPDEST POP PUSH2 0x5FB PUSH1 0x4 DUP1 CALLDATASIZE SUB PUSH1 0x20 DUP2 LT ISZERO PUSH2 0x717 JUMPI PUSH1 0x0 DUP1 REVERT JUMPDEST POP CALLDATALOAD PUSH2 0x16DD JUMP JUMPDEST CALLVALUE DUP1 ISZERO PUSH2 0x72A JUMPI PUSH1 0x0 DUP1 REVERT JUMPDEST POP PUSH2 0x4AF PUSH2 0x1BD7 JUMP JUMPDEST CALLVALUE DUP1 ISZERO PUSH2 0x73F JUMPI PUSH1 0x0 DUP1 REVERT JUMPDEST POP PUSH2 0x4AF PUSH2 0x1BDD JUMP JUMPDEST CALLVALUE DUP1 ISZERO PUSH2 0x754 JUMPI PUSH1 0x0 DUP1 REVERT JUMPDEST POP PUSH2 0x5FB PUSH2 0x1C73 JUMP JUMPDEST CALLVALUE DUP1 ISZERO PUSH2 0x769 JUMPI PUSH1 0x0 DUP1 REVERT JUMPDEST POP PUSH2 0x5FB PUSH1 0x4 DUP1 CALLDATASIZE SUB PUSH1 0x20 DUP2 LT ISZERO PUSH2 0x780 JUMPI PUSH1 0x0 DUP1 REVERT JUMPDEST POP CALLDATALOAD PUSH1 0x1 PUSH1 0x1 PUSH1 0xA0 SHL SUB AND PUSH2 0x1CDA JUMP JUMPDEST CALLVALUE DUP1 ISZERO PUSH2 0x79C JUMPI PUSH1 0x0 DUP1 REVERT JUMPDEST POP PUSH2 0x7BA PUSH1 0x4 DUP1 CALLDATASIZE SUB PUSH1 0x20 DUP2 LT ISZERO PUSH2 0x7B3 JUMPI PUSH1 0x0 DUP1 REVERT JUMPDEST POP CALLDATALOAD PUSH2 0x1DA3 JUMP JUMPDEST PUSH1 0x40 DUP1 MLOAD PUSH1 0x1 PUSH1 0x1 PUSH1 0xA0 SHL SUB SWAP1 SWAP5 AND DUP5 MSTORE PUSH1 0x20 DUP5 ADD SWAP3 SWAP1 SWAP3 MSTORE DUP3 DUP3 ADD MSTORE MLOAD SWAP1 DUP2 SWAP1 SUB PUSH1 0x60 ADD SWAP1 RETURN JUMPDEST CALLVALUE DUP1 ISZERO PUSH2 0x7EE JUMPI PUSH1 0x0 DUP1 REVERT JUMPDEST POP PUSH2 0x5FB PUSH2 0x1DDD JUMP JUMPDEST CALLVALUE DUP1 ISZERO PUSH2 0x803 JUMPI PUSH1 0x0 DUP1 REVERT JUMPDEST POP PUSH2 0x4AF PUSH1 0x4 DUP1 CALLDATASIZE SUB PUSH1 0x20 DUP2 LT ISZERO PUSH2 0x81A JUMPI PUSH1 0x0 DUP1 REVERT JUMPDEST POP CALLDATALOAD PUSH1 0x1 PUSH1 0x1 PUSH1 0xA0 SHL SUB AND PUSH2 0x1E3E JUMP JUMPDEST CALLVALUE DUP1 ISZERO PUSH2 0x836 JUMPI PUSH1 0x0 DUP1 REVERT JUMPDEST POP PUSH2 0x4AF PUSH2 0x1E50 JUMP JUMPDEST CALLVALUE DUP1 ISZERO PUSH2 0x84B JUMPI PUSH1 0x0 DUP1 REVERT JUMPDEST POP PUSH2 0x651 PUSH1 0x4 DUP1 CALLDATASIZE SUB PUSH1 0x20 DUP2 LT ISZERO PUSH2 0x862 JUMPI PUSH1 0x0 DUP1 REVERT JUMPDEST POP CALLDATALOAD PUSH1 0x1 PUSH1 0x1 PUSH1 0xA0 SHL SUB AND PUSH2 0x1E56 JUMP JUMPDEST CALLVALUE DUP1 ISZERO PUSH2 0x87E JUMPI PUSH1 0x0 DUP1 REVERT JUMPDEST POP PUSH2 0x4AF PUSH2 0x1EC2 JUMP JUMPDEST CALLVALUE DUP1 ISZERO PUSH2 0x893 JUMPI PUSH1 0x0 DUP1 REVERT JUMPDEST POP PUSH2 0x4AF PUSH2 0x1EC8 JUMP JUMPDEST CALLVALUE DUP1 ISZERO PUSH2 0x8A8 JUMPI PUSH1 0x0 DUP1 REVERT JUMPDEST POP PUSH2 0x5FB PUSH1 0x4 DUP1 CALLDATASIZE SUB PUSH1 0x20 DUP2 LT ISZERO PUSH2 0x8BF JUMPI PUSH1 0x0 DUP1 REVERT JUMPDEST POP CALLDATALOAD PUSH2 0x1ECE JUMP JUMPDEST CALLVALUE DUP1 ISZERO PUSH2 0x8D2 JUMPI PUSH1 0x0 DUP1 REVERT JUMPDEST POP PUSH2 0x8DB PUSH2 0x2088 JUMP JUMPDEST PUSH1 0x40 DUP1 MLOAD SWAP2 ISZERO ISZERO DUP3 MSTORE MLOAD SWAP1 DUP2 SWAP1 SUB PUSH1 0x20 ADD SWAP1 RETURN JUMPDEST CALLVALUE DUP1 ISZERO PUSH2 0x8FB JUMPI PUSH1 0x0 DUP1 REVERT JUMPDEST POP PUSH2 0x4AF PUSH1 0x4 DUP1 CALLDATASIZE SUB PUSH1 0x20 DUP2 LT ISZERO PUSH2 0x912 JUMPI PUSH1 0x0 DUP1 REVERT JUMPDEST POP CALLDATALOAD PUSH1 0x1 PUSH1 0x1 PUSH1 0xA0 SHL SUB AND PUSH2 0x2091 JUMP JUMPDEST CALLVALUE DUP1 ISZERO PUSH2 0x92E JUMPI PUSH1 0x0 DUP1 REVERT JUMPDEST POP PUSH2 0x937 PUSH2 0x20A3 JUMP JUMPDEST PUSH1 0x40 DUP1 MLOAD PUSH2 0xFFFF SWAP1 SWAP3 AND DUP3 MSTORE MLOAD SWAP1 DUP2 SWAP1 SUB PUSH1 0x20 ADD SWAP1 RETURN JUMPDEST CALLVALUE DUP1 ISZERO PUSH2 0x95A JUMPI PUSH1 0x0 DUP1 REVERT JUMPDEST POP PUSH2 0x5FB PUSH2 0x20AD JUMP JUMPDEST CALLVALUE DUP1 ISZERO PUSH2 0x96F JUMPI PUSH1 0x0 DUP1 REVERT JUMPDEST POP PUSH2 0x5FB PUSH1 0x4 DUP1 CALLDATASIZE SUB PUSH1 0x80 DUP2 LT ISZERO PUSH2 0x986 JUMPI PUSH1 0x0 DUP1 REVERT JUMPDEST POP DUP1 CALLDATALOAD SWAP1 PUSH1 0xFF PUSH1 0x20 DUP3 ADD CALLDATALOAD AND SWAP1 PUSH1 0x40 DUP2 ADD CALLDATALOAD SWAP1 PUSH1 0x60 ADD CALLDATALOAD PUSH2 0x2159 JUMP JUMPDEST CALLVALUE DUP1 ISZERO PUSH2 0x9AE JUMPI PUSH1 0x0 DUP1 REVERT JUMPDEST POP PUSH2 0x4AF PUSH2 0x2549 JUMP JUMPDEST CALLVALUE DUP1 ISZERO PUSH2 0x9C3 JUMPI PUSH1 0x0 DUP1 REVERT JUMPDEST POP PUSH2 0x8DB PUSH2 0x254F JUMP JUMPDEST CALLVALUE DUP1 ISZERO PUSH2 0x9D8 JUMPI PUSH1 0x0 DUP1 REVERT JUMPDEST POP PUSH2 0x5FB PUSH1 0x4 DUP1 CALLDATASIZE SUB PUSH1 0x20 DUP2 LT ISZERO PUSH2 0x9EF JUMPI PUSH1 0x0 DUP1 REVERT JUMPDEST POP CALLDATALOAD PUSH2 0xFFFF AND PUSH2 0x256D JUMP JUMPDEST CALLVALUE DUP1 ISZERO PUSH2 0xA06 JUMPI PUSH1 0x0 DUP1 REVERT JUMPDEST POP PUSH2 0x5FB PUSH1 0x4 DUP1 CALLDATASIZE SUB PUSH1 0x20 DUP2 LT ISZERO PUSH2 0xA1D JUMPI PUSH1 0x0 DUP1 REVERT JUMPDEST POP CALLDATALOAD PUSH2 0x262B JUMP JUMPDEST CALLVALUE DUP1 ISZERO PUSH2 0xA30 JUMPI PUSH1 0x0 DUP1 REVERT JUMPDEST POP PUSH2 0x4AF PUSH2 0x26DA JUMP JUMPDEST CALLVALUE DUP1 ISZERO PUSH2 0xA45 JUMPI PUSH1 0x0 DUP1 REVERT JUMPDEST POP PUSH2 0x4AF PUSH1 0x4 DUP1 CALLDATASIZE SUB PUSH1 0x20 DUP2 LT ISZERO PUSH2 0xA5C JUMPI PUSH1 0x0 DUP1 REVERT JUMPDEST POP CALLDATALOAD PUSH1 0x1 PUSH1 0x1 PUSH1 0xA0 SHL SUB AND PUSH2 0x26E0 JUMP JUMPDEST CALLVALUE DUP1 ISZERO PUSH2 0xA78 JUMPI PUSH1 0x0 DUP1 REVERT JUMPDEST POP PUSH2 0x460 PUSH2 0x26F2 JUMP JUMPDEST CALLVALUE DUP1 ISZERO PUSH2 0xA8D JUMPI PUSH1 0x0 DUP1 REVERT JUMPDEST POP PUSH2 0x5FB PUSH1 0x4 DUP1 CALLDATASIZE SUB PUSH1 0x20 DUP2 LT ISZERO PUSH2 0xAA4 JUMPI PUSH1 0x0 DUP1 REVERT JUMPDEST POP CALLDATALOAD PUSH2 0x2701 JUMP JUMPDEST CALLVALUE DUP1 ISZERO PUSH2 0xAB7 JUMPI PUSH1 0x0 DUP1 REVERT JUMPDEST POP PUSH2 0x5FB PUSH2 0x27A8 JUMP JUMPDEST CALLVALUE DUP1 ISZERO PUSH2 0xACC JUMPI PUSH1 0x0 DUP1 REVERT JUMPDEST POP PUSH2 0x5FB PUSH1 0x4 DUP1 CALLDATASIZE SUB PUSH1 0x40 DUP2 LT ISZERO PUSH2 0xAE3 JUMPI PUSH1 0x0 DUP1 REVERT JUMPDEST POP DUP1 CALLDATALOAD SWAP1 PUSH1 0x20 ADD CALLDATALOAD PUSH1 0xFF AND PUSH2 0x280D JUMP JUMPDEST CALLVALUE DUP1 ISZERO PUSH2 0xAFF JUMPI PUSH1 0x0 DUP1 REVERT JUMPDEST POP PUSH2 0x4AF PUSH2 0x2A52 JUMP JUMPDEST CALLVALUE DUP1 ISZERO PUSH2 0xB14 JUMPI PUSH1 0x0 DUP1 REVERT JUMPDEST POP PUSH2 0x460 PUSH2 0x2A58 JUMP JUMPDEST PUSH2 0x5FB PUSH1 0x4 DUP1 CALLDATASIZE SUB PUSH1 0x60 DUP2 LT ISZERO PUSH2 0xB33 JUMPI PUSH1 0x0 DUP1 REVERT JUMPDEST POP DUP1 CALLDATALOAD SWAP1 PUSH1 0x20 DUP2 ADD CALLDATALOAD PUSH1 0x1 PUSH1 0x1 PUSH1 0xA0 SHL SUB AND SWAP1 PUSH1 0x40 ADD CALLDATALOAD PUSH1 0xFF AND PUSH2 0x2A6C JUMP JUMPDEST CALLVALUE DUP1 ISZERO PUSH2 0xB5E JUMPI PUSH1 0x0 DUP1 REVERT JUMPDEST POP PUSH2 0x4AF PUSH2 0x2EC1 JUMP JUMPDEST CALLVALUE DUP1 ISZERO PUSH2 0xB73 JUMPI PUSH1 0x0 DUP1 REVERT JUMPDEST POP PUSH2 0x4AF PUSH2 0x2EC7 JUMP JUMPDEST PUSH2 0x5FB PUSH1 0x4 DUP1 CALLDATASIZE SUB PUSH1 0x20 DUP2 LT ISZERO PUSH2 0xB92 JUMPI PUSH1 0x0 DUP1 REVERT JUMPDEST POP CALLDATALOAD PUSH2 0x2ECD JUMP JUMPDEST CALLVALUE DUP1 ISZERO PUSH2 0xBA5 JUMPI PUSH1 0x0 DUP1 REVERT JUMPDEST POP PUSH2 0x4AF PUSH2 0x3206 JUMP JUMPDEST PUSH2 0x5FB PUSH1 0x4 DUP1 CALLDATASIZE SUB PUSH1 0x20 DUP2 LT ISZERO PUSH2 0xBC4 JUMPI PUSH1 0x0 DUP1 REVERT JUMPDEST POP CALLDATALOAD PUSH2 0x320C JUMP JUMPDEST CALLVALUE DUP1 ISZERO PUSH2 0xBD7 JUMPI PUSH1 0x0 DUP1 REVERT JUMPDEST POP PUSH2 0x4AF PUSH2 0x3419 JUMP JUMPDEST CALLVALUE DUP1 ISZERO PUSH2 0xBEC JUMPI PUSH1 0x0 DUP1 REVERT JUMPDEST POP PUSH2 0x8DB PUSH1 0x4 DUP1 CALLDATASIZE SUB PUSH1 0x20 DUP2 LT ISZERO PUSH2 0xC03 JUMPI PUSH1 0x0 DUP1 REVERT JUMPDEST POP CALLDATALOAD PUSH2 0x341F JUMP JUMPDEST CALLVALUE DUP1 ISZERO PUSH2 0xC16 JUMPI PUSH1 0x0 DUP1 REVERT JUMPDEST POP PUSH2 0x651 PUSH1 0x4 DUP1 CALLDATASIZE SUB PUSH1 0x20 DUP2 LT ISZERO PUSH2 0xC2D JUMPI PUSH1 0x0 DUP1 REVERT JUMPDEST POP CALLDATALOAD PUSH1 0x1 PUSH1 0x1 PUSH1 0xA0 SHL SUB AND PUSH2 0x3465 JUMP JUMPDEST CALLVALUE DUP1 ISZERO PUSH2 0xC49 JUMPI PUSH1 0x0 DUP1 REVERT JUMPDEST POP PUSH2 0x4AF PUSH1 0x4 DUP1 CALLDATASIZE SUB PUSH1 0x20 DUP2 LT ISZERO PUSH2 0xC60 JUMPI PUSH1 0x0 DUP1 REVERT JUMPDEST POP CALLDATALOAD PUSH1 0x1 PUSH1 0x1 PUSH1 0xA0 SHL SUB AND PUSH2 0x3519 JUMP JUMPDEST CALLVALUE DUP1 ISZERO PUSH2 0xC7C JUMPI PUSH1 0x0 DUP1 REVERT JUMPDEST POP PUSH2 0x8DB PUSH1 0x4 DUP1 CALLDATASIZE SUB PUSH1 0x20 DUP2 LT ISZERO PUSH2 0xC93 JUMPI PUSH1 0x0 DUP1 REVERT JUMPDEST POP CALLDATALOAD PUSH2 0x352A JUMP JUMPDEST CALLVALUE DUP1 ISZERO PUSH2 0xCA6 JUMPI PUSH1 0x0 DUP1 REVERT JUMPDEST POP PUSH2 0xCC4 PUSH1 0x4 DUP1 CALLDATASIZE SUB PUSH1 0x20 DUP2 LT ISZERO PUSH2 0xCBD JUMPI PUSH1 0x0 DUP1 REVERT JUMPDEST POP CALLDATALOAD PUSH2 0x3574 JUMP JUMPDEST PUSH1 0x40 MLOAD DUP1 DUP3 PUSH1 0x60 DUP1 DUP4 DUP4 PUSH1 0x0 JUMPDEST DUP4 DUP2 LT ISZERO PUSH2 0xCE9 JUMPI DUP2 DUP2 ADD MLOAD DUP4 DUP3 ADD MSTORE PUSH1 0x20 ADD PUSH2 0xCD1 JUMP JUMPDEST POP POP POP POP SWAP1 POP ADD SWAP2 POP POP PUSH1 0x40 MLOAD DUP1 SWAP2 SUB SWAP1 RETURN JUMPDEST CALLVALUE DUP1 ISZERO PUSH2 0xD08 JUMPI PUSH1 0x0 DUP1 REVERT JUMPDEST POP PUSH2 0x5FB PUSH2 0x35C2 JUMP JUMPDEST CALLVALUE DUP1 ISZERO PUSH2 0xD1D JUMPI PUSH1 0x0 DUP1 REVERT JUMPDEST POP PUSH2 0x4AF PUSH1 0x4 DUP1 CALLDATASIZE SUB PUSH1 0x40 DUP2 LT ISZERO PUSH2 0xD34 JUMPI PUSH1 0x0 DUP1 REVERT JUMPDEST POP PUSH1 0x1 PUSH1 0x1 PUSH1 0xA0 SHL SUB DUP2 CALLDATALOAD AND SWAP1 PUSH1 0x20 ADD CALLDATALOAD PUSH2 0x36B0 JUMP JUMPDEST CALLVALUE DUP1 ISZERO PUSH2 0xD56 JUMPI PUSH1 0x0 DUP1 REVERT JUMPDEST POP PUSH2 0x4AF PUSH2 0x36DE JUMP JUMPDEST CALLVALUE DUP1 ISZERO PUSH2 0xD6B JUMPI PUSH1 0x0 DUP1 REVERT JUMPDEST POP PUSH2 0x5FB PUSH2 0x36E5 JUMP JUMPDEST PUSH2 0x5FB PUSH1 0x4 DUP1 CALLDATASIZE SUB PUSH1 0x40 DUP2 LT ISZERO PUSH2 0xD8A JUMPI PUSH1 0x0 DUP1 REVERT JUMPDEST POP PUSH1 0x1 PUSH1 0x1 PUSH1 0xA0 SHL SUB DUP2 CALLDATALOAD AND SWAP1 PUSH1 0x20 ADD CALLDATALOAD PUSH2 0x38C6 JUMP JUMPDEST PUSH2 0x5FB PUSH1 0x4 DUP1 CALLDATASIZE SUB PUSH1 0x20 DUP2 LT ISZERO PUSH2 0xDB6 JUMPI PUSH1 0x0 DUP1 REVERT JUMPDEST POP CALLDATALOAD PUSH2 0x3BCD JUMP JUMPDEST CALLVALUE DUP1 ISZERO PUSH2 0xDC9 JUMPI PUSH1 0x0 DUP1 REVERT JUMPDEST POP PUSH2 0x460 PUSH2 0x3D2F JUMP JUMPDEST CALLVALUE DUP1 ISZERO PUSH2 0xDDE JUMPI PUSH1 0x0 DUP1 REVERT JUMPDEST POP PUSH2 0x4AF PUSH1 0x4 DUP1 CALLDATASIZE SUB PUSH1 0x20 DUP2 LT ISZERO PUSH2 0xDF5 JUMPI PUSH1 0x0 DUP1 REVERT JUMPDEST POP CALLDATALOAD PUSH2 0x3D3E JUMP JUMPDEST CALLVALUE DUP1 ISZERO PUSH2 0xE08 JUMPI PUSH1 0x0 DUP1 REVERT JUMPDEST POP PUSH2 0x4AF PUSH2 0x3D52 JUMP JUMPDEST CALLVALUE DUP1 ISZERO PUSH2 0xE1D JUMPI PUSH1 0x0 DUP1 REVERT JUMPDEST POP PUSH2 0x5FB PUSH2 0x3D58 JUMP JUMPDEST CALLVALUE DUP1 ISZERO PUSH2 0xE32 JUMPI PUSH1 0x0 DUP1 REVERT JUMPDEST POP PUSH2 0xE3B PUSH2 0x3E35 JUMP JUMPDEST PUSH1 0x40 MLOAD DUP2 MLOAD DUP2 MSTORE DUP1 DUP3 PUSH1 0xA0 DUP1 DUP4 DUP4 PUSH1 0x20 PUSH2 0xCD1 JUMP JUMPDEST CALLVALUE DUP1 ISZERO PUSH2 0xE5C JUMPI PUSH1 0x0 DUP1 REVERT JUMPDEST POP PUSH2 0x4AF PUSH1 0x4 DUP1 CALLDATASIZE SUB PUSH1 0x20 DUP2 LT ISZERO PUSH2 0xE73 JUMPI PUSH1 0x0 DUP1 REVERT JUMPDEST POP CALLDATALOAD PUSH1 0x1 PUSH1 0x1 PUSH1 0xA0 SHL SUB AND PUSH2 0x3E70 JUMP JUMPDEST CALLVALUE DUP1 ISZERO PUSH2 0xE8F JUMPI PUSH1 0x0 DUP1 REVERT JUMPDEST POP PUSH2 0x4AF PUSH2 0x3E82 JUMP JUMPDEST CALLVALUE DUP1 ISZERO PUSH2 0xEA4 JUMPI PUSH1 0x0 DUP1 REVERT JUMPDEST POP PUSH2 0x4AF PUSH1 0x4 DUP1 CALLDATASIZE SUB PUSH1 0x20 DUP2 LT ISZERO PUSH2 0xEBB JUMPI PUSH1 0x0 DUP1 REVERT JUMPDEST POP CALLDATALOAD PUSH1 0x1 PUSH1 0x1 PUSH1 0xA0 SHL SUB AND PUSH2 0x3E88 JUMP JUMPDEST CALLVALUE DUP1 ISZERO PUSH2 0xED7 JUMPI PUSH1 0x0 DUP1 REVERT JUMPDEST POP PUSH2 0x5FB PUSH2 0x3E9A JUMP JUMPDEST PUSH2 0x5FB PUSH2 0x3F29 JUMP JUMPDEST CALLVALUE DUP1 ISZERO PUSH2 0xEF4 JUMPI PUSH1 0x0 DUP1 REVERT JUMPDEST POP PUSH2 0x8DB PUSH1 0x4 DUP1 CALLDATASIZE SUB PUSH1 0x20 DUP2 LT ISZERO PUSH2 0xF0B JUMPI PUSH1 0x0 DUP1 REVERT JUMPDEST POP CALLDATALOAD PUSH2 0x3F47 JUMP JUMPDEST CALLVALUE DUP1 ISZERO PUSH2 0xF1E JUMPI PUSH1 0x0 DUP1 REVERT JUMPDEST POP PUSH2 0x4AF PUSH1 0x4 DUP1 CALLDATASIZE SUB PUSH1 0x20 DUP2 LT ISZERO PUSH2 0xF35 JUMPI PUSH1 0x0 DUP1 REVERT JUMPDEST POP CALLDATALOAD PUSH1 0x1 PUSH1 0x1 PUSH1 0xA0 SHL SUB AND PUSH2 0x3F5C JUMP JUMPDEST CALLVALUE DUP1 ISZERO PUSH2 0xF51 JUMPI PUSH1 0x0 DUP1 REVERT JUMPDEST POP PUSH2 0x5FB PUSH1 0x4 DUP1 CALLDATASIZE SUB PUSH1 0x20 DUP2 LT ISZERO PUSH2 0xF68 JUMPI PUSH1 0x0 DUP1 REVERT JUMPDEST POP CALLDATALOAD PUSH1 0x1 PUSH1 0x1 PUSH1 0xA0 SHL SUB AND PUSH2 0x3F6E JUMP JUMPDEST CALLVALUE DUP1 ISZERO PUSH2 0xF84 JUMPI PUSH1 0x0 DUP1 REVERT JUMPDEST POP PUSH2 0x4AF PUSH2 0x4076 JUMP JUMPDEST CALLVALUE DUP1 ISZERO PUSH2 0xF99 JUMPI PUSH1 0x0 DUP1 REVERT JUMPDEST POP PUSH2 0x5FB PUSH1 0x4 DUP1 CALLDATASIZE SUB PUSH1 0x20 DUP2 LT ISZERO PUSH2 0xFB0 JUMPI PUSH1 0x0 DUP1 REVERT JUMPDEST POP CALLDATALOAD PUSH2 0x407C JUMP JUMPDEST CALLVALUE DUP1 ISZERO PUSH2 0xFC3 JUMPI PUSH1 0x0 DUP1 REVERT JUMPDEST POP PUSH2 0x4AF PUSH1 0x4 DUP1 CALLDATASIZE SUB PUSH1 0x20 DUP2 LT ISZERO PUSH2 0xFDA JUMPI PUSH1 0x0 DUP1 REVERT JUMPDEST POP CALLDATALOAD PUSH1 0x1 PUSH1 0x1 PUSH1 0xA0 SHL SUB AND PUSH2 0x411F JUMP JUMPDEST PUSH1 0xF DUP2 DUP2 SLOAD DUP2 LT PUSH2 0xFF7 JUMPI INVALID JUMPDEST PUSH1 0x0 SWAP2 DUP3 MSTORE PUSH1 0x20 SWAP1 SWAP2 KECCAK256 ADD SLOAD PUSH1 0x1 PUSH1 0x1 PUSH1 0xA0 SHL SUB AND SWAP1 POP DUP2 JUMP JUMPDEST PUSH1 0x1B PUSH1 0x20 MSTORE PUSH1 0x0 SWAP1 DUP2 MSTORE PUSH1 0x40 SWAP1 KECCAK256 SLOAD DUP2 JUMP JUMPDEST PUSH1 0x0 SWAP1 DUP2 MSTORE PUSH1 0x19 PUSH1 0x20 MSTORE PUSH1 0x40 SWAP1 KECCAK256 DUP1 SLOAD PUSH1 0x1 SWAP1 SWAP2 ADD SLOAD PUSH1 0xFF PUSH2 0x100 SWAP3 DUP4 SWAP1 DIV DUP2 AND SWAP4 DUP3 DUP3 AND SWAP4 SWAP1 SWAP3 DIV AND SWAP1 JUMP JUMPDEST PUSH1 0x19 PUSH1 0x20 MSTORE PUSH1 0x0 SWAP1 DUP2 MSTORE PUSH1 0x40 SWAP1 KECCAK256 DUP1 SLOAD PUSH1 0x2 DUP3 ADD SLOAD PUSH1 0x3 DUP4 ADD SLOAD PUSH1 0x4 DUP5 ADD SLOAD PUSH1 0x5 DUP6 ADD SLOAD PUSH1 0x6 DUP7 ADD SLOAD PUSH1 0xC DUP8 ADD SLOAD PUSH1 0xD DUP9 ADD SLOAD PUSH1 0xE DUP10 ADD SLOAD PUSH1 0xF DUP11 ADD SLOAD PUSH1 0x10 SWAP1 SWAP11 ADD SLOAD PUSH1 0xFF DUP1 DUP12 AND SWAP12 PUSH2 0x100 SWAP1 SWAP12 DIV DUP2 AND SWAP11 SWAP10 AND SWAP9 PUSH1 0x1 PUSH1 0x1 PUSH1 0xA0 SHL SUB SWAP6 DUP7 AND SWAP6 SWAP5 DUP6 AND SWAP5 SWAP4 DUP5 AND SWAP4 SWAP3 DUP4 AND SWAP3 SWAP1 DUP2 AND SWAP2 AND DUP13 JUMP JUMPDEST PUSH1 0x7 SLOAD DUP2 JUMP JUMPDEST PUSH1 0x0 DUP2 DUP2 MSTORE PUSH1 0x19 PUSH1 0x20 MSTORE PUSH1 0x40 SWAP1 KECCAK256 PUSH1 0xC ADD SLOAD DUP2 SWAP1 PUSH1 0x1 PUSH1 0x1 PUSH1 0xA0 SHL SUB AND CALLER EQ PUSH2 0x1129 JUMPI PUSH1 0x40 DUP1 MLOAD PUSH3 0x461BCD PUSH1 0xE5 SHL DUP2 MSTORE PUSH1 0x20 PUSH1 0x4 DUP3 ADD MSTORE PUSH1 0xB PUSH1 0x24 DUP3 ADD MSTORE PUSH11 0x2737BA1031B932B0BA37B9 PUSH1 0xA9 SHL PUSH1 0x44 DUP3 ADD MSTORE SWAP1 MLOAD SWAP1 DUP2 SWAP1 SUB PUSH1 0x64 ADD SWAP1 REVERT JUMPDEST DUP2 PUSH2 0x1133 DUP2 PUSH2 0x3F47 JUMP JUMPDEST ISZERO PUSH2 0x1176 JUMPI PUSH1 0x40 DUP1 MLOAD PUSH3 0x461BCD PUSH1 0xE5 SHL DUP2 MSTORE PUSH1 0x20 PUSH1 0x4 DUP3 ADD MSTORE PUSH1 0xE PUSH1 0x24 DUP3 ADD MSTORE PUSH14 0x11D85B59481A5CC81C185D5CD959 PUSH1 0x92 SHL PUSH1 0x44 DUP3 ADD MSTORE SWAP1 MLOAD SWAP1 DUP2 SWAP1 SUB PUSH1 0x64 ADD SWAP1 REVERT JUMPDEST DUP3 PUSH1 0x0 DUP1 DUP3 DUP2 MSTORE PUSH1 0x19 PUSH1 0x20 MSTORE PUSH1 0x40 SWAP1 KECCAK256 PUSH1 0x2 ADD SLOAD PUSH1 0xFF AND PUSH1 0x5 DUP2 GT ISZERO PUSH2 0x1198 JUMPI INVALID JUMPDEST EQ PUSH2 0x11E2 JUMPI PUSH1 0x40 DUP1 MLOAD PUSH3 0x461BCD PUSH1 0xE5 SHL DUP2 MSTORE PUSH1 0x20 PUSH1 0x4 DUP3 ADD MSTORE PUSH1 0x15 PUSH1 0x24 DUP3 ADD MSTORE PUSH21 0x84F4815D85A5D1A5B99D19BDC93DC1C1BDB995B9D PUSH1 0x5A SHL PUSH1 0x44 DUP3 ADD MSTORE SWAP1 MLOAD SWAP1 DUP2 SWAP1 SUB PUSH1 0x64 ADD SWAP1 REVERT JUMPDEST PUSH1 0x0 DUP5 DUP2 MSTORE PUSH1 0x19 PUSH1 0x20 MSTORE PUSH1 0x40 SWAP1 KECCAK256 DUP1 SLOAD PUSH1 0xFF NOT AND PUSH1 0x1 OR SWAP1 SSTORE PUSH2 0x1204 DUP5 PUSH2 0x341F JUMP JUMPDEST ISZERO PUSH2 0x1212 JUMPI PUSH2 0x1212 DUP5 PUSH2 0x4131 JUMP JUMPDEST PUSH1 0x40 MLOAD DUP5 SWAP1 PUSH32 0xE05D203B1F744B2BA3112CF7CC9724FBC303FCBFCA30C1FDCB8A5498FD97DC35 SWAP1 PUSH1 0x0 SWAP1 LOG2 POP POP POP POP JUMP JUMPDEST PUSH1 0x0 DUP2 DUP2 MSTORE PUSH1 0x19 PUSH1 0x20 MSTORE PUSH1 0x40 SWAP1 KECCAK256 PUSH1 0xC DUP2 ADD SLOAD PUSH1 0x1 PUSH1 0x1 PUSH1 0xA0 SHL SUB AND CALLER EQ DUP1 PUSH2 0x1278 JUMPI POP PUSH1 0xD DUP2 ADD SLOAD PUSH1 0x1 PUSH1 0x1 PUSH1 0xA0 SHL SUB AND CALLER EQ JUMPDEST PUSH2 0x12BD JUMPI PUSH1 0x40 DUP1 MLOAD PUSH3 0x461BCD PUSH1 0xE5 SHL DUP2 MSTORE PUSH1 0x20 PUSH1 0x4 DUP3 ADD MSTORE PUSH1 0x11 PUSH1 0x24 DUP3 ADD MSTORE PUSH17 0x2737BA10309033B0B6B290383630BCB2B9 PUSH1 0x79 SHL PUSH1 0x44 DUP3 ADD MSTORE SWAP1 MLOAD SWAP1 DUP2 SWAP1 SUB PUSH1 0x64 ADD SWAP1 REVERT JUMPDEST PUSH1 0x0 PUSH1 0x2 DUP3 ADD SLOAD PUSH1 0xFF AND PUSH1 0x5 DUP2 GT ISZERO PUSH2 0x12D2 JUMPI INVALID JUMPDEST EQ DUP1 PUSH2 0x12F0 JUMPI POP PUSH1 0x1 PUSH1 0x2 DUP3 ADD SLOAD PUSH1 0xFF AND PUSH1 0x5 DUP2 GT ISZERO PUSH2 0x12EE JUMPI INVALID JUMPDEST EQ JUMPDEST PUSH2 0x1334 JUMPI PUSH1 0x40 DUP1 MLOAD PUSH3 0x461BCD PUSH1 0xE5 SHL DUP2 MSTORE PUSH1 0x20 PUSH1 0x4 DUP3 ADD MSTORE PUSH1 0x10 PUSH1 0x24 DUP3 ADD MSTORE PUSH16 0x57726F6E672067616D65207374617465 PUSH1 0x80 SHL PUSH1 0x44 DUP3 ADD MSTORE SWAP1 MLOAD SWAP1 DUP2 SWAP1 SUB PUSH1 0x64 ADD SWAP1 REVERT JUMPDEST PUSH1 0x0 PUSH1 0x2 DUP3 ADD SLOAD PUSH1 0xFF AND PUSH1 0x5 DUP2 GT ISZERO PUSH2 0x1349 JUMPI INVALID JUMPDEST EQ ISZERO PUSH2 0x1381 JUMPI PUSH1 0x0 PUSH2 0x1359 PUSH2 0x2A58 JUMP JUMPDEST PUSH1 0xE DUP4 ADD DUP1 SLOAD PUSH1 0x1 PUSH1 0x1 PUSH1 0xA0 SHL SUB NOT AND PUSH1 0x1 PUSH1 0x1 PUSH1 0xA0 SHL SUB SWAP3 SWAP1 SWAP3 AND SWAP2 SWAP1 SWAP2 OR SWAP1 SSTORE POP PUSH2 0x13F5 JUMP JUMPDEST PUSH1 0x1 PUSH1 0x2 DUP3 ADD SLOAD PUSH1 0xFF AND PUSH1 0x5 DUP2 GT ISZERO PUSH2 0x1396 JUMPI INVALID JUMPDEST EQ ISZERO PUSH2 0x13F5 JUMPI PUSH1 0xC DUP2 ADD SLOAD PUSH1 0x1 PUSH1 0x1 PUSH1 0xA0 SHL SUB AND CALLER EQ PUSH2 0x13C3 JUMPI PUSH1 0xC DUP2 ADD SLOAD PUSH1 0x1 PUSH1 0x1 PUSH1 0xA0 SHL SUB AND PUSH2 0x13D2 JUMP JUMPDEST PUSH1 0xD DUP2 ADD SLOAD PUSH1 0x1 PUSH1 0x1 PUSH1 0xA0 SHL SUB AND JUMPDEST PUSH1 0xE DUP3 ADD DUP1 SLOAD PUSH1 0x1 PUSH1 0x1 PUSH1 0xA0 SHL SUB NOT AND PUSH1 0x1 PUSH1 0x1 PUSH1 0xA0 SHL SUB SWAP3 SWAP1 SWAP3 AND SWAP2 SWAP1 SWAP2 OR SWAP1 SSTORE JUMPDEST PUSH2 0x13FE DUP3 PUSH2 0x352A JUMP JUMPDEST ISZERO PUSH2 0x1498 JUMPI PUSH1 0xC DUP2 ADD SLOAD PUSH1 0x6 DUP3 ADD SLOAD PUSH1 0x0 SWAP2 PUSH1 0x1 PUSH1 0x1 PUSH1 0xA0 SHL SUB SWAP2 DUP3 AND SWAP2 AND EQ PUSH2 0x1435 JUMPI PUSH1 0xC DUP3 ADD SLOAD PUSH1 0x1 PUSH1 0x1 PUSH1 0xA0 SHL SUB AND PUSH2 0x1444 JUMP JUMPDEST PUSH1 0xD DUP3 ADD SLOAD PUSH1 0x1 PUSH1 0x1 PUSH1 0xA0 SHL SUB AND JUMPDEST SWAP1 POP CALLER PUSH1 0x1 PUSH1 0x1 PUSH1 0xA0 SHL SUB DUP3 AND EQ ISZERO PUSH2 0x1496 JUMPI PUSH1 0x40 DUP1 MLOAD PUSH3 0x461BCD PUSH1 0xE5 SHL DUP2 MSTORE PUSH1 0x20 PUSH1 0x4 DUP3 ADD MSTORE PUSH1 0xF PUSH1 0x24 DUP3 ADD MSTORE PUSH15 0x10DB185A5B4B081B9BDD081C5D5A5D PUSH1 0x8A SHL PUSH1 0x44 DUP3 ADD MSTORE SWAP1 MLOAD SWAP1 DUP2 SWAP1 SUB PUSH1 0x64 ADD SWAP1 REVERT JUMPDEST POP JUMPDEST PUSH1 0x2 DUP2 ADD DUP1 SLOAD PUSH1 0xFF NOT AND PUSH1 0x4 OR SWAP1 SSTORE PUSH2 0x14B0 DUP3 PUSH2 0x341F JUMP JUMPDEST ISZERO PUSH2 0x14BE JUMPI PUSH2 0x14BE DUP3 PUSH2 0x4131 JUMP JUMPDEST PUSH2 0x14C7 DUP2 PUSH2 0x4210 JUMP JUMPDEST PUSH1 0xD DUP2 ADD SLOAD PUSH1 0xC DUP3 ADD SLOAD PUSH1 0x3 DUP4 ADD SLOAD PUSH1 0x40 MLOAD PUSH1 0x1 PUSH1 0x1 PUSH1 0xA0 SHL SUB SWAP4 DUP5 AND SWAP4 SWAP1 SWAP3 AND SWAP2 PUSH32 0xBB663DEDD46761762B0E54CCDA01DD39C41AAA4BDA1C4A01300475BBFDF7E138 SWAP1 PUSH1 0x0 SWAP1 LOG4 POP POP JUMP JUMPDEST CALLER PUSH1 0x0 SWAP1 DUP2 MSTORE PUSH1 0x20 DUP1 MSTORE PUSH1 0x40 SWAP1 KECCAK256 SLOAD DUP1 PUSH2 0x1566 JUMPI PUSH1 0x40 DUP1 MLOAD PUSH3 0x461BCD PUSH1 0xE5 SHL DUP2 MSTORE PUSH1 0x20 PUSH1 0x4 DUP3 ADD MSTORE PUSH1 0xF PUSH1 0x24 DUP3 ADD MSTORE PUSH15 0x4E6F20726566657272616C20666565 PUSH1 0x88 SHL PUSH1 0x44 DUP3 ADD MSTORE SWAP1 MLOAD SWAP1 DUP2 SWAP1 SUB PUSH1 0x64 ADD SWAP1 REVERT JUMPDEST CALLER PUSH1 0x0 SWAP1 DUP2 MSTORE PUSH1 0x20 DUP1 DUP1 MSTORE PUSH1 0x40 DUP1 DUP4 KECCAK256 DUP4 SWAP1 SSTORE PUSH1 0x21 SWAP1 SWAP2 MSTORE SWAP1 KECCAK256 SLOAD PUSH2 0x1591 SWAP1 DUP3 PUSH4 0xFFFFFFFF PUSH2 0x44B5 AND JUMP JUMPDEST CALLER PUSH1 0x0 DUP2 DUP2 MSTORE PUSH1 0x21 PUSH1 0x20 MSTORE PUSH1 0x40 DUP1 DUP3 KECCAK256 SWAP4 SWAP1 SWAP4 SSTORE SWAP2 MLOAD SWAP1 SWAP2 DUP4 ISZERO PUSH2 0x8FC MUL SWAP2 DUP5 SWAP2 DUP2 DUP2 DUP2 DUP6 DUP9 DUP9 CALL SWAP4 POP POP POP POP ISZERO DUP1 ISZERO PUSH2 0x15CF JUMPI RETURNDATASIZE PUSH1 0x0 DUP1 RETURNDATACOPY RETURNDATASIZE PUSH1 0x0 REVERT JUMPDEST POP PUSH1 0x40 MLOAD CALLER SWAP1 PUSH32 0xAF3062C46366E85D91DB7F7495492B8216BC40C609348A6D8B6FC3992410F589 SWAP1 PUSH1 0x0 SWAP1 LOG2 POP JUMP JUMPDEST PUSH1 0x60 PUSH1 0xF DUP1 SLOAD DUP1 PUSH1 0x20 MUL PUSH1 0x20 ADD PUSH1 0x40 MLOAD SWAP1 DUP2 ADD PUSH1 0x40 MSTORE DUP1 SWAP3 SWAP2 SWAP1 DUP2 DUP2 MSTORE PUSH1 0x20 ADD DUP3 DUP1 SLOAD DUP1 ISZERO PUSH2 0x1656 JUMPI PUSH1 0x20 MUL DUP3 ADD SWAP2 SWAP1 PUSH1 0x0 MSTORE PUSH1 0x20 PUSH1 0x0 KECCAK256 SWAP1 JUMPDEST DUP2 SLOAD PUSH1 0x1 PUSH1 0x1 PUSH1 0xA0 SHL SUB AND DUP2 MSTORE PUSH1 0x1 SWAP1 SWAP2 ADD SWAP1 PUSH1 0x20 ADD DUP1 DUP4 GT PUSH2 0x1638 JUMPI JUMPDEST POP POP POP POP POP SWAP1 POP JUMPDEST SWAP1 JUMP JUMPDEST PUSH1 0x0 DUP3 DUP2 MSTORE PUSH1 0x19 PUSH1 0x20 MSTORE PUSH1 0x40 DUP2 KECCAK256 DUP2 SWAP1 PUSH1 0x7 ADD PUSH1 0xFF DUP5 AND PUSH1 0x3 DUP2 LT PUSH2 0x1682 JUMPI INVALID JUMPDEST PUSH1 0x20 SWAP2 DUP3 DUP3 DIV ADD SWAP2 SWAP1 MOD SWAP1 SLOAD SWAP1 PUSH2 0x100 EXP SWAP1 DIV PUSH1 0xFF AND PUSH1 0x19 PUSH1 0x0 DUP7 DUP2 MSTORE PUSH1 0x20 ADD SWAP1 DUP2 MSTORE PUSH1 0x20 ADD PUSH1 0x0 KECCAK256 PUSH1 0x8 ADD DUP5 PUSH1 0xFF AND PUSH1 0x3 DUP2 LT PUSH2 0x16BC JUMPI INVALID JUMPDEST PUSH1 0x20 DUP2 DIV SWAP1 SWAP2 ADD SLOAD SWAP2 SWAP7 PUSH1 0xFF PUSH1 0x1F SWAP1 SWAP3 AND PUSH2 0x100 EXP SWAP1 SWAP3 DIV AND SWAP5 POP SWAP3 POP POP POP JUMP JUMPDEST PUSH1 0x0 DUP2 GT PUSH2 0x1722 JUMPI PUSH1 0x40 DUP1 MLOAD PUSH3 0x461BCD PUSH1 0xE5 SHL DUP2 MSTORE PUSH1 0x20 PUSH1 0x4 DUP3 ADD MSTORE PUSH1 0xD PUSH1 0x24 DUP3 ADD MSTORE PUSH13 0x5F6D61784C6F6F70203D3D203 PUSH1 0x9C SHL PUSH1 0x44 DUP3 ADD MSTORE SWAP1 MLOAD SWAP1 DUP2 SWAP1 SUB PUSH1 0x64 ADD SWAP1 REVERT JUMPDEST CALLER PUSH1 0x0 SWAP1 DUP2 MSTORE PUSH1 0x1D PUSH1 0x20 MSTORE PUSH1 0x40 SWAP1 KECCAK256 DUP1 SLOAD PUSH2 0x1771 JUMPI PUSH1 0x40 DUP1 MLOAD PUSH3 0x461BCD PUSH1 0xE5 SHL DUP2 MSTORE PUSH1 0x20 PUSH1 0x4 DUP3 ADD MSTORE PUSH1 0xA PUSH1 0x24 DUP3 ADD MSTORE PUSH10 0x6E6F2070656E64696E67 PUSH1 0xB0 SHL PUSH1 0x44 DUP3 ADD MSTORE SWAP1 MLOAD SWAP1 DUP2 SWAP1 SUB PUSH1 0x64 ADD SWAP1 REVERT JUMPDEST DUP1 SLOAD DUP3 GT ISZERO PUSH2 0x17BA JUMPI PUSH1 0x40 DUP1 MLOAD PUSH3 0x461BCD PUSH1 0xE5 SHL DUP2 MSTORE PUSH1 0x20 PUSH1 0x4 DUP3 ADD MSTORE PUSH1 0x10 PUSH1 0x24 DUP3 ADD MSTORE PUSH16 0x5F6D61784C6F6F7020746F6F20626967 PUSH1 0x80 SHL PUSH1 0x44 DUP3 ADD MSTORE SWAP1 MLOAD SWAP1 DUP2 SWAP1 SUB PUSH1 0x64 ADD SWAP1 REVERT JUMPDEST PUSH1 0x0 DUP1 DUP1 JUMPDEST DUP5 DUP2 LT ISZERO PUSH2 0x1A9E JUMPI DUP4 SLOAD PUSH1 0x0 SWAP1 DUP6 SWAP1 PUSH2 0x17DF SWAP1 PUSH1 0x1 PUSH4 0xFFFFFFFF PUSH2 0x4518 AND JUMP JUMPDEST DUP2 SLOAD DUP2 LT PUSH2 0x17E9 JUMPI INVALID JUMPDEST PUSH1 0x0 SWAP2 DUP3 MSTORE PUSH1 0x20 DUP1 DUP4 KECCAK256 SWAP1 SWAP2 ADD SLOAD DUP1 DUP4 MSTORE PUSH1 0x19 SWAP1 SWAP2 MSTORE PUSH1 0x40 SWAP1 SWAP2 KECCAK256 SWAP1 SWAP2 POP PUSH1 0x3 PUSH1 0x2 DUP3 ADD SLOAD PUSH1 0xFF AND PUSH1 0x5 DUP2 GT ISZERO PUSH2 0x181C JUMPI INVALID JUMPDEST EQ ISZERO PUSH2 0x1937 JUMPI PUSH1 0x4 DUP2 ADD SLOAD PUSH2 0x1838 SWAP1 DUP6 SWAP1 PUSH4 0xFFFFFFFF PUSH2 0x44B5 AND JUMP JUMPDEST PUSH1 0xC DUP3 ADD SLOAD SWAP1 SWAP5 POP PUSH1 0x1 PUSH1 0x1 PUSH1 0xA0 SHL SUB AND CALLER EQ ISZERO PUSH2 0x18B5 JUMPI PUSH1 0x1 DUP2 ADD SLOAD PUSH1 0xFF AND ISZERO PUSH2 0x18A0 JUMPI PUSH1 0x40 DUP1 MLOAD PUSH3 0x461BCD PUSH1 0xE5 SHL DUP2 MSTORE PUSH1 0x20 PUSH1 0x4 DUP3 ADD MSTORE PUSH1 0x13 PUSH1 0x24 DUP3 ADD MSTORE PUSH19 0x466174616C2C20637220776974682064726177 PUSH1 0x68 SHL PUSH1 0x44 DUP3 ADD MSTORE SWAP1 MLOAD SWAP1 DUP2 SWAP1 SUB PUSH1 0x64 ADD SWAP1 REVERT JUMPDEST PUSH1 0x1 DUP2 DUP2 ADD DUP1 SLOAD PUSH1 0xFF NOT AND SWAP1 SWAP2 OR SWAP1 SSTORE PUSH2 0x1932 JUMP JUMPDEST PUSH1 0xD DUP2 ADD SLOAD PUSH1 0x1 PUSH1 0x1 PUSH1 0xA0 SHL SUB AND CALLER EQ ISZERO PUSH2 0x1932 JUMPI PUSH1 0x1 DUP2 ADD SLOAD PUSH2 0x100 SWAP1 DIV PUSH1 0xFF AND ISZERO PUSH2 0x1920 JUMPI PUSH1 0x40 DUP1 MLOAD PUSH3 0x461BCD PUSH1 0xE5 SHL DUP2 MSTORE PUSH1 0x20 PUSH1 0x4 DUP3 ADD MSTORE PUSH1 0x14 PUSH1 0x24 DUP3 ADD MSTORE PUSH20 0x466174616C2C206F707020776974682064726177 PUSH1 0x60 SHL PUSH1 0x44 DUP3 ADD MSTORE SWAP1 MLOAD SWAP1 DUP2 SWAP1 SUB PUSH1 0x64 ADD SWAP1 REVERT JUMPDEST PUSH1 0x1 DUP2 ADD DUP1 SLOAD PUSH2 0xFF00 NOT AND PUSH2 0x100 OR SWAP1 SSTORE JUMPDEST PUSH2 0x1A72 JUMP JUMPDEST DUP1 SLOAD PUSH2 0x100 SWAP1 DIV PUSH1 0xFF AND ISZERO PUSH2 0x198A JUMPI PUSH1 0x40 DUP1 MLOAD PUSH3 0x461BCD PUSH1 0xE5 SHL DUP2 MSTORE PUSH1 0x20 PUSH1 0x4 DUP3 ADD MSTORE PUSH1 0x14 PUSH1 0x24 DUP3 ADD MSTORE PUSH20 0x8CC2E8C2D858E0E4D2F4CA40EEC2E640EED2E8D PUSH1 0x63 SHL PUSH1 0x44 DUP3 ADD MSTORE SWAP1 MLOAD SWAP1 DUP2 SWAP1 SUB PUSH1 0x64 ADD SWAP1 REVERT JUMPDEST DUP1 SLOAD PUSH2 0xFF00 NOT AND PUSH2 0x100 OR DUP2 SSTORE PUSH1 0x4 DUP2 ADD SLOAD PUSH2 0x19AD SWAP1 DUP7 SWAP1 PUSH4 0xFFFFFFFF PUSH2 0x44B5 AND JUMP JUMPDEST PUSH1 0xC DUP3 ADD SLOAD SWAP1 SWAP6 POP PUSH1 0x0 SWAP1 PUSH1 0x1 PUSH1 0x1 PUSH1 0xA0 SHL SUB AND CALLER EQ PUSH2 0x19DA JUMPI PUSH1 0x10 DUP3 ADD SLOAD PUSH1 0x1 PUSH1 0x1 PUSH1 0xA0 SHL SUB AND PUSH2 0x19E9 JUMP JUMPDEST PUSH1 0xF DUP3 ADD SLOAD PUSH1 0x1 PUSH1 0x1 PUSH1 0xA0 SHL SUB AND JUMPDEST SWAP1 POP PUSH1 0x0 PUSH2 0x1A16 PUSH1 0x64 PUSH2 0x1A0A PUSH1 0x1 DUP7 PUSH1 0x4 ADD SLOAD PUSH2 0x455A SWAP1 SWAP2 SWAP1 PUSH4 0xFFFFFFFF AND JUMP JUMPDEST SWAP1 PUSH4 0xFFFFFFFF PUSH2 0x45B3 AND JUMP JUMPDEST PUSH1 0x1 PUSH1 0x1 PUSH1 0xA0 SHL SUB DUP4 AND PUSH1 0x0 SWAP1 DUP2 MSTORE PUSH1 0x20 DUP1 MSTORE PUSH1 0x40 SWAP1 KECCAK256 SLOAD SWAP1 SWAP2 POP PUSH2 0x1A41 SWAP1 DUP3 PUSH4 0xFFFFFFFF PUSH2 0x44B5 AND JUMP JUMPDEST PUSH1 0x1 PUSH1 0x1 PUSH1 0xA0 SHL SUB DUP4 AND PUSH1 0x0 SWAP1 DUP2 MSTORE PUSH1 0x20 DUP1 MSTORE PUSH1 0x40 SWAP1 KECCAK256 SSTORE PUSH1 0x23 SLOAD PUSH2 0x1A6C SWAP1 DUP3 PUSH4 0xFFFFFFFF PUSH2 0x44B5 AND JUMP JUMPDEST PUSH1 0x23 SSTORE POP POP JUMPDEST DUP6 DUP1 SLOAD DUP1 PUSH2 0x1A7C JUMPI INVALID JUMPDEST PUSH1 0x0 DUP3 DUP2 MSTORE PUSH1 0x20 DUP2 KECCAK256 DUP3 ADD PUSH1 0x0 NOT SWAP1 DUP2 ADD SWAP2 SWAP1 SWAP2 SSTORE ADD SWAP1 SSTORE POP POP PUSH1 0x1 ADD PUSH2 0x17BF JUMP JUMPDEST POP CALLER PUSH1 0x0 SWAP1 DUP2 MSTORE PUSH1 0x1F PUSH1 0x20 MSTORE PUSH1 0x40 SWAP1 KECCAK256 SLOAD PUSH2 0x1ABF SWAP1 DUP4 PUSH4 0xFFFFFFFF PUSH2 0x44B5 AND JUMP JUMPDEST CALLER PUSH1 0x0 SWAP1 DUP2 MSTORE PUSH1 0x1F PUSH1 0x20 MSTORE PUSH1 0x40 DUP2 KECCAK256 SWAP2 SWAP1 SWAP2 SSTORE PUSH2 0x1AE8 PUSH1 0x64 PUSH2 0x1A0A DUP6 PUSH1 0x1 PUSH4 0xFFFFFFFF PUSH2 0x455A AND JUMP JUMPDEST PUSH1 0x3 SLOAD SWAP1 SWAP2 POP PUSH2 0x1AFE SWAP1 DUP3 PUSH4 0xFFFFFFFF PUSH2 0x44B5 AND JUMP JUMPDEST PUSH1 0x3 SSTORE PUSH1 0xC SLOAD PUSH2 0x1B14 SWAP1 DUP3 PUSH4 0xFFFFFFFF PUSH2 0x44B5 AND JUMP JUMPDEST PUSH1 0xC SSTORE PUSH1 0x22 SLOAD PUSH2 0x1B2A SWAP1 DUP3 PUSH4 0xFFFFFFFF PUSH2 0x44B5 AND JUMP JUMPDEST PUSH1 0x22 SSTORE PUSH2 0x1B36 DUP2 PUSH2 0x45F5 JUMP JUMPDEST PUSH1 0x0 PUSH2 0x1B6B DUP5 PUSH2 0x1B5F DUP6 DUP2 PUSH2 0x1B52 DUP8 PUSH1 0x5 PUSH4 0xFFFFFFFF PUSH2 0x455A AND JUMP JUMPDEST DUP10 SWAP1 PUSH4 0xFFFFFFFF PUSH2 0x4518 AND JUMP JUMPDEST SWAP1 PUSH4 0xFFFFFFFF PUSH2 0x44B5 AND JUMP JUMPDEST PUSH1 0x40 MLOAD SWAP1 SWAP2 POP CALLER SWAP1 DUP3 ISZERO PUSH2 0x8FC MUL SWAP1 DUP4 SWAP1 PUSH1 0x0 DUP2 DUP2 DUP2 DUP6 DUP9 DUP9 CALL SWAP4 POP POP POP POP ISZERO DUP1 ISZERO PUSH2 0x1B9B JUMPI RETURNDATASIZE PUSH1 0x0 DUP1 RETURNDATACOPY RETURNDATASIZE PUSH1 0x0 REVERT JUMPDEST POP PUSH2 0x1BA4 PUSH2 0x4646 JUMP JUMPDEST PUSH1 0x40 MLOAD CALLER SWAP1 PUSH32 0x49DADFB9C0997E442B5C7378B159DFDAB6C9261478186A18465F051014E761D6 SWAP1 PUSH1 0x0 SWAP1 LOG2 POP POP POP POP POP POP JUMP JUMPDEST PUSH1 0xE SLOAD DUP2 JUMP JUMPDEST PUSH1 0xF SLOAD PUSH1 0x0 SWAP1 PUSH2 0x1C26 JUMPI PUSH1 0x40 DUP1 MLOAD PUSH3 0x461BCD PUSH1 0xE5 SHL DUP2 MSTORE PUSH1 0x20 PUSH1 0x4 DUP3 ADD MSTORE PUSH1 0xF PUSH1 0x24 DUP3 ADD MSTORE PUSH15 0x4E6F207061727469636970616E7473 PUSH1 0x88 SHL PUSH1 0x44 DUP3 ADD MSTORE SWAP1 MLOAD SWAP1 DUP2 SWAP1 SUB PUSH1 0x64 ADD SWAP1 REVERT JUMPDEST PUSH1 0xF SLOAD PUSH1 0xC SLOAD PUSH1 0x40 DUP1 MLOAD TIMESTAMP PUSH1 0x20 DUP1 DUP4 ADD SWAP2 SWAP1 SWAP2 MSTORE DIFFICULTY DUP3 DUP5 ADD MSTORE PUSH1 0x60 DUP3 ADD SWAP4 SWAP1 SWAP4 MSTORE PUSH1 0x80 DUP1 DUP3 ADD DUP6 SWAP1 MSTORE DUP3 MLOAD DUP1 DUP4 SUB SWAP1 SWAP2 ADD DUP2 MSTORE PUSH1 0xA0 SWAP1 SWAP2 ADD SWAP1 SWAP2 MSTORE DUP1 MLOAD SWAP2 ADD KECCAK256 DUP2 PUSH2 0x1C6D JUMPI INVALID JUMPDEST MOD SWAP1 POP SWAP1 JUMP JUMPDEST PUSH2 0x1C7B PUSH2 0x46F1 JUMP JUMPDEST PUSH1 0x0 SLOAD PUSH2 0x100 SWAP1 DIV PUSH1 0x1 PUSH1 0x1 PUSH1 0xA0 SHL SUB SWAP1 DUP2 AND SWAP2 AND EQ PUSH2 0x1CD0 JUMPI PUSH1 0x40 DUP1 MLOAD PUSH3 0x461BCD PUSH1 0xE5 SHL DUP2 MSTORE PUSH1 0x20 PUSH1 0x4 DUP3 ADD DUP2 SWAP1 MSTORE PUSH1 0x24 DUP3 ADD MSTORE PUSH1 0x0 DUP1 MLOAD PUSH1 0x20 PUSH2 0x4EFA DUP4 CODECOPY DUP2 MLOAD SWAP2 MSTORE PUSH1 0x44 DUP3 ADD MSTORE SWAP1 MLOAD SWAP1 DUP2 SWAP1 SUB PUSH1 0x64 ADD SWAP1 REVERT JUMPDEST PUSH2 0x1CD8 PUSH2 0x46F5 JUMP JUMPDEST JUMP JUMPDEST PUSH2 0x1CE2 PUSH2 0x46F1 JUMP JUMPDEST PUSH1 0x0 SLOAD PUSH2 0x100 SWAP1 DIV PUSH1 0x1 PUSH1 0x1 PUSH1 0xA0 SHL SUB SWAP1 DUP2 AND SWAP2 AND EQ PUSH2 0x1D37 JUMPI PUSH1 0x40 DUP1 MLOAD PUSH3 0x461BCD PUSH1 0xE5 SHL DUP2 MSTORE PUSH1 0x20 PUSH1 0x4 DUP3 ADD DUP2 SWAP1 MSTORE PUSH1 0x24 DUP3 ADD MSTORE PUSH1 0x0 DUP1 MLOAD PUSH1 0x20 PUSH2 0x4EFA DUP4 CODECOPY DUP2 MLOAD SWAP2 MSTORE PUSH1 0x44 DUP3 ADD MSTORE SWAP1 MLOAD SWAP1 DUP2 SWAP1 SUB PUSH1 0x64 ADD SWAP1 REVERT JUMPDEST PUSH1 0x1 PUSH1 0x1 PUSH1 0xA0 SHL SUB DUP2 AND PUSH2 0x1D81 JUMPI PUSH1 0x40 DUP1 MLOAD PUSH3 0x461BCD PUSH1 0xE5 SHL DUP2 MSTORE PUSH1 0x20 PUSH1 0x4 DUP3 ADD MSTORE PUSH1 0xC PUSH1 0x24 DUP3 ADD MSTORE PUSH12 0x43616E6E742062652030783 PUSH1 0xA4 SHL PUSH1 0x44 DUP3 ADD MSTORE SWAP1 MLOAD SWAP1 DUP2 SWAP1 SUB PUSH1 0x64 ADD SWAP1 REVERT JUMPDEST PUSH1 0x1 DUP1 SLOAD PUSH1 0x1 PUSH1 0x1 PUSH1 0xA0 SHL SUB NOT AND PUSH1 0x1 PUSH1 0x1 PUSH1 0xA0 SHL SUB SWAP3 SWAP1 SWAP3 AND SWAP2 SWAP1 SWAP2 OR SWAP1 SSTORE JUMP JUMPDEST PUSH1 0x10 DUP2 DUP2 SLOAD DUP2 LT PUSH2 0x1DB0 JUMPI INVALID JUMPDEST PUSH1 0x0 SWAP2 DUP3 MSTORE PUSH1 0x20 SWAP1 SWAP2 KECCAK256 PUSH1 0x3 SWAP1 SWAP2 MUL ADD DUP1 SLOAD PUSH1 0x1 DUP3 ADD SLOAD PUSH1 0x2 SWAP1 SWAP3 ADD SLOAD PUSH1 0x1 PUSH1 0x1 PUSH1 0xA0 SHL SUB SWAP1 SWAP2 AND SWAP3 POP DUP4 JUMP JUMPDEST PUSH2 0x1DE5 PUSH2 0x46F1 JUMP JUMPDEST PUSH1 0x0 SLOAD PUSH2 0x100 SWAP1 DIV PUSH1 0x1 PUSH1 0x1 PUSH1 0xA0 SHL SUB SWAP1 DUP2 AND SWAP2 AND EQ PUSH2 0x1E3A JUMPI PUSH1 0x40 DUP1 MLOAD PUSH3 0x461BCD PUSH1 0xE5 SHL DUP2 MSTORE PUSH1 0x20 PUSH1 0x4 DUP3 ADD DUP2 SWAP1 MSTORE PUSH1 0x24 DUP3 ADD MSTORE PUSH1 0x0 DUP1 MLOAD PUSH1 0x20 PUSH2 0x4EFA DUP4 CODECOPY DUP2 MLOAD SWAP2 MSTORE PUSH1 0x44 DUP3 ADD MSTORE SWAP1 MLOAD SWAP1 DUP2 SWAP1 SUB PUSH1 0x64 ADD SWAP1 REVERT JUMPDEST CALLER DUP1 SELFDESTRUCT JUMPDEST PUSH1 0x8 PUSH1 0x20 MSTORE PUSH1 0x0 SWAP1 DUP2 MSTORE PUSH1 0x40 SWAP1 KECCAK256 SLOAD DUP2 JUMP JUMPDEST PUSH1 0x10 SLOAD SWAP1 JUMP JUMPDEST PUSH1 0x1 PUSH1 0x1 PUSH1 0xA0 SHL SUB DUP2 AND PUSH1 0x0 SWAP1 DUP2 MSTORE PUSH1 0x1D PUSH1 0x20 SWAP1 DUP2 MSTORE PUSH1 0x40 SWAP2 DUP3 SWAP1 KECCAK256 DUP1 SLOAD DUP4 MLOAD DUP2 DUP5 MUL DUP2 ADD DUP5 ADD SWAP1 SWAP5 MSTORE DUP1 DUP5 MSTORE PUSH1 0x60 SWAP4 SWAP3 DUP4 ADD DUP3 DUP3 DUP1 ISZERO PUSH2 0x1EB6 JUMPI PUSH1 0x20 MUL DUP3 ADD SWAP2 SWAP1 PUSH1 0x0 MSTORE PUSH1 0x20 PUSH1 0x0 KECCAK256 SWAP1 JUMPDEST DUP2 SLOAD DUP2 MSTORE PUSH1 0x20 ADD SWAP1 PUSH1 0x1 ADD SWAP1 DUP1 DUP4 GT PUSH2 0x1EA2 JUMPI JUMPDEST POP POP POP POP POP SWAP1 POP SWAP2 SWAP1 POP JUMP JUMPDEST PUSH1 0x4 SLOAD DUP2 JUMP JUMPDEST PUSH1 0xC SLOAD DUP2 JUMP JUMPDEST PUSH1 0x0 DUP2 DUP2 MSTORE PUSH1 0x19 PUSH1 0x20 MSTORE PUSH1 0x40 SWAP1 KECCAK256 PUSH1 0x1 PUSH1 0x2 DUP3 ADD SLOAD PUSH1 0xFF AND PUSH1 0x5 DUP2 GT ISZERO PUSH2 0x1EF1 JUMPI INVALID JUMPDEST EQ PUSH2 0x1F31 JUMPI PUSH1 0x40 DUP1 MLOAD PUSH3 0x461BCD PUSH1 0xE5 SHL DUP2 MSTORE PUSH1 0x20 PUSH1 0x4 DUP3 ADD MSTORE PUSH1 0xB PUSH1 0x24 DUP3 ADD MSTORE PUSH11 0x57726F6E67207374617465 PUSH1 0xA8 SHL PUSH1 0x44 DUP3 ADD MSTORE SWAP1 MLOAD SWAP1 DUP2 SWAP1 SUB PUSH1 0x64 ADD SWAP1 REVERT JUMPDEST PUSH2 0x1F3A DUP3 PUSH2 0x352A JUMP JUMPDEST PUSH2 0x1F7D JUMPI PUSH1 0x40 DUP1 MLOAD PUSH3 0x461BCD PUSH1 0xE5 SHL DUP2 MSTORE PUSH1 0x20 PUSH1 0x4 DUP3 ADD MSTORE PUSH1 0xF PUSH1 0x24 DUP3 ADD MSTORE PUSH15 0x139BDD081E595D08195E1C1A5C9959 PUSH1 0x8A SHL PUSH1 0x44 DUP3 ADD MSTORE SWAP1 MLOAD SWAP1 DUP2 SWAP1 SUB PUSH1 0x64 ADD SWAP1 REVERT JUMPDEST PUSH1 0xC DUP2 ADD SLOAD PUSH1 0x6 DUP3 ADD SLOAD PUSH1 0x0 SWAP2 PUSH1 0x1 PUSH1 0x1 PUSH1 0xA0 SHL SUB SWAP2 DUP3 AND SWAP2 AND EQ PUSH2 0x1FAF JUMPI PUSH1 0xC DUP3 ADD SLOAD PUSH1 0x1 PUSH1 0x1 PUSH1 0xA0 SHL SUB AND PUSH2 0x1FBE JUMP JUMPDEST PUSH1 0xD DUP3 ADD SLOAD PUSH1 0x1 PUSH1 0x1 PUSH1 0xA0 SHL SUB AND JUMPDEST SWAP1 POP CALLER PUSH1 0x1 PUSH1 0x1 PUSH1 0xA0 SHL SUB DUP3 AND EQ PUSH2 0x200D JUMPI PUSH1 0x40 DUP1 MLOAD PUSH3 0x461BCD PUSH1 0xE5 SHL DUP2 MSTORE PUSH1 0x20 PUSH1 0x4 DUP3 ADD MSTORE PUSH1 0xD PUSH1 0x24 DUP3 ADD MSTORE PUSH13 0x2BB937B7339031B630B4B6B2B9 PUSH1 0x99 SHL PUSH1 0x44 DUP3 ADD MSTORE SWAP1 MLOAD SWAP1 DUP2 SWAP1 SUB PUSH1 0x64 ADD SWAP1 REVERT JUMPDEST PUSH1 0xE DUP3 ADD DUP1 SLOAD CALLER PUSH1 0x1 PUSH1 0x1 PUSH1 0xA0 SHL SUB NOT SWAP1 SWAP2 AND OR SWAP1 SSTORE PUSH1 0x2 DUP3 ADD DUP1 SLOAD PUSH1 0xFF NOT AND PUSH1 0x5 OR SWAP1 SSTORE PUSH2 0x203B DUP3 PUSH2 0x4210 JUMP JUMPDEST PUSH1 0xD DUP3 ADD SLOAD PUSH1 0xC DUP4 ADD SLOAD PUSH1 0x3 DUP5 ADD SLOAD PUSH1 0x40 MLOAD PUSH1 0x1 PUSH1 0x1 PUSH1 0xA0 SHL SUB SWAP4 DUP5 AND SWAP4 SWAP1 SWAP3 AND SWAP2 PUSH32 0x8B023D36169C1DAB146E45EF2B43D49654EA34B2B627411C86A9CB759F2DA5A5 SWAP1 PUSH1 0x0 SWAP1 LOG4 POP POP POP JUMP JUMPDEST PUSH1 0x0 SLOAD PUSH1 0xFF AND SWAP1 JUMP JUMPDEST PUSH1 0x1E PUSH1 0x20 MSTORE PUSH1 0x0 SWAP1 DUP2 MSTORE PUSH1 0x40 SWAP1 KECCAK256 SLOAD DUP2 JUMP JUMPDEST PUSH1 0x9 SLOAD PUSH2 0xFFFF AND DUP2 JUMP JUMPDEST PUSH2 0x20B5 PUSH2 0x46F1 JUMP JUMPDEST PUSH1 0x0 SLOAD PUSH2 0x100 SWAP1 DIV PUSH1 0x1 PUSH1 0x1 PUSH1 0xA0 SHL SUB SWAP1 DUP2 AND SWAP2 AND EQ PUSH2 0x210A JUMPI PUSH1 0x40 DUP1 MLOAD PUSH3 0x461BCD PUSH1 0xE5 SHL DUP2 MSTORE PUSH1 0x20 PUSH1 0x4 DUP3 ADD DUP2 SWAP1 MSTORE PUSH1 0x24 DUP3 ADD MSTORE PUSH1 0x0 DUP1 MLOAD PUSH1 0x20 PUSH2 0x4EFA DUP4 CODECOPY DUP2 MLOAD SWAP2 MSTORE PUSH1 0x44 DUP3 ADD MSTORE SWAP1 MLOAD SWAP1 DUP2 SWAP1 SUB PUSH1 0x64 ADD SWAP1 REVERT JUMPDEST PUSH1 0x0 DUP1 SLOAD PUSH1 0x40 MLOAD PUSH2 0x100 SWAP1 SWAP2 DIV PUSH1 0x1 PUSH1 0x1 PUSH1 0xA0 SHL SUB AND SWAP1 PUSH32 0x8BE0079C531659141344CD1FD0A4F28419497F9722A3DAAFE3B4186F6B6457E0 SWAP1 DUP4 SWAP1 LOG3 PUSH1 0x0 DUP1 SLOAD PUSH2 0x100 PUSH1 0x1 PUSH1 0xA8 SHL SUB NOT AND SWAP1 SSTORE JUMP JUMPDEST PUSH1 0x0 SLOAD PUSH1 0xFF AND ISZERO PUSH2 0x21A4 JUMPI PUSH1 0x40 DUP1 MLOAD PUSH3 0x461BCD PUSH1 0xE5 SHL DUP2 MSTORE PUSH1 0x20 PUSH1 0x4 DUP3 ADD MSTORE PUSH1 0x10 PUSH1 0x24 DUP3 ADD MSTORE PUSH16 0x14185D5CD8589B194E881C185D5CD959 PUSH1 0x82 SHL PUSH1 0x44 DUP3 ADD MSTORE SWAP1 MLOAD SWAP1 DUP2 SWAP1 SUB PUSH1 0x64 ADD SWAP1 REVERT JUMPDEST PUSH1 0x0 DUP5 DUP2 MSTORE PUSH1 0x19 PUSH1 0x20 MSTORE PUSH1 0x40 SWAP1 KECCAK256 PUSH1 0xC ADD SLOAD DUP5 SWAP1 PUSH1 0x1 PUSH1 0x1 PUSH1 0xA0 SHL SUB AND CALLER EQ PUSH2 0x2202 JUMPI PUSH1 0x40 DUP1 MLOAD PUSH3 0x461BCD PUSH1 0xE5 SHL DUP2 MSTORE PUSH1 0x20 PUSH1 0x4 DUP3 ADD MSTORE PUSH1 0xB PUSH1 0x24 DUP3 ADD MSTORE PUSH11 0x2737BA1031B932B0BA37B9 PUSH1 0xA9 SHL PUSH1 0x44 DUP3 ADD MSTORE SWAP1 MLOAD SWAP1 DUP2 SWAP1 SUB PUSH1 0x64 ADD SWAP1 REVERT JUMPDEST PUSH1 0x0 DUP6 DUP2 MSTORE PUSH1 0x19 PUSH1 0x20 MSTORE PUSH1 0x40 SWAP1 KECCAK256 PUSH1 0x6 ADD SLOAD DUP6 SWAP1 PUSH1 0x1 PUSH1 0x1 PUSH1 0xA0 SHL SUB AND CALLER EQ PUSH2 0x2263 JUMPI PUSH1 0x40 DUP1 MLOAD PUSH3 0x461BCD PUSH1 0xE5 SHL DUP2 MSTORE PUSH1 0x20 PUSH1 0x4 DUP3 ADD MSTORE PUSH1 0xE PUSH1 0x24 DUP3 ADD MSTORE PUSH14 0x2737BA103732BC3A1036B7BB32B9 PUSH1 0x91 SHL PUSH1 0x44 DUP3 ADD MSTORE SWAP1 MLOAD SWAP1 DUP2 SWAP1 SUB PUSH1 0x64 ADD SWAP1 REVERT JUMPDEST DUP6 PUSH2 0x226D DUP2 PUSH2 0x352A JUMP JUMPDEST ISZERO PUSH2 0x22AE JUMPI PUSH1 0x40 DUP1 MLOAD PUSH3 0x461BCD PUSH1 0xE5 SHL DUP2 MSTORE PUSH1 0x20 PUSH1 0x4 DUP3 ADD MSTORE PUSH1 0xC PUSH1 0x24 DUP3 ADD MSTORE PUSH12 0x135BDD9948195E1C1A5C9959 PUSH1 0xA2 SHL PUSH1 0x44 DUP3 ADD MSTORE SWAP1 MLOAD SWAP1 DUP2 SWAP1 SUB PUSH1 0x64 ADD SWAP1 REVERT JUMPDEST PUSH1 0x0 DUP8 DUP2 MSTORE PUSH1 0x19 PUSH1 0x20 MSTORE PUSH1 0x40 DUP2 KECCAK256 SWAP1 DUP1 JUMPDEST PUSH1 0x3 DUP2 PUSH1 0xFF AND LT ISZERO PUSH2 0x2307 JUMPI DUP3 PUSH1 0x7 ADD DUP2 PUSH1 0xFF AND PUSH1 0x3 DUP2 LT PUSH2 0x22DD JUMPI INVALID JUMPDEST PUSH1 0x20 DUP2 DIV SWAP1 SWAP2 ADD SLOAD PUSH1 0xFF PUSH1 0x1F SWAP1 SWAP3 AND PUSH2 0x100 EXP SWAP1 DIV AND PUSH2 0x22FF JUMPI DUP1 SWAP2 POP PUSH2 0x2307 JUMP JUMPDEST PUSH1 0x1 ADD PUSH2 0x22BF JUMP JUMPDEST POP DUP2 PUSH1 0x9 ADD DUP2 PUSH1 0xFF AND PUSH1 0x3 DUP2 LT PUSH2 0x231A JUMPI INVALID JUMPDEST ADD SLOAD DUP9 PUSH1 0xFF AND DUP9 PUSH1 0x40 MLOAD PUSH1 0x20 ADD DUP1 DUP4 DUP2 MSTORE PUSH1 0x20 ADD DUP3 DUP2 MSTORE PUSH1 0x20 ADD SWAP3 POP POP POP PUSH1 0x40 MLOAD PUSH1 0x20 DUP2 DUP4 SUB SUB DUP2 MSTORE SWAP1 PUSH1 0x40 MSTORE DUP1 MLOAD SWAP1 PUSH1 0x20 ADD KECCAK256 EQ PUSH2 0x2393 JUMPI PUSH1 0x40 DUP1 MLOAD PUSH3 0x461BCD PUSH1 0xE5 SHL DUP2 MSTORE PUSH1 0x20 PUSH1 0x4 DUP3 ADD MSTORE PUSH1 0x10 PUSH1 0x24 DUP3 ADD MSTORE PUSH16 0x57726F6E6720686173682076616C7565 PUSH1 0x80 SHL PUSH1 0x44 DUP3 ADD MSTORE SWAP1 MLOAD SWAP1 DUP2 SWAP1 SUB PUSH1 0x64 ADD SWAP1 REVERT JUMPDEST DUP8 DUP3 PUSH1 0x7 ADD DUP3 PUSH1 0xFF AND PUSH1 0x3 DUP2 LT PUSH2 0x23A6 JUMPI INVALID JUMPDEST PUSH1 0x20 SWAP2 DUP3 DUP3 DIV ADD SWAP2 SWAP1 MOD PUSH2 0x100 EXP DUP2 SLOAD DUP2 PUSH1 0xFF MUL NOT AND SWAP1 DUP4 PUSH1 0xFF AND MUL OR SWAP1 SSTORE POP PUSH1 0x2 DUP2 PUSH1 0xFF AND LT ISZERO PUSH2 0x2497 JUMPI DUP6 PUSH1 0x0 BYTE PUSH1 0xF8 SHL PUSH1 0x1 PUSH1 0x1 PUSH1 0xF8 SHL SUB NOT AND PUSH2 0x2421 JUMPI PUSH1 0x40 DUP1 MLOAD PUSH3 0x461BCD PUSH1 0xE5 SHL DUP2 MSTORE PUSH1 0x20 PUSH1 0x4 DUP3 ADD MSTORE PUSH1 0xA PUSH1 0x24 DUP3 ADD MSTORE PUSH10 0x8ADAE0E8F240D0C2E6D PUSH1 0xB3 SHL PUSH1 0x44 DUP3 ADD MSTORE SWAP1 MLOAD SWAP1 DUP2 SWAP1 SUB PUSH1 0x64 ADD SWAP1 REVERT JUMPDEST DUP6 DUP3 PUSH1 0x9 ADD DUP3 PUSH1 0x1 ADD PUSH1 0xFF AND PUSH1 0x3 DUP2 LT PUSH2 0x2437 JUMPI INVALID JUMPDEST ADD SSTORE PUSH1 0xD DUP3 ADD SLOAD PUSH1 0x6 DUP4 ADD DUP1 SLOAD PUSH1 0x1 PUSH1 0x1 PUSH1 0xA0 SHL SUB NOT AND PUSH1 0x1 PUSH1 0x1 PUSH1 0xA0 SHL SUB SWAP1 SWAP3 AND SWAP2 SWAP1 SWAP2 OR SWAP1 SSTORE TIMESTAMP PUSH1 0x5 DUP4 ADD SSTORE PUSH1 0x40 MLOAD DUP10 SWAP1 PUSH32 0xF50D17E73CF4E73941359B5EC4A170090373F19A1799067B78C212416ACC7772 SWAP1 PUSH1 0x0 SWAP1 LOG2 POP POP PUSH2 0x2540 JUMP JUMPDEST PUSH2 0x24A0 DUP10 PUSH2 0x4793 JUMP JUMPDEST PUSH1 0xE DUP4 ADD DUP1 SLOAD PUSH1 0x1 PUSH1 0x1 PUSH1 0xA0 SHL SUB NOT AND PUSH1 0x1 PUSH1 0x1 PUSH1 0xA0 SHL SUB SWAP3 DUP4 AND OR SWAP1 DUP2 SWAP1 SSTORE AND PUSH2 0x24CC JUMPI PUSH1 0x3 PUSH2 0x24CF JUMP JUMPDEST PUSH1 0x2 JUMPDEST PUSH1 0x2 DUP4 ADD DUP1 SLOAD PUSH1 0xFF NOT AND PUSH1 0x1 DUP4 PUSH1 0x5 DUP2 GT ISZERO PUSH2 0x24E7 JUMPI INVALID JUMPDEST MUL OR SWAP1 SSTORE POP PUSH2 0x24F5 DUP3 PUSH2 0x4210 JUMP JUMPDEST PUSH1 0xD DUP3 ADD SLOAD PUSH1 0xC DUP4 ADD SLOAD PUSH1 0x3 DUP5 ADD SLOAD PUSH1 0x40 MLOAD PUSH1 0x1 PUSH1 0x1 PUSH1 0xA0 SHL SUB SWAP4 DUP5 AND SWAP4 SWAP1 SWAP3 AND SWAP2 PUSH32 0x857DC2544260B99930E5FB628B1606D38FF80FFE794F0FA80922E462AF8E3B80 SWAP1 PUSH1 0x0 SWAP1 LOG4 POP POP JUMPDEST POP POP POP POP POP POP POP JUMP JUMPDEST PUSH1 0x24 SLOAD DUP2 JUMP JUMPDEST PUSH1 0xE SLOAD PUSH1 0xF SLOAD PUSH1 0x0 SWAP2 GT DUP1 ISZERO SWAP1 PUSH2 0x2568 JUMPI POP PUSH1 0x0 PUSH1 0xC SLOAD GT JUMPDEST SWAP1 POP SWAP1 JUMP JUMPDEST PUSH2 0x2575 PUSH2 0x46F1 JUMP JUMPDEST PUSH1 0x0 SLOAD PUSH2 0x100 SWAP1 DIV PUSH1 0x1 PUSH1 0x1 PUSH1 0xA0 SHL SUB SWAP1 DUP2 AND SWAP2 AND EQ PUSH2 0x25CA JUMPI PUSH1 0x40 DUP1 MLOAD PUSH3 0x461BCD PUSH1 0xE5 SHL DUP2 MSTORE PUSH1 0x20 PUSH1 0x4 DUP3 ADD DUP2 SWAP1 MSTORE PUSH1 0x24 DUP3 ADD MSTORE PUSH1 0x0 DUP1 MLOAD PUSH1 0x20 PUSH2 0x4EFA DUP4 CODECOPY DUP2 MLOAD SWAP2 MSTORE PUSH1 0x44 DUP3 ADD MSTORE SWAP1 MLOAD SWAP1 DUP2 SWAP1 SUB PUSH1 0x64 ADD SWAP1 REVERT JUMPDEST PUSH1 0x0 DUP2 PUSH2 0xFFFF AND GT PUSH2 0x2613 JUMPI PUSH1 0x40 DUP1 MLOAD PUSH3 0x461BCD PUSH1 0xE5 SHL DUP2 MSTORE PUSH1 0x20 PUSH1 0x4 DUP3 ADD MSTORE PUSH1 0xD PUSH1 0x24 DUP3 ADD MSTORE PUSH13 0x53686F756C64206265203E203 PUSH1 0x9C SHL PUSH1 0x44 DUP3 ADD MSTORE SWAP1 MLOAD SWAP1 DUP2 SWAP1 SUB PUSH1 0x64 ADD SWAP1 REVERT JUMPDEST PUSH1 0x9 DUP1 SLOAD PUSH2 0xFFFF NOT AND PUSH2 0xFFFF SWAP3 SWAP1 SWAP3 AND SWAP2 SWAP1 SWAP2 OR SWAP1 SSTORE JUMP JUMPDEST PUSH2 0x2633 PUSH2 0x46F1 JUMP JUMPDEST PUSH1 0x0 SLOAD PUSH2 0x100 SWAP1 DIV PUSH1 0x1 PUSH1 0x1 PUSH1 0xA0 SHL SUB SWAP1 DUP2 AND SWAP2 AND EQ PUSH2 0x2688 JUMPI PUSH1 0x40 DUP1 MLOAD PUSH3 0x461BCD PUSH1 0xE5 SHL DUP2 MSTORE PUSH1 0x20 PUSH1 0x4 DUP3 ADD DUP2 SWAP1 MSTORE PUSH1 0x24 DUP3 ADD MSTORE PUSH1 0x0 DUP1 MLOAD PUSH1 0x20 PUSH2 0x4EFA DUP4 CODECOPY DUP2 MLOAD SWAP2 MSTORE PUSH1 0x44 DUP3 ADD MSTORE SWAP1 MLOAD SWAP1 DUP2 SWAP1 SUB PUSH1 0x64 ADD SWAP1 REVERT JUMPDEST PUSH1 0x0 DUP2 GT PUSH2 0x26D5 JUMPI PUSH1 0x40 DUP1 MLOAD PUSH3 0x461BCD PUSH1 0xE5 SHL DUP2 MSTORE PUSH1 0x20 PUSH1 0x4 DUP3 ADD MSTORE PUSH1 0x15 PUSH1 0x24 DUP3 ADD MSTORE PUSH21 0x7468726573686F6C64206D757374206265203E203 PUSH1 0x5C SHL PUSH1 0x44 DUP3 ADD MSTORE SWAP1 MLOAD SWAP1 DUP2 SWAP1 SUB PUSH1 0x64 ADD SWAP1 REVERT JUMPDEST PUSH1 0x2 SSTORE JUMP JUMPDEST PUSH1 0x23 SLOAD DUP2 JUMP JUMPDEST PUSH1 0xA PUSH1 0x20 MSTORE PUSH1 0x0 SWAP1 DUP2 MSTORE PUSH1 0x40 SWAP1 KECCAK256 SLOAD DUP2 JUMP JUMPDEST PUSH1 0x6 SLOAD PUSH1 0x1 PUSH1 0x1 PUSH1 0xA0 SHL SUB AND DUP2 JUMP JUMPDEST PUSH2 0x2709 PUSH2 0x46F1 JUMP JUMPDEST PUSH1 0x0 SLOAD PUSH2 0x100 SWAP1 DIV PUSH1 0x1 PUSH1 0x1 PUSH1 0xA0 SHL SUB SWAP1 DUP2 AND SWAP2 AND EQ PUSH2 0x275E JUMPI PUSH1 0x40 DUP1 MLOAD PUSH3 0x461BCD PUSH1 0xE5 SHL DUP2 MSTORE PUSH1 0x20 PUSH1 0x4 DUP3 ADD DUP2 SWAP1 MSTORE PUSH1 0x24 DUP3 ADD MSTORE PUSH1 0x0 DUP1 MLOAD PUSH1 0x20 PUSH2 0x4EFA DUP4 CODECOPY DUP2 MLOAD SWAP2 MSTORE PUSH1 0x44 DUP3 ADD MSTORE SWAP1 MLOAD SWAP1 DUP2 SWAP1 SUB PUSH1 0x64 ADD SWAP1 REVERT JUMPDEST PUSH1 0x0 DUP2 GT PUSH2 0x27A3 JUMPI PUSH1 0x40 DUP1 MLOAD PUSH3 0x461BCD PUSH1 0xE5 SHL DUP2 MSTORE PUSH1 0x20 PUSH1 0x4 DUP3 ADD MSTORE PUSH1 0xD PUSH1 0x24 DUP3 ADD MSTORE PUSH13 0x53686F756C64206265203E203 PUSH1 0x9C SHL PUSH1 0x44 DUP3 ADD MSTORE SWAP1 MLOAD SWAP1 DUP2 SWAP1 SUB PUSH1 0x64 ADD SWAP1 REVERT JUMPDEST PUSH1 0xE SSTORE JUMP JUMPDEST PUSH2 0x27B0 PUSH2 0x46F1 JUMP JUMPDEST PUSH1 0x0 SLOAD PUSH2 0x100 SWAP1 DIV PUSH1 0x1 PUSH1 0x1 PUSH1 0xA0 SHL SUB SWAP1 DUP2 AND SWAP2 AND EQ PUSH2 0x2805 JUMPI PUSH1 0x40 DUP1 MLOAD PUSH3 0x461BCD PUSH1 0xE5 SHL DUP2 MSTORE PUSH1 0x20 PUSH1 0x4 DUP3 ADD DUP2 SWAP1 MSTORE PUSH1 0x24 DUP3 ADD MSTORE PUSH1 0x0 DUP1 MLOAD PUSH1 0x20 PUSH2 0x4EFA DUP4 CODECOPY DUP2 MLOAD SWAP2 MSTORE PUSH1 0x44 DUP3 ADD MSTORE SWAP1 MLOAD SWAP1 DUP2 SWAP1 SUB PUSH1 0x64 ADD SWAP1 REVERT JUMPDEST PUSH2 0x1CD8 PUSH2 0x4AEF JUMP JUMPDEST PUSH1 0x0 SLOAD PUSH1 0xFF AND ISZERO PUSH2 0x2858 JUMPI PUSH1 0x40 DUP1 MLOAD PUSH3 0x461BCD PUSH1 0xE5 SHL DUP2 MSTORE PUSH1 0x20 PUSH1 0x4 DUP3 ADD MSTORE PUSH1 0x10 PUSH1 0x24 DUP3 ADD MSTORE PUSH16 0x14185D5CD8589B194E881C185D5CD959 PUSH1 0x82 SHL PUSH1 0x44 DUP3 ADD MSTORE SWAP1 MLOAD SWAP1 DUP2 SWAP1 SUB PUSH1 0x64 ADD SWAP1 REVERT JUMPDEST PUSH1 0x0 DUP3 DUP2 MSTORE PUSH1 0x19 PUSH1 0x20 MSTORE PUSH1 0x40 SWAP1 KECCAK256 PUSH1 0x6 ADD SLOAD DUP3 SWAP1 PUSH1 0x1 PUSH1 0x1 PUSH1 0xA0 SHL SUB AND CALLER EQ PUSH2 0x28B9 JUMPI PUSH1 0x40 DUP1 MLOAD PUSH3 0x461BCD PUSH1 0xE5 SHL DUP2 MSTORE PUSH1 0x20 PUSH1 0x4 DUP3 ADD MSTORE PUSH1 0xE PUSH1 0x24 DUP3 ADD MSTORE PUSH14 0x2737BA103732BC3A1036B7BB32B9 PUSH1 0x91 SHL PUSH1 0x44 DUP3 ADD MSTORE SWAP1 MLOAD SWAP1 DUP2 SWAP1 SUB PUSH1 0x64 ADD SWAP1 REVERT JUMPDEST DUP3 PUSH2 0x28C3 DUP2 PUSH2 0x352A JUMP JUMPDEST ISZERO PUSH2 0x2904 JUMPI PUSH1 0x40 DUP1 MLOAD PUSH3 0x461BCD PUSH1 0xE5 SHL DUP2 MSTORE PUSH1 0x20 PUSH1 0x4 DUP3 ADD MSTORE PUSH1 0xC PUSH1 0x24 DUP3 ADD MSTORE PUSH12 0x135BDD9948195E1C1A5C9959 PUSH1 0xA2 SHL PUSH1 0x44 DUP3 ADD MSTORE SWAP1 MLOAD SWAP1 DUP2 SWAP1 SUB PUSH1 0x64 ADD SWAP1 REVERT JUMPDEST DUP3 PUSH1 0x0 DUP2 PUSH1 0xFF AND GT DUP1 ISZERO PUSH2 0x291B JUMPI POP PUSH1 0x4 DUP2 PUSH1 0xFF AND LT JUMPDEST PUSH2 0x295D JUMPI PUSH1 0x40 DUP1 MLOAD PUSH3 0x461BCD PUSH1 0xE5 SHL DUP2 MSTORE PUSH1 0x20 PUSH1 0x4 DUP3 ADD MSTORE PUSH1 0xE PUSH1 0x24 DUP3 ADD MSTORE PUSH14 0xAEE4DEDCCE40DADEECCA40D2C8F PUSH1 0x93 SHL PUSH1 0x44 DUP3 ADD MSTORE SWAP1 MLOAD SWAP1 DUP2 SWAP1 SUB PUSH1 0x64 ADD SWAP1 REVERT JUMPDEST PUSH1 0x0 DUP6 DUP2 MSTORE PUSH1 0x19 PUSH1 0x20 MSTORE PUSH1 0x40 DUP2 KECCAK256 SWAP1 DUP1 JUMPDEST PUSH1 0x3 DUP2 PUSH1 0xFF AND LT ISZERO PUSH2 0x29B6 JUMPI DUP3 PUSH1 0x8 ADD DUP2 PUSH1 0xFF AND PUSH1 0x3 DUP2 LT PUSH2 0x298C JUMPI INVALID JUMPDEST PUSH1 0x20 DUP2 DIV SWAP1 SWAP2 ADD SLOAD PUSH1 0xFF PUSH1 0x1F SWAP1 SWAP3 AND PUSH2 0x100 EXP SWAP1 DIV AND PUSH2 0x29AE JUMPI DUP1 SWAP2 POP PUSH2 0x29B6 JUMP JUMPDEST PUSH1 0x1 ADD PUSH2 0x296E JUMP JUMPDEST POP DUP6 DUP3 PUSH1 0x8 ADD DUP3 PUSH1 0xFF AND PUSH1 0x3 DUP2 LT PUSH2 0x29CA JUMPI INVALID JUMPDEST PUSH1 0x20 DUP2 DIV SWAP1 SWAP2 ADD DUP1 SLOAD PUSH1 0xFF SWAP4 DUP5 AND PUSH1 0x1F SWAP1 SWAP4 AND PUSH2 0x100 EXP SWAP3 DUP4 MUL SWAP4 SWAP1 SWAP3 MUL NOT SWAP1 SWAP2 AND SWAP2 SWAP1 SWAP2 OR SWAP1 SSTORE PUSH1 0xC DUP3 ADD SLOAD PUSH1 0x6 DUP4 ADD DUP1 SLOAD PUSH1 0x1 PUSH1 0x1 PUSH1 0xA0 SHL SUB NOT AND PUSH1 0x1 PUSH1 0x1 PUSH1 0xA0 SHL SUB SWAP1 SWAP3 AND SWAP2 SWAP1 SWAP2 OR SWAP1 SSTORE TIMESTAMP PUSH1 0x5 DUP4 ADD SSTORE PUSH1 0x40 MLOAD DUP8 SWAP1 PUSH32 0xA3145D54CE461478262E98DB7DB814906E9D7D8E86B6EDD4E7DCD1454ECB9611 SWAP1 PUSH1 0x0 SWAP1 LOG2 POP POP POP POP POP POP POP JUMP JUMPDEST PUSH1 0x22 SLOAD DUP2 JUMP JUMPDEST PUSH1 0x0 SLOAD PUSH2 0x100 SWAP1 DIV PUSH1 0x1 PUSH1 0x1 PUSH1 0xA0 SHL SUB AND SWAP1 JUMP JUMPDEST PUSH1 0x0 SLOAD PUSH1 0xFF AND ISZERO PUSH2 0x2AB7 JUMPI PUSH1 0x40 DUP1 MLOAD PUSH3 0x461BCD PUSH1 0xE5 SHL DUP2 MSTORE PUSH1 0x20 PUSH1 0x4 DUP3 ADD MSTORE PUSH1 0x10 PUSH1 0x24 DUP3 ADD MSTORE PUSH16 0x14185D5CD8589B194E881C185D5CD959 PUSH1 0x82 SHL PUSH1 0x44 DUP3 ADD MSTORE SWAP1 MLOAD SWAP1 DUP2 SWAP1 SUB PUSH1 0x64 ADD SWAP1 REVERT JUMPDEST CALLER PUSH1 0x0 SWAP1 DUP2 MSTORE PUSH1 0x1B PUSH1 0x20 MSTORE PUSH1 0x40 SWAP1 KECCAK256 SLOAD ISZERO PUSH2 0x2B0F JUMPI PUSH1 0x40 DUP1 MLOAD PUSH3 0x461BCD PUSH1 0xE5 SHL DUP2 MSTORE PUSH1 0x20 PUSH1 0x4 DUP3 ADD MSTORE PUSH1 0x13 PUSH1 0x24 DUP3 ADD MSTORE PUSH19 0x4E6F206D6F7265206F70706F6E656E74696E67 PUSH1 0x68 SHL PUSH1 0x44 DUP3 ADD MSTORE SWAP1 MLOAD SWAP1 DUP2 SWAP1 SUB PUSH1 0x64 ADD SWAP1 REVERT JUMPDEST PUSH1 0x0 DUP4 DUP2 MSTORE PUSH1 0x19 PUSH1 0x20 MSTORE PUSH1 0x40 SWAP1 KECCAK256 PUSH1 0xC ADD SLOAD DUP4 SWAP1 PUSH1 0x1 PUSH1 0x1 PUSH1 0xA0 SHL SUB AND CALLER EQ ISZERO PUSH2 0x2B6F JUMPI PUSH1 0x40 DUP1 MLOAD PUSH3 0x461BCD PUSH1 0xE5 SHL DUP2 MSTORE PUSH1 0x20 PUSH1 0x4 DUP3 ADD MSTORE PUSH1 0xC PUSH1 0x24 DUP3 ADD MSTORE PUSH12 0x23B0B6B29031B932B0BA37B9 PUSH1 0xA1 SHL PUSH1 0x44 DUP3 ADD MSTORE SWAP1 MLOAD SWAP1 DUP2 SWAP1 SUB PUSH1 0x64 ADD SWAP1 REVERT JUMPDEST DUP4 PUSH2 0x2B79 DUP2 PUSH2 0x3F47 JUMP JUMPDEST ISZERO PUSH2 0x2BBC JUMPI PUSH1 0x40 DUP1 MLOAD PUSH3 0x461BCD PUSH1 0xE5 SHL DUP2 MSTORE PUSH1 0x20 PUSH1 0x4 DUP3 ADD MSTORE PUSH1 0xE PUSH1 0x24 DUP3 ADD MSTORE PUSH14 0x11D85B59481A5CC81C185D5CD959 PUSH1 0x92 SHL PUSH1 0x44 DUP3 ADD MSTORE SWAP1 MLOAD SWAP1 DUP2 SWAP1 SUB PUSH1 0x64 ADD SWAP1 REVERT JUMPDEST DUP5 PUSH1 0x0 DUP1 DUP3 DUP2 MSTORE PUSH1 0x19 PUSH1 0x20 MSTORE PUSH1 0x40 SWAP1 KECCAK256 PUSH1 0x2 ADD SLOAD PUSH1 0xFF AND PUSH1 0x5 DUP2 GT ISZERO PUSH2 0x2BDE JUMPI INVALID JUMPDEST EQ PUSH2 0x2C28 JUMPI PUSH1 0x40 DUP1 MLOAD PUSH3 0x461BCD PUSH1 0xE5 SHL DUP2 MSTORE PUSH1 0x20 PUSH1 0x4 DUP3 ADD MSTORE PUSH1 0x15 PUSH1 0x24 DUP3 ADD MSTORE PUSH21 0x84F4815D85A5D1A5B99D19BDC93DC1C1BDB995B9D PUSH1 0x5A SHL PUSH1 0x44 DUP3 ADD MSTORE SWAP1 MLOAD SWAP1 DUP2 SWAP1 SUB PUSH1 0x64 ADD SWAP1 REVERT JUMPDEST DUP5 PUSH1 0x1 PUSH1 0x1 PUSH1 0xA0 SHL SUB DUP2 AND CALLER EQ ISZERO PUSH2 0x2C78 JUMPI PUSH1 0x40 DUP1 MLOAD PUSH3 0x461BCD PUSH1 0xE5 SHL DUP2 MSTORE PUSH1 0x20 PUSH1 0x4 DUP3 ADD MSTORE PUSH1 0xE PUSH1 0x24 DUP3 ADD MSTORE PUSH14 0x15DC9BDB99C81C9959995C9C985B PUSH1 0x92 SHL PUSH1 0x44 DUP3 ADD MSTORE SWAP1 MLOAD SWAP1 DUP2 SWAP1 SUB PUSH1 0x64 ADD SWAP1 REVERT JUMPDEST DUP5 PUSH1 0x0 DUP2 PUSH1 0xFF AND GT DUP1 ISZERO PUSH2 0x2C8F JUMPI POP PUSH1 0x4 DUP2 PUSH1 0xFF AND LT JUMPDEST PUSH2 0x2CD1 JUMPI PUSH1 0x40 DUP1 MLOAD PUSH3 0x461BCD PUSH1 0xE5 SHL DUP2 MSTORE PUSH1 0x20 PUSH1 0x4 DUP3 ADD MSTORE PUSH1 0xE PUSH1 0x24 DUP3 ADD MSTORE PUSH14 0xAEE4DEDCCE40DADEECCA40D2C8F PUSH1 0x93 SHL PUSH1 0x44 DUP3 ADD MSTORE SWAP1 MLOAD SWAP1 DUP2 SWAP1 SUB PUSH1 0x64 ADD SWAP1 REVERT JUMPDEST PUSH1 0x0 DUP9 DUP2 MSTORE PUSH1 0x19 PUSH1 0x20 MSTORE PUSH1 0x40 SWAP1 KECCAK256 PUSH1 0x4 DUP2 ADD SLOAD CALLVALUE EQ PUSH2 0x2D23 JUMPI PUSH1 0x40 DUP1 MLOAD PUSH3 0x461BCD PUSH1 0xE5 SHL DUP2 MSTORE PUSH1 0x20 PUSH1 0x4 DUP3 ADD MSTORE PUSH1 0x9 PUSH1 0x24 DUP3 ADD MSTORE PUSH9 0x15DC9BDB99C818995D PUSH1 0xBA SHL PUSH1 0x44 DUP3 ADD MSTORE SWAP1 MLOAD SWAP1 DUP2 SWAP1 SUB PUSH1 0x64 ADD SWAP1 REVERT JUMPDEST PUSH1 0x1 PUSH1 0x1 PUSH1 0xA0 SHL SUB DUP9 AND ISZERO PUSH2 0x2D62 JUMPI PUSH1 0x0 DUP10 DUP2 MSTORE PUSH1 0x19 PUSH1 0x20 MSTORE PUSH1 0x40 SWAP1 KECCAK256 PUSH1 0x10 ADD DUP1 SLOAD PUSH1 0x1 PUSH1 0x1 PUSH1 0xA0 SHL SUB NOT AND PUSH1 0x1 PUSH1 0x1 PUSH1 0xA0 SHL SUB DUP11 AND OR SWAP1 SSTORE DUP8 PUSH2 0x2D95 JUMP JUMPDEST PUSH2 0x2D6A PUSH2 0x2A58 JUMP JUMPDEST PUSH1 0x0 DUP11 DUP2 MSTORE PUSH1 0x19 PUSH1 0x20 MSTORE PUSH1 0x40 SWAP1 KECCAK256 PUSH1 0x10 ADD DUP1 SLOAD PUSH1 0x1 PUSH1 0x1 PUSH1 0xA0 SHL SUB NOT AND PUSH1 0x1 PUSH1 0x1 PUSH1 0xA0 SHL SUB DUP4 AND OR SWAP1 SSTORE JUMPDEST POP PUSH2 0x2D9F DUP10 PUSH2 0x341F JUMP JUMPDEST ISZERO PUSH2 0x2DAD JUMPI PUSH2 0x2DAD DUP10 PUSH2 0x4131 JUMP JUMPDEST CALLER PUSH1 0x0 SWAP1 DUP2 MSTORE PUSH1 0x1E PUSH1 0x20 MSTORE PUSH1 0x40 SWAP1 KECCAK256 SLOAD PUSH2 0x2DCD SWAP1 CALLVALUE PUSH4 0xFFFFFFFF PUSH2 0x44B5 AND JUMP JUMPDEST CALLER PUSH1 0x0 DUP2 DUP2 MSTORE PUSH1 0x1E PUSH1 0x20 SWAP1 DUP2 MSTORE PUSH1 0x40 DUP1 DUP4 KECCAK256 SWAP5 SWAP1 SWAP5 SSTORE PUSH1 0xD DUP6 ADD DUP1 SLOAD PUSH1 0x1 PUSH1 0x1 PUSH1 0xA0 SHL SUB NOT SWAP1 DUP2 AND SWAP1 SWAP5 OR SWAP1 SSTORE PUSH1 0xC DUP6 ADD SLOAD PUSH1 0x6 DUP7 ADD DUP1 SLOAD SWAP1 SWAP5 AND PUSH1 0x1 PUSH1 0x1 PUSH1 0xA0 SHL SUB SWAP1 SWAP2 AND OR SWAP1 SWAP3 SSTORE TIMESTAMP PUSH1 0x5 DUP6 ADD SSTORE PUSH1 0x8 DUP5 ADD DUP1 SLOAD PUSH1 0xFF NOT SWAP1 DUP2 AND PUSH1 0xFF DUP14 AND OR SWAP1 SWAP2 SSTORE PUSH1 0x2 DUP6 ADD DUP1 SLOAD SWAP1 SWAP2 AND PUSH1 0x1 SWAP1 DUP2 OR SWAP1 SWAP2 SSTORE PUSH1 0x1B DUP4 MSTORE DUP4 DUP3 KECCAK256 DUP14 SWAP1 SSTORE PUSH1 0x1C DUP4 MSTORE SWAP3 DUP2 KECCAK256 DUP1 SLOAD SWAP4 DUP5 ADD DUP2 SSTORE DUP2 MSTORE KECCAK256 ADD DUP10 SWAP1 SSTORE PUSH1 0x24 SLOAD PUSH2 0x2E6E SWAP1 CALLVALUE PUSH2 0x44B5 JUMP JUMPDEST PUSH1 0x24 SSTORE PUSH1 0xD DUP2 ADD SLOAD PUSH1 0xC DUP3 ADD SLOAD PUSH1 0x40 MLOAD PUSH1 0x1 PUSH1 0x1 PUSH1 0xA0 SHL SUB SWAP3 DUP4 AND SWAP3 SWAP1 SWAP2 AND SWAP1 DUP12 SWAP1 PUSH32 0xABA5D162E66D41009BC11B7B907E28B31FA8FEEC985E73E3F560D6FC992F1483 SWAP1 PUSH1 0x0 SWAP1 LOG4 POP POP POP POP POP POP POP POP POP JUMP JUMPDEST PUSH1 0x2 SLOAD DUP2 JUMP JUMPDEST PUSH1 0x11 SLOAD DUP2 JUMP JUMPDEST PUSH1 0x0 SLOAD PUSH1 0xFF AND ISZERO PUSH2 0x2F18 JUMPI PUSH1 0x40 DUP1 MLOAD PUSH3 0x461BCD PUSH1 0xE5 SHL DUP2 MSTORE PUSH1 0x20 PUSH1 0x4 DUP3 ADD MSTORE PUSH1 0x10 PUSH1 0x24 DUP3 ADD MSTORE PUSH16 0x14185D5CD8589B194E881C185D5CD959 PUSH1 0x82 SHL PUSH1 0x44 DUP3 ADD MSTORE SWAP1 MLOAD SWAP1 DUP2 SWAP1 SUB PUSH1 0x64 ADD SWAP1 REVERT JUMPDEST PUSH1 0x0 DUP2 DUP2 MSTORE PUSH1 0x19 PUSH1 0x20 MSTORE PUSH1 0x40 SWAP1 KECCAK256 PUSH1 0xC ADD SLOAD DUP2 SWAP1 PUSH1 0x1 PUSH1 0x1 PUSH1 0xA0 SHL SUB AND CALLER EQ PUSH2 0x2F76 JUMPI PUSH1 0x40 DUP1 MLOAD PUSH3 0x461BCD PUSH1 0xE5 SHL DUP2 MSTORE PUSH1 0x20 PUSH1 0x4 DUP3 ADD MSTORE PUSH1 0xB PUSH1 0x24 DUP3 ADD MSTORE PUSH11 0x2737BA1031B932B0BA37B9 PUSH1 0xA9 SHL PUSH1 0x44 DUP3 ADD MSTORE SWAP1 MLOAD SWAP1 DUP2 SWAP1 SUB PUSH1 0x64 ADD SWAP1 REVERT JUMPDEST DUP2 PUSH1 0x0 DUP1 DUP3 DUP2 MSTORE PUSH1 0x19 PUSH1 0x20 MSTORE PUSH1 0x40 SWAP1 KECCAK256 PUSH1 0x2 ADD SLOAD PUSH1 0xFF AND PUSH1 0x5 DUP2 GT ISZERO PUSH2 0x2F98 JUMPI INVALID JUMPDEST EQ PUSH2 0x2FE2 JUMPI PUSH1 0x40 DUP1 MLOAD PUSH3 0x461BCD PUSH1 0xE5 SHL DUP2 MSTORE PUSH1 0x20 PUSH1 0x4 DUP3 ADD MSTORE PUSH1 0x15 PUSH1 0x24 DUP3 ADD MSTORE PUSH21 0x84F4815D85A5D1A5B99D19BDC93DC1C1BDB995B9D PUSH1 0x5A SHL PUSH1 0x44 DUP3 ADD MSTORE SWAP1 MLOAD SWAP1 DUP2 SWAP1 SUB PUSH1 0x64 ADD SWAP1 REVERT JUMPDEST DUP3 PUSH2 0x2FEC DUP2 PUSH2 0x3F47 JUMP JUMPDEST ISZERO PUSH2 0x302F JUMPI PUSH1 0x40 DUP1 MLOAD PUSH3 0x461BCD PUSH1 0xE5 SHL DUP2 MSTORE PUSH1 0x20 PUSH1 0x4 DUP3 ADD MSTORE PUSH1 0xE PUSH1 0x24 DUP3 ADD MSTORE PUSH14 0x11D85B59481A5CC81C185D5CD959 PUSH1 0x92 SHL PUSH1 0x44 DUP3 ADD MSTORE SWAP1 MLOAD SWAP1 DUP2 SWAP1 SUB PUSH1 0x64 ADD SWAP1 REVERT JUMPDEST PUSH1 0x11 SLOAD CALLVALUE EQ PUSH2 0x3071 JUMPI PUSH1 0x40 DUP1 MLOAD PUSH3 0x461BCD PUSH1 0xE5 SHL DUP2 MSTORE PUSH1 0x20 PUSH1 0x4 DUP3 ADD MSTORE PUSH1 0x9 PUSH1 0x24 DUP3 ADD MSTORE PUSH9 0x57726F6E6720666565 PUSH1 0xB8 SHL PUSH1 0x44 DUP3 ADD MSTORE SWAP1 MLOAD SWAP1 DUP2 SWAP1 SUB PUSH1 0x64 ADD SWAP1 REVERT JUMPDEST PUSH1 0x12 SLOAD DUP5 EQ ISZERO PUSH2 0x30BA JUMPI PUSH1 0x40 DUP1 MLOAD PUSH3 0x461BCD PUSH1 0xE5 SHL DUP2 MSTORE PUSH1 0x20 PUSH1 0x4 DUP3 ADD MSTORE PUSH1 0xF PUSH1 0x24 DUP3 ADD MSTORE PUSH15 0x546F7020696E20546F7047616D6573 PUSH1 0x88 SHL PUSH1 0x44 DUP3 ADD MSTORE SWAP1 MLOAD SWAP1 DUP2 SWAP1 SUB PUSH1 0x64 ADD SWAP1 REVERT JUMPDEST PUSH2 0x30C2 PUSH2 0x4D46 JUMP JUMPDEST PUSH1 0x40 MLOAD DUP1 PUSH1 0xA0 ADD PUSH1 0x40 MSTORE DUP1 DUP7 DUP2 MSTORE PUSH1 0x20 ADD PUSH1 0x0 DUP2 MSTORE PUSH1 0x20 ADD PUSH1 0x0 DUP2 MSTORE PUSH1 0x20 ADD PUSH1 0x0 DUP2 MSTORE PUSH1 0x20 ADD PUSH1 0x0 DUP2 MSTORE POP SWAP1 POP PUSH1 0x0 DUP1 PUSH1 0x0 SWAP1 POP JUMPDEST PUSH1 0x4 DUP2 PUSH1 0xFF AND LT ISZERO PUSH2 0x317C JUMPI DUP7 PUSH1 0x12 DUP3 PUSH1 0xFF AND PUSH1 0x5 DUP2 LT PUSH2 0x3114 JUMPI INVALID JUMPDEST ADD SLOAD EQ DUP1 ISZERO PUSH2 0x3121 JUMPI POP DUP2 ISZERO JUMPDEST ISZERO PUSH2 0x312B JUMPI PUSH1 0x1 SWAP2 POP JUMPDEST DUP2 PUSH2 0x3147 JUMPI PUSH1 0x12 DUP2 PUSH1 0xFF AND PUSH1 0x5 DUP2 LT PUSH2 0x3140 JUMPI INVALID JUMPDEST ADD SLOAD PUSH2 0x315D JUMP JUMPDEST PUSH1 0x12 DUP2 PUSH1 0x1 ADD PUSH1 0xFF AND PUSH1 0x5 DUP2 LT PUSH2 0x315A JUMPI INVALID JUMPDEST ADD SLOAD JUMPDEST DUP4 DUP3 PUSH1 0x1 ADD PUSH1 0xFF AND PUSH1 0x5 DUP2 LT PUSH2 0x316F JUMPI INVALID JUMPDEST PUSH1 0x20 MUL ADD MSTORE PUSH1 0x1 ADD PUSH2 0x30F7 JUMP JUMPDEST POP PUSH2 0x318A PUSH1 0x12 DUP4 PUSH1 0x5 PUSH2 0x4D64 JUMP JUMPDEST POP PUSH1 0x22 SLOAD PUSH2 0x319E SWAP1 CALLVALUE PUSH4 0xFFFFFFFF PUSH2 0x44B5 AND JUMP JUMPDEST PUSH1 0x22 SSTORE PUSH1 0x24 SLOAD PUSH2 0x31B4 SWAP1 CALLVALUE PUSH4 0xFFFFFFFF PUSH2 0x44B5 AND JUMP JUMPDEST PUSH1 0x24 SSTORE PUSH1 0x0 DUP7 DUP2 MSTORE PUSH1 0x19 PUSH1 0x20 MSTORE PUSH1 0x40 DUP1 DUP3 KECCAK256 PUSH1 0xC ADD SLOAD SWAP1 MLOAD PUSH1 0x1 PUSH1 0x1 PUSH1 0xA0 SHL SUB SWAP1 SWAP2 AND SWAP2 DUP9 SWAP2 PUSH32 0x10837C20B552775DEFF603BE2E6BBD6011110295CF5729EDC4DA0376F0501A88 SWAP2 SWAP1 LOG3 POP POP POP POP POP POP JUMP JUMPDEST PUSH1 0xD SLOAD DUP2 JUMP JUMPDEST PUSH1 0x0 SLOAD PUSH1 0xFF AND ISZERO PUSH2 0x3257 JUMPI PUSH1 0x40 DUP1 MLOAD PUSH3 0x461BCD PUSH1 0xE5 SHL DUP2 MSTORE PUSH1 0x20 PUSH1 0x4 DUP3 ADD MSTORE PUSH1 0x10 PUSH1 0x24 DUP3 ADD MSTORE PUSH16 0x14185D5CD8589B194E881C185D5CD959 PUSH1 0x82 SHL PUSH1 0x44 DUP3 ADD MSTORE SWAP1 MLOAD SWAP1 DUP2 SWAP1 SUB PUSH1 0x64 ADD SWAP1 REVERT JUMPDEST PUSH1 0x0 DUP2 DUP2 MSTORE PUSH1 0x19 PUSH1 0x20 MSTORE PUSH1 0x40 SWAP1 KECCAK256 PUSH1 0xC ADD SLOAD DUP2 SWAP1 PUSH1 0x1 PUSH1 0x1 PUSH1 0xA0 SHL SUB AND CALLER EQ PUSH2 0x32B5 JUMPI PUSH1 0x40 DUP1 MLOAD PUSH3 0x461BCD PUSH1 0xE5 SHL DUP2 MSTORE PUSH1 0x20 PUSH1 0x4 DUP3 ADD MSTORE PUSH1 0xB PUSH1 0x24 DUP3 ADD MSTORE PUSH11 0x2737BA1031B932B0BA37B9 PUSH1 0xA9 SHL PUSH1 0x44 DUP3 ADD MSTORE SWAP1 MLOAD SWAP1 DUP2 SWAP1 SUB PUSH1 0x64 ADD SWAP1 REVERT JUMPDEST DUP2 PUSH1 0x0 DUP1 DUP3 DUP2 MSTORE PUSH1 0x19 PUSH1 0x20 MSTORE PUSH1 0x40 SWAP1 KECCAK256 PUSH1 0x2 ADD SLOAD PUSH1 0xFF AND PUSH1 0x5 DUP2 GT ISZERO PUSH2 0x32D7 JUMPI INVALID JUMPDEST EQ PUSH2 0x3321 JUMPI PUSH1 0x40 DUP1 MLOAD PUSH3 0x461BCD PUSH1 0xE5 SHL DUP2 MSTORE PUSH1 0x20 PUSH1 0x4 DUP3 ADD MSTORE PUSH1 0x15 PUSH1 0x24 DUP3 ADD MSTORE PUSH21 0x84F4815D85A5D1A5B99D19BDC93DC1C1BDB995B9D PUSH1 0x5A SHL PUSH1 0x44 DUP3 ADD MSTORE SWAP1 MLOAD SWAP1 DUP2 SWAP1 SUB PUSH1 0x64 ADD SWAP1 REVERT JUMPDEST PUSH1 0x0 CALLVALUE GT PUSH2 0x336D JUMPI PUSH1 0x40 DUP1 MLOAD PUSH3 0x461BCD PUSH1 0xE5 SHL DUP2 MSTORE PUSH1 0x20 PUSH1 0x4 DUP3 ADD MSTORE PUSH1 0x14 PUSH1 0x24 DUP3 ADD MSTORE PUSH20 0x696E637265617365206D757374206265203E203 PUSH1 0x64 SHL PUSH1 0x44 DUP3 ADD MSTORE SWAP1 MLOAD SWAP1 DUP2 SWAP1 SUB PUSH1 0x64 ADD SWAP1 REVERT JUMPDEST CALLER PUSH1 0x0 SWAP1 DUP2 MSTORE PUSH1 0x1E PUSH1 0x20 MSTORE PUSH1 0x40 SWAP1 KECCAK256 SLOAD PUSH2 0x338D SWAP1 CALLVALUE PUSH4 0xFFFFFFFF PUSH2 0x44B5 AND JUMP JUMPDEST CALLER PUSH1 0x0 SWAP1 DUP2 MSTORE PUSH1 0x1E PUSH1 0x20 SWAP1 DUP2 MSTORE PUSH1 0x40 DUP1 DUP4 KECCAK256 SWAP4 SWAP1 SWAP4 SSTORE DUP6 DUP3 MSTORE PUSH1 0x19 SWAP1 MSTORE KECCAK256 PUSH1 0x4 ADD SLOAD PUSH2 0x33BF SWAP1 CALLVALUE PUSH4 0xFFFFFFFF PUSH2 0x44B5 AND JUMP JUMPDEST PUSH1 0x0 DUP5 DUP2 MSTORE PUSH1 0x19 PUSH1 0x20 MSTORE PUSH1 0x40 SWAP1 KECCAK256 PUSH1 0x4 ADD SSTORE PUSH1 0x24 SLOAD PUSH2 0x33E4 SWAP1 CALLVALUE PUSH4 0xFFFFFFFF PUSH2 0x44B5 AND JUMP JUMPDEST PUSH1 0x24 SSTORE PUSH1 0x40 MLOAD CALLER SWAP1 DUP5 SWAP1 PUSH32 0xB8D5C4ACB2A233249B2C857BDC4149DFE9C4C56BE5B4240797EC520890E86F84 SWAP1 PUSH1 0x0 SWAP1 LOG3 POP POP POP JUMP JUMPDEST PUSH1 0x5 SLOAD DUP2 JUMP JUMPDEST PUSH1 0x0 DUP1 JUMPDEST PUSH1 0x5 DUP2 PUSH1 0xFF AND LT ISZERO PUSH2 0x345A JUMPI DUP3 PUSH1 0x12 DUP3 PUSH1 0xFF AND PUSH1 0x5 DUP2 LT PUSH2 0x3440 JUMPI INVALID JUMPDEST ADD SLOAD EQ ISZERO PUSH2 0x3452 JUMPI PUSH1 0x1 SWAP2 POP POP PUSH2 0x3460 JUMP JUMPDEST PUSH1 0x1 ADD PUSH2 0x3423 JUMP JUMPDEST POP PUSH1 0x0 SWAP1 POP JUMPDEST SWAP2 SWAP1 POP JUMP JUMPDEST PUSH1 0x60 PUSH1 0x1 PUSH1 0x1 PUSH1 0xA0 SHL SUB DUP3 AND PUSH2 0x34B1 JUMPI PUSH1 0x40 DUP1 MLOAD PUSH3 0x461BCD PUSH1 0xE5 SHL DUP2 MSTORE PUSH1 0x20 PUSH1 0x4 DUP3 ADD MSTORE PUSH1 0xC PUSH1 0x24 DUP3 ADD MSTORE PUSH12 0x43616E6E742062652030783 PUSH1 0xA4 SHL PUSH1 0x44 DUP3 ADD MSTORE SWAP1 MLOAD SWAP1 DUP2 SWAP1 SUB PUSH1 0x64 ADD SWAP1 REVERT JUMPDEST PUSH1 0x1 PUSH1 0x1 PUSH1 0xA0 SHL SUB DUP3 AND PUSH1 0x0 SWAP1 DUP2 MSTORE PUSH1 0x1C PUSH1 0x20 SWAP1 DUP2 MSTORE PUSH1 0x40 SWAP2 DUP3 SWAP1 KECCAK256 DUP1 SLOAD DUP4 MLOAD DUP2 DUP5 MUL DUP2 ADD DUP5 ADD SWAP1 SWAP5 MSTORE DUP1 DUP5 MSTORE SWAP1 SWAP2 DUP4 ADD DUP3 DUP3 DUP1 ISZERO PUSH2 0x1EB6 JUMPI PUSH1 0x20 MUL DUP3 ADD SWAP2 SWAP1 PUSH1 0x0 MSTORE PUSH1 0x20 PUSH1 0x0 KECCAK256 SWAP1 DUP2 SLOAD DUP2 MSTORE PUSH1 0x20 ADD SWAP1 PUSH1 0x1 ADD SWAP1 DUP1 DUP4 GT PUSH2 0x1EA2 JUMPI POP POP POP POP POP SWAP1 POP SWAP2 SWAP1 POP JUMP JUMPDEST PUSH1 0x20 DUP1 MSTORE PUSH1 0x0 SWAP1 DUP2 MSTORE PUSH1 0x40 SWAP1 KECCAK256 SLOAD DUP2 JUMP JUMPDEST PUSH1 0x0 DUP2 DUP2 MSTORE PUSH1 0x19 PUSH1 0x20 MSTORE PUSH1 0x40 DUP2 KECCAK256 PUSH1 0x5 ADD SLOAD ISZERO PUSH2 0x3460 JUMPI PUSH1 0x9 SLOAD PUSH1 0x0 DUP4 DUP2 MSTORE PUSH1 0x19 PUSH1 0x20 MSTORE PUSH1 0x40 SWAP1 KECCAK256 PUSH1 0x5 ADD SLOAD TIMESTAMP SWAP2 PUSH2 0x356C SWAP2 SWAP1 PUSH2 0xFFFF AND PUSH4 0xFFFFFFFF PUSH2 0x44B5 AND JUMP JUMPDEST LT SWAP1 POP PUSH2 0x3460 JUMP JUMPDEST PUSH2 0x357C PUSH2 0x4DA2 JUMP JUMPDEST PUSH1 0x0 DUP3 DUP2 MSTORE PUSH1 0x19 PUSH1 0x20 MSTORE PUSH1 0x40 SWAP1 DUP2 SWAP1 KECCAK256 DUP2 MLOAD PUSH1 0x60 DUP2 ADD SWAP1 SWAP3 MSTORE PUSH1 0x9 ADD PUSH1 0x3 DUP3 DUP3 DUP3 PUSH1 0x20 MUL DUP3 ADD SWAP2 DUP2 SLOAD DUP2 MSTORE PUSH1 0x20 ADD SWAP1 PUSH1 0x1 ADD SWAP1 DUP1 DUP4 GT PUSH2 0x1EA2 JUMPI POP POP POP POP POP SWAP1 POP SWAP2 SWAP1 POP JUMP JUMPDEST CALLER PUSH1 0x0 SWAP1 DUP2 MSTORE PUSH1 0xA PUSH1 0x20 MSTORE PUSH1 0x40 SWAP1 KECCAK256 SLOAD DUP1 PUSH2 0x3616 JUMPI PUSH1 0x40 DUP1 MLOAD PUSH3 0x461BCD PUSH1 0xE5 SHL DUP2 MSTORE PUSH1 0x20 PUSH1 0x4 DUP3 ADD MSTORE PUSH1 0xF PUSH1 0x24 DUP3 ADD MSTORE PUSH15 0x4E6F20726166666C65207072697A65 PUSH1 0x88 SHL PUSH1 0x44 DUP3 ADD MSTORE SWAP1 MLOAD SWAP1 DUP2 SWAP1 SUB PUSH1 0x64 ADD SWAP1 REVERT JUMPDEST CALLER PUSH1 0x0 SWAP1 DUP2 MSTORE PUSH1 0xA PUSH1 0x20 SWAP1 DUP2 MSTORE PUSH1 0x40 DUP1 DUP4 KECCAK256 DUP4 SWAP1 SSTORE PUSH1 0xB SWAP1 SWAP2 MSTORE SWAP1 KECCAK256 SLOAD PUSH2 0x3643 SWAP1 DUP3 PUSH4 0xFFFFFFFF PUSH2 0x44B5 AND JUMP JUMPDEST CALLER PUSH1 0x0 DUP2 DUP2 MSTORE PUSH1 0xB PUSH1 0x20 MSTORE PUSH1 0x40 DUP1 DUP3 KECCAK256 SWAP4 SWAP1 SWAP4 SSTORE SWAP2 MLOAD SWAP1 SWAP2 DUP4 ISZERO PUSH2 0x8FC MUL SWAP2 DUP5 SWAP2 DUP2 DUP2 DUP2 DUP6 DUP9 DUP9 CALL SWAP4 POP POP POP POP ISZERO DUP1 ISZERO PUSH2 0x3681 JUMPI RETURNDATASIZE PUSH1 0x0 DUP1 RETURNDATACOPY RETURNDATASIZE PUSH1 0x0 REVERT JUMPDEST POP PUSH1 0x40 MLOAD CALLER SWAP1 PUSH32 0xC6378DFC7A408CCDE7FD4FC7126EDB802AFF5CCA70AFA44A52DFC6E9AB7DFC3B SWAP1 PUSH1 0x0 SWAP1 LOG2 POP JUMP JUMPDEST PUSH1 0x1D PUSH1 0x20 MSTORE DUP2 PUSH1 0x0 MSTORE PUSH1 0x40 PUSH1 0x0 KECCAK256 DUP2 DUP2 SLOAD DUP2 LT PUSH2 0x36C9 JUMPI INVALID JUMPDEST SWAP1 PUSH1 0x0 MSTORE PUSH1 0x20 PUSH1 0x0 KECCAK256 ADD PUSH1 0x0 SWAP2 POP SWAP2 POP POP SLOAD DUP2 JUMP JUMPDEST PUSH3 0x13C680 DUP2 JUMP JUMPDEST PUSH2 0x36ED PUSH2 0x254F JUMP JUMPDEST PUSH2 0x3734 JUMPI PUSH1 0x40 DUP1 MLOAD PUSH3 0x461BCD PUSH1 0xE5 SHL DUP2 MSTORE PUSH1 0x20 PUSH1 0x4 DUP3 ADD MSTORE PUSH1 0x13 PUSH1 0x24 DUP3 ADD MSTORE PUSH19 0x149859999B1948084F481858DD1A5D985D1959 PUSH1 0x6A SHL PUSH1 0x44 DUP3 ADD MSTORE SWAP1 MLOAD SWAP1 DUP2 SWAP1 SUB PUSH1 0x64 ADD SWAP1 REVERT JUMPDEST PUSH1 0x0 PUSH2 0x373E PUSH2 0x1BDD JUMP JUMPDEST SWAP1 POP PUSH2 0x3788 PUSH1 0xC SLOAD PUSH1 0xA PUSH1 0x0 PUSH1 0xF DUP6 DUP2 SLOAD DUP2 LT PUSH2 0x3757 JUMPI INVALID JUMPDEST PUSH1 0x0 SWAP2 DUP3 MSTORE PUSH1 0x20 DUP1 DUP4 KECCAK256 SWAP1 SWAP2 ADD SLOAD PUSH1 0x1 PUSH1 0x1 PUSH1 0xA0 SHL SUB AND DUP4 MSTORE DUP3 ADD SWAP3 SWAP1 SWAP3 MSTORE PUSH1 0x40 ADD SWAP1 KECCAK256 SLOAD SWAP1 PUSH4 0xFFFFFFFF PUSH2 0x44B5 AND JUMP JUMPDEST PUSH1 0xA PUSH1 0x0 PUSH1 0xF DUP5 DUP2 SLOAD DUP2 LT PUSH2 0x3799 JUMPI INVALID JUMPDEST PUSH1 0x0 SWAP2 DUP3 MSTORE PUSH1 0x20 DUP1 DUP4 KECCAK256 SWAP1 SWAP2 ADD SLOAD PUSH1 0x1 PUSH1 0x1 PUSH1 0xA0 SHL SUB AND DUP4 MSTORE DUP3 ADD SWAP3 SWAP1 SWAP3 MSTORE PUSH1 0x40 ADD SWAP1 KECCAK256 SSTORE PUSH1 0xC SLOAD PUSH1 0xD SLOAD PUSH2 0x37D3 SWAP2 PUSH4 0xFFFFFFFF PUSH2 0x44B5 AND JUMP JUMPDEST PUSH1 0xD DUP2 SWAP1 SSTORE POP PUSH1 0x10 PUSH1 0x40 MLOAD DUP1 PUSH1 0x60 ADD PUSH1 0x40 MSTORE DUP1 PUSH1 0xF DUP5 DUP2 SLOAD DUP2 LT PUSH2 0x37F3 JUMPI INVALID JUMPDEST PUSH1 0x0 SWAP2 DUP3 MSTORE PUSH1 0x20 DUP1 DUP4 KECCAK256 SWAP2 SWAP1 SWAP2 ADD SLOAD PUSH1 0x1 PUSH1 0x1 PUSH1 0xA0 SHL SUB SWAP1 DUP2 AND DUP5 MSTORE PUSH1 0xC DUP1 SLOAD DUP6 DUP5 ADD MSTORE TIMESTAMP PUSH1 0x40 SWAP6 DUP7 ADD MSTORE DUP7 SLOAD PUSH1 0x1 DUP1 DUP3 ADD DUP10 SSTORE SWAP8 DUP6 MSTORE SWAP4 DUP4 SWAP1 KECCAK256 DUP7 MLOAD PUSH1 0x3 SWAP1 SWAP6 MUL ADD DUP1 SLOAD PUSH1 0x1 PUSH1 0x1 PUSH1 0xA0 SHL SUB NOT AND SWAP5 SWAP1 SWAP3 AND SWAP4 SWAP1 SWAP4 OR DUP2 SSTORE SWAP1 DUP5 ADD MLOAD SWAP5 DUP2 ADD SWAP5 SWAP1 SWAP5 SSTORE SWAP2 ADD MLOAD PUSH1 0x2 SWAP1 SWAP3 ADD SWAP2 SWAP1 SWAP2 SSTORE SLOAD PUSH1 0xF DUP1 SLOAD DUP4 SWAP1 DUP2 LT PUSH2 0x3872 JUMPI INVALID JUMPDEST PUSH1 0x0 SWAP2 DUP3 MSTORE PUSH1 0x20 DUP3 KECCAK256 ADD SLOAD PUSH1 0x40 MLOAD PUSH1 0x1 PUSH1 0x1 PUSH1 0xA0 SHL SUB SWAP1 SWAP2 AND SWAP2 PUSH32 0x5B855748EC47B3A8C7D02C2551AF912F3900FDD754F66A381DC33C8DEA252F00 SWAP2 LOG3 PUSH1 0xC PUSH1 0x0 SWAP1 SSTORE PUSH1 0xF PUSH1 0x0 PUSH2 0x38C3 SWAP2 SWAP1 PUSH2 0x4DC0 JUMP JUMPDEST POP JUMP JUMPDEST PUSH1 0x0 SLOAD PUSH1 0xFF AND ISZERO PUSH2 0x3911 JUMPI PUSH1 0x40 DUP1 MLOAD PUSH3 0x461BCD PUSH1 0xE5 SHL DUP2 MSTORE PUSH1 0x20 PUSH1 0x4 DUP3 ADD MSTORE PUSH1 0x10 PUSH1 0x24 DUP3 ADD MSTORE PUSH16 0x14185D5CD8589B194E881C185D5CD959 PUSH1 0x82 SHL PUSH1 0x44 DUP3 ADD MSTORE SWAP1 MLOAD SWAP1 DUP2 SWAP1 SUB PUSH1 0x64 ADD SWAP1 REVERT JUMPDEST CALLER PUSH1 0x0 SWAP1 DUP2 MSTORE PUSH1 0x1A PUSH1 0x20 MSTORE PUSH1 0x40 SWAP1 KECCAK256 SLOAD ISZERO PUSH2 0x3966 JUMPI PUSH1 0x40 DUP1 MLOAD PUSH3 0x461BCD PUSH1 0xE5 SHL DUP2 MSTORE PUSH1 0x20 PUSH1 0x4 DUP3 ADD MSTORE PUSH1 0x10 PUSH1 0x24 DUP3 ADD MSTORE PUSH16 0x4E6F206D6F7265206372656174696E67 PUSH1 0x80 SHL PUSH1 0x44 DUP3 ADD MSTORE SWAP1 MLOAD SWAP1 DUP2 SWAP1 SUB PUSH1 0x64 ADD SWAP1 REVERT JUMPDEST PUSH1 0x11 SLOAD CALLVALUE LT ISZERO PUSH2 0x39A9 JUMPI PUSH1 0x40 DUP1 MLOAD PUSH3 0x461BCD PUSH1 0xE5 SHL DUP2 MSTORE PUSH1 0x20 PUSH1 0x4 DUP3 ADD MSTORE PUSH1 0x9 PUSH1 0x24 DUP3 ADD MSTORE PUSH9 0x15DC9BDB99C818995D PUSH1 0xBA SHL PUSH1 0x44 DUP3 ADD MSTORE SWAP1 MLOAD SWAP1 DUP2 SWAP1 SUB PUSH1 0x64 ADD SWAP1 REVERT JUMPDEST DUP2 PUSH1 0x1 PUSH1 0x1 PUSH1 0xA0 SHL SUB DUP2 AND CALLER EQ ISZERO PUSH2 0x39F9 JUMPI PUSH1 0x40 DUP1 MLOAD PUSH3 0x461BCD PUSH1 0xE5 SHL DUP2 MSTORE PUSH1 0x20 PUSH1 0x4 DUP3 ADD MSTORE PUSH1 0xE PUSH1 0x24 DUP3 ADD MSTORE PUSH14 0x15DC9BDB99C81C9959995C9C985B PUSH1 0x92 SHL PUSH1 0x44 DUP3 ADD MSTORE SWAP1 MLOAD SWAP1 DUP2 SWAP1 SUB PUSH1 0x64 ADD SWAP1 REVERT JUMPDEST DUP2 PUSH1 0x0 BYTE PUSH1 0xF8 SHL PUSH1 0x1 PUSH1 0x1 PUSH1 0xF8 SHL SUB NOT AND PUSH2 0x3A48 JUMPI PUSH1 0x40 DUP1 MLOAD PUSH3 0x461BCD PUSH1 0xE5 SHL DUP2 MSTORE PUSH1 0x20 PUSH1 0x4 DUP3 ADD MSTORE PUSH1 0xA PUSH1 0x24 DUP3 ADD MSTORE PUSH10 0x8ADAE0E8F240D0C2E6D PUSH1 0xB3 SHL PUSH1 0x44 DUP3 ADD MSTORE SWAP1 MLOAD SWAP1 DUP2 SWAP1 SUB PUSH1 0x64 ADD SWAP1 REVERT JUMPDEST CALLER PUSH1 0x0 SWAP1 DUP2 MSTORE PUSH1 0x1E PUSH1 0x20 MSTORE PUSH1 0x40 SWAP1 KECCAK256 SLOAD PUSH2 0x3A68 SWAP1 CALLVALUE PUSH4 0xFFFFFFFF PUSH2 0x44B5 AND JUMP JUMPDEST CALLER PUSH1 0x0 DUP2 DUP2 MSTORE PUSH1 0x1E PUSH1 0x20 SWAP1 DUP2 MSTORE PUSH1 0x40 DUP1 DUP4 KECCAK256 SWAP5 SWAP1 SWAP5 SSTORE PUSH1 0x17 DUP1 SLOAD DUP1 DUP5 MSTORE PUSH1 0x19 SWAP1 SWAP3 MSTORE DUP5 DUP4 KECCAK256 PUSH1 0x3 DUP2 ADD SWAP3 SWAP1 SWAP3 SSTORE PUSH1 0xC SWAP1 SWAP2 ADD DUP1 SLOAD PUSH1 0x1 PUSH1 0x1 PUSH1 0xA0 SHL SUB NOT AND SWAP1 SWAP4 OR SWAP1 SWAP3 SSTORE DUP2 SLOAD DUP2 MSTORE DUP3 DUP2 KECCAK256 CALLVALUE PUSH1 0x4 SWAP1 SWAP2 ADD SSTORE SWAP1 SLOAD DUP2 MSTORE KECCAK256 PUSH1 0x9 ADD DUP3 SWAP1 SSTORE PUSH1 0x1 PUSH1 0x1 PUSH1 0xA0 SHL SUB DUP4 AND ISZERO PUSH2 0x3B07 JUMPI PUSH1 0x17 SLOAD PUSH1 0x0 SWAP1 DUP2 MSTORE PUSH1 0x19 PUSH1 0x20 MSTORE PUSH1 0x40 SWAP1 KECCAK256 PUSH1 0xF ADD DUP1 SLOAD PUSH1 0x1 PUSH1 0x1 PUSH1 0xA0 SHL SUB NOT AND PUSH1 0x1 PUSH1 0x1 PUSH1 0xA0 SHL SUB DUP6 AND OR SWAP1 SSTORE DUP3 PUSH2 0x3B3D JUMP JUMPDEST PUSH2 0x3B0F PUSH2 0x2A58 JUMP JUMPDEST PUSH1 0x17 SLOAD PUSH1 0x0 SWAP1 DUP2 MSTORE PUSH1 0x19 PUSH1 0x20 MSTORE PUSH1 0x40 SWAP1 KECCAK256 PUSH1 0xF ADD DUP1 SLOAD PUSH1 0x1 PUSH1 0x1 PUSH1 0xA0 SHL SUB NOT AND PUSH1 0x1 PUSH1 0x1 PUSH1 0xA0 SHL SUB DUP4 AND OR SWAP1 SSTORE JUMPDEST POP PUSH1 0x17 SLOAD CALLER PUSH1 0x0 SWAP1 DUP2 MSTORE PUSH1 0x1A PUSH1 0x20 SWAP1 DUP2 MSTORE PUSH1 0x40 DUP1 DUP4 KECCAK256 DUP5 SWAP1 SSTORE PUSH1 0x1C DUP3 MSTORE DUP3 KECCAK256 DUP1 SLOAD PUSH1 0x1 DUP2 ADD DUP3 SSTORE SWAP1 DUP4 MSTORE SWAP2 KECCAK256 ADD SSTORE PUSH1 0x24 SLOAD PUSH2 0x3B7E SWAP1 CALLVALUE PUSH4 0xFFFFFFFF PUSH2 0x44B5 AND JUMP JUMPDEST PUSH1 0x24 SSTORE PUSH1 0x17 SLOAD PUSH1 0x40 MLOAD CALLVALUE SWAP2 CALLER SWAP2 PUSH32 0xC8A7AD4588594944C5C6EC5E3DD1FC3A1AEB831F1A2BC35611C78302594092E0 SWAP1 PUSH1 0x0 SWAP1 LOG4 PUSH1 0x17 SLOAD PUSH2 0x3BC5 SWAP1 PUSH1 0x1 PUSH4 0xFFFFFFFF PUSH2 0x44B5 AND JUMP JUMPDEST PUSH1 0x17 SSTORE POP POP POP JUMP JUMPDEST PUSH1 0x0 DUP2 DUP2 MSTORE PUSH1 0x19 PUSH1 0x20 MSTORE PUSH1 0x40 SWAP1 KECCAK256 PUSH1 0xC ADD SLOAD DUP2 SWAP1 PUSH1 0x1 PUSH1 0x1 PUSH1 0xA0 SHL SUB AND CALLER EQ PUSH2 0x3C2B JUMPI PUSH1 0x40 DUP1 MLOAD PUSH3 0x461BCD PUSH1 0xE5 SHL DUP2 MSTORE PUSH1 0x20 PUSH1 0x4 DUP3 ADD MSTORE PUSH1 0xB PUSH1 0x24 DUP3 ADD MSTORE PUSH11 0x2737BA1031B932B0BA37B9 PUSH1 0xA9 SHL PUSH1 0x44 DUP3 ADD MSTORE SWAP1 MLOAD SWAP1 DUP2 SWAP1 SUB PUSH1 0x64 ADD SWAP1 REVERT JUMPDEST DUP2 PUSH2 0x3C35 DUP2 PUSH2 0x3F47 JUMP JUMPDEST PUSH2 0x3C7B JUMPI PUSH1 0x40 DUP1 MLOAD PUSH3 0x461BCD PUSH1 0xE5 SHL DUP2 MSTORE PUSH1 0x20 PUSH1 0x4 DUP3 ADD MSTORE PUSH1 0x12 PUSH1 0x24 DUP3 ADD MSTORE PUSH18 0x11D85B59481A5CC81B9BDD081C185D5CD959 PUSH1 0x72 SHL PUSH1 0x44 DUP3 ADD MSTORE SWAP1 MLOAD SWAP1 DUP2 SWAP1 SUB PUSH1 0x64 ADD SWAP1 REVERT JUMPDEST PUSH1 0x11 SLOAD CALLVALUE EQ PUSH2 0x3CBD JUMPI PUSH1 0x40 DUP1 MLOAD PUSH3 0x461BCD PUSH1 0xE5 SHL DUP2 MSTORE PUSH1 0x20 PUSH1 0x4 DUP3 ADD MSTORE PUSH1 0x9 PUSH1 0x24 DUP3 ADD MSTORE PUSH9 0x57726F6E6720666565 PUSH1 0xB8 SHL PUSH1 0x44 DUP3 ADD MSTORE SWAP1 MLOAD SWAP1 DUP2 SWAP1 SUB PUSH1 0x64 ADD SWAP1 REVERT JUMPDEST PUSH1 0x0 DUP4 DUP2 MSTORE PUSH1 0x19 PUSH1 0x20 MSTORE PUSH1 0x40 SWAP1 KECCAK256 DUP1 SLOAD PUSH1 0xFF NOT AND SWAP1 SSTORE PUSH1 0x22 SLOAD PUSH2 0x3CE6 SWAP1 CALLVALUE PUSH4 0xFFFFFFFF PUSH2 0x44B5 AND JUMP JUMPDEST PUSH1 0x22 SSTORE PUSH1 0x24 SLOAD PUSH2 0x3CFC SWAP1 CALLVALUE PUSH4 0xFFFFFFFF PUSH2 0x44B5 AND JUMP JUMPDEST PUSH1 0x24 SSTORE PUSH1 0x40 MLOAD DUP4 SWAP1 PUSH32 0x9C35B9254DAA7C98ABD3ABAF007AE9932475DF816B2B74CAEC46FA3356162319 SWAP1 PUSH1 0x0 SWAP1 LOG2 POP POP POP JUMP JUMPDEST PUSH1 0x1 SLOAD PUSH1 0x1 PUSH1 0x1 PUSH1 0xA0 SHL SUB AND DUP2 JUMP JUMPDEST PUSH1 0x12 DUP2 PUSH1 0x5 DUP2 LT PUSH2 0x3D4B JUMPI INVALID JUMPDEST ADD SLOAD SWAP1 POP DUP2 JUMP JUMPDEST PUSH1 0x3 SLOAD DUP2 JUMP JUMPDEST PUSH2 0x3D60 PUSH2 0x46F1 JUMP JUMPDEST PUSH1 0x0 SLOAD PUSH2 0x100 SWAP1 DIV PUSH1 0x1 PUSH1 0x1 PUSH1 0xA0 SHL SUB SWAP1 DUP2 AND SWAP2 AND EQ PUSH2 0x3DB5 JUMPI PUSH1 0x40 DUP1 MLOAD PUSH3 0x461BCD PUSH1 0xE5 SHL DUP2 MSTORE PUSH1 0x20 PUSH1 0x4 DUP3 ADD DUP2 SWAP1 MSTORE PUSH1 0x24 DUP3 ADD MSTORE PUSH1 0x0 DUP1 MLOAD PUSH1 0x20 PUSH2 0x4EFA DUP4 CODECOPY DUP2 MLOAD SWAP2 MSTORE PUSH1 0x44 DUP3 ADD MSTORE SWAP1 MLOAD SWAP1 DUP2 SWAP1 SUB PUSH1 0x64 ADD SWAP1 REVERT JUMPDEST PUSH1 0x0 PUSH1 0x22 SLOAD GT PUSH2 0x3DF9 JUMPI PUSH1 0x40 DUP1 MLOAD PUSH3 0x461BCD PUSH1 0xE5 SHL DUP2 MSTORE PUSH1 0x20 PUSH1 0x4 DUP3 ADD MSTORE PUSH1 0xA PUSH1 0x24 DUP3 ADD MSTORE PUSH10 0x4E6F2064657620666565 PUSH1 0xB0 SHL PUSH1 0x44 DUP3 ADD MSTORE SWAP1 MLOAD SWAP1 DUP2 SWAP1 SUB PUSH1 0x64 ADD SWAP1 REVERT JUMPDEST PUSH1 0x22 DUP1 SLOAD PUSH1 0x0 SWAP2 DUP3 SWAP1 SSTORE PUSH1 0x40 MLOAD SWAP1 SWAP2 CALLER SWAP2 DUP4 ISZERO PUSH2 0x8FC MUL SWAP2 DUP5 SWAP2 SWAP1 DUP2 DUP2 DUP2 DUP6 DUP9 DUP9 CALL SWAP4 POP POP POP POP ISZERO DUP1 ISZERO PUSH2 0x3E31 JUMPI RETURNDATASIZE PUSH1 0x0 DUP1 RETURNDATACOPY RETURNDATASIZE PUSH1 0x0 REVERT JUMPDEST POP POP JUMP JUMPDEST PUSH2 0x3E3D PUSH2 0x4D46 JUMP JUMPDEST PUSH1 0x40 DUP1 MLOAD PUSH1 0xA0 DUP2 ADD SWAP2 DUP3 SWAP1 MSTORE SWAP1 PUSH1 0x12 SWAP1 PUSH1 0x5 SWAP1 DUP3 DUP5 JUMPDEST DUP2 SLOAD DUP2 MSTORE PUSH1 0x20 ADD SWAP1 PUSH1 0x1 ADD SWAP1 DUP1 DUP4 GT PUSH2 0x3E53 JUMPI POP POP POP POP POP SWAP1 POP SWAP1 JUMP JUMPDEST PUSH1 0x1F PUSH1 0x20 MSTORE PUSH1 0x0 SWAP1 DUP2 MSTORE PUSH1 0x40 SWAP1 KECCAK256 SLOAD DUP2 JUMP JUMPDEST PUSH1 0x17 SLOAD DUP2 JUMP JUMPDEST PUSH1 0x1A PUSH1 0x20 MSTORE PUSH1 0x0 SWAP1 DUP2 MSTORE PUSH1 0x40 SWAP1 KECCAK256 SLOAD DUP2 JUMP JUMPDEST CALLER PUSH1 0x0 SWAP1 DUP2 MSTORE PUSH1 0x8 PUSH1 0x20 MSTORE PUSH1 0x40 SWAP1 KECCAK256 SLOAD DUP1 PUSH2 0x3EE5 JUMPI PUSH1 0x40 DUP1 MLOAD PUSH3 0x461BCD PUSH1 0xE5 SHL DUP2 MSTORE PUSH1 0x20 PUSH1 0x4 DUP3 ADD MSTORE PUSH1 0x6 PUSH1 0x24 DUP3 ADD MSTORE PUSH6 0x4E6F20666565 PUSH1 0xD0 SHL PUSH1 0x44 DUP3 ADD MSTORE SWAP1 MLOAD SWAP1 DUP2 SWAP1 SUB PUSH1 0x64 ADD SWAP1 REVERT JUMPDEST CALLER PUSH1 0x0 DUP2 DUP2 MSTORE PUSH1 0x8 PUSH1 0x20 MSTORE PUSH1 0x40 DUP1 DUP3 KECCAK256 DUP3 SWAP1 SSTORE MLOAD DUP4 ISZERO PUSH2 0x8FC MUL SWAP2 DUP5 SWAP2 SWAP1 DUP2 DUP2 DUP2 DUP6 DUP9 DUP9 CALL SWAP4 POP POP POP POP ISZERO DUP1 ISZERO PUSH2 0x3F20 JUMPI RETURNDATASIZE PUSH1 0x0 DUP1 RETURNDATACOPY RETURNDATASIZE PUSH1 0x0 REVERT JUMPDEST POP PUSH2 0x38C3 PUSH2 0x4B70 JUMP JUMPDEST PUSH1 0x24 SLOAD PUSH2 0x3F3C SWAP1 CALLVALUE PUSH4 0xFFFFFFFF PUSH2 0x44B5 AND JUMP JUMPDEST PUSH1 0x24 SSTORE PUSH2 0x1CD8 PUSH2 0x4BE9 JUMP JUMPDEST PUSH1 0x0 SWAP1 DUP2 MSTORE PUSH1 0x19 PUSH1 0x20 MSTORE PUSH1 0x40 SWAP1 KECCAK256 SLOAD PUSH1 0xFF AND SWAP1 JUMP JUMPDEST PUSH1 0x21 PUSH1 0x20 MSTORE PUSH1 0x0 SWAP1 DUP2 MSTORE PUSH1 0x40 SWAP1 KECCAK256 SLOAD DUP2 JUMP JUMPDEST PUSH2 0x3F76 PUSH2 0x46F1 JUMP JUMPDEST PUSH1 0x0 SLOAD PUSH2 0x100 SWAP1 DIV PUSH1 0x1 PUSH1 0x1 PUSH1 0xA0 SHL SUB SWAP1 DUP2 AND SWAP2 AND EQ PUSH2 0x3FCB JUMPI PUSH1 0x40 DUP1 MLOAD PUSH3 0x461BCD PUSH1 0xE5 SHL DUP2 MSTORE PUSH1 0x20 PUSH1 0x4 DUP3 ADD DUP2 SWAP1 MSTORE PUSH1 0x24 DUP3 ADD MSTORE PUSH1 0x0 DUP1 MLOAD PUSH1 0x20 PUSH2 0x4EFA DUP4 CODECOPY DUP2 MLOAD SWAP2 MSTORE PUSH1 0x44 DUP3 ADD MSTORE SWAP1 MLOAD SWAP1 DUP2 SWAP1 SUB PUSH1 0x64 ADD SWAP1 REVERT JUMPDEST PUSH1 0x1 PUSH1 0x1 PUSH1 0xA0 SHL SUB DUP2 AND PUSH2 0x4010 JUMPI PUSH1 0x40 MLOAD PUSH3 0x461BCD PUSH1 0xE5 SHL DUP2 MSTORE PUSH1 0x4 ADD DUP1 DUP1 PUSH1 0x20 ADD DUP3 DUP2 SUB DUP3 MSTORE PUSH1 0x26 DUP2 MSTORE PUSH1 0x20 ADD DUP1 PUSH2 0x4EB3 PUSH1 0x26 SWAP2 CODECOPY PUSH1 0x40 ADD SWAP2 POP POP PUSH1 0x40 MLOAD DUP1 SWAP2 SUB SWAP1 REVERT JUMPDEST PUSH1 0x0 DUP1 SLOAD PUSH1 0x40 MLOAD PUSH1 0x1 PUSH1 0x1 PUSH1 0xA0 SHL SUB DUP1 DUP6 AND SWAP4 PUSH2 0x100 SWAP1 SWAP4 DIV AND SWAP2 PUSH32 0x8BE0079C531659141344CD1FD0A4F28419497F9722A3DAAFE3B4186F6B6457E0 SWAP2 LOG3 PUSH1 0x0 DUP1 SLOAD PUSH1 0x1 PUSH1 0x1 PUSH1 0xA0 SHL SUB SWAP1 SWAP3 AND PUSH2 0x100 MUL PUSH2 0x100 PUSH1 0x1 PUSH1 0xA8 SHL SUB NOT SWAP1 SWAP3 AND SWAP2 SWAP1 SWAP2 OR SWAP1 SSTORE JUMP JUMPDEST PUSH1 0x18 SLOAD DUP2 JUMP JUMPDEST PUSH2 0x4084 PUSH2 0x46F1 JUMP JUMPDEST PUSH1 0x0 SLOAD PUSH2 0x100 SWAP1 DIV PUSH1 0x1 PUSH1 0x1 PUSH1 0xA0 SHL SUB SWAP1 DUP2 AND SWAP2 AND EQ PUSH2 0x40D9 JUMPI PUSH1 0x40 DUP1 MLOAD PUSH3 0x461BCD PUSH1 0xE5 SHL DUP2 MSTORE PUSH1 0x20 PUSH1 0x4 DUP3 ADD DUP2 SWAP1 MSTORE PUSH1 0x24 DUP3 ADD MSTORE PUSH1 0x0 DUP1 MLOAD PUSH1 0x20 PUSH2 0x4EFA DUP4 CODECOPY DUP2 MLOAD SWAP2 MSTORE PUSH1 0x44 DUP3 ADD MSTORE SWAP1 MLOAD SWAP1 DUP2 SWAP1 SUB PUSH1 0x64 ADD SWAP1 REVERT JUMPDEST PUSH1 0x0 DUP2 GT PUSH2 0x411A JUMPI PUSH1 0x40 DUP1 MLOAD PUSH3 0x461BCD PUSH1 0xE5 SHL DUP2 MSTORE PUSH1 0x20 PUSH1 0x4 DUP3 ADD MSTORE PUSH1 0x9 PUSH1 0x24 DUP3 ADD MSTORE PUSH9 0x15DC9BDB99C818995D PUSH1 0xBA SHL PUSH1 0x44 DUP3 ADD MSTORE SWAP1 MLOAD SWAP1 DUP2 SWAP1 SUB PUSH1 0x64 ADD SWAP1 REVERT JUMPDEST PUSH1 0x11 SSTORE JUMP JUMPDEST PUSH1 0xB PUSH1 0x20 MSTORE PUSH1 0x0 SWAP1 DUP2 MSTORE PUSH1 0x40 SWAP1 KECCAK256 SLOAD DUP2 JUMP JUMPDEST PUSH2 0x4139 PUSH2 0x4D46 JUMP JUMPDEST PUSH1 0x0 DUP1 JUMPDEST PUSH1 0x5 DUP2 LT ISZERO PUSH2 0x41BC JUMPI DUP4 PUSH1 0x12 DUP3 PUSH1 0x5 DUP2 LT PUSH2 0x4154 JUMPI INVALID JUMPDEST ADD SLOAD EQ ISZERO PUSH2 0x4165 JUMPI PUSH1 0x1 SWAP2 POP PUSH2 0x41B4 JUMP JUMPDEST DUP2 ISZERO PUSH2 0x4193 JUMPI PUSH1 0x12 DUP2 PUSH1 0x5 DUP2 LT PUSH2 0x4178 JUMPI INVALID JUMPDEST ADD SLOAD DUP4 PUSH1 0x1 DUP4 SUB PUSH1 0x5 DUP2 LT PUSH2 0x4189 JUMPI INVALID JUMPDEST PUSH1 0x20 MUL ADD MSTORE PUSH2 0x41B4 JUMP JUMPDEST PUSH1 0x12 DUP2 PUSH1 0x5 DUP2 LT PUSH2 0x41A0 JUMPI INVALID JUMPDEST ADD SLOAD DUP4 DUP3 PUSH1 0x5 DUP2 LT PUSH2 0x41AE JUMPI INVALID JUMPDEST PUSH1 0x20 MUL ADD MSTORE JUMPDEST PUSH1 0x1 ADD PUSH2 0x413D JUMP JUMPDEST POP DUP1 PUSH2 0x41FD JUMPI PUSH1 0x40 DUP1 MLOAD PUSH3 0x461BCD PUSH1 0xE5 SHL DUP2 MSTORE PUSH1 0x20 PUSH1 0x4 DUP3 ADD MSTORE PUSH1 0xB PUSH1 0x24 DUP3 ADD MSTORE PUSH11 0x4E6F7420546F7047616D65 PUSH1 0xA8 SHL PUSH1 0x44 DUP3 ADD MSTORE SWAP1 MLOAD SWAP1 DUP2 SWAP1 SUB PUSH1 0x64 ADD SWAP1 REVERT JUMPDEST PUSH2 0x420A PUSH1 0x12 DUP4 PUSH1 0x5 PUSH2 0x4D64 JUMP JUMPDEST POP POP POP POP JUMP JUMPDEST PUSH1 0x5 PUSH1 0x2 DUP3 ADD SLOAD PUSH1 0xFF AND PUSH1 0x5 DUP2 GT ISZERO PUSH2 0x4225 JUMPI INVALID JUMPDEST EQ DUP1 PUSH2 0x4243 JUMPI POP PUSH1 0x4 PUSH1 0x2 DUP3 ADD SLOAD PUSH1 0xFF AND PUSH1 0x5 DUP2 GT ISZERO PUSH2 0x4241 JUMPI INVALID JUMPDEST EQ JUMPDEST ISZERO PUSH2 0x42C1 JUMPI PUSH2 0x4250 PUSH2 0x2A58 JUMP JUMPDEST PUSH1 0xE DUP3 ADD SLOAD PUSH1 0x1 PUSH1 0x1 PUSH1 0xA0 SHL SUB SWAP1 DUP2 AND SWAP2 AND EQ PUSH2 0x42BC JUMPI PUSH1 0xE DUP2 ADD SLOAD PUSH1 0xF DUP1 SLOAD PUSH1 0x1 DUP2 ADD DUP3 SSTORE PUSH1 0x0 SWAP2 SWAP1 SWAP2 MSTORE PUSH32 0x8D1108E10BCB7C27DDDFC02ED9D693A074039D026CF4EA4240B40F7D581AC802 ADD DUP1 SLOAD PUSH1 0x1 PUSH1 0x1 PUSH1 0xA0 SHL SUB NOT AND PUSH1 0x1 PUSH1 0x1 PUSH1 0xA0 SHL SUB SWAP1 SWAP3 AND SWAP2 SWAP1 SWAP2 OR SWAP1 SSTORE JUMPDEST PUSH2 0x43B3 JUMP JUMPDEST PUSH1 0x2 DUP1 DUP3 ADD SLOAD PUSH1 0xFF AND PUSH1 0x5 DUP2 GT ISZERO PUSH2 0x42D5 JUMPI INVALID JUMPDEST EQ DUP1 PUSH2 0x42F3 JUMPI POP PUSH1 0x3 PUSH1 0x2 DUP3 ADD SLOAD PUSH1 0xFF AND PUSH1 0x5 DUP2 GT ISZERO PUSH2 0x42F1 JUMPI INVALID JUMPDEST EQ JUMPDEST ISZERO PUSH2 0x436D JUMPI PUSH1 0xC DUP2 ADD SLOAD PUSH1 0xF DUP1 SLOAD PUSH1 0x1 DUP1 DUP3 ADD DUP4 SSTORE PUSH1 0x0 DUP4 SWAP1 MSTORE PUSH32 0x8D1108E10BCB7C27DDDFC02ED9D693A074039D026CF4EA4240B40F7D581AC802 SWAP2 DUP3 ADD DUP1 SLOAD PUSH1 0x1 PUSH1 0x1 PUSH1 0xA0 SHL SUB SWAP6 DUP7 AND PUSH1 0x1 PUSH1 0x1 PUSH1 0xA0 SHL SUB NOT SWAP2 DUP3 AND OR SWAP1 SWAP2 SSTORE PUSH1 0xD DUP7 ADD SLOAD DUP5 SLOAD SWAP3 DUP4 ADD SWAP1 SWAP5 SSTORE SWAP2 ADD DUP1 SLOAD SWAP3 SWAP1 SWAP4 AND SWAP2 AND OR SWAP1 SSTORE PUSH2 0x43B3 JUMP JUMPDEST PUSH1 0x40 DUP1 MLOAD PUSH3 0x461BCD PUSH1 0xE5 SHL DUP2 MSTORE PUSH1 0x20 PUSH1 0x4 DUP3 ADD MSTORE PUSH1 0x16 PUSH1 0x24 DUP3 ADD MSTORE PUSH22 0x466174616C2C2077726F6E672047616D655374617465 PUSH1 0x50 SHL PUSH1 0x44 DUP3 ADD MSTORE SWAP1 MLOAD SWAP1 DUP2 SWAP1 SUB PUSH1 0x64 ADD SWAP1 REVERT JUMPDEST PUSH1 0x18 SLOAD PUSH2 0x43C7 SWAP1 PUSH1 0x1 PUSH4 0xFFFFFFFF PUSH2 0x44B5 AND JUMP JUMPDEST PUSH1 0x18 SSTORE PUSH1 0xC DUP2 ADD SLOAD PUSH1 0x1 PUSH1 0x1 PUSH1 0xA0 SHL SUB SWAP1 DUP2 AND PUSH1 0x0 SWAP1 DUP2 MSTORE PUSH1 0x1A PUSH1 0x20 SWAP1 DUP2 MSTORE PUSH1 0x40 DUP1 DUP4 KECCAK256 DUP4 SWAP1 SSTORE PUSH1 0xD DUP6 ADD SLOAD DUP5 AND DUP4 MSTORE PUSH1 0x1B SWAP1 SWAP2 MSTORE DUP2 KECCAK256 DUP2 SWAP1 SSTORE PUSH1 0x5 DUP4 ADD SSTORE PUSH1 0x6 DUP3 ADD DUP1 SLOAD PUSH1 0x1 PUSH1 0x1 PUSH1 0xA0 SHL SUB NOT AND SWAP1 SSTORE PUSH1 0xE DUP3 ADD SLOAD AND ISZERO PUSH2 0x445E JUMPI PUSH1 0xE DUP2 ADD SLOAD PUSH1 0x1 PUSH1 0x1 PUSH1 0xA0 SHL SUB AND PUSH1 0x0 SWAP1 DUP2 MSTORE PUSH1 0x1D PUSH1 0x20 SWAP1 DUP2 MSTORE PUSH1 0x40 DUP3 KECCAK256 PUSH1 0x3 DUP5 ADD SLOAD DUP2 SLOAD PUSH1 0x1 DUP2 ADD DUP4 SSTORE SWAP2 DUP5 MSTORE SWAP2 SWAP1 SWAP3 KECCAK256 SWAP1 SWAP2 ADD SSTORE PUSH2 0x38C3 JUMP JUMPDEST PUSH1 0xC DUP2 ADD SLOAD PUSH1 0x1 PUSH1 0x1 PUSH1 0xA0 SHL SUB SWAP1 DUP2 AND PUSH1 0x0 SWAP1 DUP2 MSTORE PUSH1 0x1D PUSH1 0x20 SWAP1 DUP2 MSTORE PUSH1 0x40 DUP1 DUP4 KECCAK256 PUSH1 0x3 DUP7 ADD DUP1 SLOAD DUP3 SLOAD PUSH1 0x1 DUP1 DUP3 ADD DUP6 SSTORE SWAP4 DUP8 MSTORE DUP6 DUP8 KECCAK256 ADD SSTORE PUSH1 0xD SWAP1 SWAP7 ADD SLOAD SWAP1 SWAP5 AND DUP4 MSTORE DUP3 KECCAK256 SWAP4 SLOAD DUP5 SLOAD SWAP4 DUP5 ADD DUP6 SSTORE SWAP4 DUP3 MSTORE SWAP1 KECCAK256 ADD SSTORE JUMP JUMPDEST PUSH1 0x0 DUP3 DUP3 ADD DUP4 DUP2 LT ISZERO PUSH2 0x450F JUMPI PUSH1 0x40 DUP1 MLOAD PUSH3 0x461BCD PUSH1 0xE5 SHL DUP2 MSTORE PUSH1 0x20 PUSH1 0x4 DUP3 ADD MSTORE PUSH1 0x1B PUSH1 0x24 DUP3 ADD MSTORE PUSH32 0x536166654D6174683A206164646974696F6E206F766572666C6F770000000000 PUSH1 0x44 DUP3 ADD MSTORE SWAP1 MLOAD SWAP1 DUP2 SWAP1 SUB PUSH1 0x64 ADD SWAP1 REVERT JUMPDEST SWAP1 POP JUMPDEST SWAP3 SWAP2 POP POP JUMP JUMPDEST PUSH1 0x0 PUSH2 0x450F DUP4 DUP4 PUSH1 0x40 MLOAD DUP1 PUSH1 0x40 ADD PUSH1 0x40 MSTORE DUP1 PUSH1 0x1E DUP2 MSTORE PUSH1 0x20 ADD PUSH32 0x536166654D6174683A207375627472616374696F6E206F766572666C6F770000 DUP2 MSTORE POP PUSH2 0x4C4A JUMP JUMPDEST PUSH1 0x0 DUP3 PUSH2 0x4569 JUMPI POP PUSH1 0x0 PUSH2 0x4512 JUMP JUMPDEST DUP3 DUP3 MUL DUP3 DUP5 DUP3 DUP2 PUSH2 0x4576 JUMPI INVALID JUMPDEST DIV EQ PUSH2 0x450F JUMPI PUSH1 0x40 MLOAD PUSH3 0x461BCD PUSH1 0xE5 SHL DUP2 MSTORE PUSH1 0x4 ADD DUP1 DUP1 PUSH1 0x20 ADD DUP3 DUP2 SUB DUP3 MSTORE PUSH1 0x21 DUP2 MSTORE PUSH1 0x20 ADD DUP1 PUSH2 0x4ED9 PUSH1 0x21 SWAP2 CODECOPY PUSH1 0x40 ADD SWAP2 POP POP PUSH1 0x40 MLOAD DUP1 SWAP2 SUB SWAP1 REVERT JUMPDEST PUSH1 0x0 PUSH2 0x450F DUP4 DUP4 PUSH1 0x40 MLOAD DUP1 PUSH1 0x40 ADD PUSH1 0x40 MSTORE DUP1 PUSH1 0x1A DUP2 MSTORE PUSH1 0x20 ADD PUSH32 0x536166654D6174683A206469766973696F6E206279207A65726F000000000000 DUP2 MSTORE POP PUSH2 0x4CE1 JUMP JUMPDEST PUSH2 0x45FD PUSH2 0x4B70 JUMP JUMPDEST PUSH1 0x6 SLOAD PUSH1 0x1 PUSH1 0x1 PUSH1 0xA0 SHL SUB AND PUSH1 0x0 SWAP1 DUP2 MSTORE PUSH1 0x8 PUSH1 0x20 MSTORE PUSH1 0x40 SWAP1 KECCAK256 SLOAD PUSH2 0x4628 SWAP1 DUP3 PUSH4 0xFFFFFFFF PUSH2 0x44B5 AND JUMP JUMPDEST PUSH1 0x6 SLOAD PUSH1 0x1 PUSH1 0x1 PUSH1 0xA0 SHL SUB AND PUSH1 0x0 SWAP1 DUP2 MSTORE PUSH1 0x8 PUSH1 0x20 MSTORE PUSH1 0x40 SWAP1 KECCAK256 SSTORE POP JUMP JUMPDEST PUSH1 0x2 SLOAD PUSH1 0x3 SLOAD LT PUSH2 0x1CD8 JUMPI PUSH1 0x3 DUP1 SLOAD PUSH1 0x0 SWAP1 SWAP2 SSTORE PUSH1 0x4 SLOAD PUSH2 0x466D SWAP1 DUP3 PUSH4 0xFFFFFFFF PUSH2 0x44B5 AND JUMP JUMPDEST PUSH1 0x4 SSTORE PUSH1 0x1 SLOAD PUSH1 0x40 MLOAD PUSH1 0x1 PUSH1 0x1 PUSH1 0xA0 SHL SUB SWAP1 SWAP2 AND SWAP1 DUP3 ISZERO PUSH2 0x8FC MUL SWAP1 DUP4 SWAP1 PUSH1 0x0 DUP2 DUP2 DUP2 DUP6 DUP9 DUP9 CALL SWAP4 POP POP POP POP ISZERO DUP1 ISZERO PUSH2 0x46AA JUMPI RETURNDATASIZE PUSH1 0x0 DUP1 RETURNDATACOPY RETURNDATASIZE PUSH1 0x0 REVERT JUMPDEST POP PUSH1 0x1 SLOAD PUSH1 0x40 DUP1 MLOAD ADDRESS DUP2 MSTORE SWAP1 MLOAD DUP4 SWAP3 PUSH1 0x1 PUSH1 0x1 PUSH1 0xA0 SHL SUB AND SWAP2 PUSH32 0xCF6479F64BEF705BE7F01DA6A3427E5C5F9B381F335BEBC7D6939B727E8F2F2B SWAP2 SWAP1 DUP2 SWAP1 SUB PUSH1 0x20 ADD SWAP1 LOG3 POP JUMP JUMPDEST CALLER SWAP1 JUMP JUMPDEST PUSH1 0x0 SLOAD PUSH1 0xFF AND PUSH2 0x4743 JUMPI PUSH1 0x40 DUP1 MLOAD PUSH3 0x461BCD PUSH1 0xE5 SHL DUP2 MSTORE PUSH1 0x20 PUSH1 0x4 DUP3 ADD MSTORE PUSH1 0x14 PUSH1 0x24 DUP3 ADD MSTORE PUSH20 0x14185D5CD8589B194E881B9BDD081C185D5CD959 PUSH1 0x62 SHL PUSH1 0x44 DUP3 ADD MSTORE SWAP1 MLOAD SWAP1 DUP2 SWAP1 SUB PUSH1 0x64 ADD SWAP1 REVERT JUMPDEST PUSH1 0x0 DUP1 SLOAD PUSH1 0xFF NOT AND SWAP1 SSTORE PUSH32 0x5DB9EE0A495BF2E6FF9C91A7834C1BA4FDD244A5E8AA4E537BD38AEAE4B073AA PUSH2 0x4776 PUSH2 0x46F1 JUMP JUMPDEST PUSH1 0x40 DUP1 MLOAD PUSH1 0x1 PUSH1 0x1 PUSH1 0xA0 SHL SUB SWAP1 SWAP3 AND DUP3 MSTORE MLOAD SWAP1 DUP2 SWAP1 SUB PUSH1 0x20 ADD SWAP1 LOG1 JUMP JUMPDEST PUSH1 0x0 PUSH2 0x479D PUSH2 0x4DDE JUMP JUMPDEST PUSH1 0x0 DUP4 DUP2 MSTORE PUSH1 0x19 PUSH1 0x20 SWAP1 DUP2 MSTORE PUSH1 0x40 DUP1 DUP4 KECCAK256 DUP2 MLOAD PUSH2 0x200 DUP2 ADD DUP4 MSTORE DUP2 SLOAD PUSH1 0xFF DUP1 DUP3 AND ISZERO ISZERO DUP4 MSTORE PUSH2 0x100 SWAP1 SWAP2 DIV AND ISZERO ISZERO SWAP4 DUP2 ADD SWAP4 SWAP1 SWAP4 MSTORE DUP2 MLOAD DUP1 DUP4 ADD DUP1 DUP5 MSTORE SWAP4 SWAP5 SWAP2 SWAP4 SWAP3 DUP6 ADD SWAP3 SWAP1 SWAP2 PUSH1 0x1 DUP6 ADD SWAP2 PUSH1 0x2 SWAP2 DUP4 SWAP1 DUP6 JUMPDEST DUP3 SLOAD PUSH2 0x100 DUP4 SWAP1 EXP SWAP1 DIV PUSH1 0xFF AND ISZERO ISZERO DUP2 MSTORE PUSH1 0x20 PUSH1 0x1 SWAP3 DUP4 ADD DUP2 DUP2 DIV SWAP5 DUP6 ADD SWAP5 SWAP1 SWAP4 SUB SWAP1 SWAP3 MUL SWAP2 ADD DUP1 DUP5 GT PUSH2 0x47F0 JUMPI POP POP POP SWAP3 DUP5 MSTORE POP POP POP PUSH1 0x2 DUP3 ADD SLOAD PUSH1 0x20 SWAP1 SWAP2 ADD SWAP1 PUSH1 0xFF AND PUSH1 0x5 DUP2 GT ISZERO PUSH2 0x4840 JUMPI INVALID JUMPDEST PUSH1 0x5 DUP2 GT ISZERO PUSH2 0x484B JUMPI INVALID JUMPDEST DUP2 MSTORE PUSH1 0x3 DUP3 DUP2 ADD SLOAD PUSH1 0x20 DUP4 ADD MSTORE PUSH1 0x4 DUP4 ADD SLOAD PUSH1 0x40 DUP1 DUP5 ADD SWAP2 SWAP1 SWAP2 MSTORE PUSH1 0x5 DUP5 ADD SLOAD PUSH1 0x60 DUP1 DUP6 ADD SWAP2 SWAP1 SWAP2 MSTORE PUSH1 0x6 DUP6 ADD SLOAD PUSH1 0x1 PUSH1 0x1 PUSH1 0xA0 SHL SUB AND PUSH1 0x80 DUP6 ADD MSTORE DUP2 MLOAD SWAP1 DUP2 ADD SWAP2 DUP3 SWAP1 MSTORE PUSH1 0xA0 SWAP1 SWAP4 ADD SWAP3 SWAP2 PUSH1 0x7 DUP6 ADD SWAP2 DUP3 PUSH1 0x0 DUP6 JUMPDEST DUP3 SLOAD PUSH2 0x100 DUP4 SWAP1 EXP SWAP1 DIV PUSH1 0xFF AND DUP2 MSTORE PUSH1 0x20 PUSH1 0x1 SWAP3 DUP4 ADD DUP2 DUP2 DIV SWAP5 DUP6 ADD SWAP5 SWAP1 SWAP4 SUB SWAP1 SWAP3 MUL SWAP2 ADD DUP1 DUP5 GT PUSH2 0x48A1 JUMPI POP POP POP SWAP3 DUP5 MSTORE POP POP PUSH1 0x40 DUP1 MLOAD PUSH1 0x60 DUP2 ADD SWAP2 DUP3 SWAP1 MSTORE PUSH1 0x20 SWAP1 SWAP4 ADD SWAP3 SWAP2 POP PUSH1 0x8 DUP5 ADD SWAP1 PUSH1 0x3 SWAP1 DUP3 PUSH1 0x0 DUP6 JUMPDEST DUP3 SLOAD PUSH2 0x100 DUP4 SWAP1 EXP SWAP1 DIV PUSH1 0xFF AND DUP2 MSTORE PUSH1 0x20 PUSH1 0x1 SWAP3 DUP4 ADD DUP2 DUP2 DIV SWAP5 DUP6 ADD SWAP5 SWAP1 SWAP4 SUB SWAP1 SWAP3 MUL SWAP2 ADD DUP1 DUP5 GT PUSH2 0x48F6 JUMPI POP POP POP SWAP3 DUP5 MSTORE POP POP PUSH1 0x40 DUP1 MLOAD PUSH1 0x60 DUP2 ADD SWAP2 DUP3 SWAP1 MSTORE PUSH1 0x20 SWAP1 SWAP4 ADD SWAP3 SWAP2 POP PUSH1 0x9 DUP5 ADD SWAP1 PUSH1 0x3 SWAP1 DUP3 DUP5 JUMPDEST DUP2 SLOAD DUP2 MSTORE PUSH1 0x20 ADD SWAP1 PUSH1 0x1 ADD SWAP1 DUP1 DUP4 GT PUSH2 0x4949 JUMPI POP POP POP SWAP2 DUP4 MSTORE POP POP PUSH1 0xC DUP3 ADD SLOAD PUSH1 0x1 PUSH1 0x1 PUSH1 0xA0 SHL SUB SWAP1 DUP2 AND PUSH1 0x20 DUP4 ADD MSTORE PUSH1 0xD DUP4 ADD SLOAD DUP2 AND PUSH1 0x40 DUP4 ADD MSTORE PUSH1 0xE DUP4 ADD SLOAD DUP2 AND PUSH1 0x60 DUP4 ADD MSTORE PUSH1 0xF DUP4 ADD SLOAD DUP2 AND PUSH1 0x80 DUP4 ADD MSTORE PUSH1 0x10 SWAP1 SWAP3 ADD SLOAD SWAP1 SWAP2 AND PUSH1 0xA0 SWAP1 SWAP2 ADD MSTORE SWAP1 POP PUSH1 0x0 DUP1 DUP1 JUMPDEST PUSH1 0x3 DUP2 PUSH1 0xFF AND LT ISZERO PUSH2 0x4AAE JUMPI PUSH1 0x0 DUP5 PUSH2 0x100 ADD MLOAD DUP3 PUSH1 0xFF AND PUSH1 0x3 DUP2 LT PUSH2 0x49D5 JUMPI INVALID JUMPDEST PUSH1 0x20 MUL ADD MLOAD SWAP1 POP PUSH1 0x0 DUP6 PUSH2 0x120 ADD MLOAD DUP4 PUSH1 0xFF AND PUSH1 0x3 DUP2 LT PUSH2 0x49F2 JUMPI INVALID JUMPDEST PUSH1 0x20 MUL ADD MLOAD SWAP1 POP DUP2 PUSH1 0xFF AND PUSH1 0x1 EQ ISZERO PUSH2 0x4A34 JUMPI DUP1 PUSH1 0xFF AND PUSH1 0x2 EQ ISZERO PUSH2 0x4A1C JUMPI PUSH1 0x1 SWAP1 SWAP4 ADD SWAP3 PUSH2 0x4A2F JUMP JUMPDEST DUP1 PUSH1 0xFF AND PUSH1 0x3 EQ ISZERO PUSH2 0x4A2F JUMPI PUSH1 0x1 SWAP1 SWAP5 ADD SWAP4 JUMPDEST PUSH2 0x4AA4 JUMP JUMPDEST DUP2 PUSH1 0xFF AND PUSH1 0x2 EQ ISZERO PUSH2 0x4A6E JUMPI DUP1 PUSH1 0xFF AND PUSH1 0x1 EQ ISZERO PUSH2 0x4A57 JUMPI PUSH1 0x1 SWAP1 SWAP5 ADD SWAP4 PUSH2 0x4A2F JUMP JUMPDEST DUP1 PUSH1 0xFF AND PUSH1 0x3 EQ ISZERO PUSH2 0x4A2F JUMPI PUSH1 0x1 SWAP1 SWAP4 ADD SWAP3 PUSH2 0x4AA4 JUMP JUMPDEST DUP2 PUSH1 0xFF AND PUSH1 0x3 EQ ISZERO PUSH2 0x4AA4 JUMPI DUP1 PUSH1 0xFF AND PUSH1 0x1 EQ ISZERO PUSH2 0x4A91 JUMPI PUSH1 0x1 SWAP1 SWAP4 ADD SWAP3 PUSH2 0x4AA4 JUMP JUMPDEST DUP1 PUSH1 0xFF AND PUSH1 0x2 EQ ISZERO PUSH2 0x4AA4 JUMPI PUSH1 0x1 SWAP1 SWAP5 ADD SWAP4 JUMPDEST POP POP PUSH1 0x1 ADD PUSH2 0x49B3 JUMP JUMPDEST POP DUP1 PUSH1 0xFF AND DUP3 PUSH1 0xFF AND GT ISZERO PUSH2 0x4ACB JUMPI POP POP PUSH2 0x160 ADD MLOAD SWAP1 POP PUSH2 0x3460 JUMP JUMPDEST DUP1 PUSH1 0xFF AND DUP3 PUSH1 0xFF AND LT ISZERO PUSH2 0x4AE7 JUMPI POP POP PUSH2 0x180 ADD MLOAD SWAP1 POP PUSH2 0x3460 JUMP JUMPDEST POP POP POP SWAP2 SWAP1 POP JUMP JUMPDEST PUSH1 0x0 SLOAD PUSH1 0xFF AND ISZERO PUSH2 0x4B3A JUMPI PUSH1 0x40 DUP1 MLOAD PUSH3 0x461BCD PUSH1 0xE5 SHL DUP2 MSTORE PUSH1 0x20 PUSH1 0x4 DUP3 ADD MSTORE PUSH1 0x10 PUSH1 0x24 DUP3 ADD MSTORE PUSH16 0x14185D5CD8589B194E881C185D5CD959 PUSH1 0x82 SHL PUSH1 0x44 DUP3 ADD MSTORE SWAP1 MLOAD SWAP1 DUP2 SWAP1 SUB PUSH1 0x64 ADD SWAP1 REVERT JUMPDEST PUSH1 0x0 DUP1 SLOAD PUSH1 0xFF NOT AND PUSH1 0x1 OR SWAP1 SSTORE PUSH32 0x62E78CEA01BEE320CD4E420270B5EA74000D11B0C9F74754EBDBFC544B05A258 PUSH2 0x4776 PUSH2 0x46F1 JUMP JUMPDEST PUSH2 0x4B78 PUSH2 0x2A58 JUMP JUMPDEST PUSH1 0x6 SLOAD PUSH1 0x1 PUSH1 0x1 PUSH1 0xA0 SHL SUB SWAP1 DUP2 AND SWAP2 AND EQ ISZERO PUSH2 0x4B93 JUMPI PUSH2 0x1CD8 JUMP JUMPDEST PUSH3 0x13C680 PUSH2 0x4BAC PUSH1 0x7 SLOAD TIMESTAMP PUSH2 0x4518 SWAP1 SWAP2 SWAP1 PUSH4 0xFFFFFFFF AND JUMP JUMPDEST GT ISZERO PUSH2 0x1CD8 JUMPI PUSH1 0x0 PUSH2 0x4BBC PUSH2 0x2A58 JUMP JUMPDEST PUSH1 0x6 DUP1 SLOAD PUSH1 0x1 PUSH1 0x1 PUSH1 0xA0 SHL SUB NOT AND PUSH1 0x1 PUSH1 0x1 PUSH1 0xA0 SHL SUB SWAP3 SWAP1 SWAP3 AND SWAP2 SWAP1 SWAP2 OR SWAP1 SSTORE POP PUSH1 0x0 PUSH1 0x7 DUP2 SWAP1 SSTORE PUSH1 0x5 SSTORE JUMP JUMPDEST PUSH1 0x5 SLOAD CALLVALUE GT PUSH2 0x4C2E JUMPI PUSH1 0x40 DUP1 MLOAD PUSH3 0x461BCD PUSH1 0xE5 SHL DUP2 MSTORE PUSH1 0x20 PUSH1 0x4 DUP3 ADD MSTORE PUSH1 0xC PUSH1 0x24 DUP3 ADD MSTORE PUSH12 0x15DC9BDB99C8185B5BDD5B9D PUSH1 0xA2 SHL PUSH1 0x44 DUP3 ADD MSTORE SWAP1 MLOAD SWAP1 DUP2 SWAP1 SUB PUSH1 0x64 ADD SWAP1 REVERT JUMPDEST CALLVALUE PUSH1 0x5 SSTORE PUSH1 0x6 DUP1 SLOAD PUSH1 0x1 PUSH1 0x1 PUSH1 0xA0 SHL SUB NOT AND CALLER OR SWAP1 SSTORE TIMESTAMP PUSH1 0x7 SSTORE JUMP JUMPDEST PUSH1 0x0 DUP2 DUP5 DUP5 GT ISZERO PUSH2 0x4CD9 JUMPI PUSH1 0x40 MLOAD PUSH3 0x461BCD PUSH1 0xE5 SHL DUP2 MSTORE PUSH1 0x4 ADD DUP1 DUP1 PUSH1 0x20 ADD DUP3 DUP2 SUB DUP3 MSTORE DUP4 DUP2 DUP2 MLOAD DUP2 MSTORE PUSH1 0x20 ADD SWAP2 POP DUP1 MLOAD SWAP1 PUSH1 0x20 ADD SWAP1 DUP1 DUP4 DUP4 PUSH1 0x0 JUMPDEST DUP4 DUP2 LT ISZERO PUSH2 0x4C9E JUMPI DUP2 DUP2 ADD MLOAD DUP4 DUP3 ADD MSTORE PUSH1 0x20 ADD PUSH2 0x4C86 JUMP JUMPDEST POP POP POP POP SWAP1 POP SWAP1 DUP2 ADD SWAP1 PUSH1 0x1F AND DUP1 ISZERO PUSH2 0x4CCB JUMPI DUP1 DUP3 SUB DUP1 MLOAD PUSH1 0x1 DUP4 PUSH1 0x20 SUB PUSH2 0x100 EXP SUB NOT AND DUP2 MSTORE PUSH1 0x20 ADD SWAP2 POP JUMPDEST POP SWAP3 POP POP POP PUSH1 0x40 MLOAD DUP1 SWAP2 SUB SWAP1 REVERT JUMPDEST POP POP POP SWAP1 SUB SWAP1 JUMP JUMPDEST PUSH1 0x0 DUP2 DUP4 PUSH2 0x4D30 JUMPI PUSH1 0x40 MLOAD PUSH3 0x461BCD PUSH1 0xE5 SHL DUP2 MSTORE PUSH1 0x20 PUSH1 0x4 DUP3 ADD DUP2 DUP2 MSTORE DUP4 MLOAD PUSH1 0x24 DUP5 ADD MSTORE DUP4 MLOAD SWAP1 SWAP3 DUP4 SWAP3 PUSH1 0x44 SWAP1 SWAP2 ADD SWAP2 SWAP1 DUP6 ADD SWAP1 DUP1 DUP4 DUP4 PUSH1 0x0 DUP4 ISZERO PUSH2 0x4C9E JUMPI DUP2 DUP2 ADD MLOAD DUP4 DUP3 ADD MSTORE PUSH1 0x20 ADD PUSH2 0x4C86 JUMP JUMPDEST POP PUSH1 0x0 DUP4 DUP6 DUP2 PUSH2 0x4D3C JUMPI INVALID JUMPDEST DIV SWAP6 SWAP5 POP POP POP POP POP JUMP JUMPDEST PUSH1 0x40 MLOAD DUP1 PUSH1 0xA0 ADD PUSH1 0x40 MSTORE DUP1 PUSH1 0x5 SWAP1 PUSH1 0x20 DUP3 MUL DUP1 CODESIZE DUP4 CODECOPY POP SWAP2 SWAP3 SWAP2 POP POP JUMP JUMPDEST DUP3 PUSH1 0x5 DUP2 ADD SWAP3 DUP3 ISZERO PUSH2 0x4D92 JUMPI SWAP2 PUSH1 0x20 MUL DUP3 ADD JUMPDEST DUP3 DUP2 GT ISZERO PUSH2 0x4D92 JUMPI DUP3 MLOAD DUP3 SSTORE SWAP2 PUSH1 0x20 ADD SWAP2 SWAP1 PUSH1 0x1 ADD SWAP1 PUSH2 0x4D77 JUMP JUMPDEST POP PUSH2 0x4D9E SWAP3 SWAP2 POP PUSH2 0x4E7A JUMP JUMPDEST POP SWAP1 JUMP JUMPDEST PUSH1 0x40 MLOAD DUP1 PUSH1 0x60 ADD PUSH1 0x40 MSTORE DUP1 PUSH1 0x3 SWAP1 PUSH1 0x20 DUP3 MUL DUP1 CODESIZE DUP4 CODECOPY POP SWAP2 SWAP3 SWAP2 POP POP JUMP JUMPDEST POP DUP1 SLOAD PUSH1 0x0 DUP3 SSTORE SWAP1 PUSH1 0x0 MSTORE PUSH1 0x20 PUSH1 0x0 KECCAK256 SWAP1 DUP2 ADD SWAP1 PUSH2 0x38C3 SWAP2 SWAP1 PUSH2 0x4E7A JUMP JUMPDEST PUSH1 0x40 DUP1 MLOAD PUSH2 0x200 DUP2 ADD DUP3 MSTORE PUSH1 0x0 DUP1 DUP3 MSTORE PUSH1 0x20 DUP3 ADD MSTORE SWAP1 DUP2 ADD PUSH2 0x4DFE PUSH2 0x4E94 JUMP JUMPDEST DUP2 MSTORE PUSH1 0x20 ADD PUSH1 0x0 DUP2 MSTORE PUSH1 0x20 ADD PUSH1 0x0 DUP2 MSTORE PUSH1 0x20 ADD PUSH1 0x0 DUP2 MSTORE PUSH1 0x20 ADD PUSH1 0x0 DUP2 MSTORE PUSH1 0x20 ADD PUSH1 0x0 PUSH1 0x1 PUSH1 0x1 PUSH1 0xA0 SHL SUB AND DUP2 MSTORE PUSH1 0x20 ADD PUSH2 0x4E37 PUSH2 0x4DA2 JUMP JUMPDEST DUP2 MSTORE PUSH1 0x20 ADD PUSH2 0x4E44 PUSH2 0x4DA2 JUMP JUMPDEST DUP2 MSTORE PUSH1 0x20 ADD PUSH2 0x4E51 PUSH2 0x4DA2 JUMP JUMPDEST DUP2 MSTORE PUSH1 0x0 PUSH1 0x20 DUP3 ADD DUP2 SWAP1 MSTORE PUSH1 0x40 DUP3 ADD DUP2 SWAP1 MSTORE PUSH1 0x60 DUP3 ADD DUP2 SWAP1 MSTORE PUSH1 0x80 DUP3 ADD DUP2 SWAP1 MSTORE PUSH1 0xA0 SWAP1 SWAP2 ADD MSTORE SWAP1 JUMP JUMPDEST PUSH2 0x165E SWAP2 SWAP1 JUMPDEST DUP1 DUP3 GT ISZERO PUSH2 0x4D9E JUMPI PUSH1 0x0 DUP2 SSTORE PUSH1 0x1 ADD PUSH2 0x4E80 JUMP JUMPDEST PUSH1 0x40 MLOAD DUP1 PUSH1 0x40 ADD PUSH1 0x40 MSTORE DUP1 PUSH1 0x2 SWAP1 PUSH1 0x20 DUP3 MUL DUP1 CODESIZE DUP4 CODECOPY POP SWAP2 SWAP3 SWAP2 POP POP JUMP INVALID 0x4F PUSH24 0x6E61626C653A206E6577206F776E65722069732074686520 PUSH27 0x65726F2061646472657373536166654D6174683A206D756C746970 PUSH13 0x69636174696F6E206F76657266 PUSH13 0x6F774F776E61626C653A206361 PUSH13 0x6C6572206973206E6F74207468 PUSH6 0x206F776E6572 LOG2 PUSH5 0x6970667358 0x22 SLT KECCAK256 PUSH15 0xACB987624F9B308F94AAF6B6D8DB48 SMOD MSTORE 0x2C CALLCODE 0xCF MLOAD 0x2E 0xEA DUP6 RETURNDATASIZE 0xEE EXTCODESIZE 0x29 SGT SWAP15 NUMBER PUSH5 0x736F6C6343 STOP MOD STOP STOP CALLER 0x4F PUSH24 0x6E61626C653A2063616C6C6572206973206E6F7420746865 KECCAK256 PUSH16 0x776E6572000000000000000000000000 "
		},
		"gasEstimates": {
			"creation": {
				"codeDepositCost": "4060600",
				"executionCost": "infinite",
				"totalCost": "infinite"
			},
			"external": {
				"ACQUIRED_FEE_BENEFICIARY_MAX_DURATION()": "353",
				"addTopGame(uint256)": "infinite",
				"betTotal(address)": "1236",
				"createGame(address,bytes32)": "infinite",
				"devFeePending()": "1089",
				"feeBeneficiar()": "1148",
				"feeBeneficiarBalances(address)": "1280",
				"feeBeneficiarPurchasedAt()": "1067",
				"finishExpiredGame(uint256)": "infinite",
				"gameMoveDuration()": "1147",
				"gameMoveExpired(uint256)": "infinite",
				"gameOnPause(uint256)": "1273",
				"gameWithdrawalInfo(uint256)": "2141",
				"games(uint256)": "9779",
				"gamesCompletedAmount()": "1108",
				"gamesCreatedAmount()": "1065",
				"gamesWithPendingPrizeWithdrawal(address,uint256)": "2164",
				"getCreatorMoveHashesForGame(uint256)": "infinite",
				"getGamesWithPendingPrizeWithdrawal(address)": "infinite",
				"getPlayedGamesForPlayer(address)": "infinite",
				"getRaffleParticipants()": "infinite",
				"getRaffleResultCount()": "1067",
				"getTopGames()": "infinite",
				"increaseBetForGameBy(uint256)": "infinite",
				"isTopGame(uint256)": "infinite",
				"joinGame(uint256,address,uint8)": "infinite",
				"kill()": "infinite",
				"latestBeneficiarPrice()": "1066",
				"makeFeeBeneficiar()": "infinite",
				"minBet()": "1088",
				"ongoinRafflePrize()": "1133",
				"ongoingGameAsCreator(address)": "1213",
				"ongoingGameAsOpponent(address)": "1216",
				"opponentNextMove(uint256,uint8)": "infinite",
				"owner()": "1161",
				"partner()": "1171",
				"partnerFeePending()": "1087",
				"partnerFeeTotalUsed()": "1111",
				"partnerFeeTransferThreshold()": "1066",
				"pause()": "infinite",
				"pauseGame(uint256)": "infinite",
				"paused()": "1100",
				"playMove(uint256,uint8,bytes32,bytes32)": "infinite",
				"prizeWithdrawn(address)": "1279",
				"quitGame(uint256)": "infinite",
				"raffleActivated()": "2767",
				"raffleActivationParticipantsAmount()": "1111",
				"raffleParticipants(uint256)": "2040",
				"rafflePrizePending(address)": "1213",
				"rafflePrizeWithdrawn(address)": "1278",
				"rafflePrizesWonTotal()": "1132",
				"raffleResults(uint256)": "3765",
				"rand()": "3009",
				"referralFeesPending(address)": "1258",
				"referralFeesWithdrawn(address)": "1190",
				"renounceOwnership()": "infinite",
				"runRaffle()": "infinite",
				"showRowMoves(uint256,uint8)": "5544",
				"topGames(uint256)": "1141",
				"totalUsedInGame()": "1088",
				"totalUsedReferralFees()": "1065",
				"transferOwnership(address)": "infinite",
				"unpause()": "infinite",
				"unpauseGame(uint256)": "infinite",
				"updateGameMoveDuration(uint16)": "infinite",
				"updateMinBet(uint256)": "infinite",
				"updatePartner(address)": "infinite",
				"updatePartnerTransferThreshold(uint256)": "infinite",
				"updateRaffleActivationParticipantsCount(uint256)": "infinite",
				"withdrawBeneficiaryFee()": "infinite",
				"withdrawDevFee()": "infinite",
				"withdrawGamePrizes(uint256)": "infinite",
				"withdrawRafflePrizes()": "infinite",
				"withdrawReferralFees()": "infinite"
			},
			"internal": {
				"finishGame(struct RockPaperScissorsGame.Game storage pointer)": "infinite",
				"playerWithMoreWins(uint256)": "infinite",
				"removeTopGame(uint256)": "infinite"
			}
		},
		"methodIdentifiers": {
			"ACQUIRED_FEE_BENEFICIARY_MAX_DURATION()": "b04b83d5",
			"addTopGame(uint256)": "9960c852",
			"betTotal(address)": "5f9edc85",
			"createGame(address,bytes32)": "b7e08e7f",
			"devFeePending()": "8bc44618",
			"feeBeneficiar()": "83725b0e",
			"feeBeneficiarBalances(address)": "443c3063",
			"feeBeneficiarPurchasedAt()": "11a155e3",
			"finishExpiredGame(uint256)": "59cf5bd6",
			"gameMoveDuration()": "65ab31b3",
			"gameMoveExpired(uint256)": "adc6d4e7",
			"gameOnPause(uint256)": "efc30e69",
			"gameWithdrawalInfo(uint256)": "0fee8acb",
			"games(uint256)": "117a5b90",
			"gamesCompletedAmount()": "f5f3b773",
			"gamesCreatedAmount()": "d6977392",
			"gamesWithPendingPrizeWithdrawal(address,uint256)": "afb5d68b",
			"getCreatorMoveHashesForGame(uint256)": "ae6d3c71",
			"getGamesWithPendingPrizeWithdrawal(address)": "4cd1e0eb",
			"getPlayedGamesForPlayer(address)": "a90f7365",
			"getRaffleParticipants()": "1af37971",
			"getRaffleResultCount()": "4b39df83",
			"getTopGames()": "cbe93c61",
			"increaseBetForGameBy(uint256)": "a4b4b851",
			"isTopGame(uint256)": "a756cc0d",
			"joinGame(uint256,address,uint8)": "90286dae",
			"kill()": "41c0e1b5",
			"latestBeneficiarPrice()": "a517622d",
			"makeFeeBeneficiar()": "ee03b9e1",
			"minBet()": "9619367d",
			"ongoinRafflePrize()": "51be96ea",
			"ongoingGameAsCreator(address)": "e03964aa",
			"ongoingGameAsOpponent(address)": "072689ec",
			"opponentNextMove(uint256,uint8)": "870dafb0",
			"owner()": "8da5cb5b",
			"partner()": "be10862b",
			"partnerFeePending()": "c8d60259",
			"partnerFeeTotalUsed()": "4dc5e4d3",
			"partnerFeeTransferThreshold()": "95bb4389",
			"pause()": "8456cb59",
			"pauseGame(uint256)": "1214e31e",
			"paused()": "5c975abb",
			"playMove(uint256,uint8,bytes32,bytes32)": "72361111",
			"prizeWithdrawn(address)": "cc7ecbbc",
			"quitGame(uint256)": "16f99211",
			"raffleActivated()": "7418efeb",
			"raffleActivationParticipantsAmount()": "3689e1db",
			"raffleParticipants(uint256)": "04a57c09",
			"rafflePrizePending(address)": "82efb308",
			"rafflePrizeWithdrawn(address)": "ff24ba7c",
			"rafflePrizesWonTotal()": "9f099c28",
			"raffleResults(uint256)": "40861c1d",
			"rand()": "3b3dca76",
			"referralFeesPending(address)": "a9e4aee5",
			"referralFeesWithdrawn(address)": "f1da06b5",
			"renounceOwnership()": "715018a6",
			"runRaffle()": "b28b9549",
			"showRowMoves(uint256,uint8)": "2106f1b8",
			"topGames(uint256)": "bf7f7105",
			"totalUsedInGame()": "7245fbb2",
			"totalUsedReferralFees()": "7b503668",
			"transferOwnership(address)": "f2fde38b",
			"unpause()": "3f4ba83a",
			"unpauseGame(uint256)": "bbc9773e",
			"updateGameMoveDuration(uint16)": "77b00c01",
			"updateMinBet(uint256)": "f7cf0aa1",
			"updatePartner(address)": "401f4663",
			"updatePartnerTransferThreshold(uint256)": "780d2456",
			"updateRaffleActivationParticipantsCount(uint256)": "8446596e",
			"withdrawBeneficiaryFee()": "e1b740a0",
			"withdrawDevFee()": "cb93f7ef",
			"withdrawGamePrizes(uint256)": "2bcac304",
			"withdrawRafflePrizes()": "afa74c5b",
			"withdrawReferralFees()": "173608e7"
		}
	},
	"abi": [
		{
			"inputs": [
				{
					"internalType": "address payable",
					"name": "_partner",
					"type": "address"
				}
			],
			"stateMutability": "nonpayable",
			"type": "constructor"
		},
		{
			"anonymous": false,
			"inputs": [
				{
					"indexed": true,
					"internalType": "address",
					"name": "previousOwner",
					"type": "address"
				},
				{
					"indexed": true,
					"internalType": "address",
					"name": "newOwner",
					"type": "address"
				}
			],
			"name": "OwnershipTransferred",
			"type": "event"
		},
		{
			"anonymous": false,
			"inputs": [
				{
					"indexed": false,
					"internalType": "address",
					"name": "account",
					"type": "address"
				}
			],
			"name": "Paused",
			"type": "event"
		},
		{
			"anonymous": false,
			"inputs": [
				{
					"indexed": true,
					"internalType": "uint256",
					"name": "id",
					"type": "uint256"
				},
				{
					"indexed": true,
					"internalType": "address",
					"name": "creator",
					"type": "address"
				}
			],
			"name": "RPS_GameAddedToTop",
			"type": "event"
		},
		{
			"anonymous": false,
			"inputs": [
				{
					"indexed": true,
					"internalType": "uint256",
					"name": "id",
					"type": "uint256"
				},
				{
					"indexed": true,
					"internalType": "address",
					"name": "creator",
					"type": "address"
				},
				{
					"indexed": true,
					"internalType": "uint256",
					"name": "bet",
					"type": "uint256"
				}
			],
			"name": "RPS_GameCreated",
			"type": "event"
		},
		{
			"anonymous": false,
			"inputs": [
				{
					"indexed": true,
					"internalType": "uint256",
					"name": "id",
					"type": "uint256"
				},
				{
					"indexed": true,
					"internalType": "address",
					"name": "creator",
					"type": "address"
				},
				{
					"indexed": true,
					"internalType": "address",
					"name": "opponent",
					"type": "address"
				}
			],
			"name": "RPS_GameExpiredFinished",
			"type": "event"
		},
		{
			"anonymous": false,
			"inputs": [
				{
					"indexed": true,
					"internalType": "uint256",
					"name": "id",
					"type": "uint256"
				},
				{
					"indexed": true,
					"internalType": "address",
					"name": "creator",
					"type": "address"
				},
				{
					"indexed": true,
					"internalType": "address",
					"name": "opponent",
					"type": "address"
				}
			],
			"name": "RPS_GameFinished",
			"type": "event"
		},
		{
			"anonymous": false,
			"inputs": [
				{
					"indexed": true,
					"internalType": "uint256",
					"name": "id",
					"type": "uint256"
				},
				{
					"indexed": true,
					"internalType": "address",
					"name": "creator",
					"type": "address"
				},
				{
					"indexed": true,
					"internalType": "address",
					"name": "opponent",
					"type": "address"
				}
			],
			"name": "RPS_GameJoined",
			"type": "event"
		},
		{
			"anonymous": false,
			"inputs": [
				{
					"indexed": true,
					"internalType": "uint256",
					"name": "id",
					"type": "uint256"
				}
			],
			"name": "RPS_GameMovePlayed",
			"type": "event"
		},
		{
			"anonymous": false,
			"inputs": [
				{
					"indexed": true,
					"internalType": "uint256",
					"name": "id",
					"type": "uint256"
				}
			],
			"name": "RPS_GameOpponentMoved",
			"type": "event"
		},
		{
			"anonymous": false,
			"inputs": [
				{
					"indexed": true,
					"internalType": "uint256",
					"name": "id",
					"type": "uint256"
				}
			],
			"name": "RPS_GamePaused",
			"type": "event"
		},
		{
			"anonymous": false,
			"inputs": [
				{
					"indexed": true,
					"internalType": "address",
					"name": "player",
					"type": "address"
				}
			],
			"name": "RPS_GamePrizesWithdrawn",
			"type": "event"
		},
		{
			"anonymous": false,
			"inputs": [
				{
					"indexed": true,
					"internalType": "uint256",
					"name": "id",
					"type": "uint256"
				},
				{
					"indexed": true,
					"internalType": "address",
					"name": "creator",
					"type": "address"
				},
				{
					"indexed": true,
					"internalType": "address",
					"name": "opponent",
					"type": "address"
				}
			],
			"name": "RPS_GameQuittedFinished",
			"type": "event"
		},
		{
			"anonymous": false,
			"inputs": [
				{
					"indexed": true,
					"internalType": "address",
					"name": "referral",
					"type": "address"
				}
			],
			"name": "RPS_GameReferralWithdrawn",
			"type": "event"
		},
		{
			"anonymous": false,
			"inputs": [
				{
					"indexed": true,
					"internalType": "uint256",
					"name": "id",
					"type": "uint256"
				}
			],
			"name": "RPS_GameUnpaused",
			"type": "event"
		},
		{
			"anonymous": false,
			"inputs": [
				{
					"indexed": true,
					"internalType": "uint256",
					"name": "id",
					"type": "uint256"
				},
				{
					"indexed": true,
					"internalType": "address",
					"name": "creator",
					"type": "address"
				}
			],
			"name": "RPS_GameUpdated",
			"type": "event"
		},
		{
			"anonymous": false,
			"inputs": [
				{
					"indexed": false,
					"internalType": "address",
					"name": "from",
					"type": "address"
				},
				{
					"indexed": true,
					"internalType": "address",
					"name": "to",
					"type": "address"
				},
				{
					"indexed": true,
					"internalType": "uint256",
					"name": "amount",
					"type": "uint256"
				}
			],
			"name": "RPS_PartnerFeeTransferred",
			"type": "event"
		},
		{
			"anonymous": false,
			"inputs": [
				{
					"indexed": true,
					"internalType": "address",
					"name": "winner",
					"type": "address"
				},
				{
					"indexed": true,
					"internalType": "uint256",
					"name": "prize",
					"type": "uint256"
				}
			],
			"name": "RPS_RafflePlayed",
			"type": "event"
		},
		{
			"anonymous": false,
			"inputs": [
				{
					"indexed": true,
					"internalType": "address",
					"name": "winner",
					"type": "address"
				}
			],
			"name": "RPS_RafflePrizeWithdrawn",
			"type": "event"
		},
		{
			"anonymous": false,
			"inputs": [
				{
					"indexed": false,
					"internalType": "address",
					"name": "account",
					"type": "address"
				}
			],
			"name": "Unpaused",
			"type": "event"
		},
		{
			"inputs": [],
			"name": "ACQUIRED_FEE_BENEFICIARY_MAX_DURATION",
			"outputs": [
				{
					"internalType": "uint256",
					"name": "",
					"type": "uint256"
				}
			],
			"stateMutability": "view",
			"type": "function"
		},
		{
			"inputs": [
				{
					"internalType": "uint256",
					"name": "_id",
					"type": "uint256"
				}
			],
			"name": "addTopGame",
			"outputs": [],
			"stateMutability": "payable",
			"type": "function"
		},
		{
			"inputs": [
				{
					"internalType": "address",
					"name": "",
					"type": "address"
				}
			],
			"name": "betTotal",
			"outputs": [
				{
					"internalType": "uint256",
					"name": "",
					"type": "uint256"
				}
			],
			"stateMutability": "view",
			"type": "function"
		},
		{
			"inputs": [
				{
					"internalType": "address",
					"name": "_referral",
					"type": "address"
				},
				{
					"internalType": "bytes32",
					"name": "_moveHash",
					"type": "bytes32"
				}
			],
			"name": "createGame",
			"outputs": [],
			"stateMutability": "payable",
			"type": "function"
		},
		{
			"inputs": [],
			"name": "devFeePending",
			"outputs": [
				{
					"internalType": "uint256",
					"name": "",
					"type": "uint256"
				}
			],
			"stateMutability": "view",
			"type": "function"
		},
		{
			"inputs": [],
			"name": "feeBeneficiar",
			"outputs": [
				{
					"internalType": "address payable",
					"name": "",
					"type": "address"
				}
			],
			"stateMutability": "view",
			"type": "function"
		},
		{
			"inputs": [
				{
					"internalType": "address",
					"name": "",
					"type": "address"
				}
			],
			"name": "feeBeneficiarBalances",
			"outputs": [
				{
					"internalType": "uint256",
					"name": "",
					"type": "uint256"
				}
			],
			"stateMutability": "view",
			"type": "function"
		},
		{
			"inputs": [],
			"name": "feeBeneficiarPurchasedAt",
			"outputs": [
				{
					"internalType": "uint256",
					"name": "",
					"type": "uint256"
				}
			],
			"stateMutability": "view",
			"type": "function"
		},
		{
			"inputs": [
				{
					"internalType": "uint256",
					"name": "_id",
					"type": "uint256"
				}
			],
			"name": "finishExpiredGame",
			"outputs": [],
			"stateMutability": "nonpayable",
			"type": "function"
		},
		{
			"inputs": [],
			"name": "gameMoveDuration",
			"outputs": [
				{
					"internalType": "uint16",
					"name": "",
					"type": "uint16"
				}
			],
			"stateMutability": "view",
			"type": "function"
		},
		{
			"inputs": [
				{
					"internalType": "uint256",
					"name": "_id",
					"type": "uint256"
				}
			],
			"name": "gameMoveExpired",
			"outputs": [
				{
					"internalType": "bool",
					"name": "",
					"type": "bool"
				}
			],
			"stateMutability": "view",
			"type": "function"
		},
		{
			"inputs": [
				{
					"internalType": "uint256",
					"name": "_id",
					"type": "uint256"
				}
			],
			"name": "gameOnPause",
			"outputs": [
				{
					"internalType": "bool",
					"name": "",
					"type": "bool"
				}
			],
			"stateMutability": "view",
			"type": "function"
		},
		{
			"inputs": [
				{
					"internalType": "uint256",
					"name": "_id",
					"type": "uint256"
				}
			],
			"name": "gameWithdrawalInfo",
			"outputs": [
				{
					"internalType": "bool",
					"name": "",
					"type": "bool"
				},
				{
					"internalType": "bool",
					"name": "",
					"type": "bool"
				},
				{
					"internalType": "bool",
					"name": "",
					"type": "bool"
				}
			],
			"stateMutability": "view",
			"type": "function"
		},
		{
			"inputs": [
				{
					"internalType": "uint256",
					"name": "",
					"type": "uint256"
				}
			],
			"name": "games",
			"outputs": [
				{
					"internalType": "bool",
					"name": "paused",
					"type": "bool"
				},
				{
					"internalType": "bool",
					"name": "isPrizeWithdrawn",
					"type": "bool"
				},
				{
					"internalType": "enum RockPaperScissorsGame.GameState",
					"name": "state",
					"type": "uint8"
				},
				{
					"internalType": "uint256",
					"name": "id",
					"type": "uint256"
				},
				{
					"internalType": "uint256",
					"name": "bet",
					"type": "uint256"
				},
				{
					"internalType": "uint256",
					"name": "prevMoveTimestamp",
					"type": "uint256"
				},
				{
					"internalType": "address",
					"name": "nextMover",
					"type": "address"
				},
				{
					"internalType": "address payable",
					"name": "creator",
					"type": "address"
				},
				{
					"internalType": "address payable",
					"name": "opponent",
					"type": "address"
				},
				{
					"internalType": "address payable",
					"name": "winner",
					"type": "address"
				},
				{
					"internalType": "address",
					"name": "creatorReferral",
					"type": "address"
				},
				{
					"internalType": "address",
					"name": "opponentReferral",
					"type": "address"
				}
			],
			"stateMutability": "view",
			"type": "function"
		},
		{
			"inputs": [],
			"name": "gamesCompletedAmount",
			"outputs": [
				{
					"internalType": "uint256",
					"name": "",
					"type": "uint256"
				}
			],
			"stateMutability": "view",
			"type": "function"
		},
		{
			"inputs": [],
			"name": "gamesCreatedAmount",
			"outputs": [
				{
					"internalType": "uint256",
					"name": "",
					"type": "uint256"
				}
			],
			"stateMutability": "view",
			"type": "function"
		},
		{
			"inputs": [
				{
					"internalType": "address",
					"name": "",
					"type": "address"
				},
				{
					"internalType": "uint256",
					"name": "",
					"type": "uint256"
				}
			],
			"name": "gamesWithPendingPrizeWithdrawal",
			"outputs": [
				{
					"internalType": "uint256",
					"name": "",
					"type": "uint256"
				}
			],
			"stateMutability": "view",
			"type": "function"
		},
		{
			"inputs": [
				{
					"internalType": "uint256",
					"name": "_id",
					"type": "uint256"
				}
			],
			"name": "getCreatorMoveHashesForGame",
			"outputs": [
				{
					"internalType": "bytes32[3]",
					"name": "",
					"type": "bytes32[3]"
				}
			],
			"stateMutability": "view",
			"type": "function"
		},
		{
			"inputs": [
				{
					"internalType": "address",
					"name": "_address",
					"type": "address"
				}
			],
			"name": "getGamesWithPendingPrizeWithdrawal",
			"outputs": [
				{
					"internalType": "uint256[]",
					"name": "ids",
					"type": "uint256[]"
				}
			],
			"stateMutability": "view",
			"type": "function"
		},
		{
			"inputs": [
				{
					"internalType": "address",
					"name": "_address",
					"type": "address"
				}
			],
			"name": "getPlayedGamesForPlayer",
			"outputs": [
				{
					"internalType": "uint256[]",
					"name": "",
					"type": "uint256[]"
				}
			],
			"stateMutability": "view",
			"type": "function"
		},
		{
			"inputs": [],
			"name": "getRaffleParticipants",
			"outputs": [
				{
					"internalType": "address[]",
					"name": "",
					"type": "address[]"
				}
			],
			"stateMutability": "view",
			"type": "function"
		},
		{
			"inputs": [],
			"name": "getRaffleResultCount",
			"outputs": [
				{
					"internalType": "uint256",
					"name": "",
					"type": "uint256"
				}
			],
			"stateMutability": "view",
			"type": "function"
		},
		{
			"inputs": [],
			"name": "getTopGames",
			"outputs": [
				{
					"internalType": "uint256[5]",
					"name": "",
					"type": "uint256[5]"
				}
			],
			"stateMutability": "view",
			"type": "function"
		},
		{
			"inputs": [
				{
					"internalType": "uint256",
					"name": "_id",
					"type": "uint256"
				}
			],
			"name": "increaseBetForGameBy",
			"outputs": [],
			"stateMutability": "payable",
			"type": "function"
		},
		{
			"inputs": [
				{
					"internalType": "uint256",
					"name": "_id",
					"type": "uint256"
				}
			],
			"name": "isTopGame",
			"outputs": [
				{
					"internalType": "bool",
					"name": "",
					"type": "bool"
				}
			],
			"stateMutability": "view",
			"type": "function"
		},
		{
			"inputs": [
				{
					"internalType": "uint256",
					"name": "_id",
					"type": "uint256"
				},
				{
					"internalType": "address",
					"name": "_referral",
					"type": "address"
				},
				{
					"internalType": "uint8",
					"name": "_moveMark",
					"type": "uint8"
				}
			],
			"name": "joinGame",
			"outputs": [],
			"stateMutability": "payable",
			"type": "function"
		},
		{
			"inputs": [],
			"name": "kill",
			"outputs": [],
			"stateMutability": "nonpayable",
			"type": "function"
		},
		{
			"inputs": [],
			"name": "latestBeneficiarPrice",
			"outputs": [
				{
					"internalType": "uint256",
					"name": "",
					"type": "uint256"
				}
			],
			"stateMutability": "view",
			"type": "function"
		},
		{
			"inputs": [],
			"name": "makeFeeBeneficiar",
			"outputs": [],
			"stateMutability": "payable",
			"type": "function"
		},
		{
			"inputs": [],
			"name": "minBet",
			"outputs": [
				{
					"internalType": "uint256",
					"name": "",
					"type": "uint256"
				}
			],
			"stateMutability": "view",
			"type": "function"
		},
		{
			"inputs": [],
			"name": "ongoinRafflePrize",
			"outputs": [
				{
					"internalType": "uint256",
					"name": "",
					"type": "uint256"
				}
			],
			"stateMutability": "view",
			"type": "function"
		},
		{
			"inputs": [
				{
					"internalType": "address",
					"name": "",
					"type": "address"
				}
			],
			"name": "ongoingGameAsCreator",
			"outputs": [
				{
					"internalType": "uint256",
					"name": "",
					"type": "uint256"
				}
			],
			"stateMutability": "view",
			"type": "function"
		},
		{
			"inputs": [
				{
					"internalType": "address",
					"name": "",
					"type": "address"
				}
			],
			"name": "ongoingGameAsOpponent",
			"outputs": [
				{
					"internalType": "uint256",
					"name": "",
					"type": "uint256"
				}
			],
			"stateMutability": "view",
			"type": "function"
		},
		{
			"inputs": [
				{
					"internalType": "uint256",
					"name": "_id",
					"type": "uint256"
				},
				{
					"internalType": "uint8",
					"name": "_moveMark",
					"type": "uint8"
				}
			],
			"name": "opponentNextMove",
			"outputs": [],
			"stateMutability": "nonpayable",
			"type": "function"
		},
		{
			"inputs": [],
			"name": "owner",
			"outputs": [
				{
					"internalType": "address",
					"name": "",
					"type": "address"
				}
			],
			"stateMutability": "view",
			"type": "function"
		},
		{
			"inputs": [],
			"name": "partner",
			"outputs": [
				{
					"internalType": "address payable",
					"name": "",
					"type": "address"
				}
			],
			"stateMutability": "view",
			"type": "function"
		},
		{
			"inputs": [],
			"name": "partnerFeePending",
			"outputs": [
				{
					"internalType": "uint256",
					"name": "",
					"type": "uint256"
				}
			],
			"stateMutability": "view",
			"type": "function"
		},
		{
			"inputs": [],
			"name": "partnerFeeTotalUsed",
			"outputs": [
				{
					"internalType": "uint256",
					"name": "",
					"type": "uint256"
				}
			],
			"stateMutability": "view",
			"type": "function"
		},
		{
			"inputs": [],
			"name": "partnerFeeTransferThreshold",
			"outputs": [
				{
					"internalType": "uint256",
					"name": "",
					"type": "uint256"
				}
			],
			"stateMutability": "view",
			"type": "function"
		},
		{
			"inputs": [],
			"name": "pause",
			"outputs": [],
			"stateMutability": "nonpayable",
			"type": "function"
		},
		{
			"inputs": [
				{
					"internalType": "uint256",
					"name": "_id",
					"type": "uint256"
				}
			],
			"name": "pauseGame",
			"outputs": [],
			"stateMutability": "nonpayable",
			"type": "function"
		},
		{
			"inputs": [],
			"name": "paused",
			"outputs": [
				{
					"internalType": "bool",
					"name": "",
					"type": "bool"
				}
			],
			"stateMutability": "view",
			"type": "function"
		},
		{
			"inputs": [
				{
					"internalType": "uint256",
					"name": "_id",
					"type": "uint256"
				},
				{
					"internalType": "uint8",
					"name": "_prevMoveMark",
					"type": "uint8"
				},
				{
					"internalType": "bytes32",
					"name": "_prevSeedHashFromHash",
					"type": "bytes32"
				},
				{
					"internalType": "bytes32",
					"name": "_nextMoveHash",
					"type": "bytes32"
				}
			],
			"name": "playMove",
			"outputs": [],
			"stateMutability": "nonpayable",
			"type": "function"
		},
		{
			"inputs": [
				{
					"internalType": "address",
					"name": "",
					"type": "address"
				}
			],
			"name": "prizeWithdrawn",
			"outputs": [
				{
					"internalType": "uint256",
					"name": "",
					"type": "uint256"
				}
			],
			"stateMutability": "view",
			"type": "function"
		},
		{
			"inputs": [
				{
					"internalType": "uint256",
					"name": "_id",
					"type": "uint256"
				}
			],
			"name": "quitGame",
			"outputs": [],
			"stateMutability": "nonpayable",
			"type": "function"
		},
		{
			"inputs": [],
			"name": "raffleActivated",
			"outputs": [
				{
					"internalType": "bool",
					"name": "",
					"type": "bool"
				}
			],
			"stateMutability": "view",
			"type": "function"
		},
		{
			"inputs": [],
			"name": "raffleActivationParticipantsAmount",
			"outputs": [
				{
					"internalType": "uint256",
					"name": "",
					"type": "uint256"
				}
			],
			"stateMutability": "view",
			"type": "function"
		},
		{
			"inputs": [
				{
					"internalType": "uint256",
					"name": "",
					"type": "uint256"
				}
			],
			"name": "raffleParticipants",
			"outputs": [
				{
					"internalType": "address",
					"name": "",
					"type": "address"
				}
			],
			"stateMutability": "view",
			"type": "function"
		},
		{
			"inputs": [
				{
					"internalType": "address",
					"name": "",
					"type": "address"
				}
			],
			"name": "rafflePrizePending",
			"outputs": [
				{
					"internalType": "uint256",
					"name": "",
					"type": "uint256"
				}
			],
			"stateMutability": "view",
			"type": "function"
		},
		{
			"inputs": [
				{
					"internalType": "address",
					"name": "",
					"type": "address"
				}
			],
			"name": "rafflePrizeWithdrawn",
			"outputs": [
				{
					"internalType": "uint256",
					"name": "",
					"type": "uint256"
				}
			],
			"stateMutability": "view",
			"type": "function"
		},
		{
			"inputs": [],
			"name": "rafflePrizesWonTotal",
			"outputs": [
				{
					"internalType": "uint256",
					"name": "",
					"type": "uint256"
				}
			],
			"stateMutability": "view",
			"type": "function"
		},
		{
			"inputs": [
				{
					"internalType": "uint256",
					"name": "",
					"type": "uint256"
				}
			],
			"name": "raffleResults",
			"outputs": [
				{
					"internalType": "address",
					"name": "winner",
					"type": "address"
				},
				{
					"internalType": "uint256",
					"name": "prize",
					"type": "uint256"
				},
				{
					"internalType": "uint256",
					"name": "time",
					"type": "uint256"
				}
			],
			"stateMutability": "view",
			"type": "function"
		},
		{
			"inputs": [],
			"name": "rand",
			"outputs": [
				{
					"internalType": "uint256",
					"name": "",
					"type": "uint256"
				}
			],
			"stateMutability": "view",
			"type": "function"
		},
		{
			"inputs": [
				{
					"internalType": "address",
					"name": "",
					"type": "address"
				}
			],
			"name": "referralFeesPending",
			"outputs": [
				{
					"internalType": "uint256",
					"name": "",
					"type": "uint256"
				}
			],
			"stateMutability": "view",
			"type": "function"
		},
		{
			"inputs": [
				{
					"internalType": "address",
					"name": "",
					"type": "address"
				}
			],
			"name": "referralFeesWithdrawn",
			"outputs": [
				{
					"internalType": "uint256",
					"name": "",
					"type": "uint256"
				}
			],
			"stateMutability": "view",
			"type": "function"
		},
		{
			"inputs": [],
			"name": "renounceOwnership",
			"outputs": [],
			"stateMutability": "nonpayable",
			"type": "function"
		},
		{
			"inputs": [],
			"name": "runRaffle",
			"outputs": [],
			"stateMutability": "nonpayable",
			"type": "function"
		},
		{
			"inputs": [
				{
					"internalType": "uint256",
					"name": "_id",
					"type": "uint256"
				},
				{
					"internalType": "uint8",
					"name": "_row",
					"type": "uint8"
				}
			],
			"name": "showRowMoves",
			"outputs": [
				{
					"internalType": "uint8",
					"name": "",
					"type": "uint8"
				},
				{
					"internalType": "uint8",
					"name": "",
					"type": "uint8"
				}
			],
			"stateMutability": "view",
			"type": "function"
		},
		{
			"inputs": [
				{
					"internalType": "uint256",
					"name": "",
					"type": "uint256"
				}
			],
			"name": "topGames",
			"outputs": [
				{
					"internalType": "uint256",
					"name": "",
					"type": "uint256"
				}
			],
			"stateMutability": "view",
			"type": "function"
		},
		{
			"inputs": [],
			"name": "totalUsedInGame",
			"outputs": [
				{
					"internalType": "uint256",
					"name": "",
					"type": "uint256"
				}
			],
			"stateMutability": "view",
			"type": "function"
		},
		{
			"inputs": [],
			"name": "totalUsedReferralFees",
			"outputs": [
				{
					"internalType": "uint256",
					"name": "",
					"type": "uint256"
				}
			],
			"stateMutability": "view",
			"type": "function"
		},
		{
			"inputs": [
				{
					"internalType": "address",
					"name": "newOwner",
					"type": "address"
				}
			],
			"name": "transferOwnership",
			"outputs": [],
			"stateMutability": "nonpayable",
			"type": "function"
		},
		{
			"inputs": [],
			"name": "unpause",
			"outputs": [],
			"stateMutability": "nonpayable",
			"type": "function"
		},
		{
			"inputs": [
				{
					"internalType": "uint256",
					"name": "_id",
					"type": "uint256"
				}
			],
			"name": "unpauseGame",
			"outputs": [],
			"stateMutability": "payable",
			"type": "function"
		},
		{
			"inputs": [
				{
					"internalType": "uint16",
					"name": "_duration",
					"type": "uint16"
				}
			],
			"name": "updateGameMoveDuration",
			"outputs": [],
			"stateMutability": "nonpayable",
			"type": "function"
		},
		{
			"inputs": [
				{
					"internalType": "uint256",
					"name": "_minBet",
					"type": "uint256"
				}
			],
			"name": "updateMinBet",
			"outputs": [],
			"stateMutability": "nonpayable",
			"type": "function"
		},
		{
			"inputs": [
				{
					"internalType": "address payable",
					"name": "_partnerAddress",
					"type": "address"
				}
			],
			"name": "updatePartner",
			"outputs": [],
			"stateMutability": "nonpayable",
			"type": "function"
		},
		{
			"inputs": [
				{
					"internalType": "uint256",
					"name": "_transferThreshold",
					"type": "uint256"
				}
			],
			"name": "updatePartnerTransferThreshold",
			"outputs": [],
			"stateMutability": "nonpayable",
			"type": "function"
		},
		{
			"inputs": [
				{
					"internalType": "uint256",
					"name": "_amount",
					"type": "uint256"
				}
			],
			"name": "updateRaffleActivationParticipantsCount",
			"outputs": [],
			"stateMutability": "nonpayable",
			"type": "function"
		},
		{
			"inputs": [],
			"name": "withdrawBeneficiaryFee",
			"outputs": [],
			"stateMutability": "nonpayable",
			"type": "function"
		},
		{
			"inputs": [],
			"name": "withdrawDevFee",
			"outputs": [],
			"stateMutability": "nonpayable",
			"type": "function"
		},
		{
			"inputs": [
				{
					"internalType": "uint256",
					"name": "_maxLoop",
					"type": "uint256"
				}
			],
			"name": "withdrawGamePrizes",
			"outputs": [],
			"stateMutability": "nonpayable",
			"type": "function"
		},
		{
			"inputs": [],
			"name": "withdrawRafflePrizes",
			"outputs": [],
			"stateMutability": "nonpayable",
			"type": "function"
		},
		{
			"inputs": [],
			"name": "withdrawReferralFees",
			"outputs": [],
			"stateMutability": "nonpayable",
			"type": "function"
		}
	]
}